{"abi":[{"type":"function","name":"balanceOf","inputs":[{"name":"","type":"address","internalType":"address"}],"outputs":[{"name":"","type":"uint256","internalType":"uint256"}],"stateMutability":"view"},{"type":"function","name":"transfer","inputs":[{"name":"to","type":"address","internalType":"address"},{"name":"amount","type":"uint256","internalType":"uint256"}],"outputs":[{"name":"","type":"bool","internalType":"bool"}],"stateMutability":"nonpayable"},{"type":"function","name":"transferFrom","inputs":[{"name":"from","type":"address","internalType":"address"},{"name":"to","type":"address","internalType":"address"},{"name":"amount","type":"uint256","internalType":"uint256"}],"outputs":[{"name":"","type":"bool","internalType":"bool"}],"stateMutability":"nonpayable"}],"bytecode":{"object":"0x60806040523460195760405161030061001e823961030090f35b5f80fdfe60806040526004361015610011575f80fd5b5f3560e01c806323b872dd1461004057806370a082311461003b5763a9059cbb03610045576101ae565b610167565b6100bc565b5f80fd5b6001600160a01b031690565b90565b6001600160a01b0381165b0361004557565b9050359061007782610058565b565b80610063565b9050359061007782610079565b9091606082840312610045576100556100a5848461006a565b9360406100b5826020870161006a565b940161007f565b34610045576100ea6100d86100d236600461008c565b91610222565b60405191829182901515815260200190565b0390f35b90602082820312610045576100559161006a565b61005590610049906001600160a01b031682565b61005590610102565b61005590610116565b906101329061011f565b5f5260205260405f2090565b610055916008021c81565b90610055915461013e565b5f6101626100559282610128565b610149565b34610045576100ea61018261017d3660046100ee565b610154565b6040519182918290815260200190565b9190604083820312610045576100559060206100b5828661006a565b34610045576100ea6100d86101c4366004610192565b9061028d565b6100559081565b61005590546101ca565b6100556100556100559290565b906100556100556101f8926101db565b9055565b634e487b7160e01b5f52601160045260245ffd5b9190820180921161021d57565b6101fc565b909190610237610232825f610128565b6101d1565b90828210610285576102809361026561026b926102606102598761027a970390565b915f610128565b6101e8565b5f610128565b91610275836101d1565b610210565b906101e8565b600190565b505050505f90565b9061029b610232335f610128565b918183106102c35761026b61027a916102656102b985610280970390565b610260335f610128565b5050505f9056fea26469706673582212204433217faaa111497e03094df4e43473c157722fe0755d50c7235381b076480964736f6c634300081e0033","linkReferences":{}},"methodIdentifiers":{"balanceOf(address)":"70a08231","transfer(address,uint256)":"a9059cbb","transferFrom(address,address,uint256)":"23b872dd"},"id":43}