{"abi":[{"type":"constructor","inputs":[],"stateMutability":"nonpayable"},{"type":"function","name":"acceptOffer","inputs":[{"name":"tokenId","type":"uint256","internalType":"uint256"},{"name":"bidder","type":"address","internalType":"address"},{"name":"amount","type":"uint216","internalType":"uint216"}],"outputs":[],"stateMutability":"nonpayable"},{"type":"function","name":"advanceBase","inputs":[],"outputs":[],"stateMutability":"nonpayable"},{"type":"function","name":"approve","inputs":[{"name":"to","type":"address","internalType":"address"},{"name":"tokenId","type":"uint256","internalType":"uint256"}],"outputs":[],"stateMutability":"payable"},{"type":"function","name":"balanceOf","inputs":[{"name":"owner","type":"address","internalType":"address"}],"outputs":[{"name":"","type":"uint256","internalType":"uint256"}],"stateMutability":"view"},{"type":"function","name":"bestOffer","inputs":[{"name":"tokenId","type":"uint256","internalType":"uint256"}],"outputs":[{"name":"best","type":"tuple","internalType":"struct DegenerusGamepieces.BestOffer","components":[{"name":"bidder","type":"address","internalType":"address"},{"name":"amount","type":"uint216","internalType":"uint216"},{"name":"expiry","type":"uint40","internalType":"uint40"}]}],"stateMutability":"view"},{"type":"function","name":"burnFromGame","inputs":[{"name":"owner","type":"address","internalType":"address"},{"name":"tokenIds","type":"uint256[]","internalType":"uint256[]"}],"outputs":[],"stateMutability":"nonpayable"},{"type":"function","name":"buy","inputs":[{"name":"tokenId","type":"uint256","internalType":"uint256"}],"outputs":[],"stateMutability":"nonpayable"},{"type":"function","name":"cancelAsk","inputs":[{"name":"tokenId","type":"uint256","internalType":"uint256"}],"outputs":[],"stateMutability":"nonpayable"},{"type":"function","name":"cancelOffer","inputs":[{"name":"tokenId","type":"uint256","internalType":"uint256"}],"outputs":[],"stateMutability":"nonpayable"},{"type":"function","name":"currentBaseTokenId","inputs":[],"outputs":[{"name":"","type":"uint256","internalType":"uint256"}],"stateMutability":"view"},{"type":"function","name":"getApproved","inputs":[{"name":"tokenId","type":"uint256","internalType":"uint256"}],"outputs":[{"name":"","type":"address","internalType":"address"}],"stateMutability":"view"},{"type":"function","name":"isApprovedForAll","inputs":[{"name":"owner","type":"address","internalType":"address"},{"name":"operator","type":"address","internalType":"address"}],"outputs":[{"name":"","type":"bool","internalType":"bool"}],"stateMutability":"view"},{"type":"function","name":"name","inputs":[],"outputs":[{"name":"","type":"string","internalType":"string"}],"stateMutability":"view"},{"type":"function","name":"nextTokenId","inputs":[],"outputs":[{"name":"","type":"uint256","internalType":"uint256"}],"stateMutability":"view"},{"type":"function","name":"ownerOf","inputs":[{"name":"tokenId","type":"uint256","internalType":"uint256"}],"outputs":[{"name":"","type":"address","internalType":"address"}],"stateMutability":"view"},{"type":"function","name":"placeAsk","inputs":[{"name":"tokenId","type":"uint256","internalType":"uint256"},{"name":"price","type":"uint256","internalType":"uint256"},{"name":"expiry","type":"uint40","internalType":"uint40"}],"outputs":[],"stateMutability":"nonpayable"},{"type":"function","name":"placeOffer","inputs":[{"name":"tokenId","type":"uint256","internalType":"uint256"},{"name":"amount","type":"uint216","internalType":"uint216"},{"name":"expiry","type":"uint40","internalType":"uint40"}],"outputs":[],"stateMutability":"nonpayable"},{"type":"function","name":"processDormant","inputs":[{"name":"limit","type":"uint32","internalType":"uint32"}],"outputs":[{"name":"worked","type":"bool","internalType":"bool"}],"stateMutability":"nonpayable"},{"type":"function","name":"processPendingMints","inputs":[{"name":"playersToProcess","type":"uint32","internalType":"uint32"},{"name":"multiplier","type":"uint32","internalType":"uint32"},{"name":"rngWord","type":"uint256","internalType":"uint256"}],"outputs":[{"name":"finished","type":"bool","internalType":"bool"}],"stateMutability":"nonpayable"},{"type":"function","name":"purchase","inputs":[{"name":"params","type":"tuple","internalType":"struct PurchaseParams","components":[{"name":"quantity","type":"uint256","internalType":"uint256"},{"name":"kind","type":"uint8","internalType":"enum PurchaseKind"},{"name":"payKind","type":"uint8","internalType":"enum MintPaymentKind"},{"name":"payInCoin","type":"bool","internalType":"bool"},{"name":"affiliateCode","type":"bytes32","internalType":"bytes32"}]}],"outputs":[],"stateMutability":"payable"},{"type":"function","name":"purchaseCount","inputs":[],"outputs":[{"name":"","type":"uint32","internalType":"uint32"}],"stateMutability":"view"},{"type":"function","name":"purchaseCounts","inputs":[],"outputs":[{"name":"prePurchase","type":"uint32","internalType":"uint32"},{"name":"purchasePhase","type":"uint32","internalType":"uint32"}],"stateMutability":"view"},{"type":"function","name":"purchaseMapForAffiliate","inputs":[{"name":"buyer","type":"address","internalType":"address"},{"name":"quantity","type":"uint256","internalType":"uint256"}],"outputs":[],"stateMutability":"nonpayable"},{"type":"function","name":"queueRewardMints","inputs":[{"name":"buyer","type":"address","internalType":"address"},{"name":"quantity","type":"uint32","internalType":"uint32"}],"outputs":[],"stateMutability":"nonpayable"},{"type":"function","name":"safeTransferFrom","inputs":[{"name":"from","type":"address","internalType":"address"},{"name":"to","type":"address","internalType":"address"},{"name":"tokenId","type":"uint256","internalType":"uint256"}],"outputs":[],"stateMutability":"payable"},{"type":"function","name":"safeTransferFrom","inputs":[{"name":"from","type":"address","internalType":"address"},{"name":"to","type":"address","internalType":"address"},{"name":"tokenId","type":"uint256","internalType":"uint256"},{"name":"_data","type":"bytes","internalType":"bytes"}],"outputs":[],"stateMutability":"payable"},{"type":"function","name":"setApprovalForAll","inputs":[{"name":"operator","type":"address","internalType":"address"},{"name":"approved","type":"bool","internalType":"bool"}],"outputs":[],"stateMutability":"nonpayable"},{"type":"function","name":"supportsInterface","inputs":[{"name":"interfaceId","type":"bytes4","internalType":"bytes4"}],"outputs":[{"name":"","type":"bool","internalType":"bool"}],"stateMutability":"pure"},{"type":"function","name":"symbol","inputs":[],"outputs":[{"name":"","type":"string","internalType":"string"}],"stateMutability":"view"},{"type":"function","name":"tokenTraitsPacked","inputs":[{"name":"tokenId","type":"uint256","internalType":"uint256"}],"outputs":[{"name":"","type":"uint32","internalType":"uint32"}],"stateMutability":"pure"},{"type":"function","name":"tokenURI","inputs":[{"name":"tokenId","type":"uint256","internalType":"uint256"}],"outputs":[{"name":"","type":"string","internalType":"string"}],"stateMutability":"view"},{"type":"function","name":"tokensOwed","inputs":[{"name":"player","type":"address","internalType":"address"}],"outputs":[{"name":"","type":"uint32","internalType":"uint32"}],"stateMutability":"view"},{"type":"function","name":"totalSupply","inputs":[],"outputs":[{"name":"","type":"uint256","internalType":"uint256"}],"stateMutability":"view"},{"type":"function","name":"transferFrom","inputs":[{"name":"from","type":"address","internalType":"address"},{"name":"to","type":"address","internalType":"address"},{"name":"tokenId","type":"uint256","internalType":"uint256"}],"outputs":[],"stateMutability":"payable"},{"type":"event","name":"Approval","inputs":[{"name":"owner","type":"address","indexed":true,"internalType":"address"},{"name":"approved","type":"address","indexed":true,"internalType":"address"},{"name":"tokenId","type":"uint256","indexed":true,"internalType":"uint256"}],"anonymous":false},{"type":"event","name":"ApprovalForAll","inputs":[{"name":"owner","type":"address","indexed":true,"internalType":"address"},{"name":"operator","type":"address","indexed":true,"internalType":"address"},{"name":"approved","type":"bool","indexed":false,"internalType":"bool"}],"anonymous":false},{"type":"event","name":"AskCanceled","inputs":[{"name":"seller","type":"address","indexed":true,"internalType":"address"},{"name":"tokenId","type":"uint256","indexed":true,"internalType":"uint256"}],"anonymous":false},{"type":"event","name":"AskFilled","inputs":[{"name":"buyer","type":"address","indexed":true,"internalType":"address"},{"name":"seller","type":"address","indexed":true,"internalType":"address"},{"name":"tokenId","type":"uint256","indexed":false,"internalType":"uint256"},{"name":"price","type":"uint256","indexed":false,"internalType":"uint256"}],"anonymous":false},{"type":"event","name":"AskPlaced","inputs":[{"name":"seller","type":"address","indexed":true,"internalType":"address"},{"name":"tokenId","type":"uint256","indexed":true,"internalType":"uint256"},{"name":"price","type":"uint256","indexed":false,"internalType":"uint256"},{"name":"expiry","type":"uint256","indexed":false,"internalType":"uint256"}],"anonymous":false},{"type":"event","name":"MapPurchase","inputs":[{"name":"buyer","type":"address","indexed":true,"internalType":"address"},{"name":"quantity","type":"uint32","indexed":false,"internalType":"uint32"},{"name":"payInCoin","type":"bool","indexed":false,"internalType":"bool"},{"name":"usedClaimable","type":"bool","indexed":false,"internalType":"bool"},{"name":"costAmount","type":"uint256","indexed":false,"internalType":"uint256"},{"name":"bonusCoinCredit","type":"uint256","indexed":false,"internalType":"uint256"}],"anonymous":false},{"type":"event","name":"OfferCanceled","inputs":[{"name":"bidder","type":"address","indexed":true,"internalType":"address"},{"name":"tokenId","type":"uint256","indexed":true,"internalType":"uint256"}],"anonymous":false},{"type":"event","name":"OfferFilled","inputs":[{"name":"seller","type":"address","indexed":true,"internalType":"address"},{"name":"buyer","type":"address","indexed":true,"internalType":"address"},{"name":"tokenId","type":"uint256","indexed":false,"internalType":"uint256"},{"name":"amount","type":"uint256","indexed":false,"internalType":"uint256"}],"anonymous":false},{"type":"event","name":"OfferPlaced","inputs":[{"name":"bidder","type":"address","indexed":true,"internalType":"address"},{"name":"tokenId","type":"uint256","indexed":true,"internalType":"uint256"},{"name":"amount","type":"uint256","indexed":false,"internalType":"uint256"},{"name":"expiry","type":"uint256","indexed":false,"internalType":"uint256"}],"anonymous":false},{"type":"event","name":"TokenPurchase","inputs":[{"name":"buyer","type":"address","indexed":true,"internalType":"address"},{"name":"quantity","type":"uint32","indexed":false,"internalType":"uint32"},{"name":"payInCoin","type":"bool","indexed":false,"internalType":"bool"},{"name":"usedClaimable","type":"bool","indexed":false,"internalType":"bool"},{"name":"costAmount","type":"uint256","indexed":false,"internalType":"uint256"},{"name":"bonusCoinCredit","type":"uint256","indexed":false,"internalType":"uint256"}],"anonymous":false},{"type":"event","name":"Transfer","inputs":[{"name":"from","type":"address","indexed":true,"internalType":"address"},{"name":"to","type":"address","indexed":true,"internalType":"address"},{"name":"tokenId","type":"uint256","indexed":true,"internalType":"uint256"}],"anonymous":false},{"type":"error","name":"ApprovalCallerNotOwnerNorApproved","inputs":[]},{"type":"error","name":"E","inputs":[]},{"type":"error","name":"Expired","inputs":[]},{"type":"error","name":"InsufficientBalance","inputs":[]},{"type":"error","name":"InvalidQuantity","inputs":[]},{"type":"error","name":"InvalidToken","inputs":[]},{"type":"error","name":"NotTimeYet","inputs":[]},{"type":"error","name":"OnlyCoin","inputs":[]},{"type":"error","name":"PaymentFailed","inputs":[]},{"type":"error","name":"PriceZero","inputs":[]},{"type":"error","name":"RngNotReady","inputs":[]},{"type":"error","name":"TransferFromIncorrectOwner","inputs":[]},{"type":"error","name":"TransferToNonERC721ReceiverImplementer","inputs":[]},{"type":"error","name":"Unauthorized","inputs":[]},{"type":"error","name":"Zero","inputs":[]}],"bytecode":{"object":"0x608060405234610022576100116101b3565b604051615b8461047e8239615b8490f35b5f80fd5b6100336100336100339290565b90565b6100336001610026565b905f19905b9181191691161790565b9061005f61003361006692610026565b8254610040565b9055565b634e487b7160e01b5f52602260045260245ffd5b906001600283049216801561009e575b602083101461009957565b61006a565b91607f169161008e565b915f1960089290920291821b911b610045565b91906100cc61003361006693610026565b9083546100a8565b6100df915f916100bb565b565b8181106100ec575050565b806100f95f6001936100d4565b016100e1565b9190601f811161010e57505050565b61011e6100df935f5260205f2090565b906020601f840181900483019310610140575b6020601f9091010401906100e1565b9091508190610131565b61015f6009610159835461007e565b836100ff565b7f446567656e6572757300000000000000000000000000000000000000000000129055565b6100df9061014a565b61019c6003610159835461007e565b6006622223a760e91b019055565b6100df9061018d565b6101c56101be610036565b600261004f565b6101cf6003610184565b6101d960046101aa565b6100df738a791620dd6260079bf849dc5567adc3f2fdc3186101fb6001610026565b906102d7565b6100339081565b6100339054610201565b610033600160e11b610026565b9061022990610026565b5f5260205260405f2090565b61003390610249906001600160a01b031682565b6001600160a01b031690565b61003390610235565b61003390610255565b906102299061025e565b6100336001600160401b03610026565b6100336040610026565b610033906102a061029c6100339490565b9190565b901c90565b0190565b610033906102ba61029c6100339490565b901b90565b6100339081906001600160a01b031681565b60010190565b91906102e25f610208565b906001936102f06001610026565b820361046957610327610317610304610212565b4260a01b176001600160a01b0384161790565b61032285600561021f565b61004f565b61033a610335826006610267565b610208565b610342610271565b918282169061034f610281565b928461035b858361028b565b1661036d61036988866102a5565b9490565b84108015610460575b6104465761038761029c88836102a5565b81108015610457575b610446576103c1856103d2956103cd946103b98a6103b46103d79b6103de9d6102a9565b171990565b1617926102a9565b17610322836006610267565b610255565b6102bf565b91836102a5565b91936001815b6103f8575b5050506100df9192505f61004f565b1561042e575b5f9085835f7fddf252ad1be2c89b69c2b068fc378daa952ba7f163c4a11628f55a4df523b3ef8180a490816103e4565b93610438906102d1565b938285036103fe57806103e9565b6312577edd60e31b5f908152600490fd5b50858111610390565b50858411610376565b6103276103176104785f610026565b61030456fe6102006040526004361015610012575f80fd5b5f3560e01c806301ffc9a71461023157806306fdde031461022c578063081812fc14610227578063095ea7b3146102225780630c07c7641461021d578063112e9b541461021857806311e50e4d1461021357806314ad5b351461020e5780631628e0f51461020957806318160ddd146102045780631dc5ba65146101ff5780631f827ad6146101fa57806323b872dd146101f55780632b85ed9c146101f05780633d5dff53146101eb57806341c06f7c146101e657806342842e0e146101e15780636352211e146101dc578063706f7b4d146101d757806370a08231146101d257806375794a3c146101cd57806395d89b41146101c8578063a22cb465146101c3578063a8808c20146101be578063adbb7ce5146101b9578063aefb6b1b146101b4578063b88d4fde146101af578063c87b56dd146101aa578063d0d43726146101a5578063d96a094a146101a0578063e985e9c51461019b578063ea1a09e014610196578063ef706adf146101915763feaa238a0361023657610ae1565b610aa6565b610a78565b610a38565b6109fd565b6109d6565b61097e565b610967565b61083d565b6107bb565b6107a2565b610789565b610736565b61071b565b610700565b6106e5565b6106ca565b6106b6565b61069d565b610659565b61062a565b610616565b6105da565b61059c565b610548565b610530565b610515565b6104b6565b61049d565b61043a565b6103d5565b610361565b610307565b610277565b5f80fd5b6001600160e01b031981165b0361023657565b9050359061025a8261023a565b565b90602082820312610236576102709161024d565b90565b9052565b34610236576102a561029261028d36600461025c565b610b1a565b6040515b91829182901515815260200190565b0390f35b5f91031261023657565b90825f9392825e0152565b6102df6102e86020936102f2936102d3815190565b80835293849260200190565b958691016102b3565b601f01601f191690565b0190565b6020808252610270929101906102be565b34610236576103173660046102a9565b6102a5610322610c7c565b604051918291826102f6565b80610246565b9050359061025a8261032e565b906020828203126102365761027091610334565b6001600160a01b031690565b34610236576102a561037c610377366004610341565b610ca9565b604051918291826001600160a01b03909116815260200190565b6001600160a01b038116610246565b9050359061025a82610396565b9190604083820312610236576102709060206103ce82866103a5565b9401610334565b6103e96103e33660046103b2565b90610d4c565b604051005b6001600160d81b038116610246565b9050359061025a826103ee565b9091606082840312610236576102706104238484610334565b93604061043382602087016103a5565b94016103fd565b34610236576103e961044d36600461040a565b91610f55565b64ffffffffff8116610246565b9050359061025a82610453565b9091606082840312610236576102706104868484610334565b9360406104968260208701610334565b9401610460565b34610236576103e96104b036600461046d565b91611269565b34610236576102a56104d16104cc366004610341565b6113bf565b6040519182918263ffffffff909116815260200190565b63ffffffff8116610246565b9050359061025a826104e8565b9060208282031261023657610270916104f4565b34610236576102a561029261052b366004610501565b61146b565b34610236576103e9610543366004610341565b6116bb565b34610236576105583660046102a9565b6102a5610563611751565b6040519182918290815260200190565b90916060828403126102365761027061058c84846104f4565b9360406103ce82602087016104f4565b34610236576102a56102926105b2366004610573565b91611ec3565b908160a09103126102365790565b9060a08282031261023657610270916105b8565b6103e96105e83660046105c6565b611f74565b90916060828403126102365761027061060684846103a5565b9360406103ce82602087016103a5565b6103e96106243660046105ed565b91611fd1565b346102365761063a3660046102a9565b6102a56104d16121f4565b9060208282031261023657610270916103a5565b34610236576102a56104d161066f366004610645565b6121fe565b90916060828403126102365761027061068d8484610334565b93604061049682602087016103fd565b34610236576103e96106b0366004610674565b91612331565b6103e96106c43660046105ed565b9161250f565b34610236576102a561037c6106e0366004610341565b612523565b34610236576106f53660046102a9565b6102a561056361253a565b34610236576102a5610563610716366004610645565b612553565b346102365761072b3660046102a9565b6102a56105636125c2565b34610236576107463660046102a9565b6102a56103226125cb565b801515610246565b9050359061025a82610751565b91906040838203126102365761027090602061078282866103a5565b9401610759565b34610236576103e961079c366004610766565b906125d5565b34610236576103e96107b53660046103b2565b906126b9565b34610236576107cb3660046102a9565b6103e9612898565b909182601f830112156102365781359167ffffffffffffffff831161023657602001926020830284011161023657565b9190916040818403126102365761081a83826103a5565b92602082013567ffffffffffffffff81116102365761083992016107d3565b9091565b34610236576103e9610850366004610803565b916129b4565b634e487b7160e01b5f52604160045260245ffd5b90601f01601f1916810190811067ffffffffffffffff82111761088c57604052565b610856565b9061025a61089e60405190565b928361086a565b67ffffffffffffffff811161088c57602090601f01601f19160190565b90825f939282370152565b909291926108e26108dd826108a5565b610891565b93818552818301116102365761025a9160208501906108c2565b9080601f8301121561023657816020610270933591016108cd565b906080828203126102365761092c81836103a5565b9261093a82602085016103a5565b926109488360408301610334565b92606082013567ffffffffffffffff81116102365761027092016108fc565b6103e9610975366004610917565b929190916129bf565b34610236576102a5610322610994366004610341565b612cf5565b60608101929161025a919080516001600160a01b031682526020808201516001600160d81b03169083015260409081015164ffffffffff16910152565b34610236576102a56109f16109ec366004610341565b612ff1565b60405191829182610999565b34610236576103e9610a10366004610341565b613272565b919060408382031261023657610270906020610a3182866103a5565b94016103a5565b34610236576102a5610292610a4e366004610a15565b90613394565b63ffffffff909116815260408101929161025a916020905b019063ffffffff169052565b3461023657610a883660046102a9565b610a906133e0565b906102a5610a9d60405190565b92839283610a54565b34610236576103e9610ab9366004610341565b6133f5565b919060408382031261023657610270906020610ada82866103a5565b94016104f4565b34610236576103e9610af4366004610abe565b9061355c565b610b0d610b076102709290565b60e01b90565b6001600160e01b03191690565b610b276301ffc9a7610afa565b6001600160e01b0319821614908115610b69575b8115610b45575090565b9050610b65610b57635b5e139f610afa565b916001600160e01b03191690565b1490565b9050610b786380ac58cd610afa565b6001600160e01b031982161490610b3b565b634e487b7160e01b5f52602260045260245ffd5b9060016002830492168015610bbe575b6020831014610bb957565b610b8a565b91607f1691610bae565b80545f939291610be4610bda83610b9e565b8085529360200190565b9160018116908115610c335750600114610bfd57505050565b610c0e91929394505f5260205f2090565b915f925b818410610c1f5750500190565b805484840152602090930192600101610c12565b92949550505060ff1916825215156020020190565b9061027091610bc8565b9061025a610c6c92610c6360405190565b93848092610c48565b038361086a565b61027090610c52565b6102706003610c73565b6102706102706102709290565b90610c9d90610c86565b5f5260205260405f2090565b610cb9610cb582613566565b1590565b610cd857610ccb610270916007610c93565b546001600160a01b031690565b63c1ab6dc160e01b5f908152600490fd5b6103556102706102709290565b61027090610355906001600160a01b031682565b61027090610cf6565b906001600160a01b03905b9181191691161790565b61027090610d0a565b90610d41610270610d4892610d28565b8254610d13565b9055565b90610d66610d61610d5c8361361f565b610ce9565b610d0a565b6001600160a01b03811633141580610ded575b610ddc57610da6610da0610dac92610d9b86610d96876007610c93565b610d31565b610d28565b93610d28565b91610c86565b917f8c5be1e5ebec7d5bd14f71427d1e84f3dd0314c0f7b2291e5b200ac8c7c3b925610dd760405190565b5f90a4565b6367d9dca160e11b5f908152600490fd5b50610dfb610cb53383613394565b610d79565b90610c9d90610d28565b610270905b6001600160d81b031690565b6102709054610e0a565b6102709060d81c5b64ffffffffff1690565b6102709054610e25565b6102706040610891565b9061025a610e7f5f610e5b610e41565b94610e79610e6a838301610e1b565b6001600160d81b031687840152565b01610e37565b64ffffffffff166020840152565b61027090610e4b565b610e0f6102706102709290565b6102706102706102709264ffffffffff1690565b610270732279b7a0a67db372996a5fab50d91eaa73d2ebe6610d28565b9050519061025a8261032e565b906020828203126102365761027091610ed4565b6040513d5f823e3d90fd5b6102709081906001600160d81b031681565b634e487b7160e01b5f525f60045260245ffd5b905f03610f31575f9055565b610f12565b61027390610f00565b90815260408101929161025a9160200190610f36565b91610f5f8361372a565b610f7b610f7683610f71866010610c93565b610e00565b610e8d565b80516001600160d81b0316610f9f610f925f610e96565b916001600160d81b031690565b148015611135575b6110cf576020015164ffffffffff16610fc1425b91610ea3565b1061112457610fd1610d9b610eb7565b6020610fdc60405190565b6370a0823160e01b81526001600160a01b038516600482015291829060249082905afa90811561111f575f916110f0575b5061101e61101a83610f00565b9190565b106110df5761102c8361361f565b90611039610d6183610ce9565b61104b335b916001600160a01b031690565b036110cf576110a87fd3fc768b83fbb05b9253419b931d9f6b80df920e2e98f584822567aab2c013e09261108d5f61108887610f718a6010610c93565b610f25565b6110a061109984610f00565b3387613794565b8585336138a2565b6110b4610da033610d28565b936110ca6110c160405190565b92839283610f3f565b0390a3565b6282b42960e81b5f908152600490fd5b631e9acf1760e31b5f908152600490fd5b611112915060203d602011611118575b61110a818361086a565b810190610ee1565b5f61100d565b503d611100565b610ef5565b630407b05b60e31b5f908152600490fd5b5080516001600160d81b03166111536001600160d81b038416610f92565b1415610fa7565b610270678ac7230489e80000610c86565b6001600160a01b03909116815260408101929161025a9160200152565b0152565b6102706060610891565b9064ffffffffff60a01b9060a01b610d1e565b610e2d6102706102709264ffffffffff1690565b906111cd610270610d48926111a9565b8254611196565b905f1990610d1e565b906111ed610270610d4892610c86565b82546111d4565b61025a91600190611237906040906112328561122061121a84516001600160a01b031690565b82610d31565b602083015164ffffffffff16906111bd565b015190565b91016111dd565b9061025a916111f4565b61027390610ea3565b90815260408101929161025a916020905b0190611248565b90916112748261372a565b61127d5f610c86565b83146113ae574261128d82610ea3565b10611124576112a1610d61610d5c8461361f565b6112aa3361103e565b036110cf576112ba610d9b610eb7565b906112c361115a565b91803b15610236576112f85f939184926112dc60405190565b958693849283919063befe68c760e01b8352336004840161116b565b03925af191821561111f577fbb9d7122c793a997b64ed4cef253901f39dcea9356e519665a55d8778a8364c892611389575b5061136161133661118c565b33815264ffffffffff83166020820152611351866040830152565b61135c85600f610c93565b61123e565b61137361136d33610d28565b93610c86565b936110ca61138060405190565b92839283611251565b6113a1905f5b611399818361086a565b8101906102a9565b5f61132a565b503d61138f565b637294708f60e11b5f908152600490fd5b61027090613a27565b6102709081565b61027090546113c8565b6113e66102706102709290565b63ffffffff1690565b6102706102706102709263ffffffff1690565b610270610dac6113d9565b634e487b7160e01b5f52601160045260245ffd5b9190820180921161142e57565b61140d565b610270600160e01b610c86565b61027090610ce9565b6102709081906001600160a01b031681565b6102706001600160a01b03610c86565b9061147660136113cf565b908161148260146113cf565b9361148c5f610c86565b8214801561165a575b611651576114a25f6113d9565b63ffffffff82160361164257506114bf6114ba611402565b6113ef565b935b6114d46114cd5f6113cf565b9583611421565b94818611611639575b808611611631575b506114f360159594956113cf565b945b845b8110156115dc5761151161150c826005610c93565b6113cf565b958661151f61101a5f610c86565b146115cc575061154e816114f792885b6115385f610c86565b811415806115af575b611555575b505060010190565b90506114f5565b610d6161156191610ce9565b61156d6103555f611440565b6001600160a01b038216146115465761158e6115895f92610d0a565b611449565b61159661145b565b165f516020615b2f5f395f51905f528280a4805f611546565b506115b8611433565b81166115c661101a5f610c86565b14611541565b955061154e816114f7928861152f565b93509061160061101a9261027061160a95976115f98860136111dd565b60156111dd565b84101561160f5790565b141590565b61027061161b5f610c86565b6116268160136111dd565b6115f98160146111dd565b94505f6114e5565b945080946114dd565b61164b906113ef565b936114c1565b50509150505f90565b5084821015611495565b915f1960089290920291821b911b610d1e565b9190611688610270610d4893610c86565b908354611664565b61025a915f91611677565b5f80825561025a91600101611690565b905f03610f315761025a9061169b565b6116c48161372a565b6116e45f6116d661027084600f610c93565b01546001600160a01b031690565b6116ed3361103e565b036110cf576117065f61170183600f610c93565b6116ab565b611712610da633610d28565b907f1e680b0c19a2b2f0773480e9b14d3f2c3b5c62c86dbfc2af5e4b959a6b18683461173d60405190565b80806110ca565b9190820391821161142e57565b61175c610cb5613a81565b61177c5761027061176c5f6113cf565b61177660016113cf565b90611744565b6102706001610c86565b6102707359b670e9fa9d0a427751af201d676719a970857b610d28565b9291906117b4610355610d9b611786565b33036117c35761027093611a20565b6312577edd60e31b5f908152600490fd5b634e487b7160e01b5f52601260045260245ffd5b905b9081156117f5570690565b6117d4565b61027060d26113d9565b6102709060201c6113e6565b6102709054611804565b634e487b7160e01b5f52603260045260245ffd5b805482101561184e576118466001915f5260205f2090565b910201905f90565b61181a565b610270916008021c610355565b906102709154611853565b610270906113e6565b610270905461186b565b610270610bb86113d9565b61189e9063ffffffff165b9163ffffffff1690565b90039063ffffffff821161142e57565b905b9081156117f5570490565b6118ca9063ffffffff16611894565b029063ffffffff821691820361142e57565b6118eb9063ffffffff16611894565b019063ffffffff821161142e57565b9063ffffffff90610d1e565b6113e66102706102709263ffffffff1690565b90611929610270610d4892611906565b82546118fa565b8181029291811591840414171561142e57565b81811061194e575050565b8061195b5f600193611690565b01611943565b91909182821061197057505050565b61025a929161198390915f5260205f2090565b9182019101611943565b90600160401b811161088c57816119a561025a935490565b90828155611961565b5f61025a9161198d565b905f03610f315761025a906119ae565b9067ffffffff000000009060201b610d1e565b906119eb610270610d4892611906565b82546119c8565b906bffffffff00000000000000009060401b610d1e565b90611a19610270610d4892611906565b82546119f2565b50600b805490949391929091611a36600e6113cf565b9384848110611a9757505050505050600191825b611a515750565b5f611a5b916119b8565b611a6e611a675f610c86565b600e6111dd565b61025a611a7a5f6113d9565b611a85816009611919565b611a908160096119db565b6009611a09565b611ae29060019386611aa96001610c86565b811115611eb257611ab9916117e8565b925b611ac45f6113d9565b63ffffffff821603611ea95750611adc6114ba6117fa565b90611421565b90848211611ea1575b5f908192611af85f6113d9565b63ffffffff871614611e8f575b84959493611b136009611810565b611b1f6118945f6113d9565b14945b611b49575b5050505050505061101a611b409161027084600e6111dd565b10159182611a4a565b611b57829394959697999290565b821015611e8757611b87611b81611b6e8685611421565b8a8181811015611e76575b50508d61182e565b90611860565b90600c90611b9d611b988484610e00565b611874565b90611ba75f6113d9565b63ffffffff831614611e5f57611bc481611bbf61187e565b611889565b90611bce5f6113d9565b63ffffffff831614611e53578a918a91600d90611bee611b988984610e00565b9263ffffffff841663ffffffff88161115611e4557611c0d8488611889565b8515611e3e5780955b15611e38575083955b8d95611c2a5f6113d9565b63ffffffff821603611dd4575b50611c45611c4c91876118bb565b8092611889565b958d96611c585f6113d9565b63ffffffff8216141580611dbc575b611d8b575b505085611c78916118dc565b90611c825f6113d9565b63ffffffff831614611d7b5794611cf994611cf1948f9e9d9c9b9a999794611cc485611cfe9b97611cbf8e611cb9611ceb9a6113ef565b90613b01565b6118dc565b9f15611d4257838b611cd55f6113d9565b63ffffffff831603611d23575b505050506118dc565b90611889565b938492610e00565b611919565b611d0a6118945f6113d9565b03611d1d57600101975b95949386611b22565b97611b27565b611d33611cf992611d3995611889565b92610e00565b5f80838b611ce2565b828b611d4d5f6113d9565b63ffffffff831603611d6257505050506118dc565b611d33611cf992611d7295611889565b5f80828b611ce2565b5050505050505050819850611b27565b611c78929750611d9e8263ffffffff1690565b63ffffffff82161115611db557505b95905f611c6c565b9050611dad565b50611dc65f6113d9565b63ffffffff83161415611c67565b611def611de0846113ef565b611de9846113ef565b906118ae565b611df85f610c86565b8103611e05575b50611c37565b611c4c92975090611c4591611e19826113ef565b811115611e2957505b9691611dff565b611e3391506113d9565b611e22565b95611c1f565b8495611c16565b611e4e5f6113d9565b611c0d565b50505050819850611b27565b969594936001019250611e70915050565b97611d14565b611e809250611744565b8a5f611b79565b819850611b27565b9450611e9b60016113d9565b94611b05565b849150611aeb565b611adc906113ef565b5050611ebd5f610c86565b92611abb565b6102709291905f6117a3565b6002111561023657565b9050359061025a82611ecf565b6003111561023657565b9050359061025a82611ee6565b919060a08382031261023657611f62906080611f1960a0610891565b94611f248382610334565b8652611f338360208301611ed9565b6020870152611f458360408301611ef0565b6040870152611f578360608301610759565b606087015201610334565b6080830152565b610270903690611efd565b611f8061025a91611f69565b3333613cad565b916001600160a01b0360089290920291821b911b610d1e565b9190611fb1610270610d4893610d28565b908354611f87565b61025a915f91611fa0565b610270600160e11b610c86565b611fda8361361f565b611fe6610d6182610ce9565b611ff86001600160a01b03841661103e565b036121cb576120065f611440565b6001600160a01b0381166001600160a01b038516146121e35761202d610ccb866007610c93565b9061203c610355610d9b611786565b33146121db575b6001600160a01b0384163390811490831417156121b8575b61212c93611589936121269361207d61103e611589956001600160a01b031690565b0361219f575b6120925f6117018a600f610c93565b6120b86120a0836006610e00565b6120b26120ac826113cf565b5f190190565b906111dd565b6120d86120c6886006610e00565b6120b26120d2826113cf565b60010190565b6120e0611fc4565b600591906121076001600160a01b038a164260a01b8317176121028c86610c93565b6111dd565b6121196121135f610c86565b91831690565b14612140575b5050610d0a565b92610d0a565b905f516020615b2f5f395f51905f525f80a4565b61215261214d6001610c86565b8a0190565b9161216061150c8483610c93565b61216c61101a5f610c86565b14612178575b5061211f565b6121846102705f6113cf565b8314612172576121979261210291610c93565b5f8080612172565b6121b35f6121ae8a6007610c93565b611fb9565b612083565b6121c5610cb53386613394565b1561205b575b62a1148160e81b5f908152600490fd5b339150612043565b63f456040360e01b5f908152600490fd5b6102706009611874565b611b986102709161220c5f90565b50600c610e00565b906001600160d81b0390610d1e565b61027090610e0f906001600160d81b031682565b90612247610270610d4892612223565b8254612214565b906001600160d81b03199060d81b610d1e565b90612271610270610d48926111a9565b825461224e565b61025a916122a99060209061229d61229782516001600160d81b031690565b85612237565b015164ffffffffff1690565b90612261565b9061025a91612278565b610270905b60ff1690565b61027090546122b9565b9060ff90610d1e565b906122e7610270610d4892151590565b82546122ce565b90815491600160401b83101561088c578261231191600161025a9501815561182e565b90611fa0565b91602061025a92949361126260408201965f830190610f36565b909161233c8261372a565b6123455f610e96565b6001600160d81b038416146113ae574261235e82610ea3565b106111245761236e610d9b610eb7565b9061237860405190565b6370a0823160e01b8152336004820152602081602481865afa90811561111f575f916124cd575b506123ac61101a86610f00565b106110df576123b961115a565b91803b15610236576123d25f939184926112dc60405190565b03925af191821561111f577fd37ceaac9ec103391429007b17a26ddd1669b4442108e931f9d1918a8714659c926124b8575b50612443612410610e41565b6001600160d81b038616815264ffffffffff8316602082015261243e612437866010610c93565b3390610e00565b6122af565b61245c610cb5612457612437866012610c93565b6122c4565b612483575b61246d61136d33610d28565b936110ca61247a60405190565b92839283612317565b61249b6001612496612437866012610c93565b6122d7565b6124b36124ac610270856011610c93565b33906122ee565b612461565b6124c7905f611399818361086a565b5f612404565b6124e6915060203d6020116111185761110a818361086a565b5f61239f565b906124f96108dd836108a5565b918252565b6102705f6124ec565b6102706124fe565b909161025a9261251d612507565b926129bf565b610d61610d5c610270926125345f90565b5061361f565b610270613d5b565b61027067ffffffffffffffff610c86565b61255f6103555f611440565b6001600160a01b038216146121e357612579610cb5613a81565b6125975761150c61258b916006610e00565b612593612542565b1690565b6125b4738a791620dd6260079bf849dc5567adc3f2fdc31861103e565b1461177c576102705f610c86565b6102705f6113cf565b6102706004610c73565b6125e88261249683610f71336008610e00565b7f17307eab39ab6107e8899845ad3d59bd9653f200f220920489ca2b5937696c316110ca612618610da033610d28565b9361029660405190565b9050519061025a82610751565b906020828203126102365761027091612622565b6001600160a01b03909116815260408101929161025a91602090610a6c565b61027390610c86565b9095949261025a946126a86126b29261269f60809661269660a088019c5f89019063ffffffff169052565b15156020870152565b15156040850152565b6060830190612662565b0190612662565b73610178da211fef7d417bc0e6fed39f05609ad78833036127f9576126df610d9b611786565b916126e960405190565b630f3b90b560e01b8152602081600481875afa90811561111f575f916127ca575b506127b957612718906113d9565b91803b15610236575f61272a60405190565b918290631190bc7b60e11b8252818381612748898960048401612643565b03925af1801561111f577fb29af0e8b3e29e2bb963df9d1284f797e0974014963cb7c5a600fe06b34af66792600192612786926127a4575b50610d28565b9261279f5f808461279660405190565b9586958661266b565b0390a2565b6127b3905f611399818361086a565b5f612780565b63bb3e844f60e01b5f908152600490fd5b6127ec915060203d6020116127f2575b6127e4818361086a565b81019061262f565b5f61270a565b503d6127da565b6353d2169f60e01b5f908152600490fd5b612818610355610d9b611786565b33036117c35761025a61025a61287f61283160026113cf565b61283a5f6113cf565b9081811015612886576115f961150c8261285861286a9460136111dd565b6128638560146111dd565b6005610c93565b6128758160026111dd565b6117766001610c86565b60016111dd565b5061289361161b5f610c86565b61286a565b61025a61280a565b91906128b0610355610d9b611786565b33036117c35761025a9261291d565b919081101561184e576020020190565b356102708161032e565b6102705f610c86565b6102706080610c86565b610270906128fd61101a6102709490565b901b90565b61027061290f6001610c86565b6129176128e2565b906128ec565b925f91829184919061292d613d5b565b94935b865b8510156129905761294c6129478686866128bf565b6128cf565b90868210610cd85761295f6102706128d9565b8214610cd85761298161298891612979612932948c613d65565b6102f2612902565b9560010190565b949050612930565b94509594505050506129a15f610c86565b81036129ab575050565b61025a91613d8f565b9061025a92916128a0565b919290926129ce818585611fd1565b833b6129dc61101a5f610c86565b036129e8575b50505050565b6129f593610cb593613eaf565b612a02575f8080806129e2565b6368d2bf6b60e11b5f908152600490fd5b67ffffffffffffffff811161088c5760200290565b6108dd61027091612a13565b369037565b9061025a612a4f612a4984612a28565b93612a13565b83612a34565b6102706004612a39565b610270739a9f2ccfde556a7e9ff0848998aa4a0cfd8863ae610d28565b90929192612a8c6108dd826108a5565b93818552818301116102365761025a9160208501906102b3565b9080601f8301121561023657815161027092602001612a7c565b9060208282031261023657815167ffffffffffffffff8111610236576102709201612aa6565b612af261101a60049390565b5f915b838310612b025750505050565b612b22612b1b600192845163ffffffff16815260200190565b9260200190565b92019190612af5565b90815260c08101939261025a929091604091612b4b906020830190612662565b0190612ae6565b6122be6102706102709263ffffffff1690565b6122be6102706102709290565b6113e690612b866118946102709460ff1690565b901c90565b61ffff8116610246565b9050519061025a82612b8b565b62ffffff8116610246565b9050519061025a82612ba2565b9050519061025a826104e8565b90929192612bd76108dd82612a13565b93602085920283019281841161023657915b838310612bf65750505050565b60208091612c048486612bba565b815201920191612be9565b9080601f8301121561023657600461027092612bc7565b909160c08284031261023657610270612c3f8484612b95565b936040612c4f8260208701612bad565b9401612c0f565b612c6261101a60049390565b5f915b838310612c725750505050565b612c88612b1b600192845160ff16815260200190565b92019190612c65565b60808101929161025a9190612c56565b6102706102706102709261ffff1690565b610270906128fd61101a6102709460ff1690565b6102706102706102709262ffffff1690565b90815260c08101939261025a929091604091612b4b906020830152565b612cfe8161361f565b50612d0a6102706128d9565b8114612ed95780612d1d612dd692613a27565b9060c0612d2983612b52565b612dae612d47612d42612d3c6008612b65565b87612b72565b612b52565b612da4612d60612d42612d5a6010612b65565b89612b72565b612d9a612d79612d42612d736018612b65565b8b612b72565b93612d90612d876004612a28565b60ff9098168852565b60ff166020870152565b60ff166040850152565b60ff166060830152565b612db9610d9b611786565b604051958692839182916323506fa960e11b835260048301612c91565b03915afa90811561111f57612e5f935f938485928695612e90575b50612e27612e1d612e17612e07612e2d94612ca1565b612e116038612b65565b90612cb2565b94612cc6565b612e116020612b65565b916113ef565b911717612e3b610d9b612a5f565b91612e4560405190565b95869485938493630d7cc3a360e11b855260048501612cd8565b03915afa90811561111f575f91612e74575090565b61027091503d805f833e612e88818361086a565b810190612ac0565b612e179550612e079350612e2d9150612e1d612ec6612e279260c03d60c011612ed2575b612ebe818361086a565b810190612c26565b98509550925050612df1565b503d612eb4565b5f612e5f91612ee6612a55565b9082612ef3610d9b612a5f565b91612efd60405190565b95869485938493630d7cc3a360e11b855260048501612b2b565b612f1f61118c565b5f80825260208201819052604082015290565b610270612f17565b90612f5d612f53612f49845490565b8084529260200190565b925f5260205f2090565b905f5b818110612f6d5750505090565b909192612fa2612f9b600192612f8a87546001600160a01b031690565b6001600160a01b0316815260200190565b9460010190565b929101612f60565b9061027091612f3a565b9061025a610c6c92612fc560405190565b93848092612faa565b61027090612fb4565b90612fe0825190565b81101561184e576020809102010190565b90612ffa612f32565b916130048161372a565b613017613012826011610c93565b612fce565b8051925f5b845b8110156131df5761303f6130328285612fd7565b516001600160a01b031690565b613051610f7682610f71886010610c93565b80516001600160d81b0316613068610f925f610e96565b146131d0576020810190613081825164ffffffffff1690565b61308a42610fbb565b106131255761309a610d9b610eb7565b9060206130a660405190565b6370a0823160e01b81526001600160a01b038616600482015292839060249082905afa91821561111f575f926131ae575b50906130f561101a6130f084516001600160d81b031690565b610f00565b106131255780516001600160d81b031661311f610f92610e0f60208d01516001600160d81b031690565b1161313c575b50505061313561301e9160010190565b905061301c565b61301e939850613135929161319861316d6131616131a694516001600160d81b031690565b925164ffffffffff1690565b9161318861317961118c565b6001600160a01b039096168652565b6001600160d81b03166020850152565b64ffffffffff166040830152565b96915f613125565b5f9192506131c99060203d81116111185761110a818361086a565b91906130d7565b505061313561301e9160010190565b5092505050565b6102709060a01c610e2d565b61027090546131e6565b9061025a61324f600161320d61118c565b9461322f61322282546001600160a01b031690565b6001600160a01b03168752565b61324961323b826131f2565b64ffffffffff166020880152565b016113cf565b6040840152565b610270906131fc565b90815260408101929161025a9160200152565b61327b8161372a565b61328e61328982600f610c93565b613256565b80516001600160a01b03166132a861103e6103555f611440565b146110cf5760408101906132ba825190565b6132c661101a5f610c86565b146113ae57602081015164ffffffffff166132e042610fbb565b1061112457516001600160a01b0316906132f98361361f565b613305610d6182610ce9565b6133176001600160a01b03851661103e565b036110cf577f0be847664affed49b1630dac88bb351a3e7633934b4b79063a9197bc545ed8009161336e613372926133545f61170189600f610c93565b61336661335f845190565b8733613794565b8633876138a2565b5190565b61337e610da033610d28565b936110ca61338b60405190565b9283928361325f565b6133a2610355610d9b611786565b6001600160a01b038316146133c35761027091610f71612457926008610e00565b5050600190565b6102709060401c6113e6565b61027090546133ca565b6133ea6009611810565b9061027060096133d6565b6133fe8161372a565b6134195f613413610270612437856010610c93565b01610e1b565b613425610f925f610e96565b146110cf5761343c5f611088612437846010610c93565b613448610da633610d28565b907f871dc347e88ef58454c9f69d734469ed3f59dd31fd0d6b7960d092da71f4454d61173d60405190565b90613482610355610d9b611786565b33036117c35761025a916134bb565b60ff8116610246565b9050519061025a82613491565b90602082820312610236576102709161349a565b6134c45f6113d9565b63ffffffff831614613558576134db610d9b611786565b9160206134e760405190565b63d1f9c24d60e01b815293849060049082905afa801561111f5761025a935f91613529575b5061352161351a6002612b65565b9160ff1690565b141591613f67565b61354b915060203d602011613551575b613543818361086a565b8101906134a7565b5f61350c565b503d613539565b5050565b9061025a91613473565b5f613572610cb5613a81565b613610576135816102706128d9565b82146133c357613592610270613d5b565b821061360a576135a46102705f6113cf565b82106135b05750505f90565b505b6135c061150c826005610c93565b806135cd61101a5f610c86565b036135ef57506135dc5f610c86565b81146135ea575f19016135b2565b505f90565b9050610b656135fc611433565b6136055f610c86565b921690565b50505f90565b50610b6561101a6102706128d9565b61362a6102706128d9565b8114158080613719575b610cd85780613706575b610cd85761364e6102705f6113cf565b811015610cd85760059061366661150c826005610c93565b908161367461101a5f610c86565b146136be575b509050613685611433565b6136916121135f610c86565b141580156136a1575b610cd85790565b506136aa61145b565b81166136b861101a5f610c86565b1461369a565b905b6136c95f610c86565b8211156136fe57505f19016136e161150c8284610c93565b806136ee61101a5f610c86565b146136c0579150505b805f61367a565b9150506136f7565b50613712610270613d5b565b811061363e565b50613725610cb5613a81565b613634565b613735610cb5613a81565b908115613744575b50610cd857565b905061375461101a6102706128d9565b145f61373d565b61027060c8610c86565b610270612710610c86565b6001600160a01b0391821681529116602082015260608101929161025a9160400152565b90916137ef60206137c16137ba6137b26137ac61375b565b86611930565b611de9613765565b8094611744565b6137cc610d9b610eb7565b956137d660405190565b93849283926323b872dd60e01b84528860048501613770565b03815f885af1801561111f5761380a915f9161388957501590565b613878576138175f610c86565b810361382257505050565b823b1561023657613858925f928361383960405190565b80968195829461384d63befe68c760e01b90565b84526004840161116b565b03925af1801561111f576138695750565b61025a905f611399818361086a565b6307a4ced160e51b5f908152600490fd5b610cb5915060203d6020116127f2576127e4818361086a565b90926138b0610d6182610ce9565b6138c26001600160a01b03841661103e565b036121cb576138d05f611440565b6001600160a01b0381166001600160a01b038616146121e35761398a92610da692610da09261391661103e613909610ccb8a6007610c93565b926001600160a01b031690565b03613a0a575b61392b5f61170188600f610c93565b6139396120a0836006610e00565b6139476120c6886006610e00565b61394f611fc4565b600591906139716001600160a01b038a164260a01b8317176121028a86610c93565b61397d6121135f610c86565b146139a2575b5050610d28565b915f516020615b2f5f395f51905f52610dd760405190565b6139b46139af6001610c86565b880190565b916139c261150c8483610c93565b6139ce61101a5f610c86565b14806139f5575b6139e0575b50613983565b6139ed9261210291610c93565b5f80806139da565b50613a026102705f6113cf565b8314156139d5565b613a195f6121ae886007610c93565b61391c565b61027090610c86565b613a7c61027091613a355f90565b50613a64613a4260405190565b8092613a586020830191826102f2816020939052565b9081038252038261086a565b613a76613a6f825190565b9160200190565b20613a1e565b61407c565b613a8c610d9b611786565b6020613a9760405190565b63d1f9c24d60e01b815291829060049082905afa90811561111f575f91613ac7575b50610b6561351a6003612b65565b613ae0915060203d60201161355157613543818361086a565b5f613ab9565b6102706040610c86565b61027090612b8661101a6102709490565b9190613b0c5f6113cf565b90600193613b1a6001610c86565b8203613c4457613b4c613b41613b2e611fc4565b4260a01b176001600160a01b0384161790565b612102856005610c93565b613b5a61150c826006610e00565b613b62612542565b9182821690613b6f613ae6565b9284613b7b8583613af0565b16613b868488019490565b84108015613c3b575b6117c3578681019081108015613c32575b6117c357613bd18561158995610d6194613bc98a613bc4613bdd9b613be39d6128ec565b171990565b1617926128ec565b17612102836006610e00565b91830190565b91936001815b613bfd575b50505061025a9192505f6111dd565b15613c20575b5f9085835f5f516020615b2f5f395f51905f528180a49081613be9565b9360010193828503613c035780613bee565b50858111613ba0565b50858411613b8f565b613b4c613b41613c535f610c86565b613b2e565b634e487b7160e01b5f52602160045260245ffd5b60021115613c7657565b613c58565b9061025a82613c6c565b6102709051613c7b565b60031115613c7657565b9061025a82613c8f565b6102709051613c99565b90916060810190613cbe8251151590565b15613d5057613ccc5f610c86565b915b60208201613cdb81613c85565b613ced613ce75f613c7b565b91613c7b565b03613d1b575061025a94613d156040613d0e613d07865190565b9451151590565b9401613ca3565b946148f1565b613d2490613c85565b613d31613ce76001613c7b565b036117c35761025a94613d4a6040613d0e613d07865190565b94614234565b608081015191613cce565b61027060026113cf565b613d6e8261361f565b90613d8161103e613909610d6185610ce9565b036121cb5761025a91614f2d565b613d9d61150c826006610e00565b613da56128e2565b92613db08483613af0565b613dc585613dbc612542565b80931693613af0565b908381168083116117c357613de7613de084613deb93611744565b9385611421565b9390565b83108015613e23575b6117c3578561210294613e1183613bc461025a9a613e18966128ec565b16936128ec565b911717916006610e00565b50808311613df4565b9050519061025a8261023a565b906020828203126102365761027091613e2c565b6001600160a01b039182168152911660208201526040810191909152608060608201819052610270929101906102be565b610b0d610b076102709263ffffffff1690565b3d15613eaa57613ea03d6124ec565b903d5f602084013e565b606090565b9192613ef393613ec5610d9b6020946127805f90565b905f63150b7a0295613ed660405190565b97889586948593613ee78b60e01b90565b85523360048601613e4d565b03925af15f9281613f36575b50613f2757613f0c613e91565b8051613f1a61101a5f610c86565b14612a0257805190602001fd5b610b57610b0d610b6592613e7e565b613f5991935060203d602011613f60575b613f51818361086a565b810190613e39565b915f613eff565b503d613f47565b906140019161025a93613faf613fa484613f85611b9886600c610e00565b613f8e5f6113d9565b63ffffffff82161461401f570163ffffffff1690565b611cf984600c610e00565b1561400857613fc2613fdf91600d610e00565b613fd983613fcf83611874565b0163ffffffff1690565b90611919565b613ff7613ff082613fcf6009611810565b60096119db565b613fcf6009611874565b6009611919565b5061401a611a9082613fcf60096133d6565b613ff7565b613fcf86600b6122ee565b6140376102706102709290565b67ffffffffffffffff1690565b61027090612b8661101a6102709460ff1690565b6113e66102706102709260ff1690565b6113e6906128fd6118946102709460ff1690565b61408d6140888261402a565b61509d565b6140976040612b65565b6140ac6140886140a78386614044565b61402a565b179161413661412c61412661411c6141166141066141006140cd6080612b65565b6140dd6140886140a7838c614044565b17976140f96140886140a76140f260c0612b65565b8094614044565b1798614058565b98614058565b6141106008612b65565b90614068565b94614058565b6141106010612b65565b93614058565b6141106018612b65565b9217171790565b919060a083820312610236576141538184612bad565b92614161826020830161349a565b926102706141728460408501612622565b9360806141828260608701612622565b9401610ed4565b610270683635c9adc5dea00000610c86565b6141a86102706102709290565b62ffffff1690565b6117ea9062ffffff165b9162ffffff1690565b6102706003610c86565b6001600160a01b03909116815260608101939261025a9290916040916141fa9063ffffffff166020830152565b019015159052565b9095949261025a9461422d6111889261269f60809661269660a088019c5f89019063ffffffff169052565b6060830152565b9491929092610160526101c0526101a05261424d611786565b6101e0525f61425e6101e051610d28565b6101005260405190637f84d03d60e01b825260a08280600481010381610100515afa801561111f575f610120525f915f955f945f936148a3575b506142a25f612b65565b60ff8516148061486b575b614830576142bb6003612b65565b60ff85161480614861575b614830576142d35f610c86565b61016051148015614849575b6147e057846127b9576101c05180614841575b614830576142fe614189565b6101805261432361431b6143126004610c86565b610180516118ae565b610160510290565b60e05261435061433f6143366004610c86565b610160516118ae565b61434c614312600a610c86565b0290565b6101405260c0829052610160516101c0519095901560a081905280614810575b61476f575b61437e866113d9565b6080526101c051156145d95750505050506143985f610c86565b34036117c3576143a75f610c86565b926143b9846101205160e0518661579e565b614544575b50506143ca6001613c99565b6143d66101a051613c99565b0361453a575b60e051915b8160a05161451f575b506143f45f610c86565b82036144bb575b610100513b156102365760405191631190bc7b60e11b83525f83806144266080518660048401612643565b038183610100515af192831561111f577fb29af0e8b3e29e2bb963df9d1284f797e0974014963cb7c5a600fe06b34af667936144a6575b5061279f61446d610160516113d9565b9161448e61447a5f613c99565b6144866101a051613c99565b141594610d28565b9561449860405190565b9485946101c0519086614202565b6144b5905f611399818361086a565b5f61445d565b6144c6610d9b610eb7565b803b15610236575f6144d760405190565b9182906303e8b68b60e41b82528183816144f589896004840161116b565b03925af1801561111f5761450a575b506143fb565b614519905f611399818361086a565b5f614504565b6145339192506102f260c051610140510190565b905f6143ea565b50610140516143dc565b61455561455a91611de96004610c86565b6113d9565b6145635f6113d9565b63ffffffff8216146143be5761457a610d9b610eb7565b91823b15610236576145af925f9283809361459460405190565b968795869485936319c1ffb360e31b5b8552600485016141cd565b03925af1801561111f576145c4575b806143be565b6145d3905f611399818361086a565b5f6145be565b614650939495506001906145fb6145f36143366028610c86565b610180510290565b60c05261461861460e6101605188611930565b611de96004610c86565b9661463461462e888b610120516101e0516152aa565b89611421565b988995506101a0519461012051918d608051916101e05161546d565b929091809680614745575b614723575b5061466a5f610c86565b820361467b575b50505050916143e1565b610140519261468d61101a6001610c86565b11159081614703575b506146f6575b828111156146f0575081905b6146b15f610c86565b821415806146de575b6146c5575b80614671565b916102f2916146d594959361573d565b905f80806146bf565b506146e85f610c86565b8314156146ba565b906146a8565b610140518001915061469c565b61471a9150610270906147146141c3565b90611930565b8110155f614696565b61473e9196506102f26147366005610c86565b60e0516118ae565b945f614660565b5061475c614753606461419b565b610120516141b0565b6147696141ba605a61419b565b1161465b565b945061477a60405190565b636307dfe560e01b81526001600160a01b038716600482015260208180602481010381610100515afa90811561111f576147c7916001915f916147f1575b5061016051610120518a615113565b94856147d961101a63ffffffff6113ef565b1115614375575b63524f409b60e01b5f908152600490fd5b61480a915060203d6020116111185761110a818361086a565b5f6147b8565b5061481e614753606461419b565b61482a6141ba5f61419b565b14614370565b635a39b02f60e11b5f908152600490fd5b5086156142f2565b5061485763ffffffff6113ef565b61016051116142df565b506101c0516142c6565b50604051632ae458a360e21b815260208180600481010381610100515afa801561111f5761489e915f9161388957501590565b6142ad565b9250955092506148cb915060a03d60a0116148e0575b6148c3818361086a565b81019061413d565b9092969361012095929552919395925f614298565b503d6148b9565b610270600a610c86565b9290949391946101e052610160526101c05261490c5f610c86565b83148015614f18575b6147e057614921611786565b915f9361492d84610d28565b9461493760405190565b637f84d03d60e01b81529060a0826004818a5afa90811561111f575f905f610180525f925f945f91614ee9575b5061496e5f612b65565b6101805160ff161480614eb8575b6148305761499361498d601461419b565b846141b0565b6149a06141ba601061419b565b1461483057846127b9576101605180614eb0575b614830576149c0614189565b9086820295876149d36101605115151590565b6101a081905280614e8a575b614df0575b6149ed906113d9565b61014052839a610160515f14614c3e575050505050614a0b5f610c86565b34036117c357614a2990614a1e5f610c86565b90846101e05161579e565b614bd3575b945b614a395f610c86565b8503614b6f575b6101a05180614b57575b614ac7575b507fe9666ad988d8abc758d998fc6bbbfafeff56ba529130a36b572b1919588fc1ff93614aaf614a9c61279f93614555614a896002612b65565b6101805160ff1614156101405189613f67565b93614486614aa95f613c99565b91613c99565b95614ab960405190565b948594610160519086614202565b93843b15610236575f614ad960405190565b958690631190bc7b60e11b8252818381614afa610140518b60048401612643565b03925af194851561111f57614a9c61279f93614aaf927fe9666ad988d8abc758d998fc6bbbfafeff56ba529130a36b572b1919588fc1ff98614b42575b509350505093614a4f565b614b51905f611399818361086a565b5f614b37565b50614b626003612b65565b6101805160ff1614614a4a565b614b7a610d9b610eb7565b803b15610236575f614b8b60405190565b9182906303e8b68b60e41b8252818381614ba98c8c6004840161116b565b03925af1801561111f57614bbe575b50614a40565b614bcd905f611399818361086a565b5f614bb8565b614bde610d9b610eb7565b803b15610236575f614bef60405190565b9182906319c1ffb360e31b8252818381614c1482610140516101e051600485016141cd565b03925af1801561111f57614c29575b50614a2e565b614c38905f611399818361086a565b5f614c23565b82949793959b508990614c528a8d95611930565b988d876101e051614c6392856152aa565b614c6d908b611421565b610120525061012051928d61018051906101c051610140516101e05198614c95995f9761546d565b95919094614ca3600a610c86565b614cad908a6118ae565b020190819a81614dc7575b50614da7575b50614cc85f610c86565b8303614cde575b50505050506101205194614a30565b614ce66148e7565b90614cf182826118ae565b928395614d0161101a6001610c86565b11159081614d8d575b50614d74575b505050614d1a8390565b811115614d6e575081905b614d2e5f610c86565b82141580614d5c575b614d43575b8080614ccf565b916102f291614d5394979361573d565b925f8080614d3c565b50614d665f610c86565b831415614d37565b90614d25565b614d84939450906102f2916118ae565b905f8080614d10565b614d9e9150610270906147146141c3565b8410155f614d0a565b614dc09199506102f2614dba6005610c86565b8b6118ae565b975f614cbe565b614ddc9150614dd6606461419b565b906141b0565b614de96141ba605a61419b565b115f614cb8565b508b6020614dfd60405190565b636307dfe560e01b81526101e0516001600160a01b0316600482015291829060249082905afa90811561111f57614e43915f918291614e6b575b508a886101e051615113565b80614e5461101a63ffffffff6113ef565b11156149e45763524f409b60e01b5f908152600490fd5b614e84915060203d6020116111185761110a818361086a565b5f614e37565b50614e9e614e98606461419b565b876141b0565b614eaa6141ba5f61419b565b146149df565b5083156149b4565b50604051632ae458a360e21b81526020816004818e5afa801561111f57614ee4915f9161388957501590565b61497c565b9250509250614f07915060a03d60a0116148e0576148c3818361086a565b61018093909352939092915f614964565b50614f2663ffffffff6113ef565b8311614915565b61398a610da6610da0614f42610d6186610ce9565b614f50610ccb866007610c93565b95614f5a5f611440565b96614f6d6001600160a01b03891661103e565b0361503c575b614f7b611433565b90614f9e614f87611fc4565b924260a01b908417176001600160a01b0385161790565b91614faf6005936121028a86610c93565b614fbb6121135f610c86565b14614fd3575b5050610d9b61287f6120d260016113cf565b614fe6614fe06001610c86565b88611421565b91614ff461150c8483610c93565b61500061101a5f610c86565b1480615027575b615012575b50614fc1565b61501f9261210291610c93565b5f808061500c565b506150346102705f6113cf565b831415615007565b61504b5f6121ae886007610c93565b614f73565b6113e66102706102709267ffffffffffffffff1690565b61403790612b8661507b6102709460ff1690565b9167ffffffffffffffff1690565b6122be906128fd61351a6102709460ff1690565b6150e16150d06150b56150cb6150ba6150b586615050565b615875565b946150c56020612b65565b90615067565b615050565b916150db6003612b65565b90615089565b1790565b61027060046113d9565b6102706020610c86565b6102706151046150e5565b61510e60646113d9565b6118bb565b91926151e46151e9946151ab6102f29461512a5f90565b92891561528157965b61514161150c82600a610e00565b9061514a6150ef565b6151686114ba61516261515d8487613af0565b61419b565b946113d9565b9261517762ffffff86166141ba565b1415998a615270575b61518b6114ba6150f9565b84106152575761519a5f610c86565b8082111561524c5795868092611744565b9a6151b55f610c86565b821415908115615244575b50615203575b50505050506151d3613765565b93848110156151fd57508391500290565b6118ae565b906102705761027090611de96114ba6150e5565b91500290565b6114ba61455561522a926152256152329561522061523a9a612cc6565b6128ec565b960190565b91600a610e00565b9117906111dd565b5f808080846151c6565b90505f6151c0565b508095868092611744565b61526b846152666114ba6150f9565b611744565b61519a565b925061527b5f610c86565b92615180565b6152909061434c6114ba6150e5565b96615133565b906020828203126102365761027091612bad565b906152b86141ba600361419b565b11158015615376575b61536a576152ff916152d4602092610d28565b60405193849283918291631ec9846960e21b8352600483016001600160a01b03909116815260200190565b03915afa90811561111f575f9161533b575b5061531e6141ba5f61419b565b036153315761027090611de96005610c86565b506102705f610c86565b61535d915060203d602011615363575b615355818361086a565b810190615296565b5f615311565b503d61534b565b5050506102705f610c86565b506153805f610c86565b83146152c1565b6118b09063ffffffff16611894565b9190604083820312610236576102709060206141828286610ed4565b61027090613c99565b610273906153b2565b9095949261025a94615405615412926153fe6080966153f260a088019c5f8901906001600160a01b03169052565b62ffffff166020870152565b6040850152565b63ffffffff166060830152565b01906153bb565b91946154636141fa9298979561545760a09661544761025a9a61544060c08a019e5f8b0152565b6020890152565b6001600160a01b03166040870152565b62ffffff166060850152565b60ff166080830152565b9691949798999093929961547e5f90565b97889b349161548c5f613c99565b61549585613c99565b036156c2578483036117c35784915b8d156156bb576154bd6154b76002612b65565b82612b72565b9d5b1561567e579a5b506154d090610d28565b918b635b48b35489866154e260405190565b9e8f968795869560e01b86526154fb94600487016153c4565b03915a94604095f190811561111f5789958c925f9a5f91615649575b509b6155225f6113d9565b63ffffffff8216036155c0575b505092615567889361558b935f9660209b615561610d9b610d9b73610178da211fef7d417bc0e6fed39f05609ad78890565b9a6159c1565b9261557160405190565b9a8b988997889663a83536a160e01b885260048801615419565b03925af1801561111f576155a4925f916155a757500190565b92565b6102f2915060203d6020116111185761110a818361086a565b919250979295506155d2610d9b610eb7565b97883b1561023657615601985f92836001936155ed60405190565b9c8d95869485936319c1ffb360e31b6145a4565b03925af192831561111f576155678a968d61558b9460209b5f9861562d575b509396509350939861552f565b61564390893d8b116113a757611399818361086a565b5f615620565b905061566e919a5060403d604011615677575b615666818361086a565b810190615396565b5f9a919a615517565b503d61565c565b915061569a6113e661569060046113d9565b63ffffffff615387565b63ffffffff8316116147e0576156b585926141106002612b65565b9a6154c6565b809d6154bf565b9c90916156cf6001613c99565b6156d885613c99565b036157005750506156e85f610c86565b34036117c35782809c6156fa5f610c86565b926154a4565b9161570e60029e929e613c99565b61571785613c99565b036117c3578434116117c357843410615733575b9084916154a4565b3485039d5061572b565b9091906157495f610c86565b8114801561577b575b801561576a575b61536a57610270926151e491611930565b506157745f610c86565b8214615759565b506157855f610c86565b8314615752565b6122be6102706102709262ffffff1690565b916157b06157b591614dd6601461419b565b61578c565b6157bf600d612b65565b60ff82160361582b57506157da6157e4916147146003610c86565b611de96002610c86565b915b6157ef5f610c86565b810361581a575b50615802610d9b610eb7565b91823b1561023657613858925f928361383960405190565b6158249192611744565b905f6157f6565b61583b61351a6012959395612b65565b036157e6579161585261585c916147146009610c86565b611de9600a610c86565b916157e6565b6140376102706102709263ffffffff1690565b6150cb6158a761588f6158b1936158895f90565b50615862565b615899604b61402a565b0267ffffffffffffffff1690565b6150c56020612b65565b6158bb600a6113d9565b63ffffffff821610615992576158d160146113d9565b63ffffffff821610615987576158e7601e6113d9565b63ffffffff82161061597c576158fd60286113d9565b63ffffffff8216106159715761591360316113d9565b63ffffffff82161061596657615929603a6113d9565b63ffffffff82161061595b5761594261189460436113d9565b10615951576102706007612b65565b6102706006612b65565b506102706005612b65565b506102706004612b65565b506102706003612b65565b506102706002612b65565b506102706001612b65565b506102705f612b65565b6102706159a7614189565b611de96014610c86565b6102706102706102709260ff1690565b919493916159cf6001613c99565b6159d887613c99565b14615b20576159e7602861419b565b62ffffff82161115615abb5750615a0161351a6003612b65565b14615aa857615a35615a2b615a1e615a19601e612b65565b6159b1565b615a26614189565b611930565b611de96064610c86565b935b615a44614aa96002613c99565b1480615a96575b80615a84575b615a59575050565b80615a76816102709596615a7086611adc96611744565b9061573d565b92615a7f61599c565b61573d565b50615a8e5f610c86565b811415615a51565b50615aa05f610c86565b821415615a4b565b615a35615a2b615a1e615a196005612b65565b9490615ac8615852614189565b908196615ad86141ba600361419b565b1115908115615b09575b50615aee575b50615a37565b615b02919550615a2b9061471460fa610c86565b935f615ae8565b9050615b1861351a6003612b65565b14155f615ae2565b50505050905061027061599c56feddf252ad1be2c89b69c2b068fc378daa952ba7f163c4a11628f55a4df523b3efa2646970667358221220f63c6004511347bbde311e870d968b25f4422ee6a1b1572eb2c3ef000e4350be64736f6c634300081e0033","linkReferences":{}},"methodIdentifiers":{"acceptOffer(uint256,address,uint216)":"0c07c764","advanceBase()":"adbb7ce5","approve(address,uint256)":"095ea7b3","balanceOf(address)":"70a08231","bestOffer(uint256)":"d0d43726","burnFromGame(address,uint256[])":"aefb6b1b","buy(uint256)":"d96a094a","cancelAsk(uint256)":"1628e0f5","cancelOffer(uint256)":"ef706adf","currentBaseTokenId()":"706f7b4d","getApproved(uint256)":"081812fc","isApprovedForAll(address,address)":"e985e9c5","name()":"06fdde03","nextTokenId()":"75794a3c","ownerOf(uint256)":"6352211e","placeAsk(uint256,uint256,uint40)":"112e9b54","placeOffer(uint256,uint216,uint40)":"41c06f7c","processDormant(uint32)":"14ad5b35","processPendingMints(uint32,uint32,uint256)":"1dc5ba65","purchase((uint256,uint8,uint8,bool,bytes32))":"1f827ad6","purchaseCount()":"2b85ed9c","purchaseCounts()":"ea1a09e0","purchaseMapForAffiliate(address,uint256)":"a8808c20","queueRewardMints(address,uint32)":"feaa238a","safeTransferFrom(address,address,uint256)":"42842e0e","safeTransferFrom(address,address,uint256,bytes)":"b88d4fde","setApprovalForAll(address,bool)":"a22cb465","supportsInterface(bytes4)":"01ffc9a7","symbol()":"95d89b41","tokenTraitsPacked(uint256)":"11e50e4d","tokenURI(uint256)":"c87b56dd","tokensOwed(address)":"3d5dff53","totalSupply()":"18160ddd","transferFrom(address,address,uint256)":"23b872dd"},"id":6}