{"abi":[{"type":"function","name":"fallbackRenderer","inputs":[],"outputs":[{"name":"","type":"address","internalType":"address"}],"stateMutability":"pure"},{"type":"function","name":"primary","inputs":[],"outputs":[{"name":"","type":"address","internalType":"address"}],"stateMutability":"view"},{"type":"function","name":"setPrimary","inputs":[{"name":"newRenderer","type":"address","internalType":"address"}],"outputs":[],"stateMutability":"nonpayable"},{"type":"function","name":"tokenURI","inputs":[{"name":"tokenId","type":"uint256","internalType":"uint256"},{"name":"data","type":"uint256","internalType":"uint256"},{"name":"extras","type":"uint32[4]","internalType":"uint32[4]"}],"outputs":[{"name":"","type":"string","internalType":"string"}],"stateMutability":"view"},{"type":"function","name":"tokenURISelector","inputs":[],"outputs":[{"name":"","type":"bytes4","internalType":"bytes4"}],"stateMutability":"pure"},{"type":"event","name":"PrimaryRendererUpdated","inputs":[{"name":"previous","type":"address","indexed":true,"internalType":"address"},{"name":"next","type":"address","indexed":true,"internalType":"address"}],"anonymous":false},{"type":"error","name":"NotAdmin","inputs":[]}],"bytecode":{"object":"0x60806040523460195760405161079961001e823961079990f35b5f80fdfe60806040526004361015610011575f80fd5b5f3560e01c80631af987461461006057806320968e281461005b578063c6dbdf6114610056578063c844bc5b146100515763dcd047930361006557610230565b6101de565b6101c3565b610157565b610115565b5f80fd5b805b0361006557565b9050359061007f82610069565b565b9190608083011161006557565b909160c082840312610065576100be6100a78484610072565b9360406100b78260208701610072565b9401610081565b90565b90825f9392825e0152565b6100ed6100f6602093610100936100e1815190565b80835293849260200190565b958691016100c1565b601f01601f191690565b0190565b60208082526100be929101906100cc565b346100655761013d61013161012b36600461008e565b9161024d565b60405191829182610104565b0390f35b5f91031261006557565b6001600160a01b031690565b3461006557610167366004610141565b61013d73959922be3caee4b8cd9a407cc3ac1c251c2007b15b604051918291826001600160a01b03909116815260200190565b6100be916008021c6001600160a01b031690565b906100be915461019a565b6100be5f806101ae565b34610065576101d3366004610141565b61013d6101806101b9565b34610065576101ee366004610141565b604051630d7cc3a360e11b8152602090f35b6001600160a01b03811661006b565b9050359061007f82610200565b90602082820312610065576100be9161020f565b346100655761024861024336600461021c565b6102c1565b604051005b6100be9291906103d5565b6100be9061014b565b6100be9054610258565b6100be9061014b906001600160a01b031682565b6100be9061026b565b6100be9061027f565b906102a16100be6102bd92610288565b82546001600160a01b0319166001600160a01b03919091161790565b9055565b734ed7c70f96b99c776995fb64377f0d4ab3b0e1c13303610330576103006102fa6102eb5f610261565b6102f5845f610291565b610288565b91610288565b907f0fe7dd9420850024e338e2a661805f0adc9bab2d47bce8aceea491dd2875aeaa61032b60405190565b5f90a3565b637bfa4b9f60e01b5f908152600490fd5b634e487b7160e01b5f52604160045260245ffd5b90601f01601f1916810190811067ffffffffffffffff82111761037757604052565b610341565b9061007f61038960405190565b9283610355565b67ffffffffffffffff811161037757602090601f01601f19160190565b906103bf6103ba83610390565b61037c565b918252565b6100be5f6103ad565b6100be6103c4565b90916103e281848461047f565b93906104185761040a935073959922be3caee4b8cd9a407cc3ac1c251c2007b1925a93610620565b906100be57506100be6103cd565b50505090565b61014b6100be6100be9290565b6100be9061041e565b6100be6100be6100be9290565b6100be620f4240610434565b6100be62030d40610434565b634e487b7160e01b5f52601160045260245ffd5b9190820180921161047a57565b610459565b909161048a5f610261565b9261049761014b5f61042b565b6001600160a01b038516146104ef576104ae610441565b926104c06104ba61044d565b8561046d565b6104ce6104ca5a90565b9190565b116104e0576104dc94610620565b9091565b50505050505f906100be6103cd565b505050505f906100be6103cd565b63ffffffff811661006b565b9050359061007f826104fd565b506100be906020810190610509565b6105316104ca60049390565b805f925b848410610543575050505050565b61056b6105646001926105568686610516565b63ffffffff16815260200190565b9360200190565b93019291610535565b90815260c08101939261007f929091604091610591906020830152565b0190610525565b3d156105b1576105a73d6103ad565b903d5f602084013e565b606090565b909291926105c66103ba82610390565b93818552818301116100655761007f9160208501906100c1565b9080601f830112156100655781516100be926020016105b6565b9060208282031261006557815167ffffffffffffffff8111610065576100be92016105e0565b939091905f9461062f5f610434565b82146107535761067a5f959461066b8796600496610651630d7cc3a360e11b90565b9361065b60405190565b9889956020870190815201610574565b60208201810382520384610355565b60208351930191fa9061069361068e610598565b921590565b801561073d575b610731575060208101516040820151906106b76104ca6020610434565b03610731576106dd6104ca6100be6106cd855190565b936106d86040610434565b61046d565b10610726578060206106f06106fb935190565b8183010191016105fa565b90610704825190565b6107106104ca5f610434565b1461071b5760019190565b5f91506100be6103cd565b505f906100be6103cd565b50505f906100be6103cd565b50815161074d6104ca6040610434565b1061069a565b5050505050505f906100be6103cd56fea2646970667358221220e6392980ee100a85d88b3542185c76abacadec514d2f4ea455d9843b4b6e630a64736f6c634300081e0033","linkReferences":{}},"methodIdentifiers":{"fallbackRenderer()":"20968e28","primary()":"c6dbdf61","setPrimary(address)":"dcd04793","tokenURI(uint256,uint256,uint32[4])":"1af98746","tokenURISelector()":"c844bc5b"},"id":19}