{"abi":[{"type":"function","name":"getActiveQuests","inputs":[],"outputs":[{"name":"quests","type":"tuple[2]","internalType":"struct QuestInfo[2]","components":[{"name":"day","type":"uint48","internalType":"uint48"},{"name":"questType","type":"uint8","internalType":"uint8"},{"name":"highDifficulty","type":"bool","internalType":"bool"},{"name":"requirements","type":"tuple","internalType":"struct QuestRequirements","components":[{"name":"mints","type":"uint32","internalType":"uint32"},{"name":"tokenAmount","type":"uint256","internalType":"uint256"}]}]}],"stateMutability":"view"},{"type":"function","name":"getPlayerQuestView","inputs":[{"name":"player","type":"address","internalType":"address"}],"outputs":[{"name":"viewData","type":"tuple","internalType":"struct PlayerQuestView","components":[{"name":"quests","type":"tuple[2]","internalType":"struct QuestInfo[2]","components":[{"name":"day","type":"uint48","internalType":"uint48"},{"name":"questType","type":"uint8","internalType":"uint8"},{"name":"highDifficulty","type":"bool","internalType":"bool"},{"name":"requirements","type":"tuple","internalType":"struct QuestRequirements","components":[{"name":"mints","type":"uint32","internalType":"uint32"},{"name":"tokenAmount","type":"uint256","internalType":"uint256"}]}]},{"name":"progress","type":"uint128[2]","internalType":"uint128[2]"},{"name":"completed","type":"bool[2]","internalType":"bool[2]"},{"name":"lastCompletedDay","type":"uint32","internalType":"uint32"},{"name":"baseStreak","type":"uint32","internalType":"uint32"}]}],"stateMutability":"view"},{"type":"function","name":"handleAffiliate","inputs":[{"name":"player","type":"address","internalType":"address"},{"name":"amount","type":"uint256","internalType":"uint256"}],"outputs":[{"name":"reward","type":"uint256","internalType":"uint256"},{"name":"hardMode","type":"bool","internalType":"bool"},{"name":"questType","type":"uint8","internalType":"uint8"},{"name":"streak","type":"uint32","internalType":"uint32"},{"name":"completed","type":"bool","internalType":"bool"},{"name":"completedBoth","type":"bool","internalType":"bool"}],"stateMutability":"nonpayable"},{"type":"function","name":"handleBondPurchase","inputs":[{"name":"player","type":"address","internalType":"address"},{"name":"basePerBondWei","type":"uint256","internalType":"uint256"}],"outputs":[{"name":"reward","type":"uint256","internalType":"uint256"},{"name":"hardMode","type":"bool","internalType":"bool"},{"name":"questType","type":"uint8","internalType":"uint8"},{"name":"streak","type":"uint32","internalType":"uint32"},{"name":"completed","type":"bool","internalType":"bool"},{"name":"completedBoth","type":"bool","internalType":"bool"}],"stateMutability":"nonpayable"},{"type":"function","name":"handleBurn","inputs":[{"name":"player","type":"address","internalType":"address"},{"name":"quantity","type":"uint32","internalType":"uint32"}],"outputs":[{"name":"reward","type":"uint256","internalType":"uint256"},{"name":"hardMode","type":"bool","internalType":"bool"},{"name":"questType","type":"uint8","internalType":"uint8"},{"name":"streak","type":"uint32","internalType":"uint32"},{"name":"completed","type":"bool","internalType":"bool"},{"name":"completedBoth","type":"bool","internalType":"bool"}],"stateMutability":"nonpayable"},{"type":"function","name":"handleDecimator","inputs":[{"name":"player","type":"address","internalType":"address"},{"name":"burnAmount","type":"uint256","internalType":"uint256"}],"outputs":[{"name":"reward","type":"uint256","internalType":"uint256"},{"name":"hardMode","type":"bool","internalType":"bool"},{"name":"questType","type":"uint8","internalType":"uint8"},{"name":"streak","type":"uint32","internalType":"uint32"},{"name":"completed","type":"bool","internalType":"bool"},{"name":"completedBoth","type":"bool","internalType":"bool"}],"stateMutability":"nonpayable"},{"type":"function","name":"handleFlip","inputs":[{"name":"player","type":"address","internalType":"address"},{"name":"flipCredit","type":"uint256","internalType":"uint256"}],"outputs":[{"name":"reward","type":"uint256","internalType":"uint256"},{"name":"hardMode","type":"bool","internalType":"bool"},{"name":"questType","type":"uint8","internalType":"uint8"},{"name":"streak","type":"uint32","internalType":"uint32"},{"name":"completed","type":"bool","internalType":"bool"},{"name":"completedBoth","type":"bool","internalType":"bool"}],"stateMutability":"nonpayable"},{"type":"function","name":"handleMint","inputs":[{"name":"player","type":"address","internalType":"address"},{"name":"quantity","type":"uint32","internalType":"uint32"},{"name":"paidWithEth","type":"bool","internalType":"bool"}],"outputs":[{"name":"reward","type":"uint256","internalType":"uint256"},{"name":"hardMode","type":"bool","internalType":"bool"},{"name":"questType","type":"uint8","internalType":"uint8"},{"name":"streak","type":"uint32","internalType":"uint32"},{"name":"completed","type":"bool","internalType":"bool"},{"name":"completedBoth","type":"bool","internalType":"bool"}],"stateMutability":"nonpayable"},{"type":"function","name":"normalizeActiveBurnQuests","inputs":[],"outputs":[],"stateMutability":"nonpayable"},{"type":"function","name":"playerQuestStates","inputs":[{"name":"player","type":"address","internalType":"address"}],"outputs":[{"name":"streak","type":"uint32","internalType":"uint32"},{"name":"lastCompletedDay","type":"uint32","internalType":"uint32"},{"name":"progress","type":"uint128[2]","internalType":"uint128[2]"},{"name":"completed","type":"bool[2]","internalType":"bool[2]"}],"stateMutability":"view"},{"type":"function","name":"rollDailyQuest","inputs":[{"name":"day","type":"uint48","internalType":"uint48"},{"name":"entropy","type":"uint256","internalType":"uint256"}],"outputs":[{"name":"rolled","type":"bool","internalType":"bool"},{"name":"questTypes","type":"uint8[2]","internalType":"uint8[2]"},{"name":"highDifficulty","type":"bool","internalType":"bool"}],"stateMutability":"nonpayable"},{"type":"function","name":"rollDailyQuestWithOverrides","inputs":[{"name":"day","type":"uint48","internalType":"uint48"},{"name":"entropy","type":"uint256","internalType":"uint256"},{"name":"forceMintEth","type":"bool","internalType":"bool"},{"name":"forceBurn","type":"bool","internalType":"bool"}],"outputs":[{"name":"rolled","type":"bool","internalType":"bool"},{"name":"questTypes","type":"uint8[2]","internalType":"uint8[2]"},{"name":"highDifficulty","type":"bool","internalType":"bool"}],"stateMutability":"nonpayable"},{"type":"error","name":"InvalidEntropy","inputs":[]},{"type":"error","name":"InvalidQuestDay","inputs":[]},{"type":"error","name":"OnlyCoin","inputs":[]},{"type":"error","name":"ZeroAddress","inputs":[]}],"bytecode":{"object":"0x608060405234601f57600e605f565b60405161451361006c823961451390f35b5f80fd5b6030602d602d9290565b90565b63ffffffff1690565b906045602d605b926023565b825463ffffffff191663ffffffff919091161790565b9055565b6069600160056039565b56fe60c06040526004361015610011575f80fd5b5f3560e01c80623ea7e6146100cf578063029a8c58146100ca5780635b63b2ee146100c557806384f3bf33146100c0578063905ffc26146100bb578063a2662645146100b6578063b1c775e9146100b1578063c93c82f5146100ac578063c9d2cbbf146100a7578063dfd2397c146100a2578063e69b58341461009d5763ef4f779a036100d457610711565b6106d9565b6106bd565b6106a1565b61064a565b610564565b610548565b61052c565b6104c9565b610375565b6102c0565b6101ea565b5f80fd5b6001600160a01b031690565b90565b6001600160a01b0381165b036100d457565b90503590610106826100e7565b565b906020828203126100d4576100e4916100f9565b0190565b61013061012c60029390565b9190565b5f915b8383106101405750505050565b61016361015c60019284516001600160801b0316815260200190565b9260200190565b92019190610133565b61017861012c60029390565b5f915b8383106101885750505050565b61019d61015c60019284511515815260200190565b9201919061017b565b6101e3610106946101d96080949897956101cc60c086019a5f87019063ffffffff169052565b63ffffffff166020850152565b6040830190610120565b019061016c565b346100d45761021b610205610200366004610108565b610c2c565b9061021294929460405190565b948594856101a6565b0390f35b5f9103126100d457565b805165ffffffffffff16825260208082015160ff1681840152604080830151151590840152606091820151805163ffffffff16928401929092520151608090910152565b9061011c8160a093610229565b61028661012c60029390565b5f915b8383106102965750505050565b6102a661015c600192845161026d565b92019190610289565b61014081019291610106919061027a565b346100d4576102d036600461021f565b61021b6102db610e51565b604051918291826102af565b806100f2565b90503590610106826102e7565b91906040838203126100d4576100e490602061031682866100f9565b94016102ed565b919461036461036d9298979561035760a09661034d6101069a61034460c08a019e5f8b0152565b15156020890152565b60ff166040870152565b63ffffffff166060850152565b15156080830152565b019015159052565b346100d45761021b61039161038b3660046102fa565b90611234565b926103a196949692919260405190565b9687968761031d565b6103b661012c60029390565b5f915b8383106103c65750505050565b6103d661015c600192845161026d565b920191906103b9565b6103eb61012c60029390565b5f915b8383106103fb5750505050565b61041761015c60019284516001600160801b0316815260200190565b920191906103ee565b61042c61012c60029390565b5f915b83831061043c5750505050565b61045161015c60019284511515815260200190565b9201919061042f565b906101e06080610106936104745f8201515f8601906103aa565b61048760208201516101408601906103df565b61049a6040820151610180860190610420565b606081015163ffffffff166101c0850152015163ffffffff16910152565b61020081019291610106919061045a565b346100d45761021b6104e46104df366004610108565b6112c7565b604051918291826104b8565b63ffffffff81166100f2565b90503590610106826104f0565b91906040838203126100d4576100e490602061052582866100f9565b94016104fc565b346100d45761021b610391610542366004610509565b906116e2565b346100d45761021b61039161055e3660046102fa565b90611867565b346100d45761057436600461021f565b61057c6119a1565b604051005b65ffffffffffff81166100f2565b9050359061010682610581565b8015156100f2565b905035906101068261059c565b6080818303126100d4576105c5828261058f565b926100e46105d684602085016102ed565b9360606105e682604087016105a4565b94016105a4565b6105f961012c60029390565b5f915b8383106106095750505050565b61061f61015c600192845160ff16815260200190565b920191906105fc565b901515815260808101939261010692909160609161036d9060208301906105ed565b346100d45761021b6106696106603660046105b1565b929190916119f0565b60405191939193849384610628565b90916060828403126100d4576100e461069184846100f9565b9360406105e682602087016104fc565b346100d45761021b6103916106b7366004610678565b91611d75565b346100d45761021b6103916106d33660046102fa565b90611ecb565b346100d45761021b6103916106ef3660046102fa565b906121f9565b91906040838203126100d4576100e4906020610316828661058f565b346100d45761021b6106696107273660046106f5565b9061223c565b634e487b7160e01b5f52604160045260245ffd5b90601f01601f1916810190811067ffffffffffffffff82111761076357604052565b61072d565b9061010661077560405190565b9283610741565b67ffffffffffffffff81116107635760200290565b61079d6100e49161077c565b610768565b369037565b906101066107bd6107b784610791565b9361077c565b836107a2565b6100e460026107a7565b6107da6100e46100e49290565b60ff1690565b6100e460026107cd565b6100e4905b65ffffffffffff1690565b6100e490546107ea565b6100e49060301c6107da565b6100e49054610804565b6100e49060381c6107da565b6100e4905461081a565b6100e49060401c5b63ffffffff1690565b6100e49054610830565b6100e49081565b6100e4905461084b565b6100e460a0610768565b906101066108db600161087761085c565b94610890610884826107fa565b65ffffffffffff168752565b6108a661089c82610810565b60ff166020880152565b6108bc6108b282610826565b60ff166040880152565b6108d56108c882610841565b63ffffffff166060880152565b01610852565b6080840152565b6100e490610866565b9060026108f781610791565b925f90845b8383106109095750505050565b60026020600192610919856108e2565b8152019201920191906108fc565b6100e4906108eb565b6100e4906100d8906001600160a01b031682565b6100e490610930565b6100e490610944565b906109609061094d565b5f5260205260405f2090565b6100e490610838565b6100e4905461096c565b6100e49060201c610838565b6100e4905461097f565b6100e49060601c610838565b6100e49054610995565b6100e49060801c610838565b6100e490546109ab565b6020806109dd6109d96001956109d5600290565b5090565b9390565b54926109f6816109ec8661096c565b63ffffffff169052565b01610a07816109ec865f019561097f565b50505050565b9061011c816040936109c1565b90610106610a3492610a2b60405190565b93848092610a0d565b0383610741565b6100e4905b6001600160801b031690565b6100e49060801c610a40565b610a6461012c60029390565b5f915b600183018411610a775750505050565b60016020610a95610aab60029483875491610aa281610a9585610a3b565b6001600160801b03169052565b01928391610a4c565b01920192019190610a67565b9061011c81604093610a58565b90610106610a3492610ad560405190565b93848092610ab7565b6100e4906107da565b6100e49054610ade565b6100e4610120610768565b90610106610bc36004610b0d610af1565b94610b24610b1a82610975565b63ffffffff168752565b610b3d610b308261098b565b63ffffffff166020880152565b610b56610b4982610841565b63ffffffff166040880152565b610b626108c8826109a1565b610b7b610b6e826109b7565b63ffffffff166080880152565b610b91610b8a60018301610a1a565b60a0880152565b610ba7610ba060028301610a1a565b60c0880152565b610bbd610bb660038301610ac4565b60e0880152565b01610ae7565b60ff16610100840152565b6100e490610afc565b634e487b7160e01b5f52603260045260245ffd5b9060025b811015610bfd576020020190565b610bd7565b6100e46100e46100e49260ff1690565b610a406100e46100e49290565b60016100e4910160ff1690565b905f610c366107c3565b9081610c406107c3565b9485610c5e610c59610c515f610927565b936004610956565b610bce565b93610c6883612250565b95610c7a604087015163ffffffff1690565b92610c89875163ffffffff1690565b925b610c966107da6107e0565b60ff82161015610d4a5780610d2e8c610d27610d1d848e8e610d188f8f610ccc610cd691610cc6610d339e610c02565b90610beb565b51948686866122a3565b15610d3857610d0a610cff610cf260e0860151610cc689610c02565b516001600160801b031690565b915b610cc687610c02565b906001600160801b03169052565b612397565b91610cc685610c02565b9015159052565b610c1f565b610c8b565b610d0a610d445f610c12565b91610d01565b5095509550959250955050565b6100e46080610768565b6100e46040610768565b610d73610d61565b905f82525f6020830152565b905250565b6100e4610d6b565b610d94610d57565b905f8252602080808085015f8152015f815201610d7f610d84565b6100e4610d8c565b5f5b828110610dc557505050565b602090610dd0610daf565b8184015201610db9565b90610106610dea6107b784610791565b83610db7565b6100e46002610dda565b610e02610af1565b905f8252602080808080808080808a015f8152015f8152015f8152015f815201610e2a6107c3565b815201610e356107c3565b815201610e406107c3565b8152015f905250565b6100e4610dfa565b610e59610df0565b9081610e63612493565b92610e6d84612250565b93610e76610e49565b90610e805f6107cd565b925f5b610e8e6107da6107e0565b60ff82161015610eda5780610ebb89878388610eb5610eaf610ed598610c02565b8a610beb565b51612592565b5050610ecf610ec983610c02565b89610beb565b52610c1f565b610e83565b50955050505050565b96959493929190732279b7a0a67db372996a5fab50d91eaa73d2ebe63303610f1657610f0e9761104c565b909192939495565b6353d2169f60e01b5f908152600490fd5b6100d86100e46100e49290565b6100e490610f27565b6100e46100e46100e49290565b6107ef6100e46100e49290565b9091906002831015610bfd576002610f6e60109290565b8185040193060290565b6100e4916008021c610a40565b906100e49154610f78565b91906008610faf910291610faa6001600160801b03841b90565b921b90565b9181191691161790565b610a406100e46100e4926001600160801b031690565b9190610fe06100e4610fe893610fb9565b908354610f90565b9055565b6100e46100e46100e49263ffffffff1690565b634e487b7160e01b5f52601160045260245ffd5b919061101e565b9290565b9180830292818404149015171561103157565b610fff565b6100e46100e46100e4926001600160801b031690565b50505050505061105b5f610927565b9161106583612250565b6110736100e4846004610956565b926110906110836100d85f610f34565b916001600160a01b031690565b148015611223575b801561120a575b6111e1576110ad8184612744565b6110b56107e0565b6110c0818387612832565b909160ff808316146111d057506110e96110e1606084015163ffffffff1690565b848388612926565b5f850195816111346111026110fd8a6109a1565b612a3c565b9661112e61112660038b019261112161111b8786610f57565b90610f85565b612a8b565b938492610f57565b90610fcf565b61117f6111796100e461116261115d61115160408a015160ff1690565b60808a0151908c612b23565b610fec565b611173670de0b6b3a7640000610f3d565b90611013565b91611036565b1061119f5761119896506111925f610f3d565b95612b69565b6080519495565b5050602001516111bc935060ff1691506111b69050565b91610841565b6111c55f610f3d565b925f9291905f905f90565b9550505050505f6111bc9101610841565b5050905f61120360206111fa6111bc94610cc685610f3d565b51015160ff1690565b9201610841565b506112145f610f4a565b65ffffffffffff82161461109f565b5061122d5f610f3d565b8214611098565b610f0e91905f8080808080610ee3565b61124c61085c565b90611255610df0565b825260208080808086016112676107c3565b8152016112726107c3565b8152015f610e40565b6100e4611244565b6108386100e46100e49290565b6112a59063ffffffff165b9163ffffffff1690565b019063ffffffff821161103157565b6107ef6100e46100e49263ffffffff1690565b906112d061127b565b806112d9612493565b6112f0610c596112e883612250565b966004610956565b90611302604083015163ffffffff1690565b825163ffffffff1661131661129b5f611283565b14158061140c575b6113fd575b608083015163ffffffff1661134165ffffffffffff89165b916112b4565b036113f4575061137d61135b606084015163ffffffff1690565b61136c6108c8855163ffffffff1690565b63ffffffff81166080870152612a3c565b925f5b61138b6107da6107e0565b60ff82161015610eda57806113e6610ecf6113b88b89858a610eb56113b26113ef9a610c02565b8c610beb565b919390610d0a8c6113dd5f82015195610d2760406020850151940151610cc68c610c02565b610cc688610c02565b610cc684610c02565b611380565b61137d9061135b565b506114075f611283565b611323565b506114396107ef611434611424865163ffffffff1690565b61142e6001611283565b90611290565b6112b4565b65ffffffffffff88161161131e565b96959493929190732279b7a0a67db372996a5fab50d91eaa73d2ebe63303610f1657610f0e97611490565b6100e460046107cd565b610a406100e46100e49263ffffffff1690565b50505050505061149f5f610927565b6114a881612250565b6114b66100e4846004610956565b926114c66110836100d85f610f34565b1480156116cb575b80156116b2575b611698576114e38184612744565b5f8301936114f36110fd866109a1565b925f958661150e60206111fa6115085f610f3d565b86610beb565b90975b61151c6107da6107e0565b60ff8a161015611673576115386115328a610c02565b85610beb565b519161154a835165ffffffffffff1690565b61156365ffffffffffff89165b9165ffffffffffff1690565b1415801561164e575b61164257505060208101516001989060ff1691611590606082015163ffffffff1690565b61159c9088848c612926565b8160038a016115ab8282610f57565b6115b491610f85565b6115bd89610fec565b6115c691612a8b565b6115d08383610f57565b6115da9291610fcf565b604083015160ff1660808401516115f1918c612c2e565b916115fb91610f57565b61160491610f85565b9061160e9061147d565b906001600160801b0316101561162e575061162890610c1f565b97611511565b94509291505061119896506111925f610f3d565b91509761162890610c1f565b50602083015160ff1661166c6116656107da611473565b9160ff1690565b141561156c565b9550955095505050505f1461168c576111bc9091610841565b506111bc6111b6611473565b506111bc91925061120360206111fa5f93610cc685610f3d565b506116bc5f610f4a565b65ffffffffffff8216146114d5565b506116d55f611283565b63ffffffff8516146114ce565b610f0e91905f8080808080611448565b96959493929190732279b7a0a67db372996a5fab50d91eaa73d2ebe63303610f1657610f0e97611727565b6100e460036107cd565b5050505050506117365f610927565b9161174083612250565b61174e6100e4846004610956565b9261175e6110836100d85f610f34565b148015611856575b801561183d575b6111e15761177b8184612744565b5f83019361178b6110fd866109a1565b9261179461171d565b916117a0838583612832565b909390929060ff8085161461182b57506117cc6117c4606086015163ffffffff1690565b86858a612926565b6117ee6117e4600389019261112161111b8786610f57565b61112e8584610f57565b61117f61117961101a61111b8661182561116261115d8d8c61181f6080611819604084015160ff1690565b92015190565b91612cf7565b95610f57565b97955050505050506111bc9150610841565b506118475f610f4a565b65ffffffffffff82161461176d565b506118605f610f3d565b8214611766565b610f0e91905f80808080806116f2565b6100e47359b670e9fa9d0a427751af201d676719a970857b61094d565b61094d565b732279b7a0a67db372996a5fab50d91eaa73d2ebe6331415806118c3575b610f16576101066118ee565b506118d26100d8611894611877565b3314156118b7565b6002821015610bfd57600290910201905f90565b5f6119045f6118fd81846118da565b50016107fa565b6119106115575f610f4a565b1461198f5761192b6119265f6118fd81856118da565b612d4b565b61198c575f5b61193c6107da6107e0565b60ff8216101561198857806119615f61195b6109d561197995876118da565b01610810565b61196f6116656107da611473565b1461197e57610c1f565b611931565b610d2e8184612dee565b5050565b50565b61192b6119265f6118fd6001856118da565b610106611899565b959493929190732279b7a0a67db372996a5fab50d91eaa73d2ebe63303610f16576119d3966119d8565b909192565b506119e9959493929150612e9a9050565b9192909190565b6119d3939291905f611a006107c3565b816119a9565b9796959493929190732279b7a0a67db372996a5fab50d91eaa73d2ebe63303610f1657610f0e98611a8d565b6100e460e0610768565b611a44611a32565b905f8252602080808080808088015f8152015f8152015f5b8152015f611272565b6100e4611a3c565b6100e45f6107cd565b6100e460016107cd565b9190820180921161103157565b979597505050505050611a9f5f610927565b611ab66100e4611aae83612250565b956004610956565b611abf5f610f4a565b65ffffffffffff861614611d5957611ad78582612744565b938490611ae66110fd836109a1565b611aee611a65565b95611af7611a6d565b946060880194611b0a87879060ff169052565b855160ff1660808a0190815296611b208b610841565b63ffffffff1660a08b01908152985f5b611b3b6107da6107e0565b60ff82161015611cde57808c8c8c8c8c8c8c8c8c8c8c611b71611b616115085f9f610c02565b519d8e015165ffffffffffff1690565b611b8265ffffffffffff8916611557565b03611cc357918b9391611b99611bbd9e9415151590565b9081611c9f575b508015611c7a575b611bc5575b5050505050505050505050610c1f565b9b5b9b611b30565b611be1611be698611bda602086015160ff1690565b60ff169052565b612ff0565b95949193969290611c06575b5050935050908c8c8f92878e918e8e611bad565b611c3d94611c2a611c3293611c2660c08c0191611c21835190565b611a80565b9052565b9060ff169052565b9063ffffffff169052565b600180845291611c6d575b611c58575b808d8f808380611bf2565b6020611c6692019015159052565b8c5f611c4d565b8115156040840152611c48565b508d8015611ba85750602083015160ff16611c996116656107da611a76565b14611ba8565b9050611cbc611665611cb5602087015160ff1690565b9260ff1690565b148f611ba0565b5050505050505050505050611cd89150610c1f565b9b611bbf565b505050505050505092919091611cf65f820151151590565b611d0b575050506111b66111bc915160ff1690565b9250925092611d1b60c083015190565b611d4e6020611d46611d3b611d336040880151151590565b985160ff1690565b965163ffffffff1690565b940151151590565b909493929160019190565b93506111bc92505f915060206111fa61120392610cc685610f3d565b610f0e9291905f8080808080611a06565b96959493929190732279b7a0a67db372996a5fab50d91eaa73d2ebe63303610f1657610f0e97611dbb565b6100e460056107cd565b505050505050611dca5f610927565b91611dd483612250565b611de26100e4846004610956565b92611df26110836100d85f610f34565b148015611eba575b8015611ea1575b6111e157611e0f8184612744565b5f830193611e1f6110fd866109a1565b92611e28611db1565b91611e34838583612832565b909390929060ff8085161461182b5750611e586117c4606086015163ffffffff1690565b611e706117e4600389019261112161111b8786610f57565b61117f61117961101a61111b8661182561116261115d8d8c611e9b6080611819604084015160ff1690565b916130d6565b50611eab5f610f4a565b65ffffffffffff821614611e01565b50611ec45f610f3d565b8214611dfa565b610f0e91905f8080808080611d86565b96959493929190732279b7a0a67db372996a5fab50d91eaa73d2ebe63303610f1657610f0e97611f68565b62ffffff81166100f2565b9050519061010682611f06565b906020828203126100d4576100e491611f11565b6040513d5f823e3d90fd5b6100e460066107cd565b90505190610106826102e7565b906020828203126100d4576100e491611f47565b969596505050505050611f7a5f610927565b90611f8482612250565b611f926100e4856004610956565b93611fa26110836100d85f610f34565b1480156121e8575b80156121cf575b6121b757611fbf8185612744565b611fca611894611877565b92611fd460405190565b636fd5ae1560e01b8152602081600481885afa9081156121555761200791612003915f91612188575b50613142565b1590565b61216c57612013611f3d565b9061201f828483612832565b909290919060ff8084161461215a575061204b612043606085015163ffffffff1690565b85848a612926565b866120586110fd826109a1565b95602061206460405190565b631a05f1db60e21b815298899060049082905afa978815612155575f98612124575b506120905f610f3d565b881461210b576120b86120ae600384019261112161111b8886610f57565b61112e8684610f57565b6120e461117961101a61111b876118258d8d8c6120de6080611819604084015160ff1690565b916131c6565b106120f3576111989750612b69565b505050602001516111bc935060ff1691506111b69050565b50505050602001516111bc935060ff1691506111b69050565b61214791985060203d60201161214e575b61213f8183610741565b810190611f54565b965f612086565b503d612135565b611f32565b966111bc965094506108419350505050565b6111bc93505f925061120391506111fa602091610cc685610f3d565b6121aa915060203d6020116121b0575b6121a28183610741565b810190611f1e565b5f611ffd565b503d612198565b50505f61120360206111fa6111bc94610cc685610f3d565b506121d95f610f4a565b65ffffffffffff821614611fb1565b506121f25f610f3d565b8214611faa565b610f0e91905f8080808080611edb565b93929190732279b7a0a67db372996a5fab50d91eaa73d2ebe63303610f1657506119d393506119e9925f92839250612e9a565b6119d391905f61224a6107c3565b81612209565b6122745f61226661226082610f3d565b84610beb565b51015165ffffffffffff1690565b61227d5f610f4a565b65ffffffffffff82160361229e57505f6122666100e492610cc66001610f3d565b905090565b929091906122b7835165ffffffffffff1690565b6122c36115575f610f4a565b14908115612352575b5061234b576122ef6122e560a0850151610cc684610c02565b5163ffffffff1690565b61230561133b6107ef855165ffffffffffff1690565b149283612313575b50505090565b61234292935060606123366122e561129b94610cc660c061083896015191610c02565b94015163ffffffff1690565b145f808061230d565b5050505f90565b905061237661155761236a855165ffffffffffff1690565b9265ffffffffffff1690565b14155f6122cc565b6100e49061239261012c6100e49460ff1690565b901b90565b91906123a9815165ffffffffffff1690565b6123b56115575f610f4a565b1461234b576123e361133b6107ef5f6123d5608088015163ffffffff1690565b94015165ffffffffffff1690565b1491826123ef57505090565b61241c91925061240761010061241792015160ff1690565b926124126001610f3d565b61237e565b6107cd565b166124296116655f6107cd565b141590565b61243661085c565b905f825260208080808086015f611a5c565b6100e461242e565b5f5b82811061245e57505050565b602090612469612448565b8184015201612452565b906101066124836107b784610791565b83612450565b6100e46002612473565b61249b612489565b506124a55f610927565b906124b261192683612250565b610106575f5b6124c36107da6107e0565b60ff8216101561198c57806124e860206111fa6124e261250095610c02565b87610beb565b6124f66116656107da611473565b1461250557610c1f565b6124b8565b61250e5f6107cd565b60ff82160361257e5761253160206111fa6124e261252c60016107cd565b610c02565b612539611a76565b9061254660ff8316611665565b036125755750610d2e61255761171d565b602061256b61256585610c02565b88610beb565b51019060ff169052565b610d2e90612557565b61253160206111fa6124e261252c5f6107cd565b949190939461259f610daf565b5061263a5f946126316125b8845165ffffffffffff1690565b9161262a6125ca602087015160ff1690565b916126216125fd6125df60408a015160ff1690565b6125e7611a76565b166125f46116655f6107cd565b14159289613280565b93612617612609610d57565b65ffffffffffff9098168852565b60ff166020870152565b15156040850152565b6060830152565b968383886122a3565b61264a575b6100e4929394612397565b6100e4929350612664610cf260e0870151610cc685610c02565b93925061263f565b906bffffffff00000000000000009060401b610faf565b6108386100e46100e49263ffffffff1690565b906126a66100e4610fe892612683565b825461266c565b6108386100e46100e49265ffffffffffff1690565b9063ffffffff60801b9060801b610faf565b906126e46100e4610fe892612683565b82546126c2565b9060ff90610faf565b6107da6100e46100e49260ff1690565b906127146100e4610fe8926126f4565b82546126eb565b9063ffffffff60601b9060601b610faf565b9061273d6100e4610fe892612683565b825461271b565b9061274e8261098b565b61275a61129b5f611283565b14612824576127688261098b565b6127715f611283565b63ffffffff8216141590816127fe575b506127e7575b8190612792826109b7565b6127a365ffffffffffff831661133b565b036127ad57505050565b610106926127c66127c06127d8936126ad565b846126d4565b60046127d15f6107cd565b9101612704565b6127e181610841565b9061272d565b6127f96127f35f611283565b83612696565b612787565b61281491506114346107ef9161142e6001611283565b65ffffffffffff8216115f612781565b61282d82610975565b612768565b929161283c612448565b60ff94905f5b61284d6107da6107e0565b60ff821610156128be5761286361226082610c02565b51805165ffffffffffff1661287f65ffffffffffff8816611557565b14806128a3575b612899575061289490610c1f565b612842565b9650949350505050565b50602081015160ff166128b860ff8716611665565b14612886565b50949392505050565b9091906002831015610bfd576008610f6e60049290565b6100e4916008021c610838565b906100e491546128de565b91906008610faf910291610faa63ffffffff841b90565b919061291e6100e4610fe893612683565b9083546128f6565b91906001830161293f61293983836128c7565b906128eb565b61295065ffffffffffff851661133b565b141580156129b5575b612965575b5050505050565b6129ab9461298c612999926129868561298061112e986126ad565b926128c7565b9061290d565b61298683600287016128c7565b60036129a45f610c12565b9301610f57565b5f8080808061295e565b506129c661293983600287016128c7565b6129d563ffffffff871661129b565b1415612959565b6100e4600a611283565b634e487b7160e01b5f52601260045260245ffd5b612a099063ffffffff1661129b565b908115612a14570490565b6129e6565b6108386100e46100e49260ff1690565b6107da6100e46100e49263ffffffff1690565b612a596100e491612a4a5f90565b50612a536129dc565b906129fa565b80612a626107e0565b90612a6f61129b83612a19565b11612a7b575b50612a29565b612a859150612a19565b5f612a75565b6100e49161011c612aa392612a9d5f90565b50611036565b6001600160801b0381612ab861012c83611036565b11612ac4575b50610c12565b612ace9150611036565b5f612abe565b6100e4750dac0ce40c1c0b540a8c09c408fc0834076c06a405dc610f3d565b612b006100e46100e49290565b61ffff1690565b6100e46103e8612af3565b6108386100e46100e49261ffff1690565b6100e492612b43612b4992612b355f90565b50612b3e612ad4565b613495565b926134cf565b90612b64612b5e612b58612b07565b92612b12565b91612b12565b6134fe565b9394959092612b8a909792975f608052612b805f90565b6080528886613638565b60a08290526080859052949b929a919990989497919490939092908a898d8f8d15612c1357505050505090612bce9594939291612bc760016107cd565b1891613836565b9490929192612be8575b50505050612be257565b60019150565b919850929650612bf89198611a80565b96612c09575b94935f808080612bd8565b6001608052612bfe565b608094909452929e50919c509a505f99509750505050505050565b91612c38916134cf565b90612c436001611283565b91612c4f6102ee612af3565b61ffff82161115612c8b57509050612c73611424612c6d6003611283565b92612a19565b63ffffffff811663ffffffff83165b1161229e575090565b612ca1612c996101f4612af3565b9161ffff1690565b11612cb3575b611424612c7391612a19565b9050612c73611424612cc56002611283565b92915050612ca7565b6100e475060e060e060e060e060e060e04e203e80320028a01f4610f3d565b6100e460fa612af3565b6100e492612b43612d1292612d095f90565b50612b3e612cce565b90612b64612b5e612b58612ced565b60ff81166100f2565b9050519061010682612d21565b906020828203126100d4576100e491612d2a565b50612d57611894611877565b6020612d6260405190565b63d1f9c24d60e01b815291829060049082905afa908115612155575f91612d96575b50612d9261166560036107cd565b1490565b612db8915060203d602011612dbe575b612db08183610741565b810190612d37565b5f612d84565b503d612da6565b9066ff0000000000009060301b610faf565b90612de76100e4610fe8926126f4565b8254612dc5565b90612e2e5f61195b6109d561010695612e0a6109d587836118da565b95612e17611665866107cd565b148414612e7857612e2860016107cd565b906118da565b612e36611a76565b90612e4360ff8316611665565b03612e6d5750612e5f5f612e5561171d565b925b019182612dd7565b612e67613933565b90612696565b5f612e5f9192612e57565b612e28846107cd565b6100e490612e9561012c6100e49460ff1690565b901c90565b5f94929391612ea76107c3565b95505f90612eb483612d4b565b958615612fe6575b612fa893612f9c93612f6d5f94612f7e94612ed561397b565b612edd613b12565b90612ee860806107cd565b612efc612ef58287612e81565b918661237e565b179d8e938a14612fd357612f0e611a76565b809d5b8b14612fc5575050505050612f24611473565b612f5b612f44612f3f612f386103ff610f3d565b8516612af3565b614052565b809b819488612f566109d58d8b6118da565b614124565b60019b8c95612f566109d588886118da565b612f97612f8585612f7e81856118da565b5001610810565b611c2a612f9187610f3d565b8d610beb565b6118da565b611c2a6124e286610f3d565b612fb0611a76565b16612fbd6116655f6107cd565b141591929190565b612fce94613dd8565b612f24565b612fdf83838388613bba565b809d612f11565b9395508593612ebc565b9592919493612ffc5f90565b50613023613010875165ffffffffffff1690565b606088015163ffffffff1690858a612926565b61304a6117e4600389019261304461303e61111b8887610f57565b91610fec565b90612a8b565b61308861307b61307561111b866118258b61306e6080611819604084015160ff1690565b908c612c2e565b9261147d565b916001600160801b031690565b10156130a457505050505f61120360206111bc93015160ff1690565b906111989594916111925f610f3d565b6130c39063ffffffff1661129b565b029063ffffffff82165b91820361103157565b6130e1929190612b23565b6130f761129b6130f16002611283565b836130b4565b63ffffffff8216106131065790565b5063ffffffff90565b61311c6100e46100e49290565b62ffffff1690565b6131379062ffffff165b9162ffffff1690565b908115612a14570690565b61314b5f61310f565b62ffffff82161461319d57613160600a61310f565b62ffffff8216106131905761317f90613179600a61310f565b90613124565b61318c61312e600561310f565b1090565b61318c61312e600661310f565b505f90565b90612a09565b6100e46100e46100e49261ffff1690565b9190820391821161103157565b909291906131d35f610f3d565b83146132735761321e6132136132249261117361320d6131fc6131f660016107cd565b89612e81565b976132076002610f3d565b906131a2565b91610c02565b61320761252c6107e0565b83611a80565b928284111561326c57613253613249613244613264959461325e946134cf565b6131a8565b61117384876131b9565b613207610400610f3d565b90611a80565b908082612c82565b5050905090565b505050506100e45f610f3d565b919061328a610d84565b809361329a602082015160ff1690565b6132a56107da611a6d565b60ff8216036132dc57506132d161010693826132cb608061181960405f97015160ff1690565b91612c2e565b63ffffffff16910152565b6132e76107da611a76565b60ff82160361330d57506132d161010693826132cb608061181960405f97015160ff1690565b6133186107da611473565b60ff82160361333e57506132d161010693826132cb608061181960405f97015160ff1690565b6133496107da6107e0565b60ff821603613381575061337c61116261115d610106958461337660806118196040602099015160ff1690565b91612b23565b910152565b61338c6107da611db1565b60ff8216036133b9575061337c61116261115d6101069584611e9b60806118196040602099015160ff1690565b6133c46107da61171d565b60ff8216036133f1575061337c61116261115d610106958461181f60806118196040602099015160ff1690565b6133ff6116656107da611f3d565b1461340957505050565b613414611894611877565b602061341f60405190565b631a05f1db60e21b815291829060049082905afa8015612155576101069460209361337c935f9361345f575b506120de6080611819604084015160ff1690565b613477919350853d871161214e5761213f8183610741565b915f61344b565b61348a9060ff16611665565b029060ff82166130cd565b6134be906134b86100e4936134a75f90565b506134b260106107cd565b9061347e565b90612e81565b6134c961ffff610f3d565b16612af3565b506100e4906134c96103ff610f3d565b6134ee9063ffffffff1661129b565b90039063ffffffff821161103157565b909163ffffffff821663ffffffff84161115613561579061142e61354b6132536135509461117361354161353b613535888b6134df565b936131a8565b92610fec565b61325e6001610f3d565b611283565b9081612c8263ffffffff831661129b565b50905090565b9067ffffffff000000009060201b610faf565b9061358a6100e4610fe892612683565b8254613567565b6107da906123926116656100e49460ff1690565b6135b19060ff16611665565b90039060ff821161103157565b6100e46135cb60016107cd565b6135dc6135d66107e0565b82613591565b6135a5565b6100e460806107cd565b9063ffffffff90610faf565b906136076100e4610fe892612683565b82546135eb565b6100e4683635c9adc5dea00000610f3d565b6100e461321361362e61360e565b6132076005610f3d565b92905f91600485019361364a85610ae7565b61365c61241760019561241287610f3d565b9081811661366c6116655f6107cd565b0361381c5717948590825f613687825165ffffffffffff1690565b9901986136996115576114348c61098b565b116137fb575b6136a889610841565b96976136b26135be565b81166136c26116656107da6135be565b14806137de575b61377d575b5050869392916136dd91612704565b613735604082016136ef815160ff1690565b6136f7611a76565b166137046116655f6107cd565b141598851561376b575061325e87915b613730613728613722613620565b94612a3c565b915160ff1690565b614156565b809661374e575b506020015160ff165b94959493929190565b61374591965061376360209161325e88614202565b96915061373c565b61377761325e916109a1565b91613714565b925095509291955061378d6135e1565b17946137cf6137c96137c46137ad6137a48b610841565b61142e89611283565b976137b8898c612696565b5165ffffffffffff1690565b6126ad565b886135f7565b6136dd8496919293905f6136ce565b506137e76135e1565b81166137f56116655f6107cd565b146136c9565b6138176138116137c4835165ffffffffffff1690565b8a61357a565b61369f565b505060200151909493506111bc92505f915060ff16611203565b9491929390613850906138465f90565b50610cc685610c02565b5193613862855165ffffffffffff1690565b61386e6115575f610f4a565b149081156138fc575b506138e75761388860048601610ae7565b613899612417856124126001610f3d565b166138a66116655f6107cd565b036138e7576138bb91612003918486886142a4565b6138d4576138c892613638565b94959394929391929091565b505f61120360206111bc93015160ff1690565b5050505f61120360206111bc93015160ff1690565b905061391461155761236a875165ffffffffffff1690565b14155f613877565b63ffffffff1663ffffffff81146110315760010190565b61393d6005610975565b6100e46139498261391c565b60056135f7565b905051906101068261059c565b906020828203126100d4576100e491613950565b6100e4606461310f565b613986611894611877565b60405163f97febef60e01b8152602081600481855afa8015612155576139b1915f91613a9d57501590565b61319d5760206139c060405190565b636fd5ae1560e01b815291829060049082905afa908115612155575f91613a7e575b506139ec5f61310f565b62ffffff8216141580613a60575b613a5a57613a08600f61310f565b62ffffff82161061319d57613a26613a20600a61310f565b82613124565b613a3361312e600561310f565b149081613a3e575090565b613a4d9150613179606461310f565b61242961312e605f61310f565b50600190565b50613a6c613a20613971565b613a7861312e5f61310f565b146139fa565b613a97915060203d6020116121b0576121a28183610741565b5f6139e2565b612003915060203d602011613abf575b613ab78183610741565b81019061395d565b503d613aad565b919060a0838203126100d457613adc8184611f11565b92613aea8260208301612d2a565b926100e4613afb8460408501613950565b936080613b0b8260608701613950565b9401611f47565b613b1d611894611877565b60a0613b2860405190565b637f84d03d60e01b815291829060049082905afa908115612155575f91613b4d575090565b613b6f915060a03d60a011613b77575b613b678183610741565b810190613ac6565b505091505090565b503d613b5d565b6100e460076107cd565b6100e460076107a7565b906007610bef565b613ba79061ffff16612c99565b019061ffff821161103157565b90613137565b5f9291613bc5613b88565b918491613bd26005612af3565b96613bfa613bde611a76565b98613bf1613beb8b610c02565b88613b92565b9061ffff169052565b613db8575b613d98575b613c25613c116002612af3565b613bf1613c1f61252c611f3d565b86613b92565b600193613c49613c356001612af3565b613bf1613c4361252c61171d565b87613b92565b613d78575b8484805b613d2a575b5050613c625f612af3565b61ffff831614613d2257613c8090613c7a85936131a8565b90613bb4565b93905b613c8f575b5050505090565b613c9a6107da613b7e565b60ff82161015613d1d57613cc1613cb9613cb383610c02565b84613b92565b5161ffff1690565b613cca5f612af3565b61ffff821603613ce5575b50613cdf90610c1f565b82613c83565b613cf1819592956131a8565b8210613d1457613cdf91613d07613d0d926131a8565b906131b9565b9390613cd5565b50505050905090565b613c88565b505050505090565b9092613d376107da613b7e565b60ff85161015613d7057613d63613d6991613d5d613cb9613d5788610c02565b89613b92565b90613b9a565b93610c1f565b9080613c52565b925080613c57565b613d93613d856004612af3565b613bf1613c1f61252c611db1565b613c4e565b613db3613da56002612af3565b613bf1613c1f61252c611473565b613c04565b613dd3613dc5600a612af3565b613bf1613c4361252c611a6d565b613bff565b9394925f9291613de6613b88565b93809581965b613df76107da613b7e565b60ff89161015613f7b5760ff841660ff891614613f2957851580613f65575b613f2957841580613f4f575b613f2957891580613f39575b613f2957613e88613e8e91613e436001612af3565b90613e4f6107da611a6d565b60ff8c161480613f22575b15613e9757613e7d9150613e838b613bf1613e75600a612af3565b948592610c02565b8d613b92565b613b9a565b97610c1f565b975b9796613dec565b613ea26107da611db1565b60ff8c161480613f1b575b15613ec857613e7d9150613e838b613bf1613e756004612af3565b8a613ed46107da611473565b60ff82161480613f14575b613ef4575b82613bf1613e7d613e8393610c02565b613e7d9250613e8390613bf1613f0a6002612af3565b9450509050613ee4565b5089613edf565b5087613ead565b508c613e5a565b96613f3390610c1f565b97613e90565b50613f456107da611a6d565b60ff891614613e2e565b50613f5b6107da611db1565b60ff891614613e22565b50613f716107da611473565b60ff891614613e16565b935095509650949150613f8d5f612af3565b61ffff8216146140455790613c7a613fa4926131a8565b935b613fb16107da613b7e565b60ff8216101561401e57613fca613cb9613cb383610c02565b613fd35f612af3565b61ffff821603613fed575b50613fe890610c1f565b613fa6565b613ff9819692966131a8565b821061401657613fe891613d0761400f926131a8565b9490613fde565b509192505050565b5050915061402a611a76565b9061403760ff8316611665565b036100e457506100e461171d565b505050915061402a611a76565b61405d6102ee612af3565b61ffff82161161408b57614075612c996101f4612af3565b11614083576100e45f6107cd565b6100e4611a76565b50614094611a76565b61409c6107e0565b1790565b9065ffffffffffff90610faf565b6107ef6100e46100e49265ffffffffffff1690565b906140d36100e4610fe8926140ae565b82546140a0565b9067ff000000000000009060381b610faf565b906140fd6100e4610fe8926126f4565b82546140da565b905f1990610faf565b9061411d6100e4610fe892610f3d565b8254614104565b6001906141506101069661414a612e5f9695976141445f8601998a6140c3565b88612dd7565b866140ed565b0161410d565b61415e6107e0565b80821661416d6116655f6107cd565b141590816141e2575b506141ce57614183611a76565b166141906116655f6107cd565b141590816141b9575b506141a7576100e45f610f3d565b6100e46802b5e3af16b1880000610f3d565b90506141c76116655f6107cd565b115f614199565b50506100e468056bc75e2d63100000610f3d565b60ff16905060ff831610155f614176565b6131379063ffffffff1661129b565b61420b5f611283565b63ffffffff821614801561427f575b6142755761422a90612a536129dc565b8061423861129b6003611283565b11614258575b61116261424d6100e492610fec565b6111736101f4610f3d565b506100e461116261424d61426c6003611283565b9250505061423e565b506100e45f610f3d565b5061429161428b6129dc565b826141f3565b61429d61129b5f611283565b141561421a565b90916142cc6120036142bc855165ffffffffffff1690565b83866142c787610bce565b6122a3565b6144d45761111b6142e39160036142e89401610f57565b611036565b92602082016142f8815160ff1690565b6143066116656107da611a6d565b146144b457805160ff1661431e6116656107da611a76565b146144b457805160ff166143366116656107da611473565b146144b457805160ff1661434e6116656107da6107e0565b1461448e57805160ff166143666116656107da611db1565b1461446857805160ff1661437e6116656107da61171d565b14614442575160ff166143956116656107da611f3d565b146143a257505050505f90565b6143ab5f610f3d565b81146143d75761012c916143d2936100e492915b6120de6080611819604084015160ff1690565b101590565b506143e3611894611877565b60206143ee60405190565b631a05f1db60e21b815291829060049082905afa918215612155576143d29361012c936100e4935f91614423575b50916143bf565b61443c915060203d60201161214e5761213f8183610741565b5f61441c565b50506100e461116261115d6143d2948461181f6080611819604061012c99015160ff1690565b50506100e461116261115d6143d29484611e9b6080611819604061012c99015160ff1690565b50506100e461116261115d6143d294846133766080611819604061012c99015160ff1690565b505061115d6143d292826132cb6080611819604061012c97015160ff1690565b50505050505f9056fea26469706673582212203b1999f4aea92dc55200ced46ec17914b1a9bba79613095b5d8be55edb63177a64736f6c634300081e0033","linkReferences":{}},"methodIdentifiers":{"getActiveQuests()":"029a8c58","getPlayerQuestView(address)":"84f3bf33","handleAffiliate(address,uint256)":"a2662645","handleBondPurchase(address,uint256)":"e69b5834","handleBurn(address,uint32)":"905ffc26","handleDecimator(address,uint256)":"dfd2397c","handleFlip(address,uint256)":"5b63b2ee","handleMint(address,uint32,bool)":"c9d2cbbf","normalizeActiveBurnQuests()":"b1c775e9","playerQuestStates(address)":"003ea7e6","rollDailyQuest(uint48,uint256)":"ef4f779a","rollDailyQuestWithOverrides(uint48,uint256,bool,bool)":"c93c82f5"},"id":8}