{"abi":[{"type":"constructor","inputs":[{"name":"name_","type":"string","internalType":"string"},{"name":"symbol_","type":"string","internalType":"string"},{"name":"vault_","type":"address","internalType":"address"},{"name":"initialSupply","type":"uint256","internalType":"uint256"},{"name":"initialHolder","type":"address","internalType":"address"}],"stateMutability":"nonpayable"},{"type":"function","name":"allowance","inputs":[{"name":"","type":"address","internalType":"address"},{"name":"","type":"address","internalType":"address"}],"outputs":[{"name":"","type":"uint256","internalType":"uint256"}],"stateMutability":"view"},{"type":"function","name":"approve","inputs":[{"name":"spender","type":"address","internalType":"address"},{"name":"amount","type":"uint256","internalType":"uint256"}],"outputs":[{"name":"","type":"bool","internalType":"bool"}],"stateMutability":"nonpayable"},{"type":"function","name":"balanceOf","inputs":[{"name":"","type":"address","internalType":"address"}],"outputs":[{"name":"","type":"uint256","internalType":"uint256"}],"stateMutability":"view"},{"type":"function","name":"decimals","inputs":[],"outputs":[{"name":"","type":"uint8","internalType":"uint8"}],"stateMutability":"view"},{"type":"function","name":"name","inputs":[],"outputs":[{"name":"","type":"string","internalType":"string"}],"stateMutability":"view"},{"type":"function","name":"symbol","inputs":[],"outputs":[{"name":"","type":"string","internalType":"string"}],"stateMutability":"view"},{"type":"function","name":"totalSupply","inputs":[],"outputs":[{"name":"","type":"uint256","internalType":"uint256"}],"stateMutability":"view"},{"type":"function","name":"transfer","inputs":[{"name":"to","type":"address","internalType":"address"},{"name":"amount","type":"uint256","internalType":"uint256"}],"outputs":[{"name":"","type":"bool","internalType":"bool"}],"stateMutability":"nonpayable"},{"type":"function","name":"transferFrom","inputs":[{"name":"from","type":"address","internalType":"address"},{"name":"to","type":"address","internalType":"address"},{"name":"amount","type":"uint256","internalType":"uint256"}],"outputs":[{"name":"","type":"bool","internalType":"bool"}],"stateMutability":"nonpayable"},{"type":"function","name":"vaultBurn","inputs":[{"name":"from","type":"address","internalType":"address"},{"name":"amount","type":"uint256","internalType":"uint256"}],"outputs":[],"stateMutability":"nonpayable"},{"type":"function","name":"vaultMint","inputs":[{"name":"to","type":"address","internalType":"address"},{"name":"amount","type":"uint256","internalType":"uint256"}],"outputs":[],"stateMutability":"nonpayable"},{"type":"event","name":"Approval","inputs":[{"name":"owner","type":"address","indexed":true,"internalType":"address"},{"name":"spender","type":"address","indexed":true,"internalType":"address"},{"name":"amount","type":"uint256","indexed":false,"internalType":"uint256"}],"anonymous":false},{"type":"event","name":"Transfer","inputs":[{"name":"from","type":"address","indexed":true,"internalType":"address"},{"name":"to","type":"address","indexed":true,"internalType":"address"},{"name":"amount","type":"uint256","indexed":false,"internalType":"uint256"}],"anonymous":false},{"type":"error","name":"Insufficient","inputs":[]},{"type":"error","name":"Unauthorized","inputs":[]},{"type":"error","name":"ZeroAddress","inputs":[]}],"bytecode":{"object":"0x60a06040523461003e5761001d6100146101b5565b93929092610417565b6040516109b86104fe82396080518181816106fb015261081801526109b890f35b5f80fd5b634e487b7160e01b5f52604160045260245ffd5b90601f01601f191681019081106001600160401b0382111761007757604052565b610042565b9061009061008960405190565b9283610056565b565b6001600160401b03811161007757602090601f01601f19160190565b90825f9392825e0152565b909291926100ce6100c982610092565b61007c565b938185528183011161003e576100909160208501906100ae565b9080601f8301121561003e578151610102926020016100b9565b90565b6001600160a01b031690565b6001600160a01b0381165b0361003e57565b9050519061009082610111565b8061011c565b9050519061009082610130565b919060a08382031261003e5782516001600160401b03811161003e578161016b9185016100e8565b60208401519093906001600160401b03811161003e578261018d9183016100e8565b9261010261019e8460408501610123565b9360806101ae8260608701610136565b9401610123565b6101d3610eb6803803806101c88161007c565b928339810190610143565b9091929394565b6101056101026101029290565b610102906101da565b634e487b7160e01b5f52602260045260245ffd5b9060016002830492168015610224575b602083101461021f57565b6101f0565b91607f1691610214565b915f1960089290920291821b911b5b9181191691161790565b6101026101026101029290565b919061026561010261026d93610247565b90835461022e565b9055565b610090915f91610254565b818110610287575050565b806102945f600193610271565b0161027c565b9190601f81116102a957505050565b6102b9610090935f5260205f2090565b906020601f8401819004830193106102db575b6020601f90910104019061027c565b90915081906102cc565b906102ee815190565b906001600160401b038211610077576103118261030b8554610204565b8561029a565b602090601f831160011461034a5761026d92915f918361033f575b50505f19600883021c1916906002021790565b015190505f8061032c565b601f1983169161035d855f5260205f2090565b925f5b81811061039957509160029391856001969410610381575b50505002019055565b01515f196008601f8516021c191690555f8080610378565b91936020600181928787015181550195019201610360565b90610090916102e5565b905f199061023d565b906103d461010261026d92610247565b82546103bb565b61010290610105906001600160a01b031682565b610102906103db565b610102906103ef565b9061040b906103f8565b5f5260205260405f2090565b9392939190916104265f6101e7565b926001600160a01b0384166001600160a01b0384161480156104e2575b6104d1577fddf252ad1be2c89b69c2b068fc378daa952ba7f163c4a11628f55a4df523b3ef936104cc936104886104af936104816104b5965f6103b1565b60016103b1565b6080526104968760026103c4565b6104aa876104a5886003610401565b6103c4565b6103f8565b936103f8565b936104bf60405190565b9182918290815260200190565b0390a3565b63d92e233d60e01b5f908152600490fd5b506001600160a01b0384166001600160a01b0386161461044356fe60806040526004361015610011575f80fd5b5f3560e01c806306fdde03146100c0578063095ea7b3146100bb57806318160ddd146100b657806323b872dd146100b1578063313ce567146100ac57806370a08231146100a757806395d89b41146100a2578063a9059cbb1461009d578063aa8c5c9514610098578063c2d57a5c146100935763dd62ed3e036100c557610555565b610501565b6104e3565b6104c7565b6104ac565b610486565b6103f3565b6103b2565b61035d565b61030e565b610282565b5f80fd5b5f9103126100c557565b634e487b7160e01b5f525f60045260245ffd5b634e487b7160e01b5f52602260045260245ffd5b906001600283049216801561011a575b602083101461011557565b6100e6565b91607f169161010a565b80545f939291610140610136836100fa565b8085529360200190565b916001811690811561018f575060011461015957505050565b61016a91929394505f5260205f2090565b915f925b81841061017b5750500190565b80548484015260209093019260010161016e565b92949550505060ff1916825215156020020190565b906101ae91610124565b90565b634e487b7160e01b5f52604160045260245ffd5b90601f01601f1916810190811067ffffffffffffffff8211176101e757604052565b6101b1565b9061020d610206926101fd60405190565b938480926101a4565b03836101c5565b565b905f1061021f576101ae906101ec565b6100d3565b6101ae5f8061020f565b90825f9392825e0152565b61025a61026360209361026d9361024e815190565b80835293849260200190565b9586910161022e565b601f01601f191690565b0190565b60208082526101ae92910190610239565b346100c5576102923660046100c9565b6102a961029d610224565b60405191829182610271565b0390f35b6001600160a01b031690565b6001600160a01b0381165b036100c557565b9050359061020d826102b9565b806102c4565b9050359061020d826102d8565b91906040838203126100c5576101ae90602061030782866102cb565b94016102de565b346100c5576102a961032a6103243660046102eb565b90610592565b60405191829182901515815260200190565b6101ae916008021c81565b906101ae915461033c565b6101ae5f6002610347565b346100c55761036d3660046100c9565b6102a9610378610352565b6040515b9182918290815260200190565b90916060828403126100c5576101ae6103a284846102cb565b93604061030782602087016102cb565b346100c5576102a961032a6103c8366004610389565b91610629565b6103db6101ae6101ae9290565b60ff1690565b6101ae60126103ce565b6101ae6103e1565b346100c5576104033660046100c9565b6102a961040e6103eb565b6040519182918260ff909116815260200190565b906020828203126100c5576101ae916102cb565b6101ae906102ad906001600160a01b031682565b6101ae90610436565b6101ae9061044a565b9061046690610453565b5f5260205260405f2090565b5f6104816101ae92600361045c565b610347565b346100c5576102a961037861049c366004610422565b610472565b6101ae5f600161020f565b346100c5576104bc3660046100c9565b6102a961029d6104a1565b346100c5576102a961032a6104dd3660046102eb565b906106e5565b346100c5576104fc6104f63660046102eb565b90610803565b604051005b346100c5576104fc6105143660046102eb565b906108e5565b91906040838203126100c5576101ae90602061053682866102cb565b94016102cb565b6104816101ae926105505f93600461045c565b61045c565b346100c5576102a961037861056b36600461051a565b9061053d565b6101ae6101ae6101ae9290565b906101ae6101ae61058e92610571565b9055565b6105aa826105a58361055033600461045c565b61057e565b7f8c5be1e5ebec7d5bd14f71427d1e84f3dd0314c0f7b2291e5b200ac8c7c3b9256105ea6105e06105da33610453565b93610453565b9361037c60405190565b0390a3600190565b6101ae9081565b6101ae90546105f2565b634e487b7160e01b5f52601160045260245ffd5b9190820391821161062457565b610603565b92919060049361064b61064661063f838861045c565b339061045c565b6105f9565b5f198103610665575b506106609394506108ef565b600190565b8381106106d55761064661063f8361066097986105506106888961069597610617565b6105a561063f858561045c565b61069e82610453565b7f8c5be1e5ebec7d5bd14f71427d1e84f3dd0314c0f7b2291e5b200ac8c7c3b9256106cb6105e033610453565b0390a38493610654565b631dc930eb60e01b5f9081528690fd5b6106609190336108ef565b906001600160a01b037f000000000000000000000000000000000000000000000000000000000000000016330361072a5761020d9161075d565b6282b42960e81b5f908152600490fd5b6102ad6101ae6101ae9290565b6101ae9061073a565b9190820180921161062457565b6107665f610747565b6001600160a01b0381166001600160a01b038316146107f2576107ed6105e06105da7fddf252ad1be2c89b69c2b068fc378daa952ba7f163c4a11628f55a4df523b3ef936107c76107c0886107bb60026105f9565b610750565b600261057e565b6107e86107d587600361045c565b6107e28961026d836105f9565b9061057e565b610453565b0390a3565b63d92e233d60e01b5f908152600490fd5b9061020d916106f0565b906001600160a01b037f000000000000000000000000000000000000000000000000000000000000000016330361072a5761020d9161085061064682600361045c565b6108595f610571565b831480156108dc575b6108cb576108728361087d920390565b6105a583600361045c565b6108926107c08361088e60026105f9565b0390565b7fddf252ad1be2c89b69c2b068fc378daa952ba7f163c4a11628f55a4df523b3ef6107ed6105e06105da6108c55f610747565b94610453565b631dc930eb60e01b5f908152600490fd5b50808311610862565b9061020d9161080d565b6108fb6102ad5f610747565b6001600160a01b038316146107f25760039061091a610646828461045c565b6109235f610571565b85148015610979575b6108cb576105da6107ed926107e86107d5877fddf252ad1be2c89b69c2b068fc378daa952ba7f163c4a11628f55a4df523b3ef9761055061096f8c6105e0990390565b6105a5878461045c565b5080851161092c56fea2646970667358221220266c494b2ebd3c523c04020eceaa26ca8e185e4c8711291dfa92076dd7b257b264736f6c634300081e0033","linkReferences":{}},"methodIdentifiers":{"allowance(address,address)":"dd62ed3e","approve(address,uint256)":"095ea7b3","balanceOf(address)":"70a08231","decimals()":"313ce567","name()":"06fdde03","symbol()":"95d89b41","totalSupply()":"18160ddd","transfer(address,uint256)":"a9059cbb","transferFrom(address,address,uint256)":"23b872dd","vaultBurn(address,uint256)":"c2d57a5c","vaultMint(address,uint256)":"aa8c5c95"},"id":11}