{"abi":[{"type":"constructor","inputs":[],"stateMutability":"nonpayable"},{"type":"receive","stateMutability":"payable"},{"type":"function","name":"burnAll","inputs":[{"name":"amount","type":"uint256","internalType":"uint256"}],"outputs":[{"name":"ethOut","type":"uint256","internalType":"uint256"},{"name":"stEthOut","type":"uint256","internalType":"uint256"},{"name":"coinOut","type":"uint256","internalType":"uint256"},{"name":"dgnrsOut","type":"uint256","internalType":"uint256"}],"stateMutability":"nonpayable"},{"type":"function","name":"burnCoin","inputs":[{"name":"amount","type":"uint256","internalType":"uint256"}],"outputs":[{"name":"coinOut","type":"uint256","internalType":"uint256"}],"stateMutability":"nonpayable"},{"type":"function","name":"burnDgnrs","inputs":[{"name":"amount","type":"uint256","internalType":"uint256"}],"outputs":[{"name":"dgnrsOut","type":"uint256","internalType":"uint256"}],"stateMutability":"nonpayable"},{"type":"function","name":"burnEth","inputs":[{"name":"amount","type":"uint256","internalType":"uint256"}],"outputs":[{"name":"ethOut","type":"uint256","internalType":"uint256"},{"name":"stEthOut","type":"uint256","internalType":"uint256"}],"stateMutability":"nonpayable"},{"type":"function","name":"decimals","inputs":[],"outputs":[{"name":"","type":"uint8","internalType":"uint8"}],"stateMutability":"view"},{"type":"function","name":"deposit","inputs":[{"name":"coinAmount","type":"uint256","internalType":"uint256"},{"name":"stEthAmount","type":"uint256","internalType":"uint256"}],"outputs":[],"stateMutability":"payable"},{"type":"function","name":"depositDgnrs","inputs":[{"name":"dgnrsAmount","type":"uint256","internalType":"uint256"}],"outputs":[],"stateMutability":"nonpayable"},{"type":"function","name":"name","inputs":[],"outputs":[{"name":"","type":"string","internalType":"string"}],"stateMutability":"view"},{"type":"function","name":"previewAll","inputs":[{"name":"amount","type":"uint256","internalType":"uint256"}],"outputs":[{"name":"ethOut","type":"uint256","internalType":"uint256"},{"name":"stEthOut","type":"uint256","internalType":"uint256"},{"name":"coinOut","type":"uint256","internalType":"uint256"},{"name":"dgnrsOut","type":"uint256","internalType":"uint256"}],"stateMutability":"view"},{"type":"function","name":"previewBurnForCoinOut","inputs":[{"name":"coinOut","type":"uint256","internalType":"uint256"}],"outputs":[{"name":"burnAmount","type":"uint256","internalType":"uint256"}],"stateMutability":"view"},{"type":"function","name":"previewBurnForDgnrsOut","inputs":[{"name":"dgnrsOut","type":"uint256","internalType":"uint256"}],"outputs":[{"name":"burnAmount","type":"uint256","internalType":"uint256"}],"stateMutability":"view"},{"type":"function","name":"previewBurnForEthOut","inputs":[{"name":"targetValue","type":"uint256","internalType":"uint256"}],"outputs":[{"name":"burnAmount","type":"uint256","internalType":"uint256"},{"name":"ethOut","type":"uint256","internalType":"uint256"},{"name":"stEthOut","type":"uint256","internalType":"uint256"}],"stateMutability":"view"},{"type":"function","name":"previewCoin","inputs":[{"name":"amount","type":"uint256","internalType":"uint256"}],"outputs":[{"name":"coinOut","type":"uint256","internalType":"uint256"}],"stateMutability":"view"},{"type":"function","name":"previewDgnrs","inputs":[{"name":"amount","type":"uint256","internalType":"uint256"}],"outputs":[{"name":"dgnrsOut","type":"uint256","internalType":"uint256"}],"stateMutability":"view"},{"type":"function","name":"previewEth","inputs":[{"name":"amount","type":"uint256","internalType":"uint256"}],"outputs":[{"name":"ethOut","type":"uint256","internalType":"uint256"},{"name":"stEthOut","type":"uint256","internalType":"uint256"}],"stateMutability":"view"},{"type":"function","name":"swapWithBonds","inputs":[{"name":"stEthForEth","type":"bool","internalType":"bool"},{"name":"amount","type":"uint256","internalType":"uint256"}],"outputs":[],"stateMutability":"payable"},{"type":"function","name":"symbol","inputs":[],"outputs":[{"name":"","type":"string","internalType":"string"}],"stateMutability":"view"},{"type":"event","name":"Approval","inputs":[{"name":"owner","type":"address","indexed":true,"internalType":"address"},{"name":"spender","type":"address","indexed":true,"internalType":"address"},{"name":"amount","type":"uint256","indexed":false,"internalType":"uint256"}],"anonymous":false},{"type":"event","name":"Claim","inputs":[{"name":"from","type":"address","indexed":true,"internalType":"address"},{"name":"sharesBurned","type":"uint256","indexed":false,"internalType":"uint256"},{"name":"ethOut","type":"uint256","indexed":false,"internalType":"uint256"},{"name":"stEthOut","type":"uint256","indexed":false,"internalType":"uint256"},{"name":"coinOut","type":"uint256","indexed":false,"internalType":"uint256"}],"anonymous":false},{"type":"event","name":"ClaimAll","inputs":[{"name":"from","type":"address","indexed":true,"internalType":"address"},{"name":"sharesBurned","type":"uint256","indexed":false,"internalType":"uint256"},{"name":"ethOut","type":"uint256","indexed":false,"internalType":"uint256"},{"name":"stEthOut","type":"uint256","indexed":false,"internalType":"uint256"},{"name":"coinOut","type":"uint256","indexed":false,"internalType":"uint256"},{"name":"dgnrsOut","type":"uint256","indexed":false,"internalType":"uint256"}],"anonymous":false},{"type":"event","name":"ClaimDgnrs","inputs":[{"name":"from","type":"address","indexed":true,"internalType":"address"},{"name":"sharesBurned","type":"uint256","indexed":false,"internalType":"uint256"},{"name":"dgnrsOut","type":"uint256","indexed":false,"internalType":"uint256"}],"anonymous":false},{"type":"event","name":"Deposit","inputs":[{"name":"from","type":"address","indexed":true,"internalType":"address"},{"name":"ethAmount","type":"uint256","indexed":false,"internalType":"uint256"},{"name":"stEthAmount","type":"uint256","indexed":false,"internalType":"uint256"},{"name":"coinAmount","type":"uint256","indexed":false,"internalType":"uint256"}],"anonymous":false},{"type":"event","name":"DepositDgnrs","inputs":[{"name":"from","type":"address","indexed":true,"internalType":"address"},{"name":"dgnrsAmount","type":"uint256","indexed":false,"internalType":"uint256"}],"anonymous":false},{"type":"event","name":"Transfer","inputs":[{"name":"from","type":"address","indexed":true,"internalType":"address"},{"name":"to","type":"address","indexed":true,"internalType":"address"},{"name":"amount","type":"uint256","indexed":false,"internalType":"uint256"}],"anonymous":false},{"type":"error","name":"Insufficient","inputs":[]},{"type":"error","name":"TransferFailed","inputs":[]},{"type":"error","name":"Unauthorized","inputs":[]},{"type":"error","name":"ZeroAddress","inputs":[]}],"bytecode":{"object":"0x6101006040523461007857610012610381565b60405161233d61066e8239608051818181611608015281816116df0152611945015260a051818181610e7a015281816112bc0152611bdf015260c0518181816111f50152818161139701526119e5015260e0518181816109cb0152611aae015261233d90f35b5f80fd5b61009090610093906001600160a01b031682565b90565b6001600160a01b031690565b6100909061007c565b6100909061009f565b6100906100906100909290565b6100906b033b2e3c9fd0803ce80000006100b1565b634e487b7160e01b5f52604160045260245ffd5b6100f090610093565b9052565b60a08082526016908201527f446567656e65727573205661756c74204275726e69650000000000000000000060c082015260e060208201819052600490820152632223ab2160e11b61010082015290939261017492909160809161016d9061016661012084015b9860408501906100e7565b6060830152565b01906100e7565b565b6040513d5f823e3d90fd5b60a08082526015908201527f446567656e65727573205661756c742044474e5253000000000000000000000060c082015260e060208201819052600490820152631111d59160e21b61010082015290939261017492909160809161016d90610166610120840161015b565b60a08082526013908201527f446567656e65727573205661756c74204574680000000000000000000000000060c082015260e060208201819052600490820152634447564560e01b61010082015290939261017492909160809161016d90610166610120840161015b565b60a08082526013908201527f446567656e65727573205661756c7420416c6c0000000000000000000000000060c082015260e060208201819052600490820152634447564160e01b61010082015290939261017492909160809161016d90610166610120840161015b565b90601f01601f191681019081106001600160401b038211176102e357604052565b6100d3565b9060208282031261007857505190565b90610090610090610308926100b1565b9055565b61009060056100b1565b634e487b7160e01b5f52601260045260245ffd5b634e487b7160e01b5f52601160045260245ffd5b8115610348570490565b610316565b610090738464135c8f25da09e49bc8782676a84730c318bc6100a8565b6100a8565b9190820180921161037c57565b61032a565b61038a306100a8565b6103926100be565b604051610eb681016001600160401b038111828210176102e3576103c28291610eb66129ab8439848633926100f4565b03905ff080156105c257608052604051610eb681016001600160401b038111828210176102e3576103ff8291610eb66129ab843984863392610181565b03905ff080156105c25760a052604051610eb681016001600160401b038111828210176102e35761043c8291610eb66129ab8439848633926101ec565b03905ff080156105c25760c05260405190610eb68201906001600160401b038211838310176102e357829161047b91610eb66129ab8539853392610257565b03905ff080156105c25760e0526104a661036a732279b7a0a67db372996a5fab50d91eaa73d2ebe681565b6372f9514260206104b660405190565b80936104c28460e01b90565b825260049082905afa9081156105c257610532925f926105c7575b506020906104ec8360036102f8565b6105086105016104fa61030c565b809561033e565b60016102f8565b61052661036a730165878a594ca255338adfa4d48449f69242eb8f81565b60405194859260e01b90565b825260049082905afa80156105c2576101749361057361056c846105679461058d975f91610593575b506105678160046102f8565b61033e565b60026102f8565b3161058761058261036a61034d565b6105f9565b9061036f565b5f6102f8565b6105b5915060203d6020116105bb575b6105ad81836102c2565b8101906102e8565b5f61055b565b503d6105a3565b610176565b60209192506105e290823d84116105bb576105ad81836102c2565b91906104dd565b60208101929161017491906100e7565b602061061261036a61063f9361060c5f90565b506100a8565b61061b306100a8565b9061062560405190565b938492839182916370a0823160e01b8352600483016105e9565b03915afa9081156105c2575f91610654575090565b610090915060203d6020116105bb576105ad81836102c256fe60806040526004361015610022575b3615610018575f80fd5b610020611dcc565b005b5f3560e01c806306fdde0314610131578063258fdc7a1461012c578063313ce56714610127578063369a7683146101225780634103e6731461011d57806350ccc8031461011857806352861cdc146101135780635dac59c51461010e578063680b376a1461010957806395d89b41146101045780639a64b5fb146100ff578063a3262e57146100fa578063a5f1d959146100f5578063aad73d08146100f0578063ce1f17ef146100eb578063dad4a694146100e65763e2bbb1580361000e576105aa565b610573565b610558565b61052e565b6104f6565b6104db565b6104c0565b6104a5565b61045c565b610441565b610413565b6103e8565b6103bc565b61038b565b610318565b6102d6565b61025d565b5f91031261014057565b5f80fd5b634e487b7160e01b5f52604160045260245ffd5b90601f01601f1916810190811067ffffffffffffffff82111761017a57604052565b610144565b9061019361018c60405190565b9283610158565b565b67ffffffffffffffff811161017a57602090601f01601f19160190565b0190565b906101c86101c383610195565b61017f565b918252565b6101d7600f6101b6565b6e111959d95b995c9d5cc815985d5b1d608a1b602082015290565b6101fa6101cd565b90565b6101fa6101f2565b6101fa6101fd565b90825f9392825e0152565b6102396102426020936101b29361022d815190565b80835293849260200190565b9586910161020d565b601f01601f191690565b60208082526101fa92910190610218565b346101405761026d366004610136565b610284610278610205565b6040519182918261024c565b0390f35b8015155b0361014057565b9050359061019382610288565b8061028c565b90503590610193826102a0565b9190604083820312610140576101fa9060206102cf8286610293565b94016102a6565b6102ea6102e43660046102b3565b906106c3565b604051005b6102fc6101fa6101fa9290565b60ff1690565b6101fa60126102ef565b6101fa610302565b9052565b3461014057610328366004610136565b61028461033361030c565b6040519182918260ff909116815260200190565b90602082820312610140576101fa916102a6565b61038761019394610380606094989795610379608086019a5f870152565b6020850152565b6040830152565b0152565b34610140576102846103a66103a1366004610347565b6109c3565b906103b394929460405190565b9485948561035b565b34610140576102846103d76103d2366004610347565b610e74565b6040515b9182918290815260200190565b34610140576102ea6103fb366004610347565b6111e5565b9081526040810192916101939160200152565b346101405761042b610426366004610347565b6111ee565b9061028461043860405190565b92839283610400565b34610140576102846103d7610457366004610347565b6112b7565b346101405761042b61046f366004610347565b61138f565b61047e60036101b6565b622223ab60e91b602082015290565b6101fa610474565b6101fa61048d565b6101fa610495565b34610140576104b5366004610136565b61028461027861049d565b34610140576102846103d76104d6366004610347565b611603565b34610140576102846103d76104f1366004610347565b6116d9565b34610140576102846103d761050c366004610347565b611921565b908152606081019392610193929091604091610387906020830152565b3461014057610284610549610544366004610347565b6119de565b60405191939193849384610511565b34610140576102846103a661056e366004610347565b611aa7565b34610140576102846103d7610589366004610347565b611bbb565b9190604083820312610140576101fa9060206102cf82866102a6565b6102ea6105b836600461058e565b90611da2565b6001600160a01b031690565b6101fa6101fa6101fa9290565b6101fa906105be906001600160a01b031682565b6101fa906105d7565b6101fa906105eb565b6101fa738464135c8f25da09e49bc8782676a84730c318bc6105f4565b6105f4565b6105be6101fa6101fa9290565b6101fa9061061f565b90505190610193826102a0565b90602082820312610140576101fa91610635565b6040513d5f823e3d90fd5b9050519061019382610288565b90602082820312610140576101fa91610661565b6001600160a01b0390911681526040810192916101939160200152565b6001600160a01b039182168152911660208201526060810192916101939160400152565b73a513e6e4b8f2a923d98304ec87f64353c4d5c85333036108e5576106e75f6105ca565b821461077957156107cd576106fb5f6105ca565b34036107795761070c61061a6105fd565b610715306105f4565b90602061072160405190565b9182906323b872dd60e01b8252815f816107408989336004850161069f565b03925af180156107c85761075a915f9161079b575b501590565b61078a5781903161076a565b9190565b10610779576101939033611e56565b631dc930eb60e01b5f908152600490fd5b6312171d8360e31b5f908152600490fd5b6107bd915060203d6020116107c1575b6107b58183610158565b81019061066e565b1590565b503d6107ab565b610656565b8034036107795761082560206107e461061a6105fd565b9263a1903eab9061080e6107f75f61062c565b9261080160405190565b9586948593849360e01b90565b83526001600160a01b031660048301526024820190565b0391865af15f91816108b4575b50610848576312171d8360e31b5f908152600490fd5b906108525f6105ca565b8214159182610864575b505061078a57565b5f92506020916108949161087760405190565b948593849283919063a9059cbb60e01b5b83523360048401610682565b03925af180156107c8576108ad915f9161079b57501590565b5f8061085c565b6108d791925060203d6020116108de575b6108cf8183610158565b810190610642565b905f610832565b503d6108c5565b6282b42960e81b5f908152600490fd5b6101fa9081565b6101fa90546108f5565b634e487b7160e01b5f52601160045260245ffd5b8181029291811591840414171561092d57565b610906565b634e487b7160e01b5f52601260045260245ffd5b8115610950570490565b610932565b9190820391821161092d57565b6101fa6b033b2e3c9fd0803ce80000006105ca565b906101fa6101fa610987926105ca565b9055565b90959492610193946109bc610387926109b56080966109ae60a088019c5f890152565b6020870152565b6040850152565b6060830152565b905f906109ef7f00000000000000000000000000000000000000000000000000000000000000006105f4565b926109f960405190565b6370a0823160e01b8152336004820152602081602481885afa9081156107c8575f91610e55575b50610a2a5f6105ca565b8214908115610e4b575b5061077957610a41611e7b565b50610a4d939193611ec2565b610a55611f8e565b6040516318160ddd60e01b8152926020846004818a5afa9384156107c8575f94610e2a575b50610a845f6108fc565b90610a8f60016108fc565b610a9960026108fc565b92610aad87610aa8858461091a565b610946565b9987610abe8c99610aa8878761091a565b94859a610acf83610aa8848b61091a565b98899b610adc6107668490565b11610dfb5750508c5b833b1561014057604051936330b55e9760e21b85525f8580610b0b863360048401610682565b038183855af19384156107c8578f94958f96610de6575b508314610d59575b507fce89eef378f6baa75165e72855f9c8df96fb82dfd0833d7b77b8110667fb65d39394610b575f6105ca565b8203610d3f575b505085610b6a5f6105ca565b8114159586610d0c575b505087610b805f6105ca565b8114159788610cd4575b50610bac9087610b99336105f4565b96610ba360405190565b9586958661098b565b0390a2610bb85f6105ca565b8903610cc5575b610bc85f6105ca565b8803610caa575b610c50575b50610bdd575b50565b610bfb61061a730165878a594ca255338adfa4d48449f69242eb8f81565b803b1561014057610c285f92918392610c1360405190565b9485938492839190634724517d60e11b610888565b03925af180156107c857610c395750565b610193905f610c488183610158565b810190610136565b610c6e61061a732279b7a0a67db372996a5fab50d91eaa73d2ebe681565b803b1561014057610c865f92918392610c1360405190565b03925af180156107c85715610bd457610ca4905f610c488183610158565b5f610bd4565b610cc088610cb961061a6105fd565b3390612052565b610bcf565b610ccf8933611e56565b610bbf565b610ce891610ce191610955565b6002610977565b610d05610cfe89610cf960046108fc565b610955565b6004610977565b875f610b8a565b610d2091610d1991610955565b6001610977565b610d38610d3187610cf960036108fc565b6003610977565b855f610b74565b610d5291610d4c91610955565b5f610977565b5f80610b5e565b93509150610d65610962565b92803b1561014057610d935f94918592610d7e60405190565b968793849283919063aa8c5c9560e01b610888565b03925af19182156107c8578c947fce89eef378f6baa75165e72855f9c8df96fb82dfd0833d7b77b8110667fb65d3948f94610dd1575b509493610b2a565b610de0905f610c488183610158565b5f610dc9565b610df5905f610c488183610158565b5f610b22565b9c509c610e088e82610955565b610e13610766829f90565b1115610ae557631dc930eb60e01b5f908152600490fd5b610e4491945060203d6020116108de576108cf8183610158565b925f610a7a565b905081115f610a34565b610e6e915060203d6020116108de576108cf8183610158565b5f610a20565b90610e9e7f00000000000000000000000000000000000000000000000000000000000000006105f4565b6040516370a0823160e01b8152336004820152602081602481855afa9081156107c8575f91611094575b50610ed25f6105ca565b841490811561108a575b5061077957610ee9611f8e565b6040516318160ddd60e01b815292602084600481855afa9384156107c8575f94611069575b50610f1960046108fc565b610f266101fa60026108fc565b81106107795784610aa883610f48610f4d94610f4260026108fc565b90610955565b61091a565b918294813b15610140576040516330b55e9760e21b81525f8180610f75873360048401610682565b038183875af180156107c857611054575b508214610ffa575b50610f985f6105ca565b8214159081610fe4575b7fe05224b862e6a851a5619d1c60aca72413abe7a26ac685e61b7ab79fe1d4df7f83610fcd336105f4565b92610fda61043860405190565b0390a2610bdd5750565b610ff5610cfe84610cf960046108fc565b610fa2565b611002610962565b90803b15610140576110305f9291839261101b60405190565b948593849283919063aa8c5c9560e01b610888565b03925af180156107c85715610f8e5761104e905f610c488183610158565b5f610f8e565b611063905f610c488183610158565b5f610f86565b61108391945060203d6020116108de576108cf8183610158565b925f610f0e565b905083115f610edc565b6110ad915060203d6020116108de576108cf8183610158565b5f610ec8565b73a513e6e4b8f2a923d98304ec87f64353c4d5c85333036108e557610193906110ee565b6101fa60056105ca565b9190820180921161092d57565b6110f75f6105ca565b8114610bda57611105611f8e565b61112361061a730165878a594ca255338adfa4d48449f69242eb8f81565b803b15610140575f61113460405190565b63e7640d4960e01b815260048101849052918290602490829084905af180156107c8576111d0575b50611183610ce161117461116e6110d7565b84610946565b61117e60026108fc565b6110e1565b611194610cfe8261117e60046108fc565b7f500492a6a75961d5672e4fb27e79f5a2394eb52842362e1bee6e30694f10df596111cb6111c1336105f4565b926103db60405190565b0390a2565b6111df905f610c488183610158565b5f61115c565b610193906110b3565b5f906112197f00000000000000000000000000000000000000000000000000000000000000006105f4565b602061122460405190565b6318160ddd60e01b815291829060049082905afa9081156107c8575f91611298575b506112505f6105ca565b8214801561128f575b6107795761127590610aa861126c6120a8565b9591905061091a565b90808211611281575091565b6101fa919392508093610955565b50808211611259565b6112b1915060203d6020116108de576108cf8183610158565b5f611246565b6112e07f00000000000000000000000000000000000000000000000000000000000000006105f4565b60206112eb60405190565b6318160ddd60e01b815291829060049082905afa9081156107c8575f91611342575b506113175f6105ca565b82148015611339575b61077957610aa86101fa926113336120f2565b5061091a565b50808211611320565b61135b915060203d6020116108de576108cf8183610158565b5f61130d565b610314906105ca565b61138861019394610380606094989795610379608086019a5f870152565b0190611361565b905f906113bb7f00000000000000000000000000000000000000000000000000000000000000006105f4565b926113c560405190565b6370a0823160e01b8152336004820152602081602481885afa9081156107c8575f916115e4575b506113f65f6105ca565b82149081156115da575b506107795761140d611e7b565b95919061141960405190565b6318160ddd60e01b815296602088600481875afa9788156107c8575f986115ab575b5087610aa886610f4861145194610f425f6108fc565b9180831161157b575050945b813b15610140576040516330b55e9760e21b81525f8180611482873360048401610682565b038183875af180156107c857611566575b508214611521575b507f68e1caf97c4c29c1ac46024e9590f80b7a1f690d393703879cf66eea4e1e8421846114c7336105f4565b926114df5f876114d660405190565b9485948561136a565b0390a26114eb5f6105ca565b8303611512575b6114fb5f6105ca565b820361150357565b61019382610cb961061a6105fd565b61151c8333611e56565b6114f2565b611529610962565b90803b15610140576115425f9291839261101b60405190565b03925af180156107c8571561149b57611560905f610c488183610158565b5f61149b565b611575905f610c488183610158565b5f611493565b611589919650809792610955565b611594610766829790565b111561145d57631dc930eb60e01b5f908152600490fd5b610f48985090610aa8866115d06114519460203d6020116108de576108cf8183610158565b9a5050509061143b565b905081115f611400565b6115fd915060203d6020116108de576108cf8183610158565b5f6113ec565b61162c7f00000000000000000000000000000000000000000000000000000000000000006105f4565b602061163760405190565b6318160ddd60e01b815291829060049082905afa9081156107c8575f91611688575b506116635f6105ca565b8214801561167f575b61077957610aa86101fa926113336121c2565b5080821161166c565b6116a1915060203d6020116108de576108cf8183610158565b5f611659565b610387610193946116cf6060949897956116c5608086019a5f870152565b6020850190611361565b6040830190611361565b906117037f00000000000000000000000000000000000000000000000000000000000000006105f4565b6040516370a0823160e01b8152336004820152602081602481855afa9081156107c8575f91611902575b506117375f6105ca565b84149081156118f8575b506107795761174e611ec2565b6040516318160ddd60e01b815292602084600481855afa9384156107c8575f946118d7575b5061177e60036108fc565b61178b6101fa60016108fc565b81106107795784610aa883610f486117a794610f4260016108fc565b918294813b15610140576040516330b55e9760e21b81525f81806117cf873360048401610682565b038183875af180156107c8576118c2575b50821461187d575b506117f25f6105ca565b8214159081611867575b7f68e1caf97c4c29c1ac46024e9590f80b7a1f690d393703879cf66eea4e1e84215f611827336105f4565b9261183f868361183660405190565b948594856116a7565b0390a26118495750565b610bfb61061a732279b7a0a67db372996a5fab50d91eaa73d2ebe681565b611878610d3184610cf960036108fc565b6117fc565b611885610962565b90803b156101405761189e5f9291839261101b60405190565b03925af180156107c857156117e8576118bc905f610c488183610158565b5f6117e8565b6118d1905f610c488183610158565b5f6117e0565b6118f191945060203d6020116108de576108cf8183610158565b925f611773565b905083115f611741565b61191b915060203d6020116108de576108cf8183610158565b5f61172d565b6119296121c2565b506119335f6105ca565b821480156119d5575b610779576119697f00000000000000000000000000000000000000000000000000000000000000006105f4565b602061197460405190565b6318160ddd60e01b815291829060049082905afa80156107c8578261117e6119aa926101fa96610aa8955f926119b4575061091a565b610f4260016105ca565b6119ce91925060203d6020116108de576108cf8183610158565b905f611333565b5080821161193c565b905f611a097f00000000000000000000000000000000000000000000000000000000000000006105f4565b926020611a1560405190565b6318160ddd60e01b815294859060049082905afa9384156107c8575f94611a86575b50611a406120a8565b9291959050611a4e5f6105ca565b82148015611a7d575b61077957610aa8611a7687610aa86119aa8261117e876112759961091a565b809761091a565b50858211611a57565b611aa091945060203d6020116108de576108cf8183610158565b925f611a37565b5f90611ad27f00000000000000000000000000000000000000000000000000000000000000006105f4565b926020611ade60405190565b6318160ddd60e01b815294859060049082905afa9384156107c8575f94611b9a575b50611b0a5f6105ca565b82148015611b91575b61077957611b1f6120a8565b95915092611b2b6121c2565b969050611b4683610aa884611b3e6120f2565b99905061091a565b90808211611b6c575081611b6684610aa86101fa9695610aa8959b61091a565b9561091a565b610aa89197965091611b6684610aa883611b8b876101fa99989d610955565b9a61091a565b50838211611b13565b611bb491945060203d6020116108de576108cf8183610158565b925f611b00565b611bc36120f2565b50611bcd5f6105ca565b82148015611c03575b610779576119697f00000000000000000000000000000000000000000000000000000000000000006105f4565b50808211611bd6565b9073a513e6e4b8f2a923d98304ec87f64353c4d5c85333036108e55761019391611c355f6105ca565b8103611cd6575b7f36af321ec8d3c75236829c5317affd40ddb308863a1236d2d277a4025cccee1e90611c7483611c6d61061a6105fd565b3390612242565b611c7e83346110e1565b611c875f6105ca565b8103611caf575b50611c98336105f4565b926111cb611ca560405190565b9283923484610511565b610d4c611cc7611cd092611cc16110d7565b90610946565b61117e5f6108fc565b5f611c8e565b611cde611ec2565b611cfc61061a732279b7a0a67db372996a5fab50d91eaa73d2ebe681565b90813b15610140575f611d0e60405190565b63e7640d4960e01b815260048101839052928390602490829084905af19182156107c8577f36af321ec8d3c75236829c5317affd40ddb308863a1236d2d277a4025cccee1e92611d8d575b50611d75610d19611d6b61116e6110d7565b61117e60016108fc565b611d86610d318261117e60036108fc565b9050611c3c565b611d9c905f610c488183610158565b5f611d59565b9061019391611c0c565b908152606081019392610193929091604091611388906020830190611361565b611dd55f6105ca565b3403611e1c575b611de5336105f4565b7f36af321ec8d3c75236829c5317affd40ddb308863a1236d2d277a4025cccee1e611e0f60405190565b806111cb5f803484611dac565b611e33610d4c611cc7611e2d6110d7565b34610946565b611ddc565b3d15611e5157611e473d6101b6565b903d5f602084013e565b606090565b5f8091611e7593611e6660405190565b90818003925af1610755611e38565b61078a57565b611e84306105f4565b318091611ea4611e9d611e9861061a6105fd565b612299565b80936110e1565b9081611eaf5f6108fc565b8110611eb85750565b610193905f610977565b611ee061061a732279b7a0a67db372996a5fab50d91eaa73d2ebe681565b6020611eeb60405190565b63397ca8a160e11b815291829060049082905afa9081156107c8575f91611f6f575b50611f1860036108fc565b80821115611f3f5790610d31610d19611d6b611f376101939585610955565b611cc16110d7565b8110611f485750565b611f53816003610977565b611f5d60016108fc565b811015610bda57610193906001610977565b611f88915060203d6020116108de576108cf8183610158565b5f611f0d565b611fac61061a730165878a594ca255338adfa4d48449f69242eb8f81565b6020611fb760405190565b63397ca8a160e11b815291829060049082905afa9081156107c8575f91612033575b50611fe460046108fc565b808211156120035790610cfe610ce1611174611f376101939585610955565b811061200c5750565b612017816004610977565b61202160026108fc565b811015610bda57610193906002610977565b61204c915060203d6020116108de576108cf8183610158565b5f611fd9565b9160209161206561061a61208f956105f4565b905f61207060405190565b80968195829461208463a9059cbb60e01b90565b845260048401610682565b03925af180156107c857611e75915f9161079b57501590565b6120b1306105f4565b316120ca816120c4611e9861061a6105fd565b906110e1565b906120d45f6108fc565b918083116120ea575b826120e791610955565b92565b9150816120dd565b61211061061a730165878a594ca255338adfa4d48449f69242eb8f81565b602061211b60405190565b63397ca8a160e11b815291829060049082905afa9081156107c8575f916121a3575b5061214860046108fc565b9061215360026108fc565b809261215c8190565b8311612188575b505061216c8190565b8211612180575b8161217d91610955565b91565b905080612173565b829350611f376120c49161219b94610955565b905f80612163565b6121bc915060203d6020116108de576108cf8183610158565b5f61213d565b6121e061061a732279b7a0a67db372996a5fab50d91eaa73d2ebe681565b60206121eb60405190565b63397ca8a160e11b815291829060049082905afa9081156107c8575f91612223575b5061221860036108fc565b9061215360016108fc565b61223c915060203d6020116108de576108cf8183610158565b5f61220d565b909161224d5f6105ca565b81146122945761208f9261226561061a6020946105f4565b905f612270306105f4565b9161227a60405190565b968795869485936323b872dd60e01b85526004850161069f565b505050565b60206122b261061a6122d9936122ac5f90565b506105f4565b6122bb306105f4565b906122c560405190565b938492839182916370a0823160e01b61080e565b03915afa9081156107c8575f916122ee575090565b6101fa915060203d6020116108de576108cf818361015856fea264697066735822122076094c964d3cd6696d37c5ef25da9348dfd912ea43c13a9b522bf8d8769ec38064736f6c634300081e003360a06040523461003e5761001d6100146101b5565b93929092610417565b6040516109b86104fe82396080518181816106fb015261081801526109b890f35b5f80fd5b634e487b7160e01b5f52604160045260245ffd5b90601f01601f191681019081106001600160401b0382111761007757604052565b610042565b9061009061008960405190565b9283610056565b565b6001600160401b03811161007757602090601f01601f19160190565b90825f9392825e0152565b909291926100ce6100c982610092565b61007c565b938185528183011161003e576100909160208501906100ae565b9080601f8301121561003e578151610102926020016100b9565b90565b6001600160a01b031690565b6001600160a01b0381165b0361003e57565b9050519061009082610111565b8061011c565b9050519061009082610130565b919060a08382031261003e5782516001600160401b03811161003e578161016b9185016100e8565b60208401519093906001600160401b03811161003e578261018d9183016100e8565b9261010261019e8460408501610123565b9360806101ae8260608701610136565b9401610123565b6101d3610eb6803803806101c88161007c565b928339810190610143565b9091929394565b6101056101026101029290565b610102906101da565b634e487b7160e01b5f52602260045260245ffd5b9060016002830492168015610224575b602083101461021f57565b6101f0565b91607f1691610214565b915f1960089290920291821b911b5b9181191691161790565b6101026101026101029290565b919061026561010261026d93610247565b90835461022e565b9055565b610090915f91610254565b818110610287575050565b806102945f600193610271565b0161027c565b9190601f81116102a957505050565b6102b9610090935f5260205f2090565b906020601f8401819004830193106102db575b6020601f90910104019061027c565b90915081906102cc565b906102ee815190565b906001600160401b038211610077576103118261030b8554610204565b8561029a565b602090601f831160011461034a5761026d92915f918361033f575b50505f19600883021c1916906002021790565b015190505f8061032c565b601f1983169161035d855f5260205f2090565b925f5b81811061039957509160029391856001969410610381575b50505002019055565b01515f196008601f8516021c191690555f8080610378565b91936020600181928787015181550195019201610360565b90610090916102e5565b905f199061023d565b906103d461010261026d92610247565b82546103bb565b61010290610105906001600160a01b031682565b610102906103db565b610102906103ef565b9061040b906103f8565b5f5260205260405f2090565b9392939190916104265f6101e7565b926001600160a01b0384166001600160a01b0384161480156104e2575b6104d1577fddf252ad1be2c89b69c2b068fc378daa952ba7f163c4a11628f55a4df523b3ef936104cc936104886104af936104816104b5965f6103b1565b60016103b1565b6080526104968760026103c4565b6104aa876104a5886003610401565b6103c4565b6103f8565b936103f8565b936104bf60405190565b9182918290815260200190565b0390a3565b63d92e233d60e01b5f908152600490fd5b506001600160a01b0384166001600160a01b0386161461044356fe60806040526004361015610011575f80fd5b5f3560e01c806306fdde03146100c0578063095ea7b3146100bb57806318160ddd146100b657806323b872dd146100b1578063313ce567146100ac57806370a08231146100a757806395d89b41146100a2578063a9059cbb1461009d578063aa8c5c9514610098578063c2d57a5c146100935763dd62ed3e036100c557610555565b610501565b6104e3565b6104c7565b6104ac565b610486565b6103f3565b6103b2565b61035d565b61030e565b610282565b5f80fd5b5f9103126100c557565b634e487b7160e01b5f525f60045260245ffd5b634e487b7160e01b5f52602260045260245ffd5b906001600283049216801561011a575b602083101461011557565b6100e6565b91607f169161010a565b80545f939291610140610136836100fa565b8085529360200190565b916001811690811561018f575060011461015957505050565b61016a91929394505f5260205f2090565b915f925b81841061017b5750500190565b80548484015260209093019260010161016e565b92949550505060ff1916825215156020020190565b906101ae91610124565b90565b634e487b7160e01b5f52604160045260245ffd5b90601f01601f1916810190811067ffffffffffffffff8211176101e757604052565b6101b1565b9061020d610206926101fd60405190565b938480926101a4565b03836101c5565b565b905f1061021f576101ae906101ec565b6100d3565b6101ae5f8061020f565b90825f9392825e0152565b61025a61026360209361026d9361024e815190565b80835293849260200190565b9586910161022e565b601f01601f191690565b0190565b60208082526101ae92910190610239565b346100c5576102923660046100c9565b6102a961029d610224565b60405191829182610271565b0390f35b6001600160a01b031690565b6001600160a01b0381165b036100c557565b9050359061020d826102b9565b806102c4565b9050359061020d826102d8565b91906040838203126100c5576101ae90602061030782866102cb565b94016102de565b346100c5576102a961032a6103243660046102eb565b90610592565b60405191829182901515815260200190565b6101ae916008021c81565b906101ae915461033c565b6101ae5f6002610347565b346100c55761036d3660046100c9565b6102a9610378610352565b6040515b9182918290815260200190565b90916060828403126100c5576101ae6103a284846102cb565b93604061030782602087016102cb565b346100c5576102a961032a6103c8366004610389565b91610629565b6103db6101ae6101ae9290565b60ff1690565b6101ae60126103ce565b6101ae6103e1565b346100c5576104033660046100c9565b6102a961040e6103eb565b6040519182918260ff909116815260200190565b906020828203126100c5576101ae916102cb565b6101ae906102ad906001600160a01b031682565b6101ae90610436565b6101ae9061044a565b9061046690610453565b5f5260205260405f2090565b5f6104816101ae92600361045c565b610347565b346100c5576102a961037861049c366004610422565b610472565b6101ae5f600161020f565b346100c5576104bc3660046100c9565b6102a961029d6104a1565b346100c5576102a961032a6104dd3660046102eb565b906106e5565b346100c5576104fc6104f63660046102eb565b90610803565b604051005b346100c5576104fc6105143660046102eb565b906108e5565b91906040838203126100c5576101ae90602061053682866102cb565b94016102cb565b6104816101ae926105505f93600461045c565b61045c565b346100c5576102a961037861056b36600461051a565b9061053d565b6101ae6101ae6101ae9290565b906101ae6101ae61058e92610571565b9055565b6105aa826105a58361055033600461045c565b61057e565b7f8c5be1e5ebec7d5bd14f71427d1e84f3dd0314c0f7b2291e5b200ac8c7c3b9256105ea6105e06105da33610453565b93610453565b9361037c60405190565b0390a3600190565b6101ae9081565b6101ae90546105f2565b634e487b7160e01b5f52601160045260245ffd5b9190820391821161062457565b610603565b92919060049361064b61064661063f838861045c565b339061045c565b6105f9565b5f198103610665575b506106609394506108ef565b600190565b8381106106d55761064661063f8361066097986105506106888961069597610617565b6105a561063f858561045c565b61069e82610453565b7f8c5be1e5ebec7d5bd14f71427d1e84f3dd0314c0f7b2291e5b200ac8c7c3b9256106cb6105e033610453565b0390a38493610654565b631dc930eb60e01b5f9081528690fd5b6106609190336108ef565b906001600160a01b037f000000000000000000000000000000000000000000000000000000000000000016330361072a5761020d9161075d565b6282b42960e81b5f908152600490fd5b6102ad6101ae6101ae9290565b6101ae9061073a565b9190820180921161062457565b6107665f610747565b6001600160a01b0381166001600160a01b038316146107f2576107ed6105e06105da7fddf252ad1be2c89b69c2b068fc378daa952ba7f163c4a11628f55a4df523b3ef936107c76107c0886107bb60026105f9565b610750565b600261057e565b6107e86107d587600361045c565b6107e28961026d836105f9565b9061057e565b610453565b0390a3565b63d92e233d60e01b5f908152600490fd5b9061020d916106f0565b906001600160a01b037f000000000000000000000000000000000000000000000000000000000000000016330361072a5761020d9161085061064682600361045c565b6108595f610571565b831480156108dc575b6108cb576108728361087d920390565b6105a583600361045c565b6108926107c08361088e60026105f9565b0390565b7fddf252ad1be2c89b69c2b068fc378daa952ba7f163c4a11628f55a4df523b3ef6107ed6105e06105da6108c55f610747565b94610453565b631dc930eb60e01b5f908152600490fd5b50808311610862565b9061020d9161080d565b6108fb6102ad5f610747565b6001600160a01b038316146107f25760039061091a610646828461045c565b6109235f610571565b85148015610979575b6108cb576105da6107ed926107e86107d5877fddf252ad1be2c89b69c2b068fc378daa952ba7f163c4a11628f55a4df523b3ef9761055061096f8c6105e0990390565b6105a5878461045c565b5080851161092c56fea2646970667358221220266c494b2ebd3c523c04020eceaa26ca8e185e4c8711291dfa92076dd7b257b264736f6c634300081e0033","linkReferences":{}},"methodIdentifiers":{"burnAll(uint256)":"369a7683","burnCoin(uint256)":"a3262e57","burnDgnrs(uint256)":"4103e673","burnEth(uint256)":"680b376a","decimals()":"313ce567","deposit(uint256,uint256)":"e2bbb158","depositDgnrs(uint256)":"50ccc803","name()":"06fdde03","previewAll(uint256)":"ce1f17ef","previewBurnForCoinOut(uint256)":"a5f1d959","previewBurnForDgnrsOut(uint256)":"dad4a694","previewBurnForEthOut(uint256)":"aad73d08","previewCoin(uint256)":"9a64b5fb","previewDgnrs(uint256)":"5dac59c5","previewEth(uint256)":"52861cdc","swapWithBonds(bool,uint256)":"258fdc7a","symbol()":"95d89b41"},"id":11}