{"abi":[{"type":"function","name":"coordinator","inputs":[],"outputs":[{"name":"","type":"address","internalType":"address"}],"stateMutability":"view"},{"type":"function","name":"emergencyRecover","inputs":[{"name":"newCoordinator","type":"address","internalType":"address"},{"name":"newKeyHash","type":"bytes32","internalType":"bytes32"}],"outputs":[{"name":"newSubId","type":"uint256","internalType":"uint256"}],"stateMutability":"nonpayable"},{"type":"function","name":"linkEthPriceFeed","inputs":[],"outputs":[{"name":"","type":"address","internalType":"address"}],"stateMutability":"view"},{"type":"function","name":"onTokenTransfer","inputs":[{"name":"from","type":"address","internalType":"address"},{"name":"amount","type":"uint256","internalType":"uint256"},{"name":"","type":"bytes","internalType":"bytes"}],"outputs":[],"stateMutability":"nonpayable"},{"type":"function","name":"setLinkEthPriceFeed","inputs":[{"name":"feed","type":"address","internalType":"address"}],"outputs":[],"stateMutability":"nonpayable"},{"type":"function","name":"setPresaleMintingEnabled","inputs":[{"name":"enabled","type":"bool","internalType":"bool"}],"outputs":[],"stateMutability":"nonpayable"},{"type":"function","name":"setRewardStakeTargetBps","inputs":[{"name":"bps","type":"uint16","internalType":"uint16"}],"outputs":[],"stateMutability":"nonpayable"},{"type":"function","name":"shutdownAndRefund","inputs":[{"name":"target","type":"address","internalType":"address"}],"outputs":[],"stateMutability":"nonpayable"},{"type":"function","name":"shutdownPresale","inputs":[],"outputs":[],"stateMutability":"nonpayable"},{"type":"function","name":"stakeGameEthToStEth","inputs":[{"name":"amount","type":"uint256","internalType":"uint256"}],"outputs":[],"stateMutability":"nonpayable"},{"type":"function","name":"subscriptionId","inputs":[],"outputs":[{"name":"","type":"uint256","internalType":"uint256"}],"stateMutability":"view"},{"type":"function","name":"swapGameEthForStEth","inputs":[{"name":"amount","type":"uint256","internalType":"uint256"}],"outputs":[],"stateMutability":"payable"},{"type":"function","name":"vrfKeyHash","inputs":[],"outputs":[{"name":"","type":"bytes32","internalType":"bytes32"}],"stateMutability":"view"},{"type":"function","name":"wireVrf","inputs":[{"name":"coordinator_","type":"address","internalType":"address"},{"name":"subId","type":"uint256","internalType":"uint256"},{"name":"bondKeyHash_","type":"bytes32","internalType":"bytes32"}],"outputs":[],"stateMutability":"nonpayable"},{"type":"event","name":"ConsumerAdded","inputs":[{"name":"consumer","type":"address","indexed":true,"internalType":"address"}],"anonymous":false},{"type":"event","name":"CoordinatorUpdated","inputs":[{"name":"coordinator","type":"address","indexed":true,"internalType":"address"},{"name":"subId","type":"uint256","indexed":true,"internalType":"uint256"}],"anonymous":false},{"type":"event","name":"EmergencyRecovered","inputs":[{"name":"newCoordinator","type":"address","indexed":true,"internalType":"address"},{"name":"newSubId","type":"uint256","indexed":true,"internalType":"uint256"},{"name":"fundedAmount","type":"uint256","indexed":false,"internalType":"uint256"}],"anonymous":false},{"type":"event","name":"LinkCreditRecorded","inputs":[{"name":"player","type":"address","indexed":true,"internalType":"address"},{"name":"amount","type":"uint256","indexed":false,"internalType":"uint256"},{"name":"minted","type":"bool","indexed":false,"internalType":"bool"}],"anonymous":false},{"type":"event","name":"LinkEthFeedUpdated","inputs":[{"name":"feed","type":"address","indexed":true,"internalType":"address"}],"anonymous":false},{"type":"event","name":"PresaleShutdown","inputs":[],"anonymous":false},{"type":"event","name":"SubscriptionCancelled","inputs":[{"name":"subId","type":"uint256","indexed":true,"internalType":"uint256"},{"name":"to","type":"address","indexed":true,"internalType":"address"}],"anonymous":false},{"type":"event","name":"SubscriptionCreated","inputs":[{"name":"subId","type":"uint256","indexed":true,"internalType":"uint256"}],"anonymous":false},{"type":"event","name":"SubscriptionShutdown","inputs":[{"name":"subId","type":"uint256","indexed":true,"internalType":"uint256"},{"name":"to","type":"address","indexed":true,"internalType":"address"},{"name":"sweptAmount","type":"uint256","indexed":false,"internalType":"uint256"}],"anonymous":false},{"type":"error","name":"AlreadyWired","inputs":[]},{"type":"error","name":"BondsNotReady","inputs":[]},{"type":"error","name":"FeedHealthy","inputs":[]},{"type":"error","name":"GameOver","inputs":[]},{"type":"error","name":"InvalidAmount","inputs":[]},{"type":"error","name":"NoSubscription","inputs":[]},{"type":"error","name":"NotAuthorized","inputs":[]},{"type":"error","name":"NotOwner","inputs":[]},{"type":"error","name":"NotStalled","inputs":[]},{"type":"error","name":"NotWired","inputs":[]},{"type":"error","name":"ZeroAddress","inputs":[]}],"bytecode":{"object":"0x60806040523460195760405161215661001e823961215690f35b5f80fdfe60806040526004361015610011575f80fd5b5f3560e01c8063041d443e146100f057806306349d97146100eb57806309c1ba2e146100e65780630a009097146100e15780633f891a2b146100dc57806373d3cca3146100d75780637c372e9b146100d257806383bdc5bd146100cd5780638aefd9fb146100c8578063a4c0ed36146100c3578063c49338ae146100be578063d60fd8c5146100b9578063e2ddcae7146100b45763ee6f5c18036100f55761046d565b610455565b610417565b6103ff565b6103cf565b610341565b610300565b6102d1565b6102aa565b610276565b61024f565b6101f2565b6101c9565b61012d565b5f80fd5b5f9103126100f557565b61010e916008021c81565b90565b9061010e9154610103565b61010e5f6002610111565b9052565b565b346100f55761013d3660046100f9565b61015961014861011c565b6040515b9182918290815260200190565b0390f35b6001600160a01b031690565b6101728161015d565b036100f557565b9050359061012b82610169565b80610172565b9050359061012b82610186565b90916060828403126100f55761010e6101b28484610179565b9360406101c2826020870161018c565b940161018c565b346100f5576101e26101dc366004610199565b916109c7565b604051005b61010e5f6001610111565b346100f5576102023660046100f9565b6101596101486101e7565b61010e916008021c6001600160a01b031690565b9061010e915461020d565b61010e5f80610221565b6101279061015d565b60208101929161012b9190610236565b346100f55761025f3660046100f9565b61015961026a61022c565b6040519182918261023f565b346100f5576102863660046100f9565b6101e2610a95565b91906040838203126100f55761010e9060206101c28286610179565b346100f5576101596101486102c036600461028e565b9061106d565b61010e5f6003610221565b346100f5576102e13660046100f9565b61015961026a6102c6565b906020828203126100f55761010e91610179565b346100f5576101e26103133660046102ec565b6112dc565b801515610172565b9050359061012b82610318565b906020828203126100f55761010e91610320565b346100f5576101e261035436600461032d565b61136b565b909182601f830112156100f55781359167ffffffffffffffff83116100f55760200192600183028401116100f557565b916060838303126100f55761039e8284610179565b926103ac836020830161018c565b92604082013567ffffffffffffffff81116100f5576103cb9201610359565b9091565b346100f5576101e26103e2366004610389565b92919091611534565b906020828203126100f55761010e9161018c565b346100f5576101e26104123660046103eb565b6118f5565b6101e26104253660046103eb565b6119ba565b61ffff8116610172565b9050359061012b8261042a565b906020828203126100f55761010e91610434565b346100f5576101e2610468366004610441565b611a4c565b346100f5576101e26104803660046102ec565b611d83565b91906104a973f39fd6e51aad88f6f4ce6ab8827279cfffb9226661015d565b61015d565b6104b23361015d565b036104c05761012b9261064a565b6330cd747160e01b5f908152600490fd5b61015d61010e61010e9290565b61010e906104d1565b61010e61010e61010e9290565b61010e9081565b61010e90546104f4565b61010e9061015d565b61010e9054610505565b61010e9061015d906001600160a01b031682565b61010e90610518565b61010e9061052c565b634e487b7160e01b5f52604160045260245ffd5b90601f01601f1916810190811067ffffffffffffffff82111761057457604052565b61053e565b9050519061012b82610186565b906020828203126100f55761010e91610579565b6040513d5f823e3d90fd5b906001600160a01b03905b9181191691161790565b906105ca61010e6105d192610535565b82546105a5565b9055565b905f19906105b0565b906105ee61010e6105d1926104e7565b82546105d5565b906105ee6106056105d19261010e565b61010e565b90815260408101929161012b9160200190610236565b60409061064661012b949695939661063f60608401985f850190610236565b6020830152565b0152565b90916106586104a45f6104de565b6106618361015d565b1480156109b3575b6109a25761067760016104fb565b6106876106835f6104e7565b9190565b03610914576106955f6104e7565b831461084b575b816106c36106c8926106b16106ce955f6105ba565b6106bc8660016105de565b60026105f5565b610535565b916104e7565b907f98ba1730d7f71c023eb38cfd0a31bc24bbfb9ea6a77e491047b2eee3629f85056106f960405190565b5f90a35b7359b670e9fa9d0a427751af201d676719a970857b6107216106c36106c35f61050e565b61072b60016104fb565b91813b156100f5576107695f826106c39461077e968361074a60405190565b80968195829461075e63bec4c08c60e01b90565b84526004840161060a565b03925af19081610836575b506107fb57610535565b6107875f61050e565b61079160016104fb565b9161079c60026104fb565b90803b156100f5576107ce935f80946107b460405190565b968795869485936306349d9760e01b855260048501610620565b03925af180156107f6576107df5750565b61012b905f6107ee8183610552565b8101906100f9565b61059a565b61080481610535565b7f28b26e7a3d20aedbc5f8f2ebf7da671c0491723a2b78f47a097b0e46dee0714261082e60405190565b5f90a2610535565b610845905f6107ee8183610552565b5f610774565b91506108596106c382610535565b91602061086560405190565b63288688f960e21b815293849060049082905f905af19283156107f6575f936108d5575b506106ce916106c36106c89261089e866104e7565b7f6a2b70dde6ae0193f84b6a9eeb3b0ebdc3a35e99d9167b88c570158dd09cb0f76108c860405190565b5f90a2925050915061069c565b6106c8919350916106c36109036106ce9460203d60201161090d575b6108fb8183610552565b810190610586565b9492505091610889565b503d6108f1565b9061092a6109246104a45f61050e565b9161015d565b0361097b576109385f6104e7565b8214158061098c575b61097b5761095561068361010e60026104fb565b0361097b576109666106835f6104e7565b036106fd5761097560016104fb565b506106fd565b63da7c0e5560e01b5f908152600490fd5b5061099a61010e60016104fb565b821415610941565b63d92e233d60e01b5f908152600490fd5b506109c061010e5f6104e7565b8114610669565b9061012b9291610485565b6109ef73f39fd6e51aad88f6f4ce6ab8827279cfffb9226661015d565b6109f83361015d565b036104c05761012b610a1e6106c373a513e6e4b8f2a923d98304ec87f64353c4d5c85381565b803b156100f5575f610a2f60405190565b633f891a2b60e01b8152918290600490829084905af180156107f657610a80575b507f09e8809f1fa7dcd076d12aa404d62adb32033f736b256b95d325b1e28fcf6a68610a7b60405190565b5f90a1565b610a8f905f6107ee8183610552565b5f610a50565b61012b6109d2565b9190610abc73f39fd6e51aad88f6f4ce6ab8827279cfffb9226661015d565b610ac53361015d565b036104c05761010e92610b5e565b9050519061012b82610318565b906020828203126100f55761010e91610ad3565b90825f9392825e0152565b610b20610b29602093610b3393610b14815190565b80835293849260200190565b95869101610af4565b601f01601f191690565b0190565b610b5161010e94929361063f60608401955f850190610236565b6040818403910152610aff565b509190610b6b60016104fb565b610b776106835f6104e7565b1461105c577359b670e9fa9d0a427751af201d676719a970857b610b9d6106c382610535565b93610ba760405190565b63776aecfd60e01b8152602081600481895afa80156107f657610bcf915f9161103f57501590565b61102e57610bdf6104a45f6104de565b610be88261015d565b14801561101a575b6109a257610bfe60016104fb565b610c075f61050e565b610c105f6104e7565b8203610f61575b5050610c23815f6105ba565b610c2f6106c382610535565b92610c3960405190565b63288688f960e21b81526020816004815f895af19081156107f6575f91610f42575b508096610c698260016105de565b610c748360026105f5565b610c7d84610535565b94610c87836104e7565b9687877f98ba1730d7f71c023eb38cfd0a31bc24bbfb9ea6a77e491047b2eee3629f8505610cb460405190565b5f90a3877f6a2b70dde6ae0193f84b6a9eeb3b0ebdc3a35e99d9167b88c570158dd09cb0f7610ce260405190565b5f90a2803b156100f5575f610cf660405190565b918290632fb1302360e21b8252818381610d14888b6004840161060a565b03925af19081610f2d575b50610ef257505b803b156100f557610d5a5f93918492610d3e60405190565b95869384928391906224ea0160e51b8352888b60048501610620565b03925af19182156107f657610db492610edd575b50610d8d6106c37371c95911e9a5d330f4d621842ec243ee1343292e81565b6020610d9830610535565b6040519485918291906370a0823160e01b83526004830161023f565b0381845afa9081156107f6577f6aa8c6ca986980a3eadd2def6b225c3391b0a193e4bca39c69ae06617764bdf294610e0d945f93610ebc575b505f93610df95f6104e7565b8403610e12575b5050505061014c60405190565b0390a3565b610e5b92845f602094610e3e610e2760405190565b808801968752602080825290968790030186610552565b60405196879586948593630200057560e51b855260048501610b37565b03925af15f9181610e8b575b50610e785750505b5f808080610e00565b610e83575b50610e6f565b90505f610e7d565b610eae91925060203d602011610eb5575b610ea68183610552565b810190610ae0565b905f610e67565b503d610e9c565b610ed691935060203d60201161090d576108fb8183610552565b915f610ded565b610eec905f6107ee8183610552565b5f610d6e565b610efb90610535565b7f28b26e7a3d20aedbc5f8f2ebf7da671c0491723a2b78f47a097b0e46dee07142610f2560405190565b5f90a2610d26565b610f3c905f6107ee8183610552565b5f610d1f565b610f5b915060203d60201161090d576108fb8183610552565b5f610c5b565b6106c3610f6d91610535565b90610f7730610535565b91803b156100f5575f610f8960405190565b918290622b825560e61b8252818381610fa689896004840161060a565b03925af19081611005575b50610fc05750505b5f80610c17565b610fcc610fd2916104e7565b91610535565b907f533734a768f070673b823079652464b7e002bb51cdf15e3108209f397425225f610ffd60405190565b5f90a3610fb9565b611014905f6107ee8183610552565b5f610fb1565b5061102761010e5f6104e7565b8314610bf0565b63613e92c560e11b5f908152600490fd5b611058915060203d602011610eb557610ea68183610552565b1590565b6307f97e9360e31b5f908152600490fd5b61010e91905f610a9d565b61109573f39fd6e51aad88f6f4ce6ab8827279cfffb9226661015d565b61109e3361015d565b036104c05761012b90611152565b9060ff60a01b9060a01b6105b0565b151590565b906110d061010e6105d1926110bb565b82546110ac565b60ff8116610172565b9050519061012b826110d7565b906020828203126100f55761010e916110e0565b61110e61010e61010e9290565b60ff1690565b634e487b7160e01b5f52601160045260245ffd5b60ff908116911690039060ff821161113c57565b611114565b60ff16604d811161113c57600a0a90565b61115c600361050e565b6111655f6104de565b9061116f8261015d565b6111788261015d565b141590816112cc575b506112bb57611195906104a48360036105ba565b61119e8261015d565b146112ab576111af6106c382610535565b9060206111bb60405190565b63313ce56760e01b815292839060049082905afa80156107f657611225925f9161127c575b506111eb6012611101565b60ff8216116112575761121261120d611219926112086012611101565b611128565b611141565b60046105de565b6106c3600160036110c0565b7f81236f8ff8f5f71f302a4b743a9f52092cabdf6e2f39328c59c564882f25725661124f60405190565b80805b0390a2565b61121261120d6112719261126b6012611101565b90611128565b6106c35f60036110c0565b61129e915060203d6020116112a4575b6112968183610552565b8101906110ed565b5f6111e0565b503d61128c565b611225906112196112125f6104e7565b63ae607a8f60e01b5f908152600490fd5b6112d69150611df7565b5f611181565b61012b90611078565b61130273f39fd6e51aad88f6f4ce6ab8827279cfffb9226661015d565b61130b3361015d565b036104c05761012b906113326106c37359b670e9fa9d0a427751af201d676719a970857b81565b803b156100f5576107ce5f9291839261134a60405190565b9485938492839190638aefd9fb60e01b835260048301901515815260200190565b61012b906112e5565b6bffffffffffffffffffffffff8116610172565b9050519061012b82611374565b67ffffffffffffffff8116610172565b9050519061012b82611395565b9050519061012b82610169565b9061012b6113cc60405190565b9283610552565b67ffffffffffffffff81116105745760208091020190565b909291926114006113fb826113d3565b6113bf565b93818552602080860192028301928184116100f557915b8383106114245750505050565b6020809161143284866113b2565b815201920191611417565b9080601f830112156100f557815161010e926020016113eb565b91909160a0818403126100f55761146e8382611388565b9261147c8160208401611388565b9261148a82604085016113a5565b9261149883606083016113b2565b92608082015167ffffffffffffffff81116100f55761010e920161143d565b61010e61010e61010e926bffffffffffffffffffffffff1690565b61010e683635c9adc5dea000006104e7565b8181029291811591840414171561113c57565b634e487b7160e01b5f52601260045260245ffd5b8115611515570490565b6114f7565b91602061012b92949361064660408201965f830190610236565b925090507371c95911e9a5d330f4d621842ec243ee1343292e6115568161015d565b61155f3361015d565b0361186a5761156d5f6104e7565b82146118085761157d60016104fb565b6115896106835f6104e7565b1461105c576115ac6106c373a513e6e4b8f2a923d98304ec87f64353c4d5c85381565b60206115b760405190565b63ba87e87760e01b815291829060049082905afa9081156107f6575f9161184b575b5061183a5760206115ef6106c361161293610535565b6115f85f61050e565b90845f61160560016104fb565b93610e3e610e2760405190565b03925af15f9181611819575b506116345763162908e360e11b5f908152600490fd5b156118085761167e5f61164c6106c36106c38361050e565b61165660016104fb565b9061166060405190565b9384928391829163dc311dd360e01b5b835260048301526024820190565b03915afa9081156107f6576116a39161169e915f916117e4575b506114b7565b611efd565b906116ad5f6104e7565b82146117df576116bc90611fe9565b906116c65f6104e7565b82146117df576116fe6106c86116e7611709946116e16114d2565b906114e4565b92611704670de0b6b3a7640000946116fe866104e7565b9061150b565b6114e4565b906117135f6104e7565b82146117db576117376106c3732279b7a0a67db372996a5fab50d91eaa73d2ebe681565b803b156100f5575f61174860405190565b918290630f7a4ba760e41b825281838161176689896004840161151a565b03925af180156107f6577f41850fb5e256db538ea7d0bcfb9ae80572c5fdd92bc4cda31f7ca68d9742d930926001926117a4926117c6575b50610535565b926112526117b160405190565b92839283908152901515602082015260400190565b6117d5905f6107ee8183610552565b5f61179e565b5050565b505050565b61180091503d805f833e6117f88183610552565b810190611457565b505050611698565b63162908e360e11b5f908152600490fd5b61183391925060203d602011610eb557610ea68183610552565b905f61161e565b63df469ccb60e01b5f908152600490fd5b611864915060203d602011610eb557610ea68183610552565b5f6115d9565b63ea8e4eb560e01b5f908152600490fd5b61189873f39fd6e51aad88f6f4ce6ab8827279cfffb9226661015d565b6118a13361015d565b036104c05761012b906118c86106c37359b670e9fa9d0a427751af201d676719a970857b81565b803b156100f5576107ce5f929183926118e060405190565b948593849283919063211ebaa560e21b611670565b61012b9061187b565b61191b73f39fd6e51aad88f6f4ce6ab8827279cfffb9226661015d565b6119243361015d565b036104c05761012b907359b670e9fa9d0a427751af201d676719a970857b61194b5f6104e7565b821480156119b0575b611808576106c361196491610535565b90637b01dc1e90823b156100f55761199d926119915f9361198460405190565b9586948593849360e01b90565b8352336004840161151a565b039134905af180156107f6576107df5750565b5081341415611954565b61012b906118fe565b6119e073f39fd6e51aad88f6f4ce6ab8827279cfffb9226661015d565b6119e93361015d565b036104c05761012b90611a106106c373a513e6e4b8f2a923d98304ec87f64353c4d5c85381565b803b156100f5576107ce5f92918392611a2860405190565b948593849283919063e2ddcae760e01b83526004830161ffff909116815260200190565b61012b906119c3565b611a7273f39fd6e51aad88f6f4ce6ab8827279cfffb9226661015d565b611a7b3361015d565b036104c05761012b90611acb565b611aa161010e9361063f60608401945f850190610236565b60408183039101525f815260200190565b610127906104e7565b60208101929161012b9190611ab2565b611ad76104a45f6104de565b611ae08261015d565b146109a257611aef60016104fb565b611af85f6104e7565b8114611d7257611b1c6106c373a513e6e4b8f2a923d98304ec87f64353c4d5c85381565b6020611b2760405190565b6323ed324b60e11b815291829060049082905afa80156107f657611b50915f9161103f57501590565b611d6157611b636106c36106c35f61050e565b803b156100f5575f611b7460405190565b918290622b825560e61b8252818381611b9189896004840161060a565b03925af19081611d4c575b50611d07575b611be3611bae5f6104e7565b611bb98160016105de565b611bd76106c37371c95911e9a5d330f4d621842ec243ee1343292e81565b906020610d9830610535565b0381855afa9283156107f6575f93611ce6575b508203611c42575b5050610fcc611c0c916104e7565b907f53dcbcdd51fbb1c4dc71019d0561916f4a31f3ae6d3d218148ee010a3732f8c8611c3760405190565b80610e0d5f82611abb565b6020611c4d60405190565b918290630200057560e51b8252815f81611c6b888b60048401611a89565b03925af19081611cc9575b50611c875750610fcc611c0c611bfe565b9190610e0d611cbf611cb97f53dcbcdd51fbb1c4dc71019d0561916f4a31f3ae6d3d218148ee010a3732f8c8936104e7565b93610535565b9361014c60405190565b611ce19060203d602011610eb557610ea68183610552565b611c76565b611d0091935060203d60201161090d576108fb8183610552565b915f611bf6565b611d10816104e7565b611d1983610535565b907f533734a768f070673b823079652464b7e002bb51cdf15e3108209f397425225f611d4460405190565b5f90a3611ba2565b611d5b905f6107ee8183610552565b5f611b9c565b63891b267560e01b5f908152600490fd5b6309f02f5b60e31b5f908152600490fd5b61012b90611a55565b69ffffffffffffffffffff8116610172565b9050519061012b82611d8c565b919060a0838203126100f557611dc18184611d9e565b92611dcf8260208301610579565b9261010e611de08460408501610579565b936080611df08260608701610579565b9401611d9e565b611e036104a45f6104de565b611e0c8261015d565b14611eeb576106c3611e1d91610535565b60a0611e2860405190565b633fabe5a360e21b815291829060049082905afa5f5f825f945f94611eb2575b50611e5557505050505f90565b611e616106835f6104e7565b1315928315611e9b575b508215611e82575b5050611e7e57600190565b5f90565b69ffffffffffffffffffff908116925016105f80611e73565b909250611eaa6106835f6104e7565b14915f611e6b565b9250935050611ed9915060a03d60a011611ee4575b611ed18183610552565b810190611dab565b939291949094611e48565b503d611ec7565b505f90565b9190820391821161113c57565b611f0f683635c9adc5dea000006104e7565b811015611fc957680ad78ebc5ac620000090611f2a826104e7565b811115611f9957611f3d611f43926104e7565b90611ef0565b611f6e611f5c670de0b6b3a7640000926116e1846104e7565b6116fe682b5e3af16b188000006104e7565b611f77826104e7565b8110611f8857505061010e5f6104e7565b611f9461010e926104e7565b611ef0565b61010e916116fe6106c8611fb8936116e1671bc16d674ec800006104e7565b611f946729a2241af62c00006104e7565b5061010e5f6104e7565b61010e9060a01c61110e565b61010e9054611fd3565b611ff3600361050e565b611fff6104a45f6104de565b6120088261015d565b14801561210f575b6120c7576106c361202091610535565b60a061202b60405190565b633fabe5a360e21b815291829060049082905afa9081156107f6575f916120ed575b506120575f6104e7565b8113156120c757612067906104e7565b61207160046104fb565b61207a5f6104e7565b81146120e15761208a6003611fdf565b156120d257612098916114e4565b905b6120a35f6104e7565b82146120c75761010e916120b6916114e4565b6116fe670de0b6b3a76400006104e7565b505061010e5f6104e7565b6120db9161150b565b9061209a565b50505061010e5f6104e7565b612106915060a03d60a011611ee457611ed18183610552565b5050509061204d565b506121195f6104e7565b821461201056fea2646970667358221220960d358125907ecc16b9f995c528e3404da2926d503fb9280e926c7dbfe4ff4664736f6c634300081e0033","linkReferences":{}},"methodIdentifiers":{"coordinator()":"0a009097","emergencyRecover(address,bytes32)":"73d3cca3","linkEthPriceFeed()":"7c372e9b","onTokenTransfer(address,uint256,bytes)":"a4c0ed36","setLinkEthPriceFeed(address)":"83bdc5bd","setPresaleMintingEnabled(bool)":"8aefd9fb","setRewardStakeTargetBps(uint16)":"e2ddcae7","shutdownAndRefund(address)":"ee6f5c18","shutdownPresale()":"3f891a2b","stakeGameEthToStEth(uint256)":"c49338ae","subscriptionId()":"09c1ba2e","swapGameEthForStEth(uint256)":"d60fd8c5","vrfKeyHash()":"041d443e","wireVrf(address,uint256,bytes32)":"06349d97"},"id":1}