{"abi":[{"type":"constructor","inputs":[],"stateMutability":"nonpayable"},{"type":"receive","stateMutability":"payable"},{"type":"function","name":"adminStakeEthForStEth","inputs":[{"name":"amount","type":"uint256","internalType":"uint256"}],"outputs":[],"stateMutability":"nonpayable"},{"type":"function","name":"adminSwapEthForStEth","inputs":[{"name":"recipient","type":"address","internalType":"address"},{"name":"amount","type":"uint256","internalType":"uint256"}],"outputs":[],"stateMutability":"payable"},{"type":"function","name":"advanceGame","inputs":[{"name":"cap","type":"uint32","internalType":"uint32"}],"outputs":[],"stateMutability":"nonpayable"},{"type":"function","name":"bondAvailable","inputs":[],"outputs":[{"name":"","type":"uint256","internalType":"uint256"}],"stateMutability":"view"},{"type":"function","name":"bondCreditToClaimable","inputs":[{"name":"player","type":"address","internalType":"address"},{"name":"amount","type":"uint256","internalType":"uint256"}],"outputs":[],"stateMutability":"nonpayable"},{"type":"function","name":"bondCreditToClaimableBatch","inputs":[{"name":"players","type":"address[]","internalType":"address[]"},{"name":"amounts","type":"uint256[]","internalType":"uint256[]"}],"outputs":[],"stateMutability":"nonpayable"},{"type":"function","name":"bondDeposit","inputs":[{"name":"trackPool","type":"bool","internalType":"bool"}],"outputs":[],"stateMutability":"payable"},{"type":"function","name":"bondSpendToMaps","inputs":[{"name":"player","type":"address","internalType":"address"},{"name":"amount","type":"uint256","internalType":"uint256"},{"name":"quantity","type":"uint32","internalType":"uint32"}],"outputs":[],"stateMutability":"nonpayable"},{"type":"function","name":"burnTokens","inputs":[{"name":"tokenIds","type":"uint256[]","internalType":"uint256[]"}],"outputs":[],"stateMutability":"nonpayable"},{"type":"function","name":"claimWinnings","inputs":[],"outputs":[],"stateMutability":"nonpayable"},{"type":"function","name":"claimableWinningsOf","inputs":[{"name":"player","type":"address","internalType":"address"}],"outputs":[{"name":"","type":"uint256","internalType":"uint256"}],"stateMutability":"view"},{"type":"function","name":"creditDecJackpotClaim","inputs":[{"name":"account","type":"address","internalType":"address"},{"name":"amount","type":"uint256","internalType":"uint256"}],"outputs":[],"stateMutability":"nonpayable"},{"type":"function","name":"creditDecJackpotClaimBatch","inputs":[{"name":"accounts","type":"address[]","internalType":"address[]"},{"name":"amounts","type":"uint256[]","internalType":"uint256[]"}],"outputs":[],"stateMutability":"nonpayable"},{"type":"function","name":"decWindow","inputs":[],"outputs":[{"name":"on","type":"bool","internalType":"bool"},{"name":"lvl","type":"uint24","internalType":"uint24"}],"stateMutability":"view"},{"type":"function","name":"decWindowOpenFlag","inputs":[],"outputs":[{"name":"open","type":"bool","internalType":"bool"}],"stateMutability":"view"},{"type":"function","name":"deployTimestamp","inputs":[],"outputs":[{"name":"","type":"uint48","internalType":"uint48"}],"stateMutability":"view"},{"type":"function","name":"enqueueMap","inputs":[{"name":"buyer","type":"address","internalType":"address"},{"name":"quantity","type":"uint32","internalType":"uint32"}],"outputs":[],"stateMutability":"nonpayable"},{"type":"function","name":"ethMintLastLevel","inputs":[{"name":"player","type":"address","internalType":"address"}],"outputs":[{"name":"","type":"uint24","internalType":"uint24"}],"stateMutability":"view"},{"type":"function","name":"ethMintLevelCount","inputs":[{"name":"player","type":"address","internalType":"address"}],"outputs":[{"name":"","type":"uint24","internalType":"uint24"}],"stateMutability":"view"},{"type":"function","name":"ethMintStats","inputs":[{"name":"player","type":"address","internalType":"address"}],"outputs":[{"name":"lvl","type":"uint24","internalType":"uint24"},{"name":"levelCount","type":"uint24","internalType":"uint24"},{"name":"streak","type":"uint24","internalType":"uint24"}],"stateMutability":"view"},{"type":"function","name":"ethMintStreakCount","inputs":[{"name":"player","type":"address","internalType":"address"}],"outputs":[{"name":"","type":"uint24","internalType":"uint24"}],"stateMutability":"view"},{"type":"function","name":"gameState","inputs":[],"outputs":[{"name":"","type":"uint8","internalType":"uint8"}],"stateMutability":"view"},{"type":"function","name":"getPlayerPurchases","inputs":[{"name":"player","type":"address","internalType":"address"}],"outputs":[{"name":"mints","type":"uint32","internalType":"uint32"},{"name":"maps","type":"uint32","internalType":"uint32"}],"stateMutability":"view"},{"type":"function","name":"getTickets","inputs":[{"name":"trait","type":"uint8","internalType":"uint8"},{"name":"lvl","type":"uint24","internalType":"uint24"},{"name":"offset","type":"uint32","internalType":"uint32"},{"name":"limit","type":"uint32","internalType":"uint32"},{"name":"player","type":"address","internalType":"address"}],"outputs":[{"name":"count","type":"uint24","internalType":"uint24"},{"name":"nextOffset","type":"uint32","internalType":"uint32"},{"name":"total","type":"uint32","internalType":"uint32"}],"stateMutability":"view"},{"type":"function","name":"getTraitRemainingQuad","inputs":[{"name":"traitIds","type":"uint8[4]","internalType":"uint8[4]"}],"outputs":[{"name":"lastExterminated","type":"uint16","internalType":"uint16"},{"name":"currentLevel","type":"uint24","internalType":"uint24"},{"name":"remaining","type":"uint32[4]","internalType":"uint32[4]"}],"stateMutability":"view"},{"type":"function","name":"getWinnings","inputs":[],"outputs":[{"name":"","type":"uint256","internalType":"uint256"}],"stateMutability":"view"},{"type":"function","name":"isRngFulfilled","inputs":[],"outputs":[{"name":"","type":"bool","internalType":"bool"}],"stateMutability":"view"},{"type":"function","name":"lastRngWord","inputs":[],"outputs":[{"name":"","type":"uint256","internalType":"uint256"}],"stateMutability":"view"},{"type":"function","name":"level","inputs":[],"outputs":[{"name":"","type":"uint24","internalType":"uint24"}],"stateMutability":"view"},{"type":"function","name":"levelExterminator","inputs":[{"name":"lvl","type":"uint24","internalType":"uint24"}],"outputs":[{"name":"","type":"address","internalType":"address"}],"stateMutability":"view"},{"type":"function","name":"mintPrice","inputs":[],"outputs":[{"name":"","type":"uint256","internalType":"uint256"}],"stateMutability":"view"},{"type":"function","name":"nextPrizePoolView","inputs":[],"outputs":[{"name":"","type":"uint256","internalType":"uint256"}],"stateMutability":"view"},{"type":"function","name":"playerBonusMultiplier","inputs":[{"name":"player","type":"address","internalType":"address"}],"outputs":[{"name":"multiplierBps","type":"uint256","internalType":"uint256"}],"stateMutability":"view"},{"type":"function","name":"presaleMintingEnabled","inputs":[],"outputs":[{"name":"enabled","type":"bool","internalType":"bool"}],"stateMutability":"view"},{"type":"function","name":"prizePoolTargetView","inputs":[],"outputs":[{"name":"","type":"uint256","internalType":"uint256"}],"stateMutability":"view"},{"type":"function","name":"purchaseInfo","inputs":[],"outputs":[{"name":"lvl","type":"uint24","internalType":"uint24"},{"name":"gameState_","type":"uint8","internalType":"uint8"},{"name":"lastPurchaseDay_","type":"bool","internalType":"bool"},{"name":"rngLocked_","type":"bool","internalType":"bool"},{"name":"priceWei","type":"uint256","internalType":"uint256"}],"stateMutability":"view"},{"type":"function","name":"rawFulfillRandomWords","inputs":[{"name":"requestId","type":"uint256","internalType":"uint256"},{"name":"randomWords","type":"uint256[]","internalType":"uint256[]"}],"outputs":[],"stateMutability":"nonpayable"},{"type":"function","name":"recordCoinflipDeposit","inputs":[{"name":"amount","type":"uint256","internalType":"uint256"}],"outputs":[],"stateMutability":"nonpayable"},{"type":"function","name":"recordMint","inputs":[{"name":"player","type":"address","internalType":"address"},{"name":"lvl","type":"uint24","internalType":"uint24"},{"name":"costWei","type":"uint256","internalType":"uint256"},{"name":"mintUnits","type":"uint32","internalType":"uint32"},{"name":"payKind","type":"uint8","internalType":"enum MintPaymentKind"}],"outputs":[{"name":"coinReward","type":"uint256","internalType":"uint256"},{"name":"newClaimableBalance","type":"uint256","internalType":"uint256"}],"stateMutability":"payable"},{"type":"function","name":"reverseFlip","inputs":[],"outputs":[],"stateMutability":"nonpayable"},{"type":"function","name":"rngLocked","inputs":[],"outputs":[{"name":"","type":"bool","internalType":"bool"}],"stateMutability":"view"},{"type":"function","name":"rngStalledForThreeDays","inputs":[],"outputs":[{"name":"","type":"bool","internalType":"bool"}],"stateMutability":"view"},{"type":"function","name":"rngWordForDay","inputs":[{"name":"day","type":"uint48","internalType":"uint48"}],"outputs":[{"name":"","type":"uint256","internalType":"uint256"}],"stateMutability":"view"},{"type":"function","name":"sampleTraitTickets","inputs":[{"name":"entropy","type":"uint256","internalType":"uint256"}],"outputs":[{"name":"lvlSel","type":"uint24","internalType":"uint24"},{"name":"traitSel","type":"uint8","internalType":"uint8"},{"name":"tickets","type":"address[]","internalType":"address[]"}],"stateMutability":"view"},{"type":"function","name":"setPresaleMintingEnabled","inputs":[{"name":"enabled","type":"bool","internalType":"bool"}],"outputs":[],"stateMutability":"nonpayable"},{"type":"function","name":"startTraitRemaining","inputs":[{"name":"traitId","type":"uint8","internalType":"uint8"}],"outputs":[{"name":"","type":"uint32","internalType":"uint32"}],"stateMutability":"view"},{"type":"function","name":"updateVrfCoordinatorAndSub","inputs":[{"name":"newCoordinator","type":"address","internalType":"address"},{"name":"newSubId","type":"uint256","internalType":"uint256"},{"name":"newKeyHash","type":"bytes32","internalType":"bytes32"}],"outputs":[],"stateMutability":"nonpayable"},{"type":"function","name":"wireVrf","inputs":[{"name":"coordinator_","type":"address","internalType":"address"},{"name":"subId","type":"uint256","internalType":"uint256"},{"name":"keyHash_","type":"bytes32","internalType":"bytes32"}],"outputs":[],"stateMutability":"nonpayable"},{"type":"event","name":"Advance","inputs":[{"name":"gameState","type":"uint8","indexed":false,"internalType":"uint8"}],"anonymous":false},{"type":"event","name":"Degenerus","inputs":[{"name":"player","type":"address","indexed":true,"internalType":"address"},{"name":"tokenIds","type":"uint256[]","indexed":false,"internalType":"uint256[]"}],"anonymous":false},{"type":"event","name":"PlayerCredited","inputs":[{"name":"player","type":"address","indexed":true,"internalType":"address"},{"name":"recipient","type":"address","indexed":true,"internalType":"address"},{"name":"amount","type":"uint256","indexed":false,"internalType":"uint256"}],"anonymous":false},{"type":"event","name":"ReverseFlip","inputs":[{"name":"caller","type":"address","indexed":true,"internalType":"address"},{"name":"totalQueued","type":"uint256","indexed":false,"internalType":"uint256"},{"name":"cost","type":"uint256","indexed":false,"internalType":"uint256"}],"anonymous":false},{"type":"event","name":"VrfCoordinatorUpdated","inputs":[{"name":"previous","type":"address","indexed":true,"internalType":"address"},{"name":"current","type":"address","indexed":true,"internalType":"address"}],"anonymous":false},{"type":"error","name":"E","inputs":[]},{"type":"error","name":"InvalidQuantity","inputs":[]},{"type":"error","name":"MustMintToday","inputs":[]},{"type":"error","name":"NotTimeYet","inputs":[]},{"type":"error","name":"RngLocked","inputs":[]},{"type":"error","name":"RngNotReady","inputs":[]},{"type":"error","name":"VrfUpdateNotReady","inputs":[]}],"bytecode":{"object":"0x60806040523461002257610011610176565b604051617045610436823961704590f35b5f80fd5b61003a9061003d906001600160a01b031682565b90565b6001600160a01b031690565b61003a90610026565b61003a90610049565b61003a738464135c8f25da09e49bc8782676a84730c318bc610052565b610052565b634e487b7160e01b5f52604160045260245ffd5b90601f01601f191681019081106001600160401b038211176100b257604052565b61007d565b8015150361002257565b905051906100ce826100b7565b565b906020828203126100225761003a916100c1565b6100ed9061003d565b9052565b9160206100ce92949361010b60408201965f8301906100e4565b0152565b6040513d5f823e3d90fd5b61012761003a61003a9290565b65ffffffffffff1690565b9065ffffffffffff905b9181191691161790565b61012761003a61003a9265ffffffffffff1690565b9061016b61003a61017292610146565b8254610132565b9055565b61017e6103ca565b5f60206101c461018f61007861005b565b60405163095ea7b360e01b81529384928391908290821973a513e6e4b8f2a923d98304ec87f64353c4d5c853600484016100f1565b03925af18015610232576101dd915f9161020557501590565b6101f4576100ce6101ed4261011a565b600e61015b565b6312577edd60e31b5f908152600490fd5b610227915060203d60201161022b575b61021f8183610091565b8101906100d0565b1590565b503d610215565b61010f565b9062ffffff60d01b9060d01b61013c565b61025561003a61003a9290565b62ffffff1690565b9061026d61003a61017292610248565b8254610237565b9061ffff60e81b9060e81b61013c565b61029161003a61003a9290565b61ffff1690565b906102a861003a61017292610284565b8254610274565b907fff000000000000000000000000000000000000000000000000000000000000009060f81b61013c565b6102e761003a61003a9290565b60ff1690565b906102fd61003a610172926102da565b82546102af565b906cff0000000000000000000000009060601b61013c565b151590565b9061033161003a6101729261031c565b8254610304565b9060ff60781b9060781b61013c565b9061035761003a6101729261031c565b8254610338565b906001600160801b039061013c565b61037a61003a61003a9290565b6001600160801b031690565b9061039661003a6101729261036d565b825461035e565b905f199061013c565b61003a61003a61003a9290565b906103c361003a610172926103a6565b825461039d565b6103da65ffffffffffff5f61015b565b61040f60016103e9815f61025d565b6103f56101a45f610298565b6103ff5f806102ed565b6104098180610321565b80610347565b6104216658d15e176280006002610386565b6100ce6806c6b935b8bbd4000060036103b356fe6101c06040526004361015610023575b3615610019575f80fd5b6100216147c0565b005b5f3560e01c8063049d40201461032257806306349d971461031d5780630b78a28c146103185780630dd13d09146103135780630f3b90b51461030e5780631183ae6814610309578063163f6f7014610304578063166e2c04146102ff578063181490da146102fa5780631f5a6fa7146102f55780631fe543e3146102f0578063232178f6146102eb57806323e18707146102e6578063264d18fd146102e1578063282f19b8146102dc5780633e3d4a44146102d7578063414bf01f146102d257806346a0df52146102cd578063508ef7f6146102c85780635b48b354146102c3578063607ad0d7146102be5780636307dfe5146102b957806367a53173146102b45780636817c76c146102af5780636fd5ae15146102aa57806370b7596b146102a5578063776aecfd146102a05780637b01dc1e1461029b5780637b2611a4146102965780637f84d03d14610291578063847aea941461028c578063849c258c146102875780638aefd9fb146102825780639cb343571461027d578063ab91628c14610278578063abd9f3da14610273578063aeea8aa41461026e578063b401faf114610269578063bd41919814610264578063ccd5ddc71461025f578063cfb9f93b1461025a578063d1f9c24d14610255578063e068fdb514610250578063f0832e5b1461024b578063f97febef14610246578063fb0f78bd14610241578063fdb319ec1461023c5763fea127700361000f57610f1d565b610f01565b610ee6565b610ecb565b610eb3565b610e9b565b610e6c565b610e19565b610d75565b610d34565b610c90565b610c5e565b610c19565b610bfe565b610beb565b610bd3565b610b8f565b610b77565b610b32565b610ad1565b610abd565b610aa2565b610a87565b610a6c565b610a2a565b610a11565b6109d1565b61099d565b610946565b6108b0565b61083e565b610774565b61072f565b6106eb565b6106d0565b61069f565b610686565b61064a565b6105c9565b61059b565b61055c565b610503565b6104a3565b610449565b610430565b6103e8565b6103c1565b61039e565b6001600160a01b031690565b90565b6001600160a01b0381165b0361034857565b5f80fd5b9050359061035982610336565b565b80610341565b905035906103598261035b565b909160608284031261034857610333610387848461034c565b9360406103978260208701610361565b9401610361565b34610348576103b76103b136600461036e565b91610f7b565b60405180805b0390f35b34610348576103b76103d436600461036e565b91611087565b5f91031261034857565b9052565b34610348576103f83660046103da565b6103bd6104036111ea565b6040515b9182918290815260200190565b919060408382031261034857610333906020610397828661034c565b34610348576103b7610443366004610414565b906112a0565b34610348576104593660046103da565b6103bd6104646112c0565b60405191829182901515815260200190565b63ffffffff8116610341565b9050359061035982610476565b906020828203126103485761033391610482565b34610348576103b76104b636600461048f565b6119fa565b90602082820312610348576103339161034c565b62ffffff90911681526060810193926103599290916040916104f8905b62ffffff166020830152565b019062ffffff169052565b34610348576103bd61051e6105193660046104bb565b61278d565b604051919391938493846104cf565b65ffffffffffff8116610341565b905035906103598261052d565b90602082820312610348576103339161053b565b34610348576103bd610403610572366004610548565b6127de565b63ffffffff9091168152604081019291610359916020905b019063ffffffff169052565b34610348576105b36105ae3660046104bb565b612808565b906103bd6105c060405190565b92839283610577565b34610348576103b76105dc366004610414565b90612895565b909182601f83011215610348578135916001600160401b03831161034857602001926020830284011161034857565b919091604081840312610348576106288382610361565b9260208201356001600160401b0381116103485761064692016105e2565b9091565b34610348576103b761065d366004610611565b91612960565b91906040838203126103485761033390602061067f828661034c565b9401610482565b34610348576103b7610699366004610663565b90612a91565b34610348576103bd6106ba6106b53660046104bb565b612b01565b6040519182918262ffffff909116815260200190565b34610348576103bd6106ba6106e63660046104bb565b612b1d565b34610348576103bd6104036107013660046104bb565b612b39565b90916060828403126103485761033361071f848461034c565b93604061067f8260208701610361565b34610348576103b7610742366004610706565b91612be2565b62ffffff8116610341565b9050359061035982610748565b906020828203126103485761033391610753565b34610348576103bd61078f61078a366004610760565b612c1c565b604051918291826001600160a01b03909116815260200190565b9190608083011161034857565b9060808282031261034857610333916107a9565b0190565b6107de6107da60049390565b9190565b5f915b8383106107ee5750505050565b61080e610807600192845163ffffffff16815260200190565b9260200190565b920191906107e1565b61ffff909116815260c081019392610359929091604091610837906104ec565b01906107ce565b34610348576103bd6108596108543660046107b6565b612d07565b60405191939193849384610817565b90916040828403126103485781356001600160401b03811161034857836108909184016105e2565b92909360208201356001600160401b0381116103485761064692016105e2565b34610348576103b76108c3366004610868565b92919091612dff565b6003111561034857565b90503590610359826108cc565b919060a083820312610348576108f9818461034c565b926109078260208301610753565b926103336109188460408501610361565b9360806109288260608701610482565b94016108d6565b9081526040810192916103599160200152565b0152565b61095d6109543660046108e3565b93929092612ede565b906103bd61096a60405190565b9283928361092f565b610333916008021c5b65ffffffffffff1690565b906103339154610973565b6103335f600e610987565b34610348576109ad3660046103da565b6103bd6109b8610992565b6040519182918265ffffffffffff909116815260200190565b34610348576103bd6104036109e73660046104bb565b6131aa565b906020828203126103485781356001600160401b0381116103485761064692016105e2565b34610348576103b7610a243660046109ec565b906135ba565b3461034857610a3a3660046103da565b6103bd610403613d29565b610333916008021c5b62ffffff1690565b906103339154610a45565b610333601a5f610a56565b3461034857610a7c3660046103da565b6103bd6106ba610a61565b3461034857610a973660046103da565b6103bd610403613d3b565b3461034857610ab23660046103da565b6103bd610464613d78565b6103b7610acb366004610414565b90613da0565b34610348576103bd6106ba610ae73660046104bb565b613ec7565b9095949261035994610b2961094292610b20608096610b1660a088019c5f89019062ffffff169052565b60ff166020870152565b15156040850152565b15156060830152565b3461034857610b423660046103da565b6103bd610b4d613ef2565b91610b5a95939560405190565b95869586610aec565b906020828203126103485761033391610361565b34610348576103b7610b8a366004610b63565b613f6c565b3461034857610b9f3660046103da565b6103bd610403614045565b801515610341565b9050359061035982610baa565b906020828203126103485761033391610bb2565b34610348576103b7610be6366004610bbf565b61406f565b6103b7610bf9366004610bbf565b6140ca565b3461034857610c0e3660046103da565b6103bd6104646140d3565b3461034857610c293660046103da565b6103bd6104646140dd565b60ff8116610341565b9050359061035982610c34565b906020828203126103485761033391610c3d565b34610348576103bd610c79610c74366004610c4a565b6140e7565b6040519182918263ffffffff909116815260200190565b3461034857610ca03660046103da565b6103b76140fd565b90610cc1610807610cb7845190565b8084529260200190565b905f5b818110610cd15750505090565b909192610cf7610cf060019286516001600160a01b0316815260200190565b9460200190565b929101610cc4565b610d27610333949293610d1d60608401955f85019062ffffff169052565b60ff166020830152565b6040818403910152610ca8565b34610348576103bd610d4f610d4a366004610b63565b614206565b60405191939193849384610cff565b9015158152604081019291610359916020906104f8565b3461034857610d853660046103da565b610d8d6143f9565b906103bd610d9a60405190565b92839283610d5e565b919060a08382031261034857610db98184610c3d565b92610dc78260208301610753565b92610333610dd88460408501610482565b936080610de88260608701610482565b940161034c565b62ffffff909116815260608101939261035992909160409161058f905b63ffffffff166020830152565b34610348576103bd610e38610e2f366004610da3565b93929092614459565b60405191939193849384610def565b610333916008021c5b60ff1690565b906103339154610e47565b610333601f5f610e56565b3461034857610e7c3660046103da565b6103bd610e87610e61565b6040519182918260ff909116815260200190565b3461034857610eab3660046103da565b6103b761455a565b34610348576103b7610ec6366004610b63565b614645565b3461034857610edb3660046103da565b6103bd61046461469f565b3461034857610ef63660046103da565b6103bd6104036146a9565b34610348576103b7610f14366004610868565b929190916147aa565b3461034857610f2d3660046103da565b6103bd6104036147b6565b6103339060081c6001600160a01b031690565b6103339054610f38565b61033390610327906001600160a01b031682565b61033390610f55565b61033390610f69565b9091734ed7c70f96b99c776995fb64377f0d4ab3b0e1c13303610fe057610faf610fab610fa66147ff565b614828565b1590565b610fcf5761035992610fc9610fc46069610f4b565b610f72565b9261494d565b63107ce14f60e01b5f908152600490fd5b6312577edd60e31b5f908152600490fd5b6103276103336103339290565b61033390610ff1565b6103336103336103339290565b6103339081565b6103339054611014565b90610100600160a81b039060081b5b9181191691161790565b9061104e61033361105592610f72565b8254611025565b9055565b905f1990611034565b9061107261033361105592611007565b8254611059565b906110726103336110559290565b90734ed7c70f96b99c776995fb64377f0d4ab3b0e1c13303610fe0576110af6103275f610ffe565b6001600160a01b0383161480156111c3575b80156111af575b610fe0576110d6606b61101b565b6110e26107da5f611007565b0361115e5761112590610fc461112b939461111e611103610fc46069610f4b565b9361111761111089610f72565b606961103e565b606b611062565b606a611079565b91610f72565b907fd48241bb7cec5f656a8d0b693b91f812b27e47a18ac9f54f4bc119ce98530a7d61115660405190565b80805b0390a3565b61116e6107da610333606b61101b565b03610fe057611193611186610327610fc46069610f4b565b916001600160a01b031690565b03610fe0576111a86107da610333606a61101b565b03610fe057565b506111bc6103335f611007565b83146110c8565b506111cd5f611007565b81146110c1565b6103339060a01c610e50565b61033390546111d4565b6111f4600f6111e0565b61120257610333600c61101b565b6103335f611007565b905f516020616ff05f395f51905f523303610fe0576103599161125c565b634e487b7160e01b5f52601160045260245ffd5b9190820391821161124a57565b611229565b9190820180921161124a57565b906103599161127e61127783611272600c61101b565b61123d565b600c611062565b61129b6112948361128f601461101b565b61124f565b6014611062565b614a4b565b906103599161120b565b6103339060701c610e50565b61033390546112aa565b61033360016112b6565b61097c6103336103339290565b610333732279b7a0a67db372996a5fab50d91eaa73d2ebe6610f72565b6103339061097c565b61033390546112f4565b6103339060f81c610e50565b6103339054611307565b6103339060d01c610a4e565b610333905461131d565b610e506103336103339290565b6103336056611333565b6113639065ffffffffffff165b9165ffffffffffff1690565b90039065ffffffffffff821161124a57565b6103336103336103339265ffffffffffff1690565b6103336304b300c0611007565b6103339060301c61097c565b6103339054611397565b61097c6103336103339265ffffffffffff1690565b906113cc906113ad565b5f5260205260405f2090565b6103336002611333565b6103339060581c610e50565b61033390546113e2565b6103335f611333565b6103336001611333565b906001600160f81b03199060f81b611034565b610e506103336103339260ff1690565b9061143e6103336110559261141e565b825461140b565b6114526103336103339290565b63ffffffff1690565b6114526103336103339265ffffffffffff1690565b906113cc90610f72565b6103336048611007565b610333906114956107da6103339490565b901c90565b610333906114ae6107da6103339460ff1690565b901b90565b6103336114c06001611007565b6112726114cd6020611333565b8261149a565b61033373c6e7df5e7b4f2a278906862b61205850344d4e7d610f72565b634e487b7160e01b5f52604160045260245ffd5b90601f01601f191681019081106001600160401b0382111761152557604052565b6114f0565b9050519061035982610baa565b90602082820312610348576103339161152a565b6040513d5f823e3d90fd5b6103336003611333565b908152604081019291610359916020905b019065ffffffffffff169052565b61033390610e50565b610333905461157f565b6103339060981c610e50565b6103339054611592565b610a4e6103336103339290565b634e487b7160e01b5f52601260045260245ffd5b6115dc9062ffffff165b9162ffffff1690565b9081156115e7570690565b6115b5565b6103339060601c610e50565b61033390546115ec565b9060ff60601b9060601b611034565b9061162161033361105592151590565b8254611602565b6103339060e81c5b61ffff1690565b6103339054611628565b6116306103336103339290565b6103336101a4611641565b610e506103336103339261ffff1690565b9060ff60581b9060581b611034565b9061168961033361105592151590565b825461166a565b6103339060501c610e50565b6103339054611690565b9060ff60501b9060501b611034565b906116c561033361105592151590565b82546116a6565b9063ffffffff60901b9060901b611034565b6114526103336103339263ffffffff1690565b90611701610333611055926116de565b82546116cc565b6103339060b01c611452565b6103339054611708565b6103336103336103339263ffffffff1690565b9063ffffffff60b01b9060b01b611034565b90611753610333611055926116de565b8254611731565b8181029291811591840414171561124a57565b915f1960089290920291821b911b611034565b921b90565b919061179661033361105593611007565b90835461176d565b610359915f91611785565b8181106117b4575050565b806117c15f60019361179e565b016117a9565b9190918282106117d657505050565b61035992916117e990915f5260205f2090565b91820191016117a9565b90600160401b8111611525578161180b610359935490565b908281556117c7565b5f610359916117f3565b634e487b7160e01b5f525f60045260245ffd5b905f036118415761035990611814565b61181e565b9050519061035982610476565b91906040838203126103485761033390602061186f8286611846565b9401611846565b6103339060201c611452565b6103339054611876565b9067ffffffff000000009060201b611034565b906118af610333611055926116de565b825461188c565b6103339060801c610e50565b61033390546118b6565b63ffffffff909116815260608101939261035992909160409161094290610e0c565b9060ff60801b9060801b611034565b9061190d61033361105592151590565b82546118ee565b9063ffffffff90611034565b90611930610333611055926116de565b8254611914565b61033390611452565b6103339054611937565b905051906103598261035b565b90602082820312610348576103339161194a565b9069ff0000000000000000009060481b611034565b906119906103336110559261141e565b825461196b565b6103339060401c610e50565b6103339054611997565b610333600a611333565b610333683635c9adc5dea00000611007565b610333906114956107da6103339460ff1690565b6001600160a01b0390911681526040810192916103599160200152565b611a03426112ca565b90611a0c6147ff565b611a146112d7565b92611a1e5f6112fd565b905f611a295f611313565b908192611a355f611329565b94611a41610e50611340565b60ff851614908161274d57611a5b65ffffffffffff61097c565b65ffffffffffff821603612703575050611a75600e6112fd565b611a7e5f6112ca565b65ffffffffffff8216141591826126d4575b50506126cc575b61262257611aa36113f8565b90611ab360ff83165b9160ff1690565b1480612611575b6125f7575b611aca610e506113d8565b60ff831614809281936125e5575b60015b156125da575f611aea5f611445565b63ffffffff891614806125ca575b61253c575b611b08610e50611401565b60ff831614806124b8575b611b1e86888a615086565b600191611b2a83611007565b82146124a95760ff871660ff861614801561242d57611ba58b611b4d6069611588565b602081611b67610fc45f516020616ff05f395f51905f5281565b93611b7160405190565b63031b282760e21b8152600481018a905265ffffffffffff9091166024820152901515604482015293849081906064820190565b03815f865af1928315611d53578e93612411575b506123b3575b50505b611bcb8c61524d565b81156123aa575b5061239a578b611be18561159e565b612371575061235f5761222e5784611da557611bfe610e50611556565b60ff851614611c0e575050611adb565b935094505050611c1d836111e0565b611c2960ff8416611aac565b03611d75578293611c3a9293615743565b611c50611aac611c49846111e0565b9260ff1690565b03611d6e57611c5e906119a3565b611c6c611aac610e506119ad565b1015611d5857611c7b90614e9c565b7f55bc76655fa95a7bc9068ab071cd51430123d180c791be8584b21c98e33c8aa5611ca8610e875f611313565b0390a1611cc1611cb75f611445565b9163ffffffff1690565b14611cca575b50565b611cd390610f72565b611cee611cde6119b7565b611ce86001611333565b906119c9565b90803b1561034857611d235f92918392611d0760405190565b94859384928391906303e8b68b60e41b835233600484016119dd565b03925af18015611d5357611d345750565b610359905f5b611d448183611504565b8101906103da565b503d611d3a565b61154b565b50611d69611d6461164e565b615d69565b611c7b565b5050611c7b565b611d839150611d88936156d3565b6119a3565b611d96611aac610e506119ad565b1015611d5857611d6990614e9c565b94935094505050611db8839594956111e0565b611dc460ff8316611aac565b0361221a57611dd5610fab846113ee565b6121a85750611de6610fab8361169c565b6120ec57611df5610fc46114d3565b90611dff60405190565b630750d04f60e51b8152604081600481865afa918215611d53575f915f936120ba575b50611e3e611e2f8361171e565b611e388561171e565b9061124f565b611e4b63ffffffff61171e565b8111610fe057611e5a90611445565b90611e6486611882565b611e70611cb75f611445565b146120a1575b611e82610fab876118c2565b611fe3575b5050611e92846118c2565b611f2d575b505050611f04611d6993611ebd611ead5f611445565b611eb78186611920565b8461189f565b611ecf611ec95f611333565b84611980565b611ee0611eda611556565b5f61142e565b611eea5f846116b5565b611ef45f84611679565b611efe60646115a8565b906115c9565b611f116115d360636115a8565b14611f1d575b50614e9c565b80611f2791611611565b5f611f17565b90611f3791615b85565b611f4083611940565b611f4f63ffffffff8316611cb7565b10611f76575050611f04611d6993611f65615c1e565b611f6f5f846118fd565b935f611e97565b92509250506020611f8660405190565b63706f7b4d60e01b815292839060049082905afa908115611d5357611d69925f92611fb3575b5083615bc7565b611fd591925060203d8111611fdc575b611fcd8183611504565b810190611957565b905f611fac565b503d611fc3565b6020611fee87611882565b8a612013611ffb60405190565b9485938493631dc5ba6560e01b8552600485016118cc565b03815f895af18015611d535761202f915f91612079575b501590565b61206d5761203f611cb75f611445565b0361204c575b5f80611e87565b61205684806118fd565b6120686120625f611445565b85611920565b612045565b50505050505050611c7b565b610fab915060203d811161209a575b6120928183611504565b810190611537565b503d612088565b6120b56120af898686615af6565b8761189f565b611e76565b9092506120de915060403d81116120e5575b6120d68183611504565b810190611853565b915f611e22565b503d6120cc565b9091506121026120fc60646115a8565b846115c9565b61210e6115d35f6115a8565b1461218e575b828161212661212c93612132966159c5565b91615a7c565b806116b5565b61213b5f611445565b612145815f6116f1565b61214e5f611714565b90601091612166612160610333855490565b9161171e565b1015612173575050611c7b565b612187916121825f9283611743565b611831565b5f80611d6e565b61219b610fab82856157f8565b1561211457505050611c7b565b92936121e4926121bf611aac93611c49935f615743565b6121c9600561101b565b6121d96107da610333600361101b565b10156121f8576111e0565b036121f257611d6990614e9c565b50611c7b565b6122028180611679565b61221561220e5f611007565b6065611062565b6111e0565b506122299150611d69936156d3565b614e9c565b96945092505050611d6994506122d0925061224960196115a8565b62ffffff831610158061233e575b8061231c575b612269610fab836115f8565b9081612314575b50612305575b61228961228360646115a8565b836115c9565b6122966115d360636115a8565b146122f5575b506122a78382615432565b6122b05f611637565b6122c66122be61163061164e565b9161ffff1690565b036122d557615588565b615631565b6122f0836122ea6122e55f611637565b611659565b8361550a565b615588565b806122ff91611611565b5f61229c565b61230f8180611611565b612276565b90505f612270565b5061232a61228360646115a8565b6123376115d3605f6115a8565b141561225d565b5061234c612283600a6115a8565b6123596115d360056115a8565b14612257565b505050505050505050611d6990614e9c565b98505050945050505050611d699392506123955f516020616ff05f395f51905f5290565b6152fc565b5050505050505050505050611c7b565b1590505f611bd2565b6123df6020915f936123c460405190565b94859384928391906291d87f60e21b83528b60048401611560565b03925af18015611d53576123f5575b8b90611bbf565b61240c9060203d811161209a576120928183611504565b6123ee565b6124289060203d811161209a576120928183611504565b611bb9565b868715612493575b15611bc2575f60206124628d612458610fc45f516020616ff05f395f51905f5281565b906123c460405190565b03925af18015611d5357612477575b50611bc2565b61248e9060203d811161209a576120928183611504565b612471565b5061249f610e50611556565b60ff871614612435565b50505050505050505050611c7b565b5f60206124f96124c9610fc46114d3565b8c6124d360405190565b94859384928391906314ad5b3560e01b83526004830163ffffffff909116815260200190565b03925af1908115611d53575f9161251e575b5015611b13575050505050505050611c7b565b612536915060203d811161209a576120928183611504565b5f61250b565b61254d6125485f6113a3565b61145b565b6125565f611445565b63ffffffff821603612569575b50611afd565b6125ae611cb76125a4612596612588612583336060611470565b61101b565b61259061147a565b90611484565b61259e6114b3565b16611445565b9263ffffffff1690565b106125b9575f612563565b63291a7c8560e01b5f908152600490fd5b5060ff841660ff83161415611af8565b505050505050611c7b565b92506125f160016113ee565b92611ad8565b9050612601611401565b61260b815f61142e565b90611abf565b5061261d610fab615016565b611aba565b93505090925061263e6125836126375f6113a3565b60616113c2565b61264a6107da5f611007565b1461265b575b505050610359614f80565b61267b9161266d611aac610e506113d8565b1490816126ba575b83614c1f565b6126856001611007565b81149081156126a5575b50611cc75761269d90614e9c565b5f8080612650565b90506126b36107da5f611007565b145f61268f565b90506126c660016113ee565b90612675565b506001611a97565b6126fa9192506103336126f26126ec6107da93611375565b94611375565b611e3861138a565b10155f80611a90565b909161135761272261272e9261271c6301e133806112ca565b9061134a565b9265ffffffffffff1690565b119081612744575b5015611a9757506001611a97565b9050155f612736565b50505050505091506103599250614aa1565b6103336018611007565b6103336127766001611007565b6112726114cd6018611333565b6103336030611007565b6125836127a39161279b5f90565b506060611470565b6127ac5f611329565b916103336127c76127d56127c76127c161275f565b86611484565b6127cf612769565b166115a8565b93612590612783565b612583610333916127ec5f90565b5060616113c2565b906020828203126103485761033391611846565b90612814610fc46114d3565b602061281f60405190565b633d5dff5360e01b81526001600160a01b038516600482015291829060249082905afa908115611d535761033391612861915f91612866575b50936011611470565b611940565b612888915060203d60201161288e575b6128808183611504565b8101906127f4565b5f612858565b503d612876565b9073b7f8bc63bbcad18155201308c8f3540b07f84f5e3303610fe0576128ba5f611007565b811480156128d4575b6128d05761035991614a4b565b5050565b506128e16103275f610ffe565b6001600160a01b038316146128c3565b6103339060781c610e50565b61033390546128f1565b634e487b7160e01b5f52603260045260245ffd5b919081101561292b576020020190565b612907565b356103338161035b565b9060ff60781b9060781b611034565b9061295961033361105592151590565b825461293a565b612970610327610fc46069610f4b565b3303610fe0576129866107da610333600b61101b565b14158015612a06575b6128d0576129ad6129b291610359936129a75f611007565b9161291b565b612930565b806129bd600d61101b565b906129c75f611007565b82036129e2575b50506129db600180612949565b600a611062565b6129ec925061124f565b6129ff6129f85f611007565b600d611062565b5f806129ce565b50612a1160016128fd565b61298f565b805482101561292b57612a2e6001915f5260205f2090565b910201905f90565b916001600160a01b0360089290920291821b911b611034565b9190612a6061033361105593610f72565b908354612a36565b90815491600160401b8310156115255782612a8b91600161035995018155612a16565b90612a4f565b90612aa0610327610fc46114d3565b3303610fe057612aeb612ad783612abe612861610359966011611470565b612aca611cb75f611445565b14612af1575b6011611470565b91612ae183611940565b0163ffffffff1690565b90611920565b612afc816010612a68565b612ad0565b6127c7612b156125836103339361279b5f90565b612590612783565b6127c7612b316125836103339361279b5f90565b612590611202565b61258361033391612b475f90565b506013611470565b91905f516020616ff05f395f51905f523303610fe0576103599290612bca61035993612b9d612b96612bd294612b8c61127782611272600c61101b565b61128f600561101b565b6005611062565b612bab612861856011611470565b612bb45f611445565b63ffffffff821614612bd7570163ffffffff1690565b916011611470565b611920565b612ae1856010612a68565b906103599291612b4f565b610a4e6103336103339262ffffff1690565b906113cc90612bed565b61033390610327565b6103339054612c09565b612c255f6115a8565b62ffffff821614612c4357612c3e610333916012612bff565b612c12565b506103335f610ffe565b90610359612c5a60405190565b9283611504565b6001600160401b0381116115255760200290565b612c8161033391612c61565b612c4d565b369037565b90610359612ca1612c9b84612c75565b93612c61565b83612c86565b6103336004612c8b565b90600481101561292b576020020190565b3561033381610c34565b9091906101005b83101561292b576008612ce560049290565b8185040193060290565b610333916008021c611452565b906103339154612cef565b90612d10612ca7565b908190610359612d1f5f611329565b93612d7d612dea612d65612d325f611637565b98612de4612d5a602092612d88612d6b612d65612d5f612d5a612d545f611007565b86612cb1565b612cc2565b87612ccc565b90612cfc565b612d7d612d775f611007565b8b612cb1565b9063ffffffff169052565b612dae612da1612d65612d5f612d5a612d546001611007565b612d7d612d776001611007565b612dd4612dc7612d65612d5f612d5a612d546002611007565b612d7d612d776002611007565b612dde6003611007565b90612cb1565b90612ccc565b91612dde6003611007565b3561033381610336565b909392909173b7f8bc63bbcad18155201308c8f3540b07f84f5e3303610fe0578493828503610fe0575f5b855b811015612eb057612e7b81612e486129ad612e2c94888861291b565b612e5b612e56838c8b61291b565b612df5565b90612e655f611007565b81141580612e92575b612e82575b505060010190565b9050612e2a565b612e8b91614a4b565b5f80612e73565b50612e9f6103275f610ffe565b6001600160a01b0383161415612e6e565b50945050505050565b6001600160a01b03909116815260608101939261035992909160409161157190610e0c565b909394929194612eeb5f90565b90612efa610327610fc46114d3565b3303610fe057612f095f611313565b96612f15610e506113f8565b60ff891614928380613049575b610fe057612f50928692612f379250866160e3565b9790612f425f611007565b8103613032575b50846162b3565b95612f5a5f611445565b63ffffffff851603612f6d575b50505050565b811561301a575b8115613003575b50612f88575b8080612f67565b612f9f610fc45f516020616ff05f395f51905f5281565b612fa76147ff565b90803b1561034857612fd9935f8094612fbf60405190565b9687958694859363f9622fa760e01b855260048501612eb9565b03925af18015611d5357612fee575b80612f81565b612ffd905f611d448183611504565b5f612fe8565b9050613013611aac610e50611556565b145f612f7b565b9050613027610e506113d8565b60ff82161490612f74565b612b966130439161128f600561101b565b5f612f49565b50613057610fab6069611588565b612f22565b6103336103336103339262ffffff1690565b6001600160801b038116610341565b905051906103598261306e565b9092919261309a612c8182612c61565b93602085920283019281841161034857915b8383106130b95750505050565b602080916130c7848661307d565b8152019201916130ac565b9080601f830112156103485760026103339261308a565b909291926130f9612c8182612c61565b93602085920283019281841161034857915b8383106131185750505050565b60208091613126848661152a565b81520192019161310b565b9080601f83011215610348576002610333926130e9565b60c0818303126103485761315c8282611846565b9261033361316d8460208501611846565b93608061317d82604087016130d2565b9401613131565b62ffffff9091168152604081019291610359916020905b01906001600160a01b03169052565b5f6131b76103275f610ffe565b6001600160a01b03831614613475576131d4612583836060611470565b906131e96127c76127d56127c76127c161275f565b906131f35f611329565b9173a51c1fc2f0d1a1b8494ed1fe312d7c3a78ed91c0915061321560196115a8565b62ffffff8216111561345e5750613249610fc46132436132356019611007565b61323f6064611007565b0290565b92610f72565b9060c061325560405190565b621f53f360e11b81526001600160a01b038716600482015292839060249082905afa8015611d53576132b8925f9161342e575b506132936032611445565b63ffffffff8216111561341d57506107ca6132ae6032611007565b61323f6032611007565b6132d6610fc473610178da211fef7d417bc0e6fed39f05609ad78881565b9260206132e260405190565b9485906326a9b4ab60e11b825281806132ff8a8960048401613184565b03915afa918215611d53576132356020946133346107ca936107ca61333a976133839a5f91613400575b5061323f6064611007565b936162fe565b92613359610fc4733aa5ebb10dc797cac828524e59a333d0a371443c81565b604051938492839182916370a0823160e01b5b83526001600160a01b031660048301526024820190565b03915afa918215611d5357610333926133c1925f916133e1575b50806133ac6107da6005611007565b116133cc575b6107ca9061323f6103e8611007565b61128f612710611007565b506107ca6133da6005611007565b90506133b2565b6133fa915060203d602011611fdc57611fcd8183611504565b5f61339d565b61341791508a3d8c11611fdc57611fcd8183611504565b5f613329565b6134296107ca9161171e565b6132ae565b613450915060c03d60c011613457575b6134488183611504565b810190613148565b5050613288565b503d61343e565b610fc46132436134706132499361305c565b613235565b5050610333612710611007565b9037565b8183529091602001916001600160fb1b03811161034857829160206107ca9202938491613482565b6001600160a01b0391909116815260406020820181905261033393910191613486565b6001600160a01b0390911681526040810192916103599160209061058f565b610e506103336103339262ffffff1690565b6114526103336103339260ff1690565b610e506103336103339263ffffffff1690565b61145290611495611cb76103339460ff1690565b610e5090611495611aac6103339460ff1690565b6116306103336103339260ff1690565b9091906050612cd3565b9190600861103491029161178063ffffffff841b90565b919061358f610333611055936116de565b908354613567565b61010082101561292b57600190612a2e565b602080825261033393910191613486565b6101205260e0526135cb60016112b6565b613ce7576135d85f611313565b6135e5611aac6003611333565b03613cd65760e0516101005261010051610160526136025f611007565b61010051148015613cc1575b613cb05761361d610fc46114d3565b803b15610348575f61362e60405190565b91829063aefb6b1b60e01b825281838161365260e0516101205133600485016134ae565b03925af18015611d5357613c9b575b5061366d610fc46112d7565b61367961010051611445565b90803b15610348576136ae5f9291839261369260405190565b948593849283919063a532330760e01b835233600484016134d1565b03925af18015611d5357613c86575b506136c75f611329565b6136dc6136d7612283600a6115a8565b6134f0565b6136e66002611333565b60ff82161460c0526136f8605a6115a8565b62ffffff8316149061370d611aac6007611333565b03613c7a5761372461371f6001611333565b613502565b9061372e5f611637565b9061373761164e565b61014081905261ffff1661ffff831614155f6101a05261376761033361375a5f90565b96876101a0526015612bff565b916101405161018052855b61010051811015613c6e576137986137936129ad8360e0516101205161291b565b6163df565b906137a282613512565b916137ad6008611333565b6080526137c46137bf60805183613525565b613512565b906137cf6010611333565b60a0526137f86137bf6137e76137bf60a05185613525565b926137f26018611333565b90613525565b916138036003611333565b9361380e8587613539565b603f906138258761381e84611333565b8616613539565b613850611aac896138496138438261383c89611333565b8c16613539565b96611333565b8a16613539565b60ff8316149283613c5e575b5082613c47575b5050613c31575b8780613baf575b878180613ba6575b8215613b8c575b5050613b6e575b8b946138938c886164ea565b613b36575b6138a28c846164ea565b613afe575b6138b18c856164ea565b613ac6575b6138c08c866164ea565b613a8e575b6138cf6001611445565b906016906138dd6007611333565b89166138e9908361355d565b846138f48284612cfc565b0163ffffffff16906139059261357e565b61390f6040611333565b850360ff169061391e91613539565b6080510160ff1661392f908261355d565b8361393a8284612cfc565b0163ffffffff169061394b9261357e565b6139556080611333565b850360ff1660a0510160ff1661396a9161355d565b90916139768284612cfc565b0163ffffffff16906139879261357e565b600101946139959089613597565b50336139a091612a68565b6139aa9088613597565b50336139b591612a68565b6139bf9087613597565b50336139ca91612a68565b6139d49086613597565b50336139df91612a68565b1561377257505050505050505b60c051613a6f575b613a056101a0516101605133616534565b613a0e33610f72565b7f382430ae01131ede2a44b089e54298736cd5358e25f713b6437a70da9ef214d5613a3860405190565b80613a4960e05161012051836135a9565b0390a26101405161ffff166101805161ffff1603613a6357565b61035961018051615d69565b613a85613a7c6001611333565b6101005161149a565b610160526139f4565b9450613a9e6101405161ffff1690565b6101805161ffff1614613ab4575b6001946138c5565b613abd8461354d565b61018052613aac565b9450613ad66101405161ffff1690565b6101805161ffff1614613aec575b6001946138b6565b613af58361354d565b61018052613ae4565b9450613b0e6101405161ffff1690565b6101805161ffff1614613b24575b6001946138a7565b613b2d8261354d565b61018052613b1c565b9450613b466101405161ffff1690565b6101805161ffff1614613b5c575b600194613898565b613b658661354d565b61018052613b54565b613b83613b7b6004611007565b6101a0510190565b6101a052613887565b90915081613b9d575b50875f613880565b1590505f613b95565b81159250613879565b50613bb98661354d565b613bc661ffff8c166122be565b148015613c14575b8015613bf7575b806138715750613be48461354d565b613bf161ffff8c166122be565b14613871565b50613c018361354d565b613c0e61ffff8c166122be565b14613bd5565b50613c1e8261354d565b613c2b61ffff8c166122be565b14613bce565b613c3e613b7b6031611007565b6101a05261386a565b909150613c569060ff16611aac565b145f80613863565b60ff83811691161492505f61385c565b505050505050506139ec565b61372461371f5f611333565b613c95905f611d448183611504565b5f6136bd565b613caa905f611d448183611504565b5f613661565b63524f409b60e01b5f908152600490fd5b50613ccc604b611007565b610100511161360e565b635a39b02f60e11b5f908152600490fd5b63bb3e844f60e01b5f908152600490fd5b610333905b6001600160801b031690565b6103339054613cf8565b610333610333610333926001600160801b031690565b610333613d366002613d09565b613d13565b613d49612583336013611470565b613d536001611007565b811115613d6e5761033390613d686001611007565b9061123d565b506103335f611007565b610333610fa66147ff565b610333738464135c8f25da09e49bc8782676a84730c318bc610f72565b734ed7c70f96b99c776995fb64377f0d4ab3b0e1c13303610fe057613dc76103275f610ffe565b6001600160a01b03821614610fe057613ddf5f611007565b82148015613ebd575b610fe057613df7610fc4613d83565b91613e1c6020613e0630610f72565b6040519283918291906370a0823160e01b61336c565b0381875afa908115611d53575f91613e9e575b508111610fe057613e66926020925f613e4760405190565b809681958294613e5b63a9059cbb60e01b90565b8452600484016119dd565b03925af18015611d5357613e7f915f91613e8557501590565b610fe057565b610fab915060203d60201161209a576120928183611504565b613eb7915060203d602011611fdc57611fcd8183611504565b5f613e2f565b5081341415613de8565b6127c7613edb6125836103339361279b5f90565b61259061275f565b6001610333910162ffffff1690565b613efb5f611329565b8091613f065f611313565b9182613f13610e506113d8565b60ff82161480613f5c575b92613f2960016112b6565b92613f37613d366002613d09565b92613f46611aac610e50611556565b14613f4e5750565b613f59919650613ee3565b94565b50613f6760016113ee565b613f1e565b734ed7c70f96b99c776995fb64377f0d4ab3b0e1c13303610fe057613f905f611007565b8114610fe057613f9f30610f72565b31818110610fe057613fb1601461101b565b9081811115610fe057613fc7916103339161123d565b8111610fe057602061400791613fde610fc4613d83565b61336c63a1903eab92613ff05f610ffe565b93613ffa60405190565b9687958694859360e01b90565b03925af19081614028575b50610359576312577edd60e31b5f908152600490fd5b6140409060203d602011611fdc57611fcd8183611504565b614012565b610333600561101b565b9060ff90611034565b9061406861033361105592151590565b825461404f565b734ed7c70f96b99c776995fb64377f0d4ab3b0e1c13303610fe057610359906069614058565b5f516020616ff05f395f51905f523303610fe057610359906140b357565b6103596112776140c3600c61101b565b349061124f565b61035990614095565b6103336069611588565b61033360016128fd565b612d65610333916140f55f90565b506040612ccc565b61410b612583336013611470565b6141156001611007565b811115610fe05761414e6103599161412a5f90565b506141356001611007565b9061414a82614145336013611470565b611062565b0390565b61415f61129482611272601461101b565b3361658f565b6001600160401b0381116115255760208091020190565b90614189612c8183614165565b918252565b906103596141a461419e8461417c565b93614165565b601f190160208401612c86565b6141bf9062ffffff166115d3565b90039062ffffff821161124a57565b906115dc565b610333916008021c610327565b9061033391546141d4565b906141f5825190565b81101561292b576020809102010190565b5f906142115f611329565b9260019361421e856115a8565b62ffffff821611156143d55761428d9061424061423a876115a8565b826141b1565b8061424e6115d360146115a8565b116143b4575b61427161426c6142666142839361305c565b876141ce565b6115a8565b61427a886115a8565b0162ffffff1690565b900362ffffff1690565b9283946142ab6142a66142a06018611333565b866119c9565b611333565b80956142c86142c4836142bf846015612bff565b613597565b5090565b916142d1835490565b916142db5f611007565b83146143935750506142ed6004611007565b81111561438c576142fe6004611007565b935b6143098561418e565b94846143238461431e899b611ce86028611333565b6141ce565b92905b614334575b50505050505050565b81811015614387578061437b61436361435d6143578861431e614381978a61124f565b89612a16565b906141e1565b61436d838b6141ec565b906001600160a01b03169052565b60010190565b85614326565b61432b565b8093614300565b975097505050505090506143ae6143a95f611007565b61418e565b91929190565b5061428361427161426c6142666143cb60146115a8565b9350505050614254565b50925050506143e66143a95f611007565b6143ef5f6115a8565b916107da5f611333565b61440360016115f8565b80614413575b906103335f611329565b50614421610fab60016112b6565b614409565b6144359063ffffffff16611cb7565b019063ffffffff821161124a57565b62ffffff1662ffffff811461124a5760010190565b6142c461447991969294969593956142bf6144715f90565b966015612bff565b9461448a614485875490565b611445565b908163ffffffff811663ffffffff8816101561454457506144ae6144b39187614426565b61171e565b946144bd8261171e565b861161452e575b6144cd9061171e565b8581101561451c576144e261435d8289612a16565b6144f46001600160a01b038616611186565b14614507575b6001016144cd565b6144cd565b9361451461450291614444565b9490506144fa565b509294509261452b9150611445565b91565b94506144cd61453c8261171e565b9590506144c4565b95505050935050506145555f6115a8565b918190565b61456460016112b6565b61463457614572600d61101b565b61457b81616744565b90614587610fc46112d7565b90813b15610348575f61459960405190565b92839063befe68c760e01b82528183816145b78933600484016119dd565b03925af1908115611d53577f5fa2478c5bc6aa8a11850c0ecbbde792af56a1d529e8f445c22f494ec72f0a0b926145f89261461f575b50611e386001611007565b9161460483600d611062565b61460d33610f72565b9261461a61096a60405190565b0390a2565b61462e905f611d448183611504565b5f6145ed565b630e54774760e41b5f908152600490fd5b614653610327610fc46112d7565b3303610fe0576146625f611313565b614670611aac610e506113d8565b148061468f575b61467e5750565b61220e6103599161128f606561101b565b5061469a60016113ee565b614677565b61033360016115f8565b6103336125836126375f6113a3565b9291905f516020616ff05f395f51905f523303610fe05792839261035992818503610fe0575f93845b865b81101561476e576146f86129ad82868661291b565b614706612e56838b8961291b565b61470f5f611007565b82141580614750575b614733575b505061472c6146e39160010190565b90506146e1565b816146e393986107ca61472c9461474994614a4b565b969161471d565b5061475d6103275f610ffe565b6001600160a01b0382161415614718565b509550505050905061477f5f611007565b81036147885750565b611294816147a061127761035994611272600c61101b565b61128f601461101b565b906103599392916146b8565b610333600361101b565b6103596147d06140c3600661101b565b6006611062565b610333620142bc6112ca565b6147f49065ffffffffffff16611357565b9081156115e7570490565b61033361481661480e426112ca565b61271c6147d7565b614822620151806112ca565b906147e3565b606161483761258383836113c2565b6148436107da5f611007565b036148c3576148515f6112ca565b65ffffffffffff83161480156148c9575b6148c35761487060026112ca565b65ffffffffffff831610918215614891575b505061488d57600190565b5f90565b6148ae9250906148a86125839261271c60026112ca565b906113c2565b6148ba6107da5f611007565b14155f80614882565b50505f90565b506148e96125836148e36148dd60016112ca565b8561134a565b836113c2565b6148f56107da5f611007565b1415614862565b9060ff60701b9060701b611034565b9061491b61033361105592151590565b82546148fc565b9065ffffffffffff60601b9060601b611034565b90614946610333611055926113ad565b8254614922565b929161495b6103275f610ffe565b6001600160a01b038516148015614a37575b610fe05761111e6149849261111761111087610f72565b61498f5f600161490b565b61499a600180612949565b6149c36149a65f611007565b6149b181600b611062565b6129db6149bd5f6112ca565b5f614936565b6149da610fc45f516020616ff05f395f51905f5281565b803b156103485761112b91611125915f6149f360405190565b636c9f73ff60e01b81528115156004820152918290602490829084905af19081614a22575b50610fc457610f72565b614a31905f611d448183611504565b5f614a18565b50614a446103335f611007565b811461496d565b907f8d6d307cfee7f8fbe2b0a9eebc059c714d0108fa855c944761169ccff9442d6b614a9561115993610fc4614a82826013611470565b614a8f866107ca8361101b565b90611062565b92839261040760405190565b90614ab9610fc45f516020616ff05f395f51905f5281565b90614ac360405190565b6323ed324b60e11b8152602081600481865afa908115611d53575f91614ba9575b50614b92575f614af49184614c1f565b90614afe5f611007565b82148015614b97575b614b9257803b1561034857614b425f92918392614b2360405190565b9485938492839190632ef0c76d60e01b83526004830190815260200190565b03925af18015611d5357614b7d575b50614b5b5f6113a3565b614b6c65ffffffffffff8316611357565b03614b745750565b61035990614e9c565b614b8c905f611d448183611504565b5f614b51565b505050565b50614ba26001611007565b8214614b07565b614bc2915060203d60201161209a576120928183611504565b5f614ae4565b61157161035994614bf6606094989795614bed608086019a5f87019062ffffff169052565b15156020850152565b6040830152565b6103339060601c61097c565b6103339054614bfd565b6103336203f4806112ca565b91606192614c3061258382866113c2565b614c3c6107da5f611007565b03614e5e57614c4b60016128fd565b15614e5057614c5a600a61101b565b614c635f611007565b81141580614e40575b614e2e5750614c7b60016112b6565b614d395750614c939250614c8e5f611313565b61691f565b614d2f57614ca260018061490b565b614cad5f6001612949565b614cb65f611007565b614cc181600a611062565b614ccd6149bd426112ca565b614ce4610fc45f516020616ff05f395f51905f5281565b803b15610348575f614cf560405190565b636c9f73ff60e01b815260016004820152918290602490829084905af18015611d5357614d20575090565b610333905f611d448183611504565b6103336001611007565b9192614d445f614c09565b614d506113575f6112ca565b03614d63575b505050506103335f611007565b614d78614d6f426112ca565b61271c5f614c09565b614d8661135761097c614c13565b10614d565783614da88492614d9e61414597856167d3565b96879485926113c2565b614db15f6115a8565b62ffffff821603614dc4575b5050505090565b6020925f614dd3610fc46112d7565b92614dfa614de060405190565b978896879586946319d7c64760e01b865260048601614bc8565b03925af18015611d5357614e11575b808281614dbd565b614e299060203d60201161209a576120928183611504565b614e09565b9392614da885614145848295976113c2565b50614e4b60016112b6565b614c6c565b614e595f611007565b614c5a565b90506125839150610333926113c2565b906bffffffffffff0000000000009060301b611034565b90614e95610333611055926113ad565b8254614e6e565b614ea6905f614e85565b614eb15f600161490b565b614ec4614ebd5f611007565b600b611062565b614ed06149bd5f6112ca565b614ee7610fc45f516020616ff05f395f51905f5281565b803b15610348575f614ef860405190565b918290636c9f73ff60e01b5b8252821515600483015281838160248101611d23565b6001600160a01b0390911681526040810192916103599160209061319b565b6001600160401b03811161152557602090601f01601f19160190565b90614189612c8183614f39565b3d15614f7b57614f713d614f55565b903d5f602084013e565b606090565b5f805f516020616ff05f395f51905f5273dc64a140aa3e981100a9beca4e685f962f0cf6c9614fe8614fb3610fc4613d83565b92614fd9614fc060405190565b6338850ed960e01b602082015294859260248401614f1a565b60208201810382520383611504565b602082519201905af4615001614ffc614f62565b911590565b6150115750610359611eda611340565b616b1a565b615034610fc473610178da211fef7d417bc0e6fed39f05609ad78881565b602061503f60405190565b6302989ae560e51b815291829060049082905afa5f9181615065575b5061033357505f90565b61507f91925060203d60201161209a576120928183611504565b905f61505b565b909161509461097c5f6113a3565b65ffffffffffff831614613cd6576150ac60016128fd565b15615228576150bb600a61101b565b925b6150c65f611007565b84148080615218575b806151fb575b6151cb575b6151ac576150eb610fab60016112b6565b6151975783906150ff6125838560616113c2565b61510b6107da5f611007565b14615117575050505090565b615126826141458660616113c2565b8215615177575b6151365f6115a8565b62ffffff821614158015615159575b15614dbd576020925f614dd3610fc46112d7565b506151635f611313565b615171611aac610e506113f8565b14615145565b91506151825f611313565b615190611aac610e506113f8565b149161512d565b9150614d2f92506151a75f611313565b616b35565b915091506151ba60016112b6565b613ce757614d2f916151a75f611313565b6151d7614d6f426112ca565b6151e561135761fd206112ca565b106150da57509150614d2f92506151a75f611313565b506152055f614c09565b6152116113575f6112ca565b14156150d5565b5061522360016112b6565b6150cf565b6152315f611007565b926150bd565b6103339060901c611452565b6103339054615237565b6152565f611714565b906152696152635f615243565b91616c1b565b91615279611cb76125a45f611714565b1415908115615286575091565b9050615297611cb76125a45f615243565b141591565b9081526040810192916103599160209061058f565b9060ff60981b9060981b611034565b906152d061033361105592151590565b82546152b1565b9065ffffffffffff90611034565b906152f5610333611055926113ad565b82546152d7565b9160209161530f610fc461533995610f72565b905f61531a60405190565b80968195829461532e63b68dbd5160e01b90565b84526004840161529c565b03925af1908115611d53575f916153ab575b501561538c5761035990615360611eda6113d8565b61537261536c426112ca565b5f6152e5565b61537c600161159e565b15614e9c576122295f60016152c0565b5061539a610fab600161159e565b6153a057565b6103596001806152c0565b6153c4915060203d60201161209a576120928183611504565b5f61534b565b6103e490610f72565b919461542861319b9298979561541860a0966154086103599a61540160c08a019e5f8b019062ffffff169052565b6020890152565b6001600160a01b03166040870152565b6001600160a01b03166060850152565b60808301906153ca565b5f9182916154b9735fc8d32690cc91d4c39d9d3abcbd16989f87570791614fd973b7f8bc63bbcad18155201308c8f3540b07f84f5e73cf7ed3acca5a467e9e704c703e8d87f634fb0fc961548a610fc4610fc46112d7565b90615496610fc46114d3565b926154a060405190565b63027a9a8560e01b6020820152988996602488016153d3565b602082519201905af46154cd614ffc614f62565b6150115750565b61550361035994614bf66060949897956154f9608086019a5f87019062ffffff169052565b60ff166020850152565b01906153ca565b905f926154b98493614fd961553073cf7ed3acca5a467e9e704c703e8d87f634fb0fc990565b9361553f610fc4610fc46112d7565b9061554960405190565b63f5952bf760e01b6020820152968794602486016154d4565b6001600160a01b03918216815291166020820152606081019291610359916040906104f8565b5f80916155a673dc64a140aa3e981100a9beca4e685f962f0cf6c990565b6154b95f516020616ff05f395f51905f52614fd96155c5610fc4613d83565b946155cf60405190565b6301eef8b960e61b602082015295869360248501615562565b61094261035994615621606094989795615611608086019a5f8701906001600160a01b03169052565b6001600160a01b03166020850152565b6001600160a01b03166040830152565b5f809161564f73dc64a140aa3e981100a9beca4e685f962f0cf6c990565b6156965f516020616ff05f395f51905f52614fd961566e610fc4613d83565b9461567a610fc46112d7565b60405163ace06d2160e01b6020820152968794602486016155e8565b602082519201905af46156aa614ffc614f62565b61501157506103596001806152c0565b62ffffff90911681526040810192916103599160200152565b5f9182916154b973cf7ed3acca5a467e9e704c703e8d87f634fb0fc991614fd96156fc60405190565b6323e77d0560e11b6020820152948592602484016156ba565b61550361035994614bf6606094989795615737608086019a5f87019015159052565b62ffffff166020850152565b905f926154b98493614fd961576973cf7ed3acca5a467e9e704c703e8d87f634fb0fc990565b93615778610fc4610fc46112d7565b9061578260405190565b632e028a4360e21b602082015296879460248601615715565b6103339060881c610e50565b610333905461579b565b906147f4565b9060ff60881b9060881b611034565b906157d661033361105592151590565b82546157b7565b908152606081019392610359929091604091610942906104ec565b602061586c926158055f90565b50615813610fab60016157a7565b615921575b615822600861101b565b92615841610fc473b7f8bc63bbcad18155201308c8f3540b07f84f5e81565b905f61584c60405190565b80978195829461586063275d3a4060e01b90565b845289600485016157dd565b03925af1918215611d53575f926158fc575b50816158899161123d565b6158925f611007565b81036158e5575b506158a35f611007565b81036158ce575b506158be6158b75f611007565b6008611062565b6158c95f60016157c6565b600190565b6147d06158df9161128f600661101b565b5f6158aa565b6112946158f69161128f601461101b565b5f615899565b61588991925061591a9060203d602011611fdc57611fcd8183611504565b919061587e565b6159926147d0615988615934600661101b565b61597161595061596061595061594a6028611007565b8561175a565b61595a6064611007565b906157b1565b9261596b600a611007565b9061175a565b9061597d816008611062565b61128f826009611062565b611272600661101b565b61599d6001806157c6565b615818565b62ffffff909116815260608101939261035992909160409161319b906020830152565b5f918291615a0c73cf7ed3acca5a467e9e704c703e8d87f634fb0fc991614fd96159f0610fc4613d83565b60405163c110f1a560e01b6020820152958693602485016159a2565b602082519201905af4615a20614ffc614f62565b615011578051615a326107da5f611007565b14610fe057806020615a45610333935190565b818301019101611957565b61550361035994614bf6606094989795615a75608086019a5f87019062ffffff169052565b6020850152565b905f926154b98493614fd9615aa273cf7ed3acca5a467e9e704c703e8d87f634fb0fc990565b93615ab1610fc4610fc46112d7565b90615abb60405190565b63909e880560e01b602082015296879460248601615a50565b63ffffffff90911681526060810193926103599290916040916104f890610e0c565b905f92615b418493615b055f90565b50614fd9739fe46736679d2d9a65f0992f2272de9f3c7fa6e093615b2860405190565b63f44b0c9160e01b602082015295869360248501615ad4565b602082519201905af4615b55614ffc614f62565b615011578051615b676107da5f611007565b14610fe057806020615b7a610333935190565b8183010191016127f4565b5f918291615b41739fe46736679d2d9a65f0992f2272de9f3c7fa6e091614fd9615bae60405190565b639c27d8af60e01b602082015294859260248401610577565b905f926154b98493614fd9615bed739fe46736679d2d9a65f0992f2272de9f3c7fa6e090565b93615bf760405190565b63ae926f5b60e01b6020820152958693602485016118cc565b6001610333910161ffff1690565b60409060205f5b615c30610100611641565b61ffff82161015615c695780615c5f615c4f612d65615c649486612ccc565b615c598388612ccc565b9061357e565b615c10565b615c25565b50509050565b9060ff60901b9060901b611034565b90615c8e61033361105592151590565b8254615c6f565b9061ffff60e81b9060e81b611034565b6116306103336103339261ffff1690565b90615cc661033361105592615ca5565b8254615c95565b613cfd6103336103339290565b906001600160801b0390611034565b613cfd610333610333926001600160801b031690565b90615d0f61033361105592615ce9565b8254615cda565b9062ffffff60d01b9060d01b611034565b90615d3761033361105592612bed565b8254615d16565b9068ff00000000000000009060401b611034565b90615d626103336110559261141e565b8254615d3e565b615d725f611329565b615d7d611eda611401565b615d91615d8a606561101b565b6066611062565b615d9a5f611007565b91615da6836065611062565b615db1610100611641565b61ffff8216101561607357615dc8615e3791611659565b615e27615ddd615dd75f611637565b9261354d565b91615deb61ffff84166122be565b14615df7816001615c7e565b615e01605a6115a8565b62ffffff86160361606e57155b615e18600461101b565b809161603e575b506004611062565b615e313384616cd9565b5f615cb6565b615e55610fc473a51c1fc2f0d1a1b8494ed1fe312d7c3a78ed91c081565b803b15610348575f615e6660405190565b63b1c775e960e01b8152918290600490829084905af18015611d5357615f2a92615f2592615ebe92616029575b505b615ea8615ea260646115a8565b826115c9565b615eb46115d35f6115a8565b1461600257613ee3565b615ed8615ed2615ecd5f611329565b613ee3565b5f615d27565b615eeb615ee45f611445565b6001611920565b615ef560016119a3565b615f08615f015f611333565b6001615d52565b615f16611aac610e506119ad565b10615ff557611efe60646115a8565b61305c565b615f34600a611007565b8103615f8b575050615f56615f4f66b1a2bc2ec50000615ccd565b6002615cff565b615f61610fc46114d3565b803b15610348575f615f7260405190565b91829063adbb7ce560e01b825281838160048101611d23565b615f95601e611007565b8103615fb6575050615fb1615f4f67016345785d8a0000615ccd565b615f56565b615fc06050611007565b8103615fdc575050615fb1615f4f670214e8348c4f0000615ccd565b03615fb157615fb1615f4f6703782dace9d90000615ccd565b615ffd616d01565b611ef4565b61601661600f600661101b565b6003611062565b615ecd615f4f66b1a2bc2ec50000615ccd565b616038905f611d448183611504565b5f615e93565b61606891506160566160506001611333565b826119c9565b906112726147d08361128f600661101b565b5f615e1f565b615e0e565b50615f25615ebe615f2a926160895f6001615c7e565b61609b6160955f610ffe565b82616cd9565b6160a6856004611062565b6160b1615e3161164e565b615e95565b634e487b7160e01b5f52602160045260245ffd5b600311156160d457565b6160b6565b90610359826160ca565b9192905f9283946160f35f6160d9565b6160fc826160d9565b0361613557505061610a8190565b3403610fe057925b61611b5f611007565b81036161245750565b61129461035991611272601461101b565b61614560019693969592956160d9565b61614e826160d9565b036161995750505061615f5f611007565b3403610fe057616173612583836013611470565b83811115610fe05761618784616193920390565b61414581946013611470565b82616112565b6161b16161ab600297939694976160d9565b916160d9565b03610fe057803411610fe0576161c890349061123d565b80916161d35f611007565b82036161fd575b50506161e86107da5f611007565b03610fe0576161f7833461124f565b92616112565b61620b612583826013611470565b916162166001611007565b8311616223575b506161da565b9091955061623a6162346001611007565b8761123d565b808210156162885750805b81966162505f611007565b830361625d575b5061621d565b82611272929394975061627f9550616273910390565b61414581976013611470565b5f808080616257565b90616245565b6001600160a01b03909116815260608101939261035992909160409161058f906104ec565b905f92615a0c84936162c25f90565b50614fd9739fe46736679d2d9a65f0992f2272de9f3c7fa6e0936162e560405190565b63082f547360e11b60208201529586936024850161628e565b9061630d90611efe60646115a8565b6163165f6115a8565b62ffffff8216148015616391575b6163665761595a61634461633a61634a9461305c565b61323f6019611007565b9161305c565b6163546019611007565b81111561033357506103336019611007565b5061637160196115a8565b62ffffff8216111561638857506103336019611007565b6103339061305c565b5061639c60196115a8565b62ffffff82161115616324565b61033390611007565b6163bf6103336103339290565b6001600160401b031690565b611452906114ae611cb76103339460ff1690565b616429906164116163ef60405190565b80926164056020830191826107ca816020939052565b90810382520382611504565b61642361641c825190565b9160200190565b206163a9565b61643a616435826163b2565b616d67565b6164446040611333565b61645961643561645483866119c9565b6163b2565b17916164e36164d96164d36164c96164c36164b36164ad61647a6080611333565b61648a616435616454838c6119c9565b17976164a661643561645461649f60c0611333565b80946119c9565b1798613502565b98613502565b6164bd6008611333565b906163cb565b94613502565b6164bd6010611333565b93613502565b6164bd6018611333565b9217171790565b611cb7615c5992611452616530936164ff5f90565b50616526616511612d65836020612ccc565b61651b6001611445565b900363ffffffff1690565b9586916020612ccc565b1490565b919061323f616557926165526165486119b7565b61595a600a611007565b920190565b90616563610fc46112d7565b91823b1561034857611d23925f928361657b60405190565b809681958294613e5b633e8b68b060e01b90565b906165995f611007565b81146128d0576165a830610f72565b90813180821161672d5750805b6165be5f611007565b81036166fb575b6165ce9161123d565b6165d75f611007565b8114614b92576165e8610fc4613d83565b6040516370a0823160e01b81526001600160a01b0384166004820152602081602481855afa908115611d53575f916166dc575b508083116166d6575081905b6166305f611007565b820361668a575b506166419161123d565b9061664b5f611007565b820361665657505050565b81903110610fe0575f8091616670610fc4613e7f95610f72565b9061667a60405190565b9081805b03925af161202a614f62565b602061669560405190565b91829063a9059cbb60e01b8252815f816166b3888c600484016119dd565b03925af18015611d53576166cc915f91613e8557501590565b610fe0575f616637565b90616627565b6166f5915060203d602011611fdc57611fcd8183611504565b5f61661b565b6167175f8061670c610fc488610f72565b60405185818061667e565b156165c5576312577edd60e31b5f908152600490fd5b6165b5565b61033368056bc75e2d63100000611007565b9061674d616732565b6167565f611007565b831461677d576167706165486167779261596b600f611007565b925f190190565b9161674d565b9150565b6103e4906001600160a01b031660601b90565b6103e49065ffffffffffff1660d01b90565b6103e49062ffffff1660e81b90565b01918252565b018092616781565b018092616794565b0180926167a6565b616411616868926167e15f90565b506167eb5f6112ca565b65ffffffffffff841603616889576168025f611007565b6164056168186168126001611007565b4361123d565b9161682230610f72565b9361682c60405190565b9687956020870195429044904088946167cb60146003966167c36020809c9b986167bb826167b59a6167b56107ca9f806167b5859260069f9052565b90816168766107da5f611007565b1461687d57565b90506103336001611007565b6168a261258361263761689c60016112ca565b8661134a565b616802565b610333600a611641565b61033362030d40611445565b61033360a0612c4d565b80518252610359919060809081906168e460208201516020860152565b60408181015161ffff169085015260608181015163ffffffff1690850152015163ffffffff16910152565b60a08101929161035991906168c7565b5f939291616930610fc46069610f4b565b61693f6111866103275f610ffe565b148015616afa575b8015616add575b616ad557616969610fc45f516020616ff05f395f51905f5281565b91636c9f73ff93600192843b1561034857604051926169888760e01b90565b845284151560048501525f84602481838a5af1938415611d53575f94616ab9575b506020616a516169bc610fc46069610f4b565b6169c6606a61101b565b616a1a6169d3606b61101b565b616a0d6169de6168a7565b616a026169e96168b1565b936169fc6169f56168bd565b978f890152565b89870152565b61ffff166040850152565b63ffffffff166060830152565b616a33616a268a611445565b63ffffffff166080830152565b6040519788938492839190636c93a45360e01b83526004830161690f565b03925af15f9481616a98575b50616a86575050505050803b1561034857614f04915f91616a7d60405190565b93849260e01b90565b91939697509193506103339450616daf565b616ab291955060203d602011611fdc57611fcd8183611504565b935f616a5d565b616acf90853d8711611d4c57611d448183611504565b5f6169a9565b505f93505050565b50616ae8606b61101b565b616af46107da5f611007565b1461694e565b50616b05606a61101b565b616b146107da6103335f611007565b14616947565b8051616b286107da5f611007565b14610fe057805190602001fd5b9091616b4e610fc45f516020616ff05f395f51905f5281565b92833b15610348575f616b6060405190565b636c9f73ff60e01b815260016004820152948590602490829084905af1938415611d53575f94616bff575b506020616bc2616b9e610fc46069610f4b565b616ba8606a61101b565b616bb56169d3606b61101b565b616a33616a266001611445565b03925af1928315611d5357610359945f94616bde575b50616daf565b616bf891945060203d602011611fdc57611fcd8183611504565b925f616bd8565b616c1590853d8711611d4c57611d448183611504565b5f616b8b565b5f614fd98192616c285f90565b50616c6f73cf7ed3acca5a467e9e704c703e8d87f634fb0fc991616c4b60405190565b632fc384e160e21b60208201529384916024830163ffffffff909116815260200190565b602082519201905af4616c83614ffc614f62565b615011578051616c956107da5f611007565b14610fe057806020616ca8610333935190565b818301019101611537565b906001600160a01b0390611034565b90616cd261033361105592610f72565b8254616cb3565b90616ce35f6115a8565b62ffffff8316146128d057616cfc610359926012612bff565b616cc2565b602060165b818110616d11575050565b5f8155600101616d06565b611452610333610333926001600160401b031690565b6163bf90611495616d466103339460ff1690565b916001600160401b031690565b610e50906114ae611aac6103339460ff1690565b616dab616d9a616d7f616d95616d84616d7f86616d1c565b616ec9565b94616d8f6020611333565b90616d32565b616d1c565b91616da56003611333565b90616d53565b1790565b92616dbe90929192600b611062565b616dc95f6001612949565b616dd56129db5f611007565b616de060018061490b565b616dec6149bd426112ca565b616df9615ea260646115a8565b616e056115d35f6115a8565b14159283616e92575b83616e79575b508215616e45575b505080616e35575b616e2a57565b6103595f6001611611565b50616e4060016115f8565b616e24565b616e55919250611efe60646115a8565b616e616115d35f6115a8565b149081616e71575b505f80616e1c565b90505f616e69565b909250616e8a611aac610e50611401565b14915f616e14565b9250616ea1615ea260646115a8565b616eae6115d360636115a8565b141592616e0e565b6163bf6103336103339263ffffffff1690565b616d95616efa616ee3616f0493616edd5f90565b50616eb6565b616eed604b6163b2565b026001600160401b031690565b616d8f6020611333565b616f0e600a611445565b63ffffffff821610616fe557616f246014611445565b63ffffffff821610616fda57616f3a601e611445565b63ffffffff821610616fcf57616f506028611445565b63ffffffff821610616fc457616f666031611445565b63ffffffff821610616fb957616f7c603a611445565b63ffffffff821610616fae57616f95611cb76043611445565b10616fa4576103336007611333565b6103336006611333565b506103336005611333565b506103336004611333565b506103336003611333565b506103336002611333565b506103336001611333565b506103335f61133356fe000000000000000000000000a513e6e4b8f2a923d98304ec87f64353c4d5c853a2646970667358221220c2531e9b5ee1b8c8cc0adf98730ed440bcb3381acdcae0626727c57705b7ba3164736f6c634300081e0033","linkReferences":{}},"methodIdentifiers":{"adminStakeEthForStEth(uint256)":"847aea94","adminSwapEthForStEth(address,uint256)":"7b01dc1e","advanceGame(uint32)":"1183ae68","bondAvailable()":"0b78a28c","bondCreditToClaimable(address,uint256)":"0dd13d09","bondCreditToClaimableBatch(address[],uint256[])":"fdb319ec","bondDeposit(bool)":"9cb34357","bondSpendToMaps(address,uint256,uint32)":"3e3d4a44","burnTokens(uint256[])":"67a53173","claimWinnings()":"b401faf1","claimableWinningsOf(address)":"282f19b8","creditDecJackpotClaim(address,uint256)":"1f5a6fa7","creditDecJackpotClaimBatch(address[],uint256[])":"508ef7f6","decWindow()":"ccd5ddc7","decWindowOpenFlag()":"f97febef","deployTimestamp()":"607ad0d7","enqueueMap(address,uint32)":"232178f6","ethMintLastLevel(address)":"264d18fd","ethMintLevelCount(address)":"7b2611a4","ethMintStats(address)":"163f6f70","ethMintStreakCount(address)":"23e18707","gameState()":"d1f9c24d","getPlayerPurchases(address)":"181490da","getTickets(uint8,uint24,uint32,uint32,address)":"cfb9f93b","getTraitRemainingQuad(uint8[4])":"46a0df52","getWinnings()":"70b7596b","isRngFulfilled()":"abd9f3da","lastRngWord()":"fb0f78bd","level()":"6fd5ae15","levelExterminator(uint24)":"414bf01f","mintPrice()":"6817c76c","nextPrizePoolView()":"849c258c","playerBonusMultiplier(address)":"6307dfe5","presaleMintingEnabled()":"ab91628c","prizePoolTargetView()":"fea12770","purchaseInfo()":"7f84d03d","rawFulfillRandomWords(uint256,uint256[])":"1fe543e3","recordCoinflipDeposit(uint256)":"f0832e5b","recordMint(address,uint24,uint256,uint32,uint8)":"5b48b354","reverseFlip()":"e068fdb5","rngLocked()":"0f3b90b5","rngStalledForThreeDays()":"776aecfd","rngWordForDay(uint48)":"166e2c04","sampleTraitTickets(uint256)":"bd419198","setPresaleMintingEnabled(bool)":"8aefd9fb","startTraitRemaining(uint8)":"aeea8aa4","updateVrfCoordinatorAndSub(address,uint256,bytes32)":"049d4020","wireVrf(address,uint256,bytes32)":"06349d97"},"id":5}