{"abi":[{"type":"constructor","inputs":[{"name":"paths_","type":"string[33]","internalType":"string[33]"},{"name":"diamond_","type":"string","internalType":"string"},{"name":"symQ1_","type":"string[8]","internalType":"string[8]"},{"name":"symQ2_","type":"string[8]","internalType":"string[8]"},{"name":"symQ3_","type":"string[8]","internalType":"string[8]"}],"stateMutability":"nonpayable"},{"type":"function","name":"data","inputs":[{"name":"i","type":"uint256","internalType":"uint256"}],"outputs":[{"name":"","type":"string","internalType":"string"}],"stateMutability":"view"},{"type":"function","name":"diamond","inputs":[],"outputs":[{"name":"","type":"string","internalType":"string"}],"stateMutability":"view"},{"type":"function","name":"symbol","inputs":[{"name":"quadrant","type":"uint256","internalType":"uint256"},{"name":"idx","type":"uint8","internalType":"uint8"}],"outputs":[{"name":"","type":"string","internalType":"string"}],"stateMutability":"view"}],"bytecode":{"object":"0x60806040523461002e5761001d61001461029c565b939290926104f3565b6040516103fa6105b982396103fa90f35b5f80fd5b634e487b7160e01b5f52604160045260245ffd5b90601f01601f191681019081106001600160401b0382111761006757604052565b610032565b9061008061007960405190565b9283610046565b565b6001600160401b0381116100675760200290565b6001600160401b03811161006757602090601f01601f19160190565b90825f9392825e0152565b909291926100d26100cd82610096565b61006c565b938185528183011161002e576100809160208501906100b2565b9080601f8301121561002e578151610106926020016100bd565b90565b9291906101186100cd82610082565b93602085920281019183831161002e5781905b838210610139575050505050565b81516001600160401b03811161002e5760209161015987849387016100ec565b81520191019061012b565b9080601f8301121561002e57602161010692610109565b92919061018a6100cd82610082565b93602085920281019183831161002e5781905b8382106101ab575050505050565b81516001600160401b03811161002e576020916101cb87849387016100ec565b81520191019061019d565b9080601f8301121561002e5760086101069261017b565b91909160a08184031261002e5780516001600160401b03811161002e5783610216918301610164565b60208201519093906001600160401b03811161002e57816102389184016100ec565b60408301519093906001600160401b03811161002e578261025a9185016101d6565b60608401519093906001600160401b03811161002e578361027c9183016101d6565b60808201519093906001600160401b03811161002e5761010692016101d6565b6102ba6109b3803803806102af8161006c565b9283398101906101ed565b9091929394565b6101066101066101069290565b634e487b7160e01b5f52603260045260245ffd5b9060215b8110156102f4576020020190565b6102ce565b60215b8210156102f45701905f90565b634e487b7160e01b5f525f60045260245ffd5b634e487b7160e01b5f52602260045260245ffd5b9060016002830492168015610350575b602083101461034b57565b61031c565b91607f1691610340565b919061036b610106610382936102c1565b9083545f1960089290920291821b191691901b1790565b9055565b610080915f9161035a565b81811061039c575050565b806103a95f600193610386565b01610391565b9190601f81116103be57505050565b6103ce610080935f5260205f2090565b906020601f8401819004830193106103f0575b6020601f909101040190610391565b90915081906103e1565b90610403815190565b906001600160401b03821161006757610426826104208554610330565b856103af565b602090601f831160011461045f5761038292915f9183610454575b50505f19600883021c1916906002021790565b015190505f80610441565b601f19831691610472855f5260205f2090565b925f5b8181106104ae57509160029391856001969410610496575b50505002019055565b01515f196008601f8516021c191690555f808061048d565b91936020600181928787015181550195019201610475565b91906104d557610080916103fa565b610309565b90610080916103fa565b9060086102e6565b60086102fc565b9490939290915f805b61050660216102c1565b81101561053a578061052f61051e610535938b6102e2565b51610529835f6102f9565b906104c6565b60010190565b6104fc565b5091939550919361054c9060216104da565b61055660086102c1565b8110156105b1578061057a61056e6105ac93856104e4565b516105298360226104ec565b61059361058782866104e4565b5161052983602a6104ec565b61052f6105a082886104e4565b516105298360326104ec565b61054c565b505050905056fe60806040526004361015610011575f80fd5b5f3560e01c806323b67b0814610040578063f0b7db4e1461003b5763f0ba84400361004557610156565b610127565b6100f1565b5f80fd5b805b0361004557565b9050359061005f82610049565b565b60ff811661004b565b9050359061005f82610061565b91906040838203126100455761009a9060206100938286610052565b940161006a565b90565b90825f9392825e0152565b6100c96100d26020936100dc936100bd815190565b80835293849260200190565b9586910161009d565b601f01601f191690565b0190565b602080825261009a929101906100a8565b346100455761011961010d610107366004610077565b9061032d565b604051918291826100e0565b0390f35b5f91031261004557565b346100455761013736600461011d565b61011961010d61039d565b906020828203126100455761009a91610052565b346100455761011961010d61016c366004610142565b6103ae565b61009a61009a61009a9290565b634e487b7160e01b5f52603260045260245ffd5b60085b8210156101a25701905f90565b61017e565b634e487b7160e01b5f52602260045260245ffd5b90600160028304921680156101db575b60208310146101d657565b6101a7565b91607f16916101cb565b80545f9392916102016101f7836101bb565b8085529360200190565b9160018116908115610250575060011461021a57505050565b61022b91929394505f5260205f2090565b915f925b81841061023c5750500190565b80548484015260209093019260010161022f565b92949550505060ff1916825215156020020190565b9061009a916101e5565b634e487b7160e01b5f52604160045260245ffd5b90601f01601f1916810190811067ffffffffffffffff8211176102a557604052565b61026f565b9061005f6102c4926102bb60405190565b93848092610265565b0383610283565b61009a906102aa565b9061005f6102e160405190565b9283610283565b67ffffffffffffffff81116102a557602090601f01601f19160190565b90610317610312836102e8565b6102d4565b918252565b61009a5f610305565b61009a61031c565b6103365f610171565b811461038e576103466001610171565b811461037f5761035d6103596002610171565b9190565b1461036b575061009a610325565b61037961009a916032610192565b506102cb565b5061037961009a91602a610192565b5061037961009a916022610192565b61009a60216102cb565b6021610195565b61037961009a916103bd606090565b505f6103a756fea26469706673582212202cce1c351f9175c9c3b97089aa45376cc74a871db72f3394f2682a9bfc72ebc564736f6c634300081e0033","linkReferences":{}},"methodIdentifiers":{"data(uint256)":"f0ba8440","diamond()":"f0b7db4e","symbol(uint256,uint8)":"23b67b08"},"id":17}