{"abi":[{"type":"function","name":"claimDecimatorJackpot","inputs":[{"name":"lvl","type":"uint24","internalType":"uint24"}],"outputs":[],"stateMutability":"nonpayable"},{"type":"function","name":"claimDecimatorJackpotBatch","inputs":[{"name":"players","type":"address[]","internalType":"address[]"},{"name":"lvl","type":"uint24","internalType":"uint24"}],"outputs":[],"stateMutability":"nonpayable"},{"type":"function","name":"consumeDecClaim","inputs":[{"name":"player","type":"address","internalType":"address"},{"name":"lvl","type":"uint24","internalType":"uint24"}],"outputs":[{"name":"amountWei","type":"uint256","internalType":"uint256"}],"stateMutability":"nonpayable"},{"type":"function","name":"decClaimable","inputs":[{"name":"player","type":"address","internalType":"address"},{"name":"lvl","type":"uint24","internalType":"uint24"}],"outputs":[{"name":"amountWei","type":"uint256","internalType":"uint256"},{"name":"winner","type":"bool","internalType":"bool"}],"stateMutability":"view"},{"type":"function","name":"recordBafFlip","inputs":[{"name":"player","type":"address","internalType":"address"},{"name":"lvl","type":"uint24","internalType":"uint24"},{"name":"amount","type":"uint256","internalType":"uint256"}],"outputs":[],"stateMutability":"nonpayable"},{"type":"function","name":"recordDecBurn","inputs":[{"name":"player","type":"address","internalType":"address"},{"name":"lvl","type":"uint24","internalType":"uint24"},{"name":"bucket","type":"uint8","internalType":"uint8"},{"name":"baseAmount","type":"uint256","internalType":"uint256"},{"name":"multBps","type":"uint256","internalType":"uint256"}],"outputs":[{"name":"bucketUsed","type":"uint8","internalType":"uint8"}],"stateMutability":"nonpayable"},{"type":"function","name":"runBafJackpot","inputs":[{"name":"poolWei","type":"uint256","internalType":"uint256"},{"name":"lvl","type":"uint24","internalType":"uint24"},{"name":"rngWord","type":"uint256","internalType":"uint256"}],"outputs":[{"name":"winners","type":"address[]","internalType":"address[]"},{"name":"amounts","type":"uint256[]","internalType":"uint256[]"},{"name":"bondMask","type":"uint256","internalType":"uint256"},{"name":"returnAmountWei","type":"uint256","internalType":"uint256"}],"stateMutability":"nonpayable"},{"type":"function","name":"runDecimatorJackpot","inputs":[{"name":"poolWei","type":"uint256","internalType":"uint256"},{"name":"lvl","type":"uint24","internalType":"uint24"},{"name":"rngWord","type":"uint256","internalType":"uint256"}],"outputs":[{"name":"returnAmountWei","type":"uint256","internalType":"uint256"}],"stateMutability":"nonpayable"},{"type":"error","name":"DecAlreadyClaimed","inputs":[]},{"type":"error","name":"DecClaimInactive","inputs":[]},{"type":"error","name":"DecNotWinner","inputs":[]},{"type":"error","name":"OnlyBonds","inputs":[]},{"type":"error","name":"OnlyCoin","inputs":[]},{"type":"error","name":"OnlyGame","inputs":[]}],"bytecode":{"object":"0x608060405234601957604051613d2661001e8239613d2690f35b5f80fdfe610a206040526004361015610012575f80fd5b5f3560e01c8063275d3a40146100915780634181af8e1461008c5780636857bb3c146100875780637f8de5f314610082578063bd225b881461007d578063c15cc2f314610078578063cb8725db146100735763f92887d4036100965761043a565b610405565b6103ed565b6103a6565b610310565b6102b3565b61021a565b610101565b5f80fd5b805b0361009657565b905035906100b08261009a565b565b62ffffff811661009c565b905035906100b0826100b2565b9091606082840312610096576100fa6100e384846100a3565b9360406100f382602087016100bd565b94016100a3565b90565b9052565b346100965761012d61011d6101173660046100ca565b916107e6565b6040519182918290815260200190565b0390f35b6001600160a01b031690565b0190565b9061016161015a610150845190565b8084529260200190565b9260200190565b905f5b8181106101715750505090565b90919261019761019060019286516001600160a01b0316815260200190565b9460200190565b929101610164565b906101ae61015a610150845190565b905f5b8181106101be5750505090565b9091926101d46101906001928651815260200190565b9291016101b1565b61021661020e6100b09597969461020060609560808601908682035f880152610141565b90848203602086015261019f565b966040830152565b0152565b346100965761012d6102366102303660046100ca565b916126f0565b9061024394929460405190565b948594856101dc565b909182601f830112156100965781359167ffffffffffffffff831161009657602001926020830284011161009657565b9160408383031261009657823567ffffffffffffffff811161009657826102aa6020946100fa93870161024c565b949095016100bd565b34610096576102cc6102c636600461027c565b916127af565b604051005b6001600160a01b03811661009c565b905035906100b0826102d1565b9190604083820312610096576100fa90602061030982866102e0565b94016100bd565b34610096576103296103233660046102ed565b90612880565b9061012d61033660405190565b92839283908152901515602082015260400190565b60ff811661009c565b905035906100b08261034b565b919060a0838203126100965761037781846102e0565b9261038582602083016100bd565b926100fa6103968460408501610354565b9360806100f382606087016100a3565b346100965761012d6103c56103bc366004610361565b93929092612b47565b6040519182918260ff909116815260200190565b90602082820312610096576100fa916100bd565b34610096576102cc6104003660046103d9565b612b72565b346100965761012d61011d61041b3660046102ed565b90612be0565b9091606082840312610096576100fa6100e384846102e0565b34610096576102cc61044d366004610421565b91612d08565b6100fa90610131906001600160a01b031682565b6100fa90610453565b6100fa90610467565b6100fa7359b670e9fa9d0a427751af201d676719a970857b610470565b610470565b9291906104ac610131610496610479565b33036104bb576100fa936106b3565b636200df7d60e11b5f908152600490fd5b6104de6100fa6100fa9262ffffff1690565b62ffffff1690565b906104f0906104cc565b5f5260205260405f2090565b6100fa9060f81c5b60ff1690565b6100fa90546104fc565b6105046100fa6100fa9290565b6100fa600a610514565b634e487b7160e01b5f52603260045260245ffd5b600b82101561055457600b905b910201905f90565b61052b565b600b5b8210156105545760019061054c565b6100fa916008021c81565b906100fa915461056b565b6100fa6100fa6100fa9290565b634e487b7160e01b5f52601160045260245ffd5b919082018092116105af57565b61058e565b60016100fa910160ff1690565b9067ffffffffffffffff905b9181191691161790565b6105ee6100fa6100fa9267ffffffffffffffff1690565b67ffffffffffffffff1690565b9061060b6100fa610612926105d7565b82546105c1565b9055565b905f19906105cd565b9061062f6100fa61061292610581565b8254610616565b6106436100fa6100fa9290565b6001600160f81b031690565b906001600160f81b03906105cd565b6100fa90610643906001600160f81b031682565b906106826100fa6106129261065e565b825461064f565b906001600160f81b03199060f81b6105cd565b906106ac6100fa61061292151590565b8254610689565b9390929193506106c76100fa8560056104e6565b9160018301916106d68361050a565b6107de575f95949386936106ea6002610514565b6106f5610504610521565b60ff8216116107795761074061073a826107348161072f6107278e9f9d9e9c9d61071f848e612d13565b958691612dca565b9b60046104e6565b61053f565b50610559565b90610576565b6107495f610581565b8103610764575b5061075a906105b4565b96959497966106ea565b6107729061075a92986105a2565b9690610750565b50949250949561078e610793929760066104e6565b6105fb565b61079c5f610581565b82146107d757926107c86001936107c285946107bd6107ce985f870161061f565b610636565b90610672565b0161069c565b6100fa5f610581565b9250505090565b945050505090565b6100fa9291905f61049b565b959493929190610806610131610496610479565b33036104bb5761081596610bcd565b90919293565b634e487b7160e01b5f52604160045260245ffd5b90601f01601f1916810190811067ffffffffffffffff82111761085157604052565b61081b565b906100b061086360405190565b928361082f565b67ffffffffffffffff81116108515760208091020190565b9061089461088f8361086a565b610856565b918252565b369037565b906100b06108b46108ae84610882565b9361086a565b601f190160208401610899565b634e487b7160e01b5f52601260045260245ffd5b906108df565b9190565b9081156108ea570490565b6108c1565b6100fa906109006108db6100fa9490565b901b90565b6100fa732279b7a0a67db372996a5fab50d91eaa73d2ebe6610470565b905051906100b0826102d1565b6001600160601b03811661009c565b905051906100b08261092f565b9190604083820312610096576100fa9060206109678286610922565b940161093e565b6040513d5f823e3d90fd5b01918252565b6100fa90610581565b6109979060ff165b9160ff1690565b019060ff82116105af57565b67ffffffffffffffff81116108515760200290565b61088f6100fa916109a3565b818102929181159184041417156105af57565b9060045b811015610554576020020190565b906100b06109ff6109f9846109b8565b936109a3565b83610899565b6100fa60146109e9565b6104de6100fa6100fa9260ff1690565b610a329062ffffff165b9162ffffff1690565b90039062ffffff82116105af57565b90602082820312610096576100fa91610922565b6101316100fa6100fa9290565b6100fa90610a55565b9060146109db565b6100fa6100fa6100fa9260ff1690565b81156108ea570690565b610a999060ff16610990565b90039060ff82116105af57565b60016100fa910360ff1690565b6100fa60046109e9565b90610ac6825190565b811015610554576020809102010190565b919082039182116105af57565b6100fa60326109e9565b905051906100b0826100b2565b905051906100b08261034b565b90929192610b1861088f8261086a565b938185526020808601920283019281841161009657915b838310610b3c5750505050565b60208091610b4a8486610922565b815201920191610b2f565b9080601f830112156100965781516100fa92602001610b08565b9160608383031261009657610b848284610aee565b92610b928360208301610afb565b92604082015167ffffffffffffffff8111610096576100fa9201610b55565b9060326109db565b6100fa6028610514565b6100fa6080610581565b505050610420919091525061098052610bfb610be96070610581565b610bf28161089e565b6108405261089e565b610740525f6106e052610c0b5f90565b610a008190526106e08190526108e081905261044081905261094082905261090052610c43610c3a600a610581565b610420516108d5565b90610c4d5f610514565b91610c74610c5e8461098051612eea565b50610a0051906107405190846108405191612f62565b156126da5750610c91610c876001610581565b610a0051906108ef565b610a0051908117610440526001016106e0525b610cb1610c3a600a610581565b90610cbd610496610905565b6109e05260405190630ef3c01b60e21b8252604082806004810103816109e0515afa9081156111af57610f7993610d12610d9c93610d90955f916126bc575b506106e051906107405190846108405191612f62565b156126a65750610d2f610d256001610581565b6106e051906108ef565b610440511761044052610d456106e05160010190565b6106e0525b610f50610e5c610e2f610db4610d63610a005160010190565b948561090052610d9c610d7560405190565b602080820193845290928391610d90908a61013d8285610979565b9081038252038261082f565b610dae610da7825190565b9160200190565b2061097f565b938461094052610dc7610c3a6014610581565b610dfc610cfc610df3610de4610ddd6001610581565b8a16610514565b610dee6002610514565b610988565b61098051612eea565b1561268f5750610e0f610d256001610581565b610440511761044052610e256106e05160010190565b6106e05260010190565b928361090052610d9c610e4160405190565b602080820193845290928391610d90908861013d8285610979565b918261094052610e6c60046109b8565b6104c052610ea3610e9c610e8c610e836005610581565b610420516109c4565b610e966064610581565b906108d5565b6104c05152565b610ec0610eb6610e8c610e836003610581565b60206104c0510152565b610edd610ed3610e8c610e836002610581565b60406104c0510152565b610ee65f610581565b61076052610efb6107605160606104c0510152565b610a005150610f46610f36610f1d610f19610760516104c0516109d7565b5190565b61013d610f19610f2d6001610581565b6104c0516109d7565b61013d610f19610f2d6002610581565b6107a05260010190565b908161090052610f5f60405190565b93849260208401928360208161097961013d938396959052565b61094052610f85610a05565b6109c052610f91610a05565b61096052610a00516109a052610fa76001610514565b6108a0525b610fb66014610514565b6108a05160ff161161268a57610fce6108a051610a0f565b6109805162ffffff1611156111b4576110326020610fed610496610479565b611005610ffc6108a051610a0f565b61098051610a1f565b9061100f60405190565b9384928391829163414bf01f60e01b5b835262ffffff1660048301526024820190565b03915afa80156111af575f6108805261117e575b506110536101315f610a62565b610880516001600160a01b03160361107b575b6110726108a0516105b4565b6108a052610fac565b610a00516107e08190526107c0525b6109a05160ff166107c05160ff161015611179576110c66110b96110b06107c051610a73565b6109c051610a6b565b516001600160a01b031690565b6110e96110dc610880516001600160a01b031690565b916001600160a01b031690565b14611103576110fa6107c0516105b4565b6107c05261108a565b60016107e0525b6107e05161106657611136610880516111286110b06109a051610a73565b906001600160a01b03169052565b6111646111496109805161088051612fb2565b6111616111586109a051610a73565b61096051610a6b565b52565b6111706109a0516105b4565b6109a052611066565b61110a565b61119e9060203d81116111a8575b611196818361082f565b810190610a41565b610880525f611046565b503d61118c565b61096e565b6109a0516108c0525b6111c76001610514565b6108c05160ff1611156112d6576112136111e46109005160010190565b8061090052610d9c6111f560405190565b61094051602080830191825291938492610d909161013d8285610979565b6109205261092051610940526112c161123a6112316108c051610a73565b61092051610a83565b61116161125361124a6001610514565b6108c051610a8d565b916112926112666110b96110b086610a73565b6112856112796110b9856109c051610a6b565b6111286110b088610a73565b611128836109c051610a6b565b6111586112a4610f1961115886610a73565b936111616111586112bb610f198661096051610a6b565b92610a73565b6112cd6108c051610aa6565b6108c0526111bd565b6112de610ab3565b610860526112ea610ab3565b61082052610a0051610800819052610780525b6109a05160ff166107805160ff161080612672575b156113ac576113296110b96110b061078051610a73565b61133281612fec565b61134d575b50611344610780516105b4565b610780526112fd565b6113699061112861136061080051610a73565b610860516109d7565b61139661137e610f1961115861078051610a73565b61116161138d61080051610a73565b610820516109d7565b6113a2610800516105b4565b610800525f611337565b806113ba6108005160ff1690565b0361241f576113cf6107a0516108e0516105a2565b6108e0525b6113de60046109b8565b610560526113fc6113f5610e8c610e836005610581565b6105605152565b61141961140f610e8c610e836003610581565b6020610560510152565b61143661142c610e8c610e836002610581565b6040610560510152565b611447610760516060610560510152565b610a0051506114a1611491611481611468610f1961076051610560516109d7565b61013d610f196114786001610581565b610560516109d7565b61013d610f196114786002610581565b61013d610f196114786003610581565b906114b26111e46109005160010190565b610940526114d373610178da211fef7d417bc0e6fed39f05609ad788610470565b610680526114df610a05565b610700526114eb610a05565b6106a052610a00516106c0526115016001610514565b6105a0525b6115106014610514565b6105a05160ff161161241a576115286105a051610a0f565b6109805162ffffff1611156116c757611575604061154861068051610470565b611557610ffc6105a051610a0f565b9061156160405190565b93849283918291636a5c457360e11b61101f565b03915afa80156111af575f61058052611696575b506115966101315f610a62565b610580516001600160a01b0316036115be575b6115b56105a0516105b4565b6105a052611506565b610a00516104a0819052610480525b6106c05160ff166104805160ff161015611691576115fc6110b96115f361048051610a73565b61070051610a6b565b6116126110dc610580516001600160a01b031690565b1461162c57611623610480516105b4565b610480526115cd565b60016104a0525b6104a0516115a957611651610580516111286115f36106c051610a73565b61167c6116646109805161058051612fb2565b6111616116736106c051610a73565b6106a051610a6b565b6116886106c0516105b4565b6106c0526115a9565b611633565b6116b69060403d81116116c0575b6116ae818361082f565b81019061094b565b9061058052611589565b503d6116a4565b6106c0516105c0525b6116da6001610514565b6105c05160ff1611156117b4576116f76111e46109005160010190565b6105e0526105e0516109405261179f61171e6117156105c051610a73565b6105e051610a83565b61116161173761172e6001610514565b6105c051610a8d565b9161177661174a6110b96115f386610a73565b61176961175d6110b98561070051610a6b565b6111286115f388610a73565b6111288361070051610a6b565b611673611788610f1961167386610a73565b936111616116736112bb610f19866106a051610a6b565b6117ab6105c051610aa6565b6105c0526116d0565b6117bc610ab3565b610540526117c8610ab3565b61052052610a0051610500819052610460525b6106c05160ff166104605160ff161080612402575b1561188a576118076110b96115f361046051610a73565b61181081612fec565b61182b575b50611822610460516105b4565b610460526117db565b6118479061112861183e61050051610a73565b610540516109d7565b61187461185c610f1961167361046051610a73565b61116161186b61050051610a73565b610520516109d7565b611880610500516105b4565b610500525f611815565b6105005160ff160361219d576118a3906108e0516105a2565b6108e0525b61192d6119236118e56118be610c3a600a610581565b6118c860046109b8565b610340526118f66118ef6118e56118df6005610581565b846109c4565b610e96600a610581565b6103405152565b6119136119096118e56118df6003610581565b6020610340510152565b61191d6002610581565b906109c4565b6040610340510152565b61193e610760516060610340510152565b610a0051610360525b6119516004610514565b6103605160ff161015611bcd5761090051600101806109005261199861197660405190565b610d9c8160208101610d9086610940518360208161097961013d938396959052565b80610940526119aa8161098051613115565b906119b460405190565b635a557d4760e01b815262ffffff8316600482015292604084806024810103816109e0515afa9384156111af575f94611b96575b50610d90610d9c611a0e93610f50611a009460010190565b806109405261098051613115565b90611a1860405190565b635a557d4760e01b815262ffffff8316600482015291604083806024810103816109e0515afa9283156111af575f93611b75575b50610a0051611a5a5f610a62565b6001600160a01b03868116911690811415906001600160a01b0386161415908080611b6e575b15611b4457505050610a29611a979162ffffff1690565b11611b3d57505b611ab9610f19611ab061036051610a73565b610340516109d7565b90610a005161076051611ac98490565b14159182611b1d575b5015611afb5750506106e0516001016106e0525b611af2610360516105b4565b61036052611947565b611b06575b50611ae6565b611b13906108e0516105a2565b6108e0525f611b00565b611b3791506106e051906107405190856108405191612f62565b5f611ad2565b9050611a9e565b91949350915015611b5757505050611a9e565b90919250611b66575b50611a9e565b90505f611b60565b5081611a80565b611b8e91935060403d81116116c0576116ae818361082f565b929092611a4c565b611a00919450610d9c611a0e93610f50611bc0610d909460403d81116116c0576116ae818361082f565b50979450509350506119e8565b611bdd610e8c610e836014610581565b90611bee610e8c610e836019610581565b61030052611bfa610ae4565b61016052611c06610ae4565b6101c052610a00516101a08190526101e08190526106e05161022091909152915b611c316032610514565b6102205160ff161015611eb657611c4e6111e46109005160010190565b6103205261032051610940525f611c66610496610479565b6040516102e0526317a8323360e31b6102e05152611c916103205160046102e0510190815260200190565b6102e05191908290039082905afa6102c0526102c051156111af575f610280526102c051611e85575b61028051516102605261026051610240526004611cd681610581565b6102605111611e72575b50610a005161020081905261012081905260c081905260a0819052610180525b61024051610180511015611db957611d216110b96101805161028051610abd565b61010052611d356109805161010051612fb2565b60e0526101205160e0511115611d73576102005160c0526101205160a052610100516102005260e051610120525b6101805160010161018052611d00565b60a05160e0511180611d97575b15611d63576101005160c05260e05160a052611d63565b50610200516001600160a01b0316610100516001600160a01b03161415611d80565b611dc36032610581565b6101a0511080611e60575b611e39575b611ddd6032610581565b6101e0511080611e28575b611e02575b611df9610220516105b4565b61022052611c27565b611e1860c0516111286101e0516101c051610bb1565b6101e0516001016101e052611ded565b50611e3460c051612fec565b611de8565b611e50610200516111286101a05161016051610bb1565b6101a0516001016101a052611dd3565b50611e6d61020051612fec565b611dce565b611e7b90610581565b610240525f611ce0565b611eab3d805f6102e0513e611e9d816102e05161082f565b6102e051016102e051610b6f565b610280525050611cba565b610760516101a0510361210457611ed0906108e0516105a2565b6108e0525b610760516101e0510361205457611ef2610300516108e0516105a2565b6108e0525b611f04826106e051610ad7565b9161076051611f108490565b03611fa8575b509050611f256106e05161089e565b90611f326106e05161089e565b91610a00515b6106e051811015611f8c5780611f64611f5a6110b9611f879461084051610abd565b6111288386610abd565b611f81611f77610f198361074051610abd565b6111618388610abd565b60010190565b611f38565b5061098051611f9a906131c7565b919061044051906108e05190565b611fb0610bb9565b611fb981610a73565b841015612045575082915b610a00515b835b8110156120395761203281612023612002611fcb94611ffd611fed8b8a6105a2565b611ff76001610581565b90610ad7565b610ad7565b61201d61200f6001610581565b91612018610bc3565b6105a2565b906108ef565b61044051176104405260010190565b9050611fc9565b5092505050805f611f16565b61204e90610a73565b91611fc4565b6120646101e051610300516108d5565b6120896120806120776101e051846109c4565b61030051610ad7565b6108e0516105a2565b6108e05261076051810361209e575b50611ef7565b91610a00515b6101e0518110156120fb57806120d66120c66110b96120f6946101c051610bb1565b6111286106e05161084051610abd565b6120ea856111616106e05161074051610abd565b6106e051600101610e25565b6120a4565b5091505f612098565b61208061212a916121186101a051826108d5565b608052611ff76101a0516080516109c4565b6108e0526107605160805114611ed557610a0051610140525b6101a051610140511015612198576121676120c66110b96101405161016051610bb1565b61217d6080516111616106e05161074051610abd565b6106e0516001016106e0526101405160010161014052612143565b611ed5565b610a0051610400525b6105005160ff166104005160ff16101561230157610400516103e0526121d86121cf6001610514565b61040051610988565b610380525b6105005160ff166103805160ff16101561224357612203610f1961186b61038051610a73565b61221b6108db6100fa610f1961186b6103e051610a73565b11612236575b61222d610380516105b4565b610380526121dd565b610380516103e052612221565b6104005160ff166103e05160ff160361226c575b612263610400516105b4565b610400526121a6565b6122b46122816110b961183e61040051610a73565b6122a56122966110b961183e6103e051610a73565b61112861183e61040051610a73565b61112861183e6103e051610a73565b6122fc6122c9610f1961186b61040051610a73565b6122ed6122de610f1961186b6103e051610a73565b61116161186b61040051610a73565b61116161186b6103e051610a73565b612257565b610a00516103c052610500516103a05261231b6004610514565b6105005160ff16116123ef575b610a00516102a0525b6103a05160ff166102a05160ff1610156123c357612357610f196114786102a051610a73565b612364816103c0516105a2565b6103c052610760518103612389575b506123806102a0516105b4565b6102a052612331565b6123b2906123a26120c66110b961183e6102a051610a73565b6111616106e05161074051610abd565b6106e0516001016106e0525f612373565b806103c051106123d4575b506118a8565b6120806123e5916103c05190610ad7565b6108e0525f6123ce565b6123f96004610514565b6103a052612328565b5061240d6004610514565b6105005160ff16106117f0565b6116c7565b610a0051610720525b6108005160ff166107205160ff16101561258357610720516106605261245a6124516001610514565b61072051610988565b610600525b6108005160ff166106005160ff1610156124c557612485610f1961138d61060051610a73565b61249d6108db6100fa610f1961138d61066051610a73565b116124b8575b6124af610600516105b4565b6106005261245f565b61060051610660526124a3565b6107205160ff166106605160ff16036124ee575b6124e5610720516105b4565b61072052612428565b6125366125036110b961136061072051610a73565b6125276125186110b961136061066051610a73565b61112861136061072051610a73565b61112861136061066051610a73565b61257e61254b610f1961138d61072051610a73565b61256f612560610f1961138d61066051610a73565b61116161138d61072051610a73565b61116161138d61066051610a73565b6124d9565b610a005161064052610800516106205261259d6004610514565b6108005160ff161161265f575b610a00516104e0525b6106205160ff166104e05160ff161015612635576125d9610f19610f2d6104e051610a73565b6125e681610640516105a2565b6106405261076051810361260b575b506126026104e0516105b4565b6104e0526125b3565b612624906123a26120c66110b96113606104e051610a73565b6106e0516001016106e0525f6125f5565b6107a0516106405110156113d457612656612080610640516107a051610ad7565b6108e0526113d4565b6126696004610514565b610620526125aa565b5061267d6004610514565b6108005160ff1610611312565b6111b4565b61269c906108e0516105a2565b6108e05260010190565b6126b3906108e0516105a2565b6108e052610d4a565b6126d5915060403d6040116116c0576116ae818361082f565b610cfc565b6126e790610a00516105a2565b6108e052610ca4565b6108159291905f806060806107f2565b9190811015610554576020020190565b356100fa816102d1565b5f91031261009657565b506100fa9060208101906102e0565b818352602090920191905f825b82821061274e575050505090565b9091929361277d6127766001926127658886612724565b6001600160a01b0316815260200190565b9560200190565b93920190612740565b916100fa93916127a19160408501918583035f870152612733565b91602081840391015261019f565b92919080936127bd5f610581565b8514612879576127cc8561089e565b935f5b865b81101561280f5761280881611f816127fe886127f96127f46127d1978b8b612700565b612710565b613293565b611161838b610abd565b90506127cf565b509450915091612820610496610479565b803b1561009657612851935f809461283760405190565b968795869485936328477bfb60e11b855260048501612786565b03925af180156111af576128625750565b6100b0905f612871818361082f565b81019061271a565b5050509050565b61289891906128936100fa8360056104e6565b613380565b9091565b94939291906128af610131610496610905565b33036128be576100fa95612a1b565b6353d2169f60e01b5f908152600490fd5b906104f090610470565b6100fa905b6001600160c01b031690565b6100fa90546128d9565b6100fa9060c01c610504565b6100fa90546128f4565b9060ff60c01b9060c01b6105cd565b6105046100fa6100fa9260ff1690565b906129396100fa61061292612919565b825461290a565b9060ff60c81b9060c81b6105cd565b9061295f6100fa61061292612919565b8254612940565b9060ff60d01b9060d01b6105cd565b906129856100fa61061292612919565b8254612966565b6100fa9081906001600160c01b031681565b6128de6100fa6100fa9290565b906001600160c01b03906105cd565b6100fa906128de906001600160c01b031682565b906129de6100fa610612926129ba565b82546129ab565b6001600160c01b0390811691169003906001600160c01b0382116105af57565b6100fa9060c81c610504565b6100fa9054612a05565b612a905f612ac09495612ab19350612a406100fa86612a3b8a60036104e6565b6128cf565b9082820195612a57612a51886128ea565b97612900565b612a6361099086610514565b14612b0d575b50500195612a8a612a7988612900565b98612a838661298c565b9283613529565b906105a2565b6001600160c01b0381612aa56108db8361298c565b11612afd575b5061299e565b612abb81866129ce565b6129e5565b9083612acb5f61299e565b6001600160c01b03841603612ae2575b5050505090565b612aee612af494612a11565b9161362a565b5f808083612adb565b612b07915061298c565b5f612aab565b612b31612b2b612b40938b87870194612b268387612929565b613481565b8261294f565b612b3a84610514565b90612975565b5f80612a69565b6100fa94939291905f61289c565b6001600160a01b0390911681526040810192916100b09160200152565b612b7c9033613293565b612b87610496610479565b803b15610096576128515f92918392612b9f60405190565b9485938492839190631f5a6fa760e01b83523360048401612b55565b9190612bcb610131610496610479565b33036104bb576100fa92506100fa9190613293565b6100fa91905f612bbb565b9190612bfb610131610496610905565b33036128be576100b092612c3c565b905051906100b08261009a565b90602082820312610096576100fa91612c0a565b6100fa9081565b6100fa9054612c2b565b612c47610496610479565b926020612c5360405190565b636307dfe560e01b81526001600160a01b038416600482015294859060249082905afa9081156111af57612c99612cba92612ca4926100b0975f92612cd7575b506109c4565b610e96612710610581565b61013d612cb584612a3b875f6104e6565b612c32565b91612cd283612ccd84612a3b855f6104e6565b61061f565b6137a4565b612cfa91925060203d602011612d01575b612cf2818361082f565b810190612c17565b905f612c93565b503d612ce8565b906100b09291612beb565b612d1c5f610514565b60ff831614612d6c576100fa91612d61612d5b612d6793610d9c612d3f60405190565b6020810192835260ff8616604082015291829060608201610d90565b91610a73565b90610a83565b610514565b50506100fa5f610514565b610504906109006109906100fa9460ff1690565b6105ee6100fa6100fa9290565b6105ee90610900612dac6100fa9460ff1690565b9167ffffffffffffffff1690565b6105ee6100fa6100fa9260ff1690565b612dfc612dec612e3393612ddb5f90565b50612de66002610514565b90610a8d565b612df66002610514565b90612d77565b90612e2d612e0a600f612d8b565b91612e26612e188585612d98565b1967ffffffffffffffff1690565b1694612dba565b16612d98565b1790565b6100fa90610504565b6100fa9054612e37565b612e576100fa6100fa9290565b6001600160601b031690565b600461055c565b6100fa90610131565b6100fa9054612e6a565b6100fa9060a01c612e57565b6100fa9054612e7d565b6100fa6040610856565b906100b0612ed15f612ead612e93565b94612ecb612ebc838301612e73565b6001600160a01b031687840152565b01612e89565b6001600160601b03166020840152565b6100fa90612e9d565b612f00610504612efb8360026104e6565b612e40565b60ff83161015612f4d57612f2791612f1c612f219260016104e6565b612e63565b50612ee1565b906100fa6020612f3e84516001600160a01b031690565b9301516001600160601b031690565b5050612f585f610a62565b906100fa5f612e4a565b91939092612f6f5f610581565b8414612fa957612f7e83612fec565b612f8b5750505050505f90565b612f9f6111619361112884612fa498610abd565b610abd565b600190565b50505050505f90565b612cb590612a3b6100fa93612fc45f90565b505f6104e6565b90602082820312610096576100fa91610aee565b6104de6100fa6100fa9290565b612ff7610496610905565b602061300260405190565b63764c369b60e11b81526001600160a01b038416600482015291829060249082905afa9081156111af575f916130e4575b5061304a6108db69010f0cf064dd59200000610581565b106130df57602061308b91613060610496610479565b604051938492839182916323e1870760e01b8352600483016001600160a01b03909116815260200190565b03915afa9081156111af575f916130b0575b506130ab610a296003612fdf565b101590565b6130d2915060203d6020116130d8575b6130ca818361082f565b810190612fcb565b5f61309d565b503d6130c0565b505f90565b6130fd915060203d602011612d0157612cf2818361082f565b5f613033565b6100fa6100fa6100fa9262ffffff1690565b9061312f613139916131245f90565b50612d616014610581565b612a8a6001610581565b908161314482613103565b116131545750506100fa5f612fdf565b6131606100fa92612fdf565b90610a1f565b919060086105cd91029161317a60ff841b90565b921b90565b91906131906100fa61061293612919565b908354613166565b6100b0915f9161317f565b634e487b7160e01b5f525f60045260245ffd5b905f036131c2575f9055565b6131a3565b906131d6612efb8360026104e6565b906131e05f610514565b60ff83160361322c575b5f5b60ff83165b60ff821610156132265761321f8161321a6132146131f194612f1c8960016104e6565b906131b6565b6105b4565b90506131ec565b50915050565b6132405f61323b8560026104e6565b613198565b6131ea565b6100fa9060d01c610504565b6100fa9054613245565b6100fa906105ee565b6100fa905461325b565b6100fa90610643565b6100fa905461326e565b6100fa9081906001600160f81b031681565b9091906132a46100fa8460056104e6565b9060018201906132ba6132b68361050a565b1590565b61336f576100fa6132d091612a3b8760036104e6565b936132da85613251565b6132e66109905f610514565b0361335e57846133249361331f5f61331861331361330d6133088860066104e6565b613264565b97613277565b613281565b9201612c32565b613b34565b91826133326108db5f610581565b1461334d576100b0905f6133466001610514565b9101612975565b633a7bb27d60e01b5f908152600490fd5b6376075ea960e11b5f908152600490fd5b63093d0a0f60e41b5f908152600490fd5b9091600182019261339f6132b661339961331387613277565b9561050a565b8015613418575b613406576100fa6133bc91612a3b8460036104e6565b6133c581613251565b6133d16109905f610514565b03613406576133f39361331f5f6133ec6133088660066104e6565b9501612c32565b90816134016108db5f610581565b141590565b505050506134135f610581565b905f90565b506134225f610581565b84146133a6565b6100fd906001600160a01b031660601b90565b6100fd9062ffffff1660e81b90565b6100fd9060ff1660f81b90565b6001939261347960148361347160039561013d97613429565b01809261343c565b01809261344b565b909161348c5f610514565b60ff8216146134c157612d61612d5b82610d9c6100fa96612d6796610d906134b360405190565b948593602085019384613458565b5050506100fa5f610514565b6134da6100fa6100fa9290565b61ffff1690565b6100fa6127106134cd565b6100fa6100fa6100fa9261ffff1690565b6100fa683635c9adc5dea00000610581565b6100fa61351a6134fd565b61352460c8610581565b6109c4565b6135325f610581565b82146135f2576135406134e1565b9061354a826134ec565b84111580156135de575b6135d75761356490611ffd61350f565b61357a61357185856109c4565b610e96846134ec565b818111156135cf575092816135a18261359c6100fa9761191d612a8a976134ec565b6108d5565b908482116135c7575b610e966135bb83946135c1946109c4565b916134ec565b92610ad7565b8491506135aa565b935050505090565b5050905090565b506135ea6100fa61350f565b811015613554565b5050506100fa5f610581565b915f1960089290920291821b911b6105cd565b91906136226100fa61061293610581565b9083546135fe565b9192906136365f61299e565b6001600160c01b038316148015613687575b613681576100b09361073461366e9261072f61366661367b9661298c565b9660046104e6565b9190926120188385610576565b91613611565b50505050565b506136915f610514565b60ff821614613648565b906001600160a01b03199060a01b6105cd565b612e576100fa6100fa926001600160601b031690565b906136d46100fa610612926136ae565b825461369b565b906001600160a01b03906105cd565b906136fa6100fa61061292610470565b82546136db565b9080820361370d575050565b6100b0919061372d9061372861372282612e73565b846136ea565b612e89565b906136c4565b91906131c2576100b091613701565b6100b09161372d9060209061376761376182516001600160a01b031690565b856136ea565b01516001600160601b031690565b91906131c2576100b091613742565b9060ff906105cd565b9061379d6100fa61061292612919565b8254613784565b92916137af90613c2d565b6001906137bf6100fa86846104e6565b946137ce612efb8260026104e6565b6137d86004610514565b845f815b613adc575b50506137ed6004610514565b60ff8216106139d957506138016004610514565b60ff821610613911575050613825612e575f61381e600389612e63565b5001612e89565b6001600160601b038216111561287957816138406003610514565b925b613885575b50906100b09394612f1c61387f9361386f613860612e93565b6001600160a01b039097168752565b6001600160601b03166020860152565b90613775565b9161388f5f610514565b60ff821611806138e4575b156138de576138d883916138d36138c26138bc6138b686610514565b84610a8d565b8a612e63565b506138cd838b612e63565b90613733565b610aa6565b92613842565b91613847565b50613901612e575f61381e6138bc6138fb88610514565b86610a8d565b6001600160601b0383161161389a565b9391958391959685925b61395a575b93612d6761394d9461387f6100b099989561394795612f1c6139559a61386f613860612e93565b90610988565b9160026104e6565b61378d565b90916139655f610514565b60ff821611806139ac575b156139a5579061399f8593926138d361399461398e6138b688610514565b86612e63565b506138cd8387612e63565b9261391b565b9190613920565b506139c9612e575f61381e6139c36138fb8a610514565b87612e63565b6001600160601b03831611613970565b92945050506139f2612e575f61381e8489969899612e63565b6001600160601b038416111561368157613a1984935f613a128486612e63565b50016136c4565b915b613a2457505050565b613a2d5f610514565b60ff83161180613a9b575b15613a9657613a9083926138d3613a5d612f2161398e613a5788610514565b85610a8d565b613a86613a6a8487612e63565b506138cd613a80613a7a8a610514565b87610a8d565b88612e63565b61387f8386612e63565b91613a1b565b505050565b50613aaa5f61381e8484612e63565b613ad6613ac9612e575f61381e6139c3613ac38a610514565b89610a8d565b916001600160601b031690565b11613a38565b60ff841660ff82161015613b2f57613aff5f613af8838d612e63565b5001612e73565b613b116001600160a01b038a166110dc565b14613b2557613b1f906105b4565b816137dc565b915050845f6137e1565b6137e1565b9390929091613b425f610581565b8414613c0957613b5181612900565b90613b64613b5e82612a11565b916128ea565b93613b6e5f610514565b60ff8416148015613bef575b613bdf5782613b8891613cae565b90613b9560ff8316610990565b03613bd05761073461073a9261072f613baf9560046104e6565b613bbb6108db5f610581565b146135f2576100fa9261191d61359c9261298c565b5050505050506100fa5f610581565b505050505050506100fa5f610581565b50613bf95f61299e565b6001600160c01b03861614613b7a565b50505050506100fa5f610581565b6100fa6100fa6100fa926001600160601b031690565b613c4d6100fa91613c3b5f90565b50610e96670de0b6b3a7640000610581565b6001600160601b0381613c626108db83613c17565b11613c6e575b50612e4a565b613c789150613c17565b5f613c68565b6105ee90613c92612dac6100fa9460ff1690565b901c90565b6105046100fa6100fa9267ffffffffffffffff1690565b90613cb96002610514565b60ff821610612d6c576100fa91613cda612dec613ce093612de66002610514565b90613c7e565b613cea600f612d8b565b16613c9756fea26469706673582212208ee6197e28f008cbad8166bc08ab24b673606a0dd8a81d5e3b6f5d7af3d12c5d64736f6c634300081e0033","linkReferences":{}},"methodIdentifiers":{"claimDecimatorJackpot(uint24)":"c15cc2f3","claimDecimatorJackpotBatch(address[],uint24)":"6857bb3c","consumeDecClaim(address,uint24)":"cb8725db","decClaimable(address,uint24)":"7f8de5f3","recordBafFlip(address,uint24,uint256)":"f92887d4","recordDecBurn(address,uint24,uint8,uint256,uint256)":"bd225b88","runBafJackpot(uint256,uint24,uint256)":"4181af8e","runDecimatorJackpot(uint256,uint24,uint256)":"275d3a40"},"id":7}