{"abi":[{"type":"function","name":"affiliateQuestReward","inputs":[{"name":"player","type":"address","internalType":"address"},{"name":"amount","type":"uint256","internalType":"uint256"}],"outputs":[{"name":"questReward","type":"uint256","internalType":"uint256"}],"stateMutability":"nonpayable"},{"type":"function","name":"allowance","inputs":[{"name":"","type":"address","internalType":"address"},{"name":"","type":"address","internalType":"address"}],"outputs":[{"name":"","type":"uint256","internalType":"uint256"}],"stateMutability":"view"},{"type":"function","name":"approve","inputs":[{"name":"spender","type":"address","internalType":"address"},{"name":"amount","type":"uint256","internalType":"uint256"}],"outputs":[{"name":"","type":"bool","internalType":"bool"}],"stateMutability":"nonpayable"},{"type":"function","name":"balanceOf","inputs":[{"name":"","type":"address","internalType":"address"}],"outputs":[{"name":"","type":"uint256","internalType":"uint256"}],"stateMutability":"view"},{"type":"function","name":"biggestFlipEver","inputs":[],"outputs":[{"name":"","type":"uint128","internalType":"uint128"}],"stateMutability":"view"},{"type":"function","name":"burnCoin","inputs":[{"name":"target","type":"address","internalType":"address"},{"name":"amount","type":"uint256","internalType":"uint256"}],"outputs":[],"stateMutability":"nonpayable"},{"type":"function","name":"claimPresale","inputs":[],"outputs":[],"stateMutability":"nonpayable"},{"type":"function","name":"claimableCoin","inputs":[],"outputs":[{"name":"","type":"uint256","internalType":"uint256"}],"stateMutability":"view"},{"type":"function","name":"coinflipAmount","inputs":[{"name":"player","type":"address","internalType":"address"}],"outputs":[{"name":"","type":"uint256","internalType":"uint256"}],"stateMutability":"view"},{"type":"function","name":"coinflipAmountLastDay","inputs":[{"name":"player","type":"address","internalType":"address"}],"outputs":[{"name":"","type":"uint256","internalType":"uint256"}],"stateMutability":"view"},{"type":"function","name":"coinflipTop","inputs":[{"name":"lvl","type":"uint24","internalType":"uint24"}],"outputs":[{"name":"player","type":"address","internalType":"address"},{"name":"score","type":"uint96","internalType":"uint96"}],"stateMutability":"view"},{"type":"function","name":"coinflipTopLastDay","inputs":[],"outputs":[{"name":"player","type":"address","internalType":"address"},{"name":"score","type":"uint96","internalType":"uint96"}],"stateMutability":"view"},{"type":"function","name":"creditFlip","inputs":[{"name":"player","type":"address","internalType":"address"},{"name":"amount","type":"uint256","internalType":"uint256"}],"outputs":[],"stateMutability":"nonpayable"},{"type":"function","name":"creditFlipBatch","inputs":[{"name":"players","type":"address[3]","internalType":"address[3]"},{"name":"amounts","type":"uint256[3]","internalType":"uint256[3]"}],"outputs":[],"stateMutability":"nonpayable"},{"type":"function","name":"creditLinkReward","inputs":[{"name":"player","type":"address","internalType":"address"},{"name":"amount","type":"uint256","internalType":"uint256"}],"outputs":[],"stateMutability":"nonpayable"},{"type":"function","name":"currentBounty","inputs":[],"outputs":[{"name":"","type":"uint128","internalType":"uint128"}],"stateMutability":"view"},{"type":"function","name":"decimals","inputs":[],"outputs":[{"name":"","type":"uint8","internalType":"uint8"}],"stateMutability":"view"},{"type":"function","name":"decimatorBurn","inputs":[{"name":"amount","type":"uint256","internalType":"uint256"}],"outputs":[],"stateMutability":"nonpayable"},{"type":"function","name":"depositCoinflip","inputs":[{"name":"amount","type":"uint256","internalType":"uint256"}],"outputs":[],"stateMutability":"nonpayable"},{"type":"function","name":"getActiveQuests","inputs":[],"outputs":[{"name":"quests","type":"tuple[2]","internalType":"struct QuestInfo[2]","components":[{"name":"day","type":"uint48","internalType":"uint48"},{"name":"questType","type":"uint8","internalType":"uint8"},{"name":"highDifficulty","type":"bool","internalType":"bool"},{"name":"requirements","type":"tuple","internalType":"struct QuestRequirements","components":[{"name":"mints","type":"uint32","internalType":"uint32"},{"name":"tokenAmount","type":"uint256","internalType":"uint256"}]}]}],"stateMutability":"view"},{"type":"function","name":"getPlayerQuestView","inputs":[{"name":"player","type":"address","internalType":"address"}],"outputs":[{"name":"viewData","type":"tuple","internalType":"struct PlayerQuestView","components":[{"name":"quests","type":"tuple[2]","internalType":"struct QuestInfo[2]","components":[{"name":"day","type":"uint48","internalType":"uint48"},{"name":"questType","type":"uint8","internalType":"uint8"},{"name":"highDifficulty","type":"bool","internalType":"bool"},{"name":"requirements","type":"tuple","internalType":"struct QuestRequirements","components":[{"name":"mints","type":"uint32","internalType":"uint32"},{"name":"tokenAmount","type":"uint256","internalType":"uint256"}]}]},{"name":"progress","type":"uint128[2]","internalType":"uint128[2]"},{"name":"completed","type":"bool[2]","internalType":"bool[2]"},{"name":"lastCompletedDay","type":"uint32","internalType":"uint32"},{"name":"baseStreak","type":"uint32","internalType":"uint32"}]}],"stateMutability":"view"},{"type":"function","name":"name","inputs":[],"outputs":[{"name":"","type":"string","internalType":"string"}],"stateMutability":"view"},{"type":"function","name":"normalizeActiveBurnQuests","inputs":[],"outputs":[],"stateMutability":"nonpayable"},{"type":"function","name":"notifyQuestBond","inputs":[{"name":"player","type":"address","internalType":"address"},{"name":"basePerBondWei","type":"uint256","internalType":"uint256"}],"outputs":[],"stateMutability":"nonpayable"},{"type":"function","name":"notifyQuestBurn","inputs":[{"name":"player","type":"address","internalType":"address"},{"name":"quantity","type":"uint32","internalType":"uint32"}],"outputs":[],"stateMutability":"nonpayable"},{"type":"function","name":"notifyQuestMint","inputs":[{"name":"player","type":"address","internalType":"address"},{"name":"quantity","type":"uint32","internalType":"uint32"},{"name":"paidWithEth","type":"bool","internalType":"bool"}],"outputs":[],"stateMutability":"nonpayable"},{"type":"function","name":"playerQuestStates","inputs":[{"name":"player","type":"address","internalType":"address"}],"outputs":[{"name":"streak","type":"uint32","internalType":"uint32"},{"name":"lastCompletedDay","type":"uint32","internalType":"uint32"},{"name":"progress","type":"uint128[2]","internalType":"uint128[2]"},{"name":"completed","type":"bool[2]","internalType":"bool[2]"}],"stateMutability":"view"},{"type":"function","name":"processCoinflipPayouts","inputs":[{"name":"level","type":"uint24","internalType":"uint24"},{"name":"bonusFlip","type":"bool","internalType":"bool"},{"name":"rngWord","type":"uint256","internalType":"uint256"},{"name":"epoch","type":"uint48","internalType":"uint48"}],"outputs":[{"name":"finished","type":"bool","internalType":"bool"}],"stateMutability":"nonpayable"},{"type":"function","name":"rollDailyQuest","inputs":[{"name":"day","type":"uint48","internalType":"uint48"},{"name":"entropy","type":"uint256","internalType":"uint256"}],"outputs":[],"stateMutability":"nonpayable"},{"type":"function","name":"rollDailyQuestWithOverrides","inputs":[{"name":"day","type":"uint48","internalType":"uint48"},{"name":"entropy","type":"uint256","internalType":"uint256"},{"name":"forceMintEth","type":"bool","internalType":"bool"},{"name":"forceBurn","type":"bool","internalType":"bool"}],"outputs":[],"stateMutability":"nonpayable"},{"type":"function","name":"supplyIncUncirculated","inputs":[],"outputs":[{"name":"","type":"uint256","internalType":"uint256"}],"stateMutability":"view"},{"type":"function","name":"symbol","inputs":[],"outputs":[{"name":"","type":"string","internalType":"string"}],"stateMutability":"view"},{"type":"function","name":"totalSupply","inputs":[],"outputs":[{"name":"","type":"uint256","internalType":"uint256"}],"stateMutability":"view"},{"type":"function","name":"transfer","inputs":[{"name":"to","type":"address","internalType":"address"},{"name":"amount","type":"uint256","internalType":"uint256"}],"outputs":[{"name":"","type":"bool","internalType":"bool"}],"stateMutability":"nonpayable"},{"type":"function","name":"transferFrom","inputs":[{"name":"from","type":"address","internalType":"address"},{"name":"to","type":"address","internalType":"address"},{"name":"amount","type":"uint256","internalType":"uint256"}],"outputs":[{"name":"","type":"bool","internalType":"bool"}],"stateMutability":"nonpayable"},{"type":"function","name":"vaultEscrow","inputs":[{"name":"amount","type":"uint256","internalType":"uint256"}],"outputs":[],"stateMutability":"nonpayable"},{"type":"function","name":"vaultMintAllowance","inputs":[],"outputs":[{"name":"","type":"uint256","internalType":"uint256"}],"stateMutability":"view"},{"type":"function","name":"vaultMintTo","inputs":[{"name":"to","type":"address","internalType":"address"},{"name":"amount","type":"uint256","internalType":"uint256"}],"outputs":[],"stateMutability":"nonpayable"},{"type":"event","name":"Approval","inputs":[{"name":"owner","type":"address","indexed":true,"internalType":"address"},{"name":"spender","type":"address","indexed":true,"internalType":"address"},{"name":"amount","type":"uint256","indexed":false,"internalType":"uint256"}],"anonymous":false},{"type":"event","name":"BountyOwed","inputs":[{"name":"to","type":"address","indexed":true,"internalType":"address"},{"name":"bountyAmount","type":"uint256","indexed":false,"internalType":"uint256"},{"name":"newRecordFlip","type":"uint256","indexed":false,"internalType":"uint256"}],"anonymous":false},{"type":"event","name":"BountyPaid","inputs":[{"name":"to","type":"address","indexed":true,"internalType":"address"},{"name":"amount","type":"uint256","indexed":false,"internalType":"uint256"}],"anonymous":false},{"type":"event","name":"CoinflipDeposit","inputs":[{"name":"player","type":"address","indexed":true,"internalType":"address"},{"name":"creditedFlip","type":"uint256","indexed":false,"internalType":"uint256"}],"anonymous":false},{"type":"event","name":"CoinflipFinished","inputs":[{"name":"result","type":"bool","indexed":false,"internalType":"bool"}],"anonymous":false},{"type":"event","name":"DailyQuestRolled","inputs":[{"name":"day","type":"uint48","indexed":true,"internalType":"uint48"},{"name":"questType","type":"uint8","indexed":false,"internalType":"uint8"},{"name":"highDifficulty","type":"bool","indexed":false,"internalType":"bool"}],"anonymous":false},{"type":"event","name":"DecimatorBurn","inputs":[{"name":"player","type":"address","indexed":true,"internalType":"address"},{"name":"amountBurned","type":"uint256","indexed":false,"internalType":"uint256"},{"name":"bucket","type":"uint8","indexed":false,"internalType":"uint8"}],"anonymous":false},{"type":"event","name":"LinkCredit","inputs":[{"name":"player","type":"address","indexed":true,"internalType":"address"},{"name":"amount","type":"uint256","indexed":false,"internalType":"uint256"}],"anonymous":false},{"type":"event","name":"QuestCompleted","inputs":[{"name":"player","type":"address","indexed":true,"internalType":"address"},{"name":"questType","type":"uint8","indexed":false,"internalType":"uint8"},{"name":"streak","type":"uint32","indexed":false,"internalType":"uint32"},{"name":"reward","type":"uint256","indexed":false,"internalType":"uint256"},{"name":"hardMode","type":"bool","indexed":false,"internalType":"bool"},{"name":"completedBoth","type":"bool","indexed":false,"internalType":"bool"}],"anonymous":false},{"type":"event","name":"Transfer","inputs":[{"name":"from","type":"address","indexed":true,"internalType":"address"},{"name":"to","type":"address","indexed":true,"internalType":"address"},{"name":"amount","type":"uint256","indexed":false,"internalType":"uint256"}],"anonymous":false},{"type":"error","name":"AmountLTMin","inputs":[]},{"type":"error","name":"CoinflipLocked","inputs":[]},{"type":"error","name":"Insufficient","inputs":[]},{"type":"error","name":"NotDecimatorWindow","inputs":[]},{"type":"error","name":"OnlyAdmin","inputs":[]},{"type":"error","name":"OnlyAffiliate","inputs":[]},{"type":"error","name":"OnlyBonds","inputs":[]},{"type":"error","name":"OnlyGame","inputs":[]},{"type":"error","name":"OnlyNft","inputs":[]},{"type":"error","name":"OnlyVault","inputs":[]},{"type":"error","name":"ZeroAddress","inputs":[]}],"bytecode":{"object":"0x608060405234610022576100116100c9565b6040516140926100fc823961409290f35b5f80fd5b905f19905b9181191691161790565b6100426100426100429290565b90565b9061005561004261005c92610035565b8254610026565b9055565b906001600160801b039061002b565b61007c6100426100429290565b6001600160801b031690565b9061009861004261005c9261006f565b8254610060565b906001600160801b03199060801b61002b565b906100c261004261005c9261006f565b825461009f565b6100df6a01a784379d99db420000006007610045565b6100f9633b9aca006100f281600b610088565b600b6100b2565b56fe60806040526004361015610011575f80fd5b5f3560e01c80623ea7e61461026f578063029a8c581461026a578063046ef9a51461026557806306fdde0314610260578063095ea7b31461025b5780630a4255e41461025657806313165c921461025157806318160ddd1461024c57806319d7c647146102475780631f6cd6971461024257806323b872dd1461023d578063313ce567146102385780633bcf006c146102335780633e8b68b01461022e5780634edd9316146102295780635562c868146102245780635a557d471461021f5780636495a6f01461021a57806370a082311461021557806372f951421461021057806384f3bf331461020b578063878bb039146102065780638e48a2fa1461020157806395d89b41146101fc578063a391e7d7146101f7578063a5323307146101f2578063a9059cbb146101ed578063b1c775e9146101e8578063b5dce630146101e3578063befe68c7146101de578063c93c82f5146101d9578063cd24a8d0146101d4578063ce0ffd98146101cf578063dd62ed3e146101ca578063e7640d49146101c5578063ec986d36146101c0578063ef4f779a146101bb5763f7a4ba700361027457610e14565b610dfb565b610dc4565b610dac565b610d90565b610d3c565b610cf7565b610cdb565b610c86565b610c6e565b610c56565b610c3a565b610c21565b610bca565b610ba3565b610b56565b610b3b565b610b14565b6109da565b6109bf565b610956565b61093e565b61090f565b6108f6565b6108ad565b610861565b610832565b6107f1565b6107ad565b61078e565b6106de565b6106a6565b61065d565b610603565b6105a6565b610481565b61045a565b61038e565b5f80fd5b6001600160a01b031690565b90565b6001600160a01b0381165b0361027457565b905035906102a682610287565b565b906020828203126102745761028491610299565b9052565b0190565b6102d46102d060029390565b9190565b5f915b8383106102e45750505050565b61030761030060019284516001600160801b0316815260200190565b9260200190565b920191906102d7565b61031c6102d060029390565b5f915b83831061032c5750505050565b61034161030060019284511515815260200190565b9201919061031f565b6103876102a69461037d60809498979561037060c086019a5f87019063ffffffff169052565b63ffffffff166020850152565b60408301906102c4565b0190610310565b34610274576103bf6103a96103a43660046102a8565b610fd6565b906103b694929460405190565b9485948561034a565b0390f35b5f91031261027457565b805165ffffffffffff16825260208082015160ff1681840152604080830151151590840152606091820151805163ffffffff16928401929092520151608082015260a00190565b6104206102d060029390565b5f915b8383106104305750505050565b61044061030060019284516103cd565b92019190610423565b610140810192916102a69190610414565b346102745761046a3660046103c3565b6103bf61047561125d565b60405191829182610449565b34610274576104913660046103c3565b610499611308565b604051005b634e487b7160e01b5f52604160045260245ffd5b90601f01601f1916810190811067ffffffffffffffff8211176104d457604052565b61049e565b906102a66104e660405190565b92836104b2565b67ffffffffffffffff81116104d457602090601f01601f19160190565b9061051c610517836104ed565b6104d9565b918252565b61052b600761050a565b664275726e69657360c81b602082015290565b610284610521565b61028461053e565b610284610546565b90825f9392825e0152565b61058261058b6020936102c093610576815190565b80835293849260200190565b95869101610556565b601f01601f191690565b602080825261028492910190610561565b34610274576105b63660046103c3565b6103bf6105c161054e565b60405191829182610595565b80610292565b905035906102a6826105cd565b9190604083820312610274576102849060206105fc8286610299565b94016105d3565b34610274576103bf61061f6106193660046105e0565b906113be565b6040515b91829182901515815260200190565b610284916008021c5b6001600160801b031690565b906102849154610632565b6102845f600b610647565b346102745761066d3660046103c3565b6103bf610678610652565b604051918291826001600160801b03909116815260200190565b9060208282031261027457610284916105d3565b34610274576104996106b9366004610692565b611507565b610284916008021c81565b9061028491546106be565b6102845f806106c9565b34610274576106ee3660046103c3565b6103bf6106f96106d4565b6040515b9182918290815260200190565b62ffffff8116610292565b905035906102a68261070a565b801515610292565b905035906102a682610722565b65ffffffffffff8116610292565b905035906102a682610737565b608081830312610274576107668282610715565b92610284610777846020850161072a565b93606061078782604087016105d3565b9401610745565b34610274576103bf61061f6107a4366004610752565b92919091611d61565b34610274576107bd3660046103c3565b6103bf6106f9611d6e565b9091606082840312610274576102846107e18484610299565b9360406105fc8260208701610299565b34610274576103bf61061f6108073660046107c8565b91611d95565b61081a6102846102849290565b60ff1690565b610284601261080d565b610284610820565b34610274576108423660046103c3565b6103bf61084d61082a565b6040519182918260ff909116815260200190565b34610274576108713660046103c3565b610879611e4f565b906103bf61088660405190565b6001600160a01b0390921682526001600160601b0390921660208201529081906040820190565b34610274576104996108c03660046105e0565b90611f82565b9190606083011161027457565b919060c083820312610274576102849060606108ef82866108c6565b94016108c6565b34610274576104996109093660046108d3565b906120e1565b34610274576103bf6106f96109253660046102a8565b6120eb565b906020828203126102745761028491610715565b346102745761087961095136600461092a565b61210c565b34610274576104996109693660046105e0565b90612122565b61028490610278906001600160a01b031682565b6102849061096f565b61028490610983565b9061099f9061098c565b5f5260205260405f2090565b5f6109ba610284926001610995565b6106c9565b34610274576103bf6106f96109d53660046102a8565b6109ab565b34610274576109ea3660046103c3565b6103bf6106f9612238565b610a016102d060029390565b5f915b838310610a115750505050565b610a2161030060019284516103cd565b92019190610a04565b610a366102d060029390565b5f915b838310610a465750505050565b610a6261030060019284516001600160801b0316815260200190565b92019190610a39565b610a776102d060029390565b5f915b838310610a875750505050565b610a9c61030060019284511515815260200190565b92019190610a7a565b906101e060806102a693610abf5f8201515f8601906109f5565b610ad26020820151610140860190610a2a565b610ae56040820151610180860190610a6b565b606081015163ffffffff166101c0850152015163ffffffff16910152565b610200810192916102a69190610aa5565b34610274576103bf610b2f610b2a3660046102a8565b612315565b60405191829182610b03565b3461027457610b4b3660046103c3565b6103bf6106f9612385565b3461027457610499610b693660046105e0565b90612420565b610b79600661050a565b654255524e494560d01b602082015290565b610284610b6f565b610284610b8b565b610284610b93565b3461027457610bb33660046103c3565b6103bf6105c1610b9b565b6102846010600b610647565b3461027457610bda3660046103c3565b6103bf610678610bbe565b63ffffffff8116610292565b905035906102a682610be5565b919060408382031261027457610284906020610c1a8286610299565b9401610bf1565b3461027457610499610c34366004610bfe565b9061242a565b34610274576103bf61061f610c503660046105e0565b90612490565b3461027457610c663660046103c3565b610499612500565b3461027457610499610c81366004610692565b612637565b3461027457610499610c993660046105e0565b90612b09565b60808183031261027457610cb38282610745565b92610284610cc484602085016105d3565b936060610cd4826040870161072a565b940161072a565b3461027457610499610cee366004610c9f565b92919091612d3c565b34610274576103bf6106f9610d0d3660046105e0565b90612d48565b909160608284031261027457610284610d2c8484610299565b936040610cd48260208701610bf1565b3461027457610499610d4f366004610d13565b91612e63565b919060408382031261027457610284906020610d718286610299565b9401610299565b6109ba61028492610d8b5f936002610995565b610995565b34610274576103bf6106f9610da6366004610d55565b90610d78565b3461027457610499610dbf366004610692565b612ec7565b34610274576103bf6106f9610dda3660046102a8565b612f49565b9190604083820312610274576102849060206105fc8286610745565b3461027457610499610e0e366004610ddf565b90613047565b3461027457610499610e273660046105e0565b90613051565b67ffffffffffffffff81116104d45760200290565b61051761028491610e2d565b369037565b906102a6610e69610e6384610e42565b93610e2d565b83610e4e565b6102846002610e53565b61028473a51c1fc2f0d1a1b8494ed1fe312d7c3a78ed91c061098c565b61098c565b905051906102a682610be5565b6001600160801b038116610292565b905051906102a682610ea8565b90929192610ed461051782610e2d565b93602085920283019281841161027457915b838310610ef35750505050565b60208091610f018486610eb7565b815201920191610ee6565b9080601f8301121561027457600261028492610ec4565b905051906102a682610722565b90929192610f4061051782610e2d565b93602085920283019281841161027457915b838310610f5f5750505050565b60208091610f6d8486610f23565b815201920191610f52565b9080601f8301121561027457600261028492610f30565b60c08183031261027457610fa38282610e9b565b92610284610fb48460208501610e9b565b936080610fc48260408701610f0c565b9401610f78565b6040513d5f823e3d90fd5b60c061102a91610fe35f90565b50610fec610e6f565b50610ff5610e6f565b50611001610e96610e79565b60405193849283918291621f53f360e11b5b83526001600160a01b031660048301526024820190565b03915afa8015611080575f925f935f935f93611048575b5093929190565b925050925061106f915060c03d60c011611079575b61106781836104b2565b810190610f8f565b919390925f611041565b503d61105d565b610fcb565b61028460806104d9565b61028460406104d9565b6110a161108f565b905f82525f6020830152565b905250565b610284611099565b6110c2611085565b905f8252602080808085015f8152015f8152016110ad6110b2565b6102846110ba565b5f5b8281106110f357505050565b6020906110fe6110dd565b81840152016110e7565b906102a6611118610e6384610e42565b836110e5565b6102846002611108565b905051906102a682610737565b60ff8116610292565b905051906102a682611135565b905051906102a6826105cd565b91906040838203126102745761118790602061117460406104d9565b9461117f8382610e9b565b86520161114b565b6020830152565b919060a083820312610274576111e19060606111aa60806104d9565b946111b58382611128565b86526111c4836020830161113e565b60208701526111d68360408301610f23565b604087015201611158565b6060830152565b909291926111f861051782610e2d565b9360a085920283019281841161027457915b8383106112175750505050565b602060a091611226848661118e565b81520192019161120a565b9080601f83011215610274576002610284926111e8565b90610140828203126102745761028491611231565b61126561111e565b50611271610e96610e79565b61014061127d60405190565b6253518b60e31b815291829060049082905afa908115611080575f916112a1575090565b61028491506101403d81116112c3575b6112bb81836104b2565b810190611248565b503d6112b1565b61028473610178da211fef7d417bc0e6fed39f05609ad78861098c565b90602082820312610274576102849161114b565b6102846102846102849290565b611313610e966112ca565b602061131e60405190565b631751f09360e21b815233600482015291829060249082905f905af1908115611080575f91611365575b506113525f6112fb565b8114611362576102a690336130e2565b50565b611387915060203d60201161138d575b61137f81836104b2565b8101906112e7565b5f611348565b503d611375565b905f19905b9181191691161790565b906113b36102846113ba926112fb565b8254611394565b9055565b6113d6826113d183610d8b336002610995565b6113a3565b7f8c5be1e5ebec7d5bd14f71427d1e84f3dd0314c0f7b2291e5b200ac8c7c3b92561141661140c6114063361098c565b9361098c565b936106fd60405190565b0390a3600190565b6102bc906112fb565b6020810192916102a6919061141e565b61028468056bc75e2d631000006112fb565b909160c0828403126102745761145f838361114b565b9261146d8160208501610f23565b9261147b826040830161113e565b9261028461148c8460608501610e9b565b9360a061149c8260808701610f23565b9401610f23565b6001600160a01b0390911681526040810192916102a69160200152565b0152565b634e487b7160e01b5f52601160045260245ffd5b919082018092116114e557565b6114c4565b6102847359b670e9fa9d0a427751af201d676719a970857b61098c565b6115105f6112fb565b81146116a95761151e6135cd565b6116985761152d610284611437565b81106116875761153d8133613669565b611548610e96610e79565b60c061155360405190565b918290632db1d97760e11b8252815f816115718833600484016114a3565b03925af1908115611080576001806115a76115a16115ad9583955f5f5f905f925f945f9661164b575b5033613727565b866114d8565b3361322e565b6115b8610e966114ea565b803b15610274575f6115c960405190565b63f0832e5b60e01b815260048101849052918290602490829084905af180156110805761162e575b507fefdec39240aad761f3359fd47983d72568e9e25d681246cce36aaff014d1907b61162961161f3361098c565b926106fd60405190565b0390a2565b611645905f61163d81836104b2565b8101906103c3565b5f6115f1565b945050505050611673915060c03d60c011611680575b61166b81836104b2565b810190611449565b945f94919493929361159a565b503d611661565b635755f60b60e01b5f908152600490fd5b6363ab515360e01b5f908152600490fd5b506116ba60015f806115a7816112fb565b6116c33361098c565b7fefdec39240aad761f3359fd47983d72568e9e25d681246cce36aaff014d1907b6116ed60405190565b806116295f82611427565b9392919061170a610278610e966114ea565b33036117195761028494611a0d565b636200df7d60e11b5f908152600490fd5b6102bc9065ffffffffffff1660d01b90565b01809261172a565b610284906112fb565b634e487b7160e01b5f52601260045260245ffd5b905b90811561176e570690565b61174d565b6117806102846102849290565b61ffff1690565b6102846026611773565b6102846102846102849261ffff1690565b610284604e611773565b6117c16102846102849265ffffffffffff1690565b65ffffffffffff1690565b9061099f906117ac565b9061ffff90611399565b6117806102846102849261ffff1690565b906118016102846113ba926117e0565b82546117d6565b9062ff00009060101b611399565b906118266102846113ba92151590565b8254611808565b61028490610278565b610284905461182d565b6102786102846102849290565b61028490611840565b6102849061063b565b6102849054611856565b61063b6102846102849290565b61063b9061189761188a6102849460ff1690565b916001600160801b031690565b901c90565b610284610284610284926001600160801b031690565b906001600160801b0390611399565b61063b610284610284926001600160801b031690565b906118e76102846113ba926118c1565b82546118b2565b906001600160a01b0390611399565b9061190d6102846113ba9261098c565b82546118ee565b9065ffffffffffff90611399565b906119326102846113ba926117ac565b8254611914565b610284683635c9adc5dea000006112fb565b61195d6102846102849262ffffff1690565b62ffffff1690565b9061099f9061194b565b6102849061081a565b610284905461196f565b6102849060a01c5b6001600160601b031690565b6102849054611982565b906102a66119d45f6119b061108f565b946119ce6119bf838301611836565b6001600160a01b031687840152565b01611996565b6001600160601b03166020840152565b610284906119a0565b9060ff90611399565b90611a066102846113ba92151590565b82546119ed565b907f40627574920735ffc655a2458729038791bf4c3afd22d926103c8fe0a9f8416d93611afc95611ba5949350611a8a611a4660405190565b611a728160208101611a6686888360208161173c6102c093600696959052565b908103825203826104b2565b611a84611a7d825190565b9160200190565b20611744565b611a9d611a9760146112fb565b82611761565b611aa65f6112fb565b8103611d08575050611ab86032611773565b935b611ceb575b6001968792611acd846112fb565b16611ada6102d0856112fb565b148095611af75f611aef6102848760046117cc565b0191826117f1565b611816565b611b43611b09600c611836565b91611b135f61184d565b92611b2f6001600160a01b0385165b916001600160a01b031690565b141580611cce575b611c22575b6006611922565b611b4b611939565b92611b79611b72611b5b86611869565b611b65600b61185f565b016001600160801b031690565b600b6118d7565b611b93611b8f611b8a836008611965565b611978565b1590565b611bab575b5050505061062360405190565b0390a190565b5f611bbf611bba836009611965565b6119e4565b0191611be5611b22611bd885516001600160a01b031690565b926001600160a01b031690565b14611b9857611c0d5f8080611c1997611c08611c1497516001600160a01b031690565b61322e565b6008611965565b6119f6565b5f848180611b98565b611c2c600c611836565b611c50611c4b611c3c600b61185f565b611c458861080d565b90611876565b61189c565b9087611c78611b72611c6185611869565b611c6b600b61185f565b036001600160801b031690565b611c8f575b5050611c8a83600c6118fd565b611b3c565b611cc461161f82610e965f8080887f31dd4c1bc893bd53887b59c36c1a1b9f60960fa64c231ad0cd3603a1914bda359861322e565b0390a25f80611c7d565b50611cd9600b61185f565b611ce561188a5f611869565b11611b37565b92611d0290611cfa6006611773565b0161ffff1690565b92611abf565b611d156102d060016112fb565b03611d2b5750611d256096611773565b93611aba565b611d5c611d4b611d2592611d45611d40611787565b611791565b90611761565b611d56611d406117a2565b906114d8565b611773565b610284939291905f6116f8565b61028433613855565b6102849081565b6102849054611d77565b919082039182116114e557565b611db4929190611da9610278610e966114ea565b3303611db957613a65565b600190565b611dd6611dd1611dca836002610995565b3390610995565b611d7e565b835f198203611de7575b5050613a65565b611df091611d88565b611e02816113d1611dca856002610995565b611e0b8261098c565b7f8c5be1e5ebec7d5bd14f71427d1e84f3dd0314c0f7b2291e5b200ac8c7c3b925611e3861140c3361098c565b0390a35f83611de0565b6117c16102846102849290565b611e7e611bba611e77611e60613b06565b611e6a6001611e42565b900365ffffffffffff1690565b600a6117cc565b906102846020611e9584516001600160a01b031690565b9301516001600160601b031690565b61028473c6e7df5e7b4f2a278906862b61205850344d4e7d61098c565b90611ed0610278610e966114ea565b33141580611f27575b80611f10575b80611ef2575b611719576102a691611f3e565b5073a513e6e4b8f2a923d98304ec87f64353c4d5c853331415611ee5565b50611f1f610278610e966112ca565b331415611edf565b50611f36610278610e96611ea4565b331415611ed9565b611f4a6102785f61184d565b6001600160a01b038216148015611f71575b611f6d575f806102a693819361322e565b5050565b50611f7b5f6112fb565b8214611f5c565b906102a691611ec1565b90611f9b610278610e966114ea565b33141580611ff2575b80611fdb575b80611fbd575b611719576102a691612047565b5073a513e6e4b8f2a923d98304ec87f64353c4d5c853331415611fb0565b50611fea610278610e966112ca565b331415611faa565b50612001610278610e96611ea4565b331415611fa4565b634e487b7160e01b5f52603260045260245ffd5b90600381101561202e576020020190565b612009565b3561028481610287565b35610284816105cd565b91905f5b61205560036112fb565b8110156120db578061207261206d6120b0938761201d565b612033565b61208461207f838661201d565b61203d565b906120916102785f61184d565b6001600160a01b0382161415806120c9575b6120b5575b505060010190565b61204b565b5f806120c293819361322e565b5f806120a8565b506120d35f6112fb565b8214156120a3565b50509050565b906102a691611f8c565b611dd1610284916120f95f90565b50610d8b612105613b06565b60036117cc565b611bba611e7e9161211a5f90565b506009611965565b9073a513e6e4b8f2a923d98304ec87f64353c4d5c853330361222757612146610e79565b906121536102785f61184d565b6001600160a01b038416148015612216575b612211576121a060c0916121795f9461098c565b9061218360405190565b94859384928391906339a6d60d60e21b5b835289600484016114a3565b03925af18015611080576121c4915f5f5f905f925f945f966121e5575b5087613727565b906121ce5f6112fb565b82036121d8575050565b5f806102a693819361322e565b945050505050612204915060c03d60c0116116805761166b81836104b2565b945f9491949392936121bd565b505050565b506122205f6112fb565b8114612165565b63333dbc9760e21b5f908152600490fd5b6102846007611d7e565b61028460a06104d9565b612254612242565b9061225d61111e565b8252602080808080860161226f610e6f565b81520161227a610e6f565b8152015f8152015f905250565b61028461224c565b919061020083820312610274576122f9906101e06122ad60a06104d9565b946122b88382611231565b86526122c8836101408301610f0c565b60208701526122db836101808301610f78565b60408701526122ee836101c08301610e9b565b606087015201610e9b565b6080830152565b9061020082820312610274576102849161228f565b61020061234791612324612287565b50612330610e96610e79565b604051938492839182916384f3bf3360e01b611013565b03915afa908115611080575f9161235c575090565b61028491506102003d811161237e575b61237681836104b2565b810190612300565b503d61236c565b6102846123915f611d7e565b611d566007611d7e565b90738a791620dd6260079bf849dc5567adc3f2fdc31833036123c0576102a6916123d1565b638d1af8bd60e01b5f908152600490fd5b906123db5f6112fb565b8114611f6d576123eb6007611d7e565b9182821161240f5761240a612403836102a695611d88565b60076113a3565b6130e2565b631dc930eb60e01b5f908152600490fd5b906102a69161239b565b90612439610278610e966114ea565b33036117195760c06121a05f92612451610e96610e79565b9061245b60405190565b63482ffe1360e11b81526001600160a01b038716600482015263ffffffff909116602482015293849283919082906044820190565b611db4919033613a65565b6124a9610278610e966114ea565b3303611719576102a66124bd610e96610e79565b803b15610274575f6124ce60405190565b63b1c775e960e01b8152918290600490829084905af18015611080576124f15750565b6102a6905f61163d81836104b2565b6102a661249b565b905051906102a68261070a565b9190604083820312610274576102849060206125318286610f23565b9401612508565b610284600a61080d565b61195d6102846102849290565b6117639062ffffff165b9162ffffff1690565b906020828203126102745761028491612508565b6125849062ffffff16612559565b90811561176e570490565b6102846102846102849262ffffff1690565b6102846102846102849260ff1690565b61081a6102846102849262ffffff1690565b6125d29060ff165b9160ff1690565b90039060ff82116114e557565b90602082820312610274576102849161113e565b909594926102a6946111e16114c09261262d60809661262160a088019c5f8901906001600160a01b03169052565b62ffffff166020870152565b60ff166040850152565b612642610e966114ea565b6040805163ccd5ddc760e01b8152919082600481845afa918215611080575f905f93612a4e575b50155b612a3d5761267b610284611437565b83106116875773b7f8bc63bbcad18155201308c8f3540b07f84f5e6126a08433613669565b6126ab610e96610e79565b60c06126b660405190565b9182906337f48e5f60e21b8252815f816126d48b33600484016114a3565b03925af18015611080576126f7915f5f5f905f925f945f9661164b575033613727565b9261270160405190565b636307dfe560e01b815233600482015293602085602481875afa948515611080575f95612a18575b5061273490866114d8565b9161273d612538565b61275061274a6064612542565b8461254f565b61275c6125595f612542565b146128d857602061276c60405190565b6323e1870760e01b815233600482015295869060249082905afa948515611080576020956127ac915f916128ab575b506127a6600a612542565b90612576565b6127b66005612542565b62ffffff82161061288c5750505f6127d4610e96611406600561080d565b926127fc6127e160405190565b978896879586946317a44b7160e31b865233600487016125f3565b03925af18015611080577f63481097930b63cfbfbc7cf3347227bf9937242b438b2c8c65e55c127813f5ca915f9161285d575b506128393361098c565b9261162961284660405190565b9283928390815260ff909116602082015260400190565b61287f915060203d602011612885575b61287781836104b2565b8101906125df565b5f61282f565b503d61286d565b610e966128a65f936128a06127d4946125b1565b906125c3565b611406565b6128cb9150873d89116128d1575b6128c381836104b2565b810190612562565b5f61279b565b503d6128b9565b6040516323e1870760e01b815233600482015294602086602481845afa958615611080575f966129f7575b50602061290f60405190565b631ec9846960e21b815233600482015291829060249082905afa801561108057602096612965925f926129c8575b5061295561295a612955611d56936127a66014612542565b61258f565b926127a66019612542565b61296e826125a1565b81106129b257505061297f5f6112fb565b61298960026112fb565b8110156129a257505f6127d4610e96611406600261080d565b6127d4610e966128a65f9361080d565b6129be6129c3926125a1565b611d88565b61297f565b611d5691925061295a6129556129ed612955938c3d8e116128d1576128c381836104b2565b949350505061293d565b612a1191965060203d6020116128d1576128c381836104b2565b945f612903565b612734919550612a369060203d60201161138d5761137f81836104b2565b9490612729565b6317fb895560e21b5f908152600490fd5b61266c9350612a75915060403d604011612a7b575b612a6d81836104b2565b810190612515565b92612669565b503d612a63565b90612a91610278610e966114ea565b33141580612ae8575b80612ad1575b80612ab3575b611719576102a691612aff565b50730dcd1bf9a1b36ce34237eeafef220932846bcd82331415612aa6565b50612ae0610278610e966112ca565b331415612aa0565b50612af7610278610e96611ea4565b331415612a9a565b906102a691613669565b906102a691612a82565b929190612b24610278610e966114ea565b3303611719576102a693612c25565b90929192612b4361051782610e2d565b93602085920283019281841161027457915b838310612b625750505050565b60208091612b70848661113e565b815201920191612b55565b9080601f8301121561027457600261028492612b33565b909160808284031261027457610284612bab8484610f23565b93606061149c8260208701612b7b565b612bf36102a694612bea606094989795612be3608086019a5f87019065ffffffffffff169052565b6020850152565b15156040830152565b019015159052565b90600281101561202e576020020190565b60ff90911681526040810192916102a691602090612bf3565b9192608091612c6095945f612c3b610e96610e79565b92612c4560405190565b9889958694859363c93c82f560e01b85528a60048601612bbb565b03925af1928315611080575f5f915f95612d07575b50612c805750509050565b5f5b612c8c60026112fb565b811015612cfa5780612cab612ca4612cf59385612bfb565b5160ff1690565b7f7198572e8117f0e0575103916e7607964499e69473de59738cacd8a65a88154287612cd6876117ac565b92612cec612ce360405190565b92839283612c0c565b0390a260010190565b612c82565b5050509050805f806120db565b915050612d2d91935060803d608011612d35575b612d2581836104b2565b810190612b92565b93915f612c75565b503d612d1b565b906102a6939291612b13565b90612d57610278610e966112ca565b3303612e2557612d65610e79565b90612d726102785f61184d565b6001600160a01b038416148015612e14575b612e0857612db760c091612d985f9461098c565b90612da260405190565b948593849283919063a266264560e01b612194565b03925af190811561108057610284925f5f5f915f935f955f97612ddb575b50613727565b94509550505050612dfb915060c03d60c0116116805761166b81836104b2565b955f959195949294612dd5565b5050506102845f6112fb565b50612e1e5f6112fb565b8114612d84565b63ad0d743360e01b5f908152600490fd5b6001600160a01b0390911681526060810193926102a6929091604091612bf39063ffffffff166020830152565b9190612e73610278610e96611ea4565b3303612eb6576121a09160c091612e8b610e96610e79565b905f612e9660405190565b809681958294612eaa63c9d2cbbf60e01b90565b84528a60048501612e36565b631b63b21160e21b5f908152600490fd5b612ed05f6112fb565b811461136257738a791620dd6260079bf849dc5567adc3f2fdc31833141580612f2b575b80612f14575b6123c0576124036102a691612f0f6007611d7e565b6114d8565b50612f23610278610e966114ea565b331415612efa565b5073a513e6e4b8f2a923d98304ec87f64353c4d5c853331415612ef4565b611dd161028491612f575f90565b50610d8b612105611e60613b06565b90612f75610278610e966114ea565b3303611719576102a691612fa0565b65ffffffffffff90911681526040810192916102a69160200152565b6080612fd95f9493612fb3610e96610e79565b90612fbd60405190565b96879384928391906377a7bbcd60e11b83528860048401612f84565b03925af1928315611080575f5f915f95613022575b50612ff95750509050565b5f5b61300560026112fb565b811015612cfa5780612cab612ca461301d9385612bfb565b612ffb565b91505061303f91935060803d608011612d3557612d2581836104b2565b93915f612fee565b906102a691612f66565b734ed7c70f96b99c776995fb64377f0d4ab3b0e1c133036130d1576130786102785f61184d565b6001600160a01b0382161480156130c0575b611f6d5761162961161f82610e96857f3e5f2e2665a17cb26e66d16b50215497e933b6213591133f3a90d5755c78bdba956130e2565b506130ca5f6112fb565b821461308a565b634755657960e01b5f908152600490fd5b6130eb5f61184d565b6001600160a01b0381166001600160a01b0383161461316b5761316661140c6114067fddf252ad1be2c89b69c2b068fc378daa952ba7f163c4a11628f55a4df523b3ef9361314561313f88612f0f5f611d7e565b5f6113a3565b610e96613153876001610995565b61316089612f0f83611d7e565b906113a3565b0390a3565b63d92e233d60e01b5f908152600490fd5b90612584565b906020828203126102745761028491610f23565b6001600160a01b0390911681526060810193926102a69290916040916114c09062ffffff166020830152565b6102849060801c61063b565b61028490546131c2565b906fffffffffffffffffffffffffffffffff199060801b611399565b906132046102846113ba926118c1565b82546131d8565b6102bc9061189c565b9160206102a69294936114c060408201965f83019061320b565b93929190926134d0575b613243610e966114ea565b9261324d60405190565b630f3b90b560e01b8152602081600481885afa908115611080575f916134a1575b50613277613b06565b94602061328360405190565b636fd5ae1560e01b815291829060049082905afa908115611080575f91613482575b506132da6132bf84612f0f611dd18b610d8b8c60036117cc565b966132d3886113d18b610d8b8560036117cc565b8789613e11565b73b7f8bc63bbcad18155201308c8f3540b07f84f5e6132f85f6112fb565b8403613406575b506133109250611b8f908688613f5d565b61331b575b50505050565b613328611c4b600b6131ce565b91828411613337575b50613315565b61334a61334385611869565b600b6131f4565b816133fe575b5061335d575b8080613331565b6133969061336b600c611836565b61337a611b226102785f61184d565b146102845761028490611d5661339060646112fb565b8261317c565b8110156133a4575b80613356565b7f27e3b5fdd1c47ccf672d7c48a0acf38b728a014b48ac8ad178aa9c559e0b1d1f906133d183600c6118fd565b6133de611406600b61185f565b926133f46133eb60405190565b92839283613214565b0390a25f8061339e565b90505f613350565b61341b610e9661341584613f01565b9261098c565b93843b156102745761344e945f92838b61343460405190565b98899586948593633e4a21f560e21b855260048501613196565b03925af19081156110805761331093611b8f9261346d575b50906132ff565b61347c905f61163d81836104b2565b5f613466565b61349b915060203d6020116128d1576128c381836104b2565b5f6132a5565b6134c3915060203d6020116134c9575b6134bb81836104b2565b810190613182565b5f61326e565b503d6134b1565b6134d984613b43565b925f938082111561355757906135056134f56135279383611d88565b6134ff60646112fb565b9061317c565b9081613519681b1ae4d6e2ef5000006112fb565b90811061354f575b506114d8565b925b6135325f6112fb565b810361353f575b50613238565b61354990856130e2565b5f613539565b91505f613521565b908094916135628290565b8111613570575b5050613529565b61357a9250611d88565b835f613569565b919060a083820312610274576135978184612508565b926135a5826020830161113e565b926102846135b68460408501610f23565b9360806135c68260608701610f23565b940161114b565b6135d8610e966114ea565b60a06135e360405190565b637f84d03d60e01b815291829060049082905afa8015611080575f5f925f92613634575b506136156125cb600261080d565b14918261362c575b5081613627575090565b905090565b91505f61361d565b915050613659915060a03d60a011613662575b61365181836104b2565b810190613581565b50919092613607565b503d613647565b6136725f61184d565b906001600160a01b0382166001600160a01b0382161461316b5761316661140c611406836136d26136c57fddf252ad1be2c89b69c2b068fc378daa952ba7f163c4a11628f55a4df523b3ef966001610995565b613160896129be83611d7e565b610e9661313f886129be5f611d7e565b909594926102a69461371e612bf39261371760809661370a60a088019c5f89019060ff169052565b63ffffffff166020870152565b6040850152565b15156060830152565b90959392919461373d906137385f90565b501590565b613789577fa9a2af6c040422c9a3b0c0fcf24a9f7d64e29fe586b7ea5a91302326aaae77c59361376f6137839261098c565b958761377a60405190565b958695866136e2565b0390a290565b5050505050506102845f6112fb565b610284906117c1565b6102849054613798565b610284601e61080d565b6117c16102846102849260ff1690565b6137de9065ffffffffffff165b9165ffffffffffff1690565b019065ffffffffffff82116114e557565b61028490611780565b61028490546137ef565b6102849060101c61081a565b6102849054613802565b818102929181159184041417156114e557565b610284612710611773565b6001610284910165ffffffffffff1690565b6001610284910360ff1690565b905f918261386360066137a1565b91613877613872826005610995565b6137a1565b80926138888565ffffffffffff1690565b65ffffffffffff83161015613a5557506138a06137ab565b906138aa826137b5565b65ffffffffffff86161115613a46576138d26138c5836137b5565b860365ffffffffffff1690565b905b6138e565ffffffffffff83166137d2565b10613a3e575b5092613907939260019485916139016001611e42565b906137c5565b905b613915575b5050505050565b61391e5f61080d565b60ff8516141580613a24575b15613a1f575f61393e6102848360046117cc565b01613948816137f8565b61395c6139545f611773565b9161ffff1690565b1480613a0d575b613a0757613979611dd185610d8b8560036117cc565b906139835f6112fb565b821415806139f8575b6139ac575b505061399f6139a591613836565b93613848565b9284613909565b6139a59298611d5661399f93611d566139e66139d66139d0611d406139f1986137f8565b84613818565b6139e060646112fb565b90613818565b6134ff611d4061382b565b9791613991565b50613a028161380e565b61398c565b5061390e565b50613a1a611b8f8261380e565b613963565b61390e565b5065ffffffffffff821665ffffffffffff8216111561392a565b92505f6138eb565b613a4f5f611e42565b906138d4565b505050505090506102845f6112fb565b613a6e5f61184d565b6001600160a01b0381166001600160a01b03831614908115613ac9575b5061316b5761316661140c611406836131456136c57fddf252ad1be2c89b69c2b068fc378daa952ba7f163c4a11628f55a4df523b3ef966001610995565b6001600160a01b031690506001600160a01b038316145f613a8b565b610284620142bc611e42565b6102846102846102849265ffffffffffff1690565b610284613b39613b34613b28613b22613b1d613ae5565b613af1565b42611d88565b6134ff620151806112fb565b611e42565b6139016001611e42565b905f9182613b5160066137a1565b90613b60613872846005610995565b91829165ffffffffffff821665ffffffffffff85161015613a5557613b836137ab565b93613b8d856137b5565b65ffffffffffff84161115613d7f57613bb5613ba8866137b5565b840365ffffffffffff1690565b905b613bc865ffffffffffff83166137d2565b10613d77575b509060018091613bee613be16001611e42565b860165ffffffffffff1690565b9395915b613c4d575b50505050613c045f611e42565b65ffffffffffff831614159081613c32575b50613c1f575050565b613c2d6102a6926005610995565b611922565b65ffffffffffff16905065ffffffffffff821614155f613c16565b90919294613c5a5f61080d565b60ff8416141580613d5d575b15613d57575f613c7a6102848860046117cc565b0190613c85826137f8565b613c916139545f611773565b1480613d45575b613d3e5750600390613cb1611dd189610d8b8a866117cc565b90613cbb5f6112fb565b8203613ce1575b505050613cd7613cd186613836565b92613848565b9291929082613bf2565b613cea8161380e565b613d14575b5050613d0c906113d188610d8b89613d065f6112fb565b946117cc565b5f8080613cc2565b99611d56613d3692611d566139e66139d6613d0c979f611d406139d0916137f8565b98905f613cef565b9550613bf7565b50613d52611b8f8361380e565b613c98565b94613bf7565b5065ffffffffffff821665ffffffffffff87161115613c66565b92505f613bce565b613d885f611e42565b90613bb7565b906001600160a01b03199060a01b611399565b61198a610284610284926001600160601b031690565b90613dc76102846113ba92613da1565b8254613d8e565b6102a691613e0190602090613df3613ded82516001600160a01b031690565b856118fd565b01516001600160601b031690565b90613db7565b906102a691613dce565b90613e1b9061400b565b613e29611bba84600a6117cc565b613e4061198a60208301516001600160601b031690565b6001600160601b03831611908115613e97575b50613e5d57505050565b6102a692611e77613e9292613e82613e7361108f565b6001600160a01b039096168652565b6001600160601b03166020850152565b613e07565b516001600160a01b03169050613eb2611b226102785f61184d565b145f613e53565b613ec79062ffffff16612559565b029062ffffff82169182036114e557565b610284613ef1613ee8600a612542565b62ffffff612576565b613efb600a612542565b90613eb9565b613f2f613f25613f1b613f3993613f155f90565b5061258f565b611d5660096112fb565b6134ff600a6112fb565b6139e0600a6112fb565b613f4562ffffff61258f565b8111613f545761028490612542565b50610284613ed8565b90613f679061400b565b613f75611bba846009611965565b613f8c61198a60208301516001600160601b031690565b6001600160601b03831611908115613fc6575b50613fa957505050565b6102a692613fbf613e9292613e82613e7361108f565b6009611965565b516001600160a01b03169050613fe1611b226102785f61184d565b145f613f9f565b610284610284610284926001600160601b031690565b61198a6102846102849290565b61402b610284916140195f90565b506134ff670de0b6b3a76400006112fb565b6001600160601b03816140406102d083613fe8565b1161404c575b50613ffe565b6140569150613fe8565b5f61404656fea264697066735822122088361853880763cfea77c3721a7a3a0fb9fe04cf1fed5782df5eb58aac5844af64736f6c634300081e0033","linkReferences":{}},"methodIdentifiers":{"affiliateQuestReward(address,uint256)":"cd24a8d0","allowance(address,address)":"dd62ed3e","approve(address,uint256)":"095ea7b3","balanceOf(address)":"70a08231","biggestFlipEver()":"a391e7d7","burnCoin(address,uint256)":"befe68c7","claimPresale()":"046ef9a5","claimableCoin()":"1f6cd697","coinflipAmount(address)":"5562c868","coinflipAmountLastDay(address)":"ec986d36","coinflipTop(uint24)":"5a557d47","coinflipTopLastDay()":"3bcf006c","creditFlip(address,uint256)":"3e8b68b0","creditFlipBatch(address[3],uint256[3])":"4edd9316","creditLinkReward(address,uint256)":"f7a4ba70","currentBounty()":"0a4255e4","decimals()":"313ce567","decimatorBurn(uint256)":"b5dce630","depositCoinflip(uint256)":"13165c92","getActiveQuests()":"029a8c58","getPlayerQuestView(address)":"84f3bf33","name()":"06fdde03","normalizeActiveBurnQuests()":"b1c775e9","notifyQuestBond(address,uint256)":"6495a6f0","notifyQuestBurn(address,uint32)":"a5323307","notifyQuestMint(address,uint32,bool)":"ce0ffd98","playerQuestStates(address)":"003ea7e6","processCoinflipPayouts(uint24,bool,uint256,uint48)":"19d7c647","rollDailyQuest(uint48,uint256)":"ef4f779a","rollDailyQuestWithOverrides(uint48,uint256,bool,bool)":"c93c82f5","supplyIncUncirculated()":"878bb039","symbol()":"95d89b41","totalSupply()":"18160ddd","transfer(address,uint256)":"a9059cbb","transferFrom(address,address,uint256)":"23b872dd","vaultEscrow(uint256)":"e7640d49","vaultMintAllowance()":"72f95142","vaultMintTo(address,uint256)":"8e48a2fa"},"id":4}