{"abi":[{"type":"constructor","inputs":[{"name":"startRemaining_","type":"uint32","internalType":"uint32"}],"stateMutability":"nonpayable"},{"type":"function","name":"startTraitRemaining","inputs":[{"name":"","type":"uint8","internalType":"uint8"}],"outputs":[{"name":"","type":"uint32","internalType":"uint32"}],"stateMutability":"view"}],"bytecode":{"object":"0x60a060405234602c576015601060a7565b608052565b60405160d56100c28239608051816062015260d590f35b5f80fd5b634e487b7160e01b5f52604160045260245ffd5b90601f01601f191681019081106001600160401b03821117606457604052565b6030565b906079607360405190565b92836044565b565b63ffffffff811603602c57565b90505190607982607b565b90602082820312602c5760a4916088565b90565b60a46101978038038060b7816068565b928339810190609356fe608060405260043610156010575f80fd5b5f3560e01c63aeea8aa414604e575b5f80fd5b60ff811603601f57565b905035906038826023565b565b90602082820312601f57604b91602d565b90565b34601f57609b6084605f366004603a565b507f000000000000000000000000000000000000000000000000000000000000000090565b6040519182918263ffffffff909116815260200190565b0390f3fea26469706673582212200ca32733a9b5423e31be8d53bdc6e56c7adee9b522cd8c0c6aad0b2d0bced78564736f6c634300081e0033","linkReferences":{}},"methodIdentifiers":{"startTraitRemaining(uint8)":"aeea8aa4"},"id":42}