{"abi":[{"type":"constructor","inputs":[{"name":"owner_","type":"address","internalType":"address"}],"stateMutability":"nonpayable"},{"type":"function","name":"ownerOf","inputs":[{"name":"","type":"uint256","internalType":"uint256"}],"outputs":[{"name":"","type":"address","internalType":"address"}],"stateMutability":"view"}],"bytecode":{"object":"0x60a060405234602c576015601060aa565b608052565b60405160bc6100c58239608051816046015260bc90f35b5f80fd5b634e487b7160e01b5f52604160045260245ffd5b90601f01601f191681019081106001600160401b03821117606457604052565b6030565b906079607360405190565b92836044565b565b90565b6001600160a01b03811603602c57565b90505190607982607e565b90602082820312602c57607b91608e565b607b6101818038038060ba816068565b928339810190609956fe608060405260043610156010575f80fd5b5f3560e01c636352211e146032575b5f80fd5b90602082820312601f57503590565b34601f576082606860433660046023565b507f000000000000000000000000000000000000000000000000000000000000000090565b604051918291826001600160a01b03909116815260200190565b0390f3fea264697066735822122060f86ccac0c14c88b272b76785b9792e9cc6c7618c9252cccb463285bfd8522c64736f6c634300081e0033","linkReferences":{}},"methodIdentifiers":{"ownerOf(uint256)":"6352211e"},"id":44}