{"abi":[{"type":"function","name":"setCustomColorsForMany","inputs":[{"name":"tokenIds","type":"uint256[]","internalType":"uint256[]"},{"name":"outlineHex","type":"string","internalType":"string"},{"name":"flameHex","type":"string","internalType":"string"},{"name":"diamondHex","type":"string","internalType":"string"},{"name":"squareHex","type":"string","internalType":"string"},{"name":"trophyOuterPct1e6","type":"uint32","internalType":"uint32"}],"outputs":[{"name":"","type":"bool","internalType":"bool"}],"stateMutability":"nonpayable"},{"type":"function","name":"setMyColors","inputs":[{"name":"outlineHex","type":"string","internalType":"string"},{"name":"flameHex","type":"string","internalType":"string"},{"name":"diamondHex","type":"string","internalType":"string"},{"name":"squareHex","type":"string","internalType":"string"}],"outputs":[{"name":"","type":"bool","internalType":"bool"}],"stateMutability":"nonpayable"},{"type":"function","name":"setTopAffiliateColor","inputs":[{"name":"tokenId","type":"uint256","internalType":"uint256"},{"name":"trophyHex","type":"string","internalType":"string"}],"outputs":[{"name":"","type":"bool","internalType":"bool"}],"stateMutability":"nonpayable"},{"type":"function","name":"tokenURI","inputs":[{"name":"tokenId","type":"uint256","internalType":"uint256"},{"name":"data","type":"uint256","internalType":"uint256"},{"name":"extras","type":"uint32[4]","internalType":"uint32[4]"}],"outputs":[{"name":"","type":"string","internalType":"string"}],"stateMutability":"view"},{"type":"error","name":"E","inputs":[]}],"bytecode":{"object":"0x60806040523460195760405161241761001e823961241790f35b5f80fdfe6101a06040526004361015610012575f80fd5b5f3560e01c80631af98746146100515780631f2397921461004c578063260d7b3c1461004757635e8ab1f50361005657610386565b6102d2565b61019e565b610106565b5f80fd5b805b0361005657565b905035906100708261005a565b565b9190608083011161005657565b909160c082840312610056576100af6100988484610063565b9360406100a88260208701610063565b9401610072565b90565b90825f9392825e0152565b6100de6100e76020936100f1936100d2815190565b80835293849260200190565b958691016100b2565b601f01601f191690565b0190565b60208082526100af929101906100bd565b346100565761012e61012261011c36600461007f565b91610467565b604051918291826100f5565b0390f35b909182601f83011215610056578135916001600160401b03831161005657602001926001830284011161005657565b919091604081840312610056576101788382610063565b9260208201356001600160401b038111610056576101969201610132565b9091565b9052565b346100565761012e6101ba6101b4366004610161565b91610598565b60405191829182901515815260200190565b909182601f83011215610056578135916001600160401b03831161005657602001926020830284011161005657565b63ffffffff811661005c565b90503590610070826101fb565b9160c0838303126100565782356001600160401b038111610056578261023b9185016101cc565b92909360208101356001600160401b038111610056578261025d918301610132565b92909360408301356001600160401b038111610056578261027f918501610132565b92909360608101356001600160401b03811161005657826102a1918301610132565b92909360808301356001600160401b03811161005657826102c960a0946100af938701610132565b94909501610207565b346100565761012e6101ba6102e8366004610214565b999890989791979692969593956106e2565b90916080828403126100565781356001600160401b0381116100565783610322918401610132565b92909360208201356001600160401b0381116100565781610344918401610132565b92909360408201356001600160401b0381116100565783610366918401610132565b92909360608201356001600160401b038111610056576101969201610132565b346100565761012e6101ba61039c3660046102fa565b9695909594919493929361079c565b634e487b7160e01b5f52604160045260245ffd5b90601f01601f191681019081106001600160401b038211176103e057604052565b6103ab565b906100706103f260405190565b92836103bf565b6001600160401b0381116103e05760200290565b9092919261042261041d826103f9565b6103e5565b93602085920283019281841161005657915b8383106104415750505050565b6020809161044f8486610207565b815201920191610434565b6100af906004369161040d565b9061047d6100af93610477606090565b5061045a565b91610b1e565b6100af90610497906001600160a01b031682565b6001600160a01b031690565b6100af90610483565b6100af906104a3565b6100af730dcd1bf9a1b36ce34237eeafef220932846bcd826104ac565b6104ac565b6100af733aa5ebb10dc797cac828524e59a333d0a371443c6104ac565b80151561005c565b90505190610070826104f4565b90602082820312610056576100af916104fc565b61019a90610497565b90825f939282370152565b91906100e781610548816100f19560209181520190565b8095610526565b9093916100af95936105796105809261056f60808601985f87019061051d565b602085019061051d565b6040830152565b6060818503910152610531565b6040513d5f823e3d90fd5b602091906105a76104d26104b5565b905f6105b46104d26104d7565b6105db6105c060405190565b97889687958694630546547560e11b8652336004870161054f565b03925af1908115610619575f916105f0575090565b6100af915060203d602011610612575b61060a81836103bf565b810190610509565b503d610600565b61058d565b9037565b8183529091602001916001600160fb1b03811161005657829160206100f1920293849161061e565b9d9c9a9790966106ab8f93966106c7986100709f9a8660e09f996106d59f9b996106906106b99b61068661069d965f610100880197019061051d565b60208c019061051d565b89830360408b0152610622565b918683036060880152610531565b926080818503910152610531565b918b830360a08d0152610531565b9188830360c08a0152610531565b94019063ffffffff169052565b9691999498939897929590976106f55f90565b506106fe6104b5565b610707906104ac565b996107106104d7565b610719906104ac565b9761072360405190565b6367dfb7ff60e11b81529c8d9b8c9b6107409b3360048f0161064a565b03815a6020945f91f1908115610619575f916105f0575090565b979593909461078e896100af9b999561069d956107816106ab9a5f60a0860195019061051d565b8c830360208e0152610531565b9189830360408b0152610531565b9092966105db906020975f94976107b05f90565b506107bc6104d26104b5565b976107c660405190565b9b8c9a8b998a9863ec6a5c5b60e01b8a523360048b0161075a565b6107ee6100af6100af9290565b60ff1690565b6100af9061080c6108086100af9460ff1690565b9190565b901c90565b6100af6100af6100af9290565b61082b6100af6100af9290565b62ffffff1690565b6100af906108476108086100af9460ff1690565b901b90565b6100af6108596001610811565b61086360c96107e1565b90610833565b6100af6108766001610811565b61086360cb6107e1565b634e487b7160e01b5f52603260045260245ffd5b9060048110156108a5576020020190565b610880565b6108bd6100af6100af9263ffffffff1690565b6001600160601b031690565b6108bd906108476108dd6100af9460ff1690565b916001600160601b031690565b6108bd6100af6100af9290565b6100af6109046001610811565b61086360e56107e1565b6100af6100af6100af9262ffffff1690565b6001600160401b0381116103e057602090601f01601f19160190565b9061094961041d83610920565b918252565b610958600361093c565b6215109160ea1b602082015290565b6100af61094e565b610979600c61093c565b6b22bc3a32b936b4b730ba37b960a11b602082015290565b6100af61096f565b6109a3600361093c565b622120a360e91b602082015290565b6100af610999565b6109c4600961093c565b68416666696c6961746560b81b602082015290565b6100af6109ba565b6109ee6100af6100af9290565b61ffff1690565b6109ee9061080c610a096100af9460ff1690565b9161ffff1690565b6107ee6100af6100af9261ffff1690565b6107ee9061080c610a366100af9460ff1690565b9160ff1690565b6100af60c06103e5565b6100af730b306bf915c4d645ff596e518faf3f9669b970166104ac565b90929192610a7461041d82610920565b9381855281830111610056576100709160208501906100b2565b9080601f830112156100565781516100af92602001610a64565b906020828203126100565781516001600160401b038111610056576100af9201610a8e565b60c08101929161007091908051825260208082015161ffff169083015260408082015115159083015260608082015115159083015260808082015162ffffff169083015260a0908101511515910152565b60c052906060610b37610b3160806107e1565b846107f4565b610b405f610811565b8114610ea657610d68935f92610b65610cf093610b5f62ffffff610811565b1661081e565b60e052610b7182610efb565b61016052610b7d61084c565b8216610b8b61080886610811565b141594610b96610869565b8316610ba461080887610811565b141560805285158061018052610e99575b610bdc610bd7610bcd610bc788610811565b84610894565b5163ffffffff1690565b6108aa565b90610c30610c26610bd7610bcd610c15610c05610bd7610bcd610bff6001610811565b89610894565b610c0f60206107e1565b906108c9565b94610c206002610811565b90610894565b610c0f60406107e1565b91171791858514610e8a57825b610180518614610e7a57905b610c516108f7565b16610c5e61080887610811565b141560a052610c6c8561081e565b60e05162ffffff16148514610e6157610c83610967565b905b610140839052868614610e3f57610c9a6109d9565b610140525b610cb18460805189856101605161128b565b610100525f918394610cc46101006109e1565b6101605161ffff16108061012052610e32575b61012051610dbb575b8861018051926101405190611611565b91610d1f610cfc610a3d565b91610d0960c05185850152565b6101605161ffff16602084015215156040830152565b6080511515606082015260e05162ffffff16608082015260a08051151590820152610d4b6104d2610a47565b60405194859283918291637d9c302560e01b835260048301610acd565b03915afa8015610619576100af925f91610d99575b50610d8960e05161090e565b9061014051916101005191611975565b610db591503d805f833e610dad81836103bf565b810190610aa8565b5f610d7d565b925093509150610ddf610dda610dd160066107e1565b610160516109f5565b610a11565b91610e29610dfa610df0603f6109e1565b6101605116610a11565b610e0d610e0760036107e1565b82610a22565b90610e1860076107e1565b1690610e23866113c9565b9561145e565b93600192610ce0565b6101805161012052610cd7565b6080518614610e5957610e506109b2565b61014052610c9f565b610e50610991565b610e74610e6f60e05161090e565b610fba565b90610c85565b50610e84856108ea565b90610c49565b610e93856108ea565b92610c3d565b6080511561018052610bb5565b60405162461bcd60e51b815260206004820152601260248201527172656e64657265723a6e6f7454726f70687960701b6044820152606490fd5b6100af61fffa6109e1565b6109ee6100af6100af9260ff1690565b610f1a610f2b91610f095f90565b50610f1460986107e1565b906107f4565b610f2561ffff610811565b166109e1565b610f3661fffe6109e1565b61ffff8216148015610f58575b6100af57610f536100af91610a11565b610eeb565b50610f646109ee610ee0565b61ffff821614610f43565b369037565b90610070610f8a610f848461093c565b93610920565b601f190160208401610f6f565b634e487b7160e01b5f52601260045260245ffd5b8115610fb5570490565b610f97565b610fc3816119f2565b90610fd46001926100f16001610811565b9180610fdf84610f74565b936020850101905b610ff2575b50505090565b81156110465761102b905f1901926f181899199a1a9b1b9c1cb0b131b232b360811b600a82061a8453611025600a610811565b90610fab565b90816110396108085f610811565b1461104657909181610fe7565b610fec565b6100f16110639260209261105d815190565b94859290565b938491016100b2565b9060126100af926110918171020bbb0b93232b2103337b9103632bb32b6160751b9052565b019061104b565b906100706110a560405190565b80936110b560208301918261106c565b908103825203836103bf565b6110cd9060179261104b565b7f2045787465726d696e6174696f6e20766963746f72792e00000000000000000081520190565b9061007061110160405190565b80936110b56020830191826110c1565b7f4177617264656420746f20746865206269676765737420636f696e666c69707081526f032b91034b7103a3432903632bb32b6160851b602082015260059161115e916030015b9061104b565b64102120a31760d91b81520190565b9061007061117a60405190565b80936110b5602083019182611111565b7f4177617264656420746f2074686520746f7020616666696c6961746520666f728152660103632bb32b6160cd1b60208201526100af9190602701611158565b906100706111d760405190565b80936110b560208301918261118a565b6111f39060019261104b565b601760f91b81520190565b9061007061120b60405190565b80936110b56020830191826111e7565b6100af6100af6100af926001600160601b031690565b91601c6112436001946111f39461104b565b7f207769746820616e20616666696c696174652073636f7265206f6620000000008152611091565b6110b592916100709161127d60405190565b948592602084019283611231565b90929180611325575b156112e45750506112a4906111ca565b806112ae5f6108ea565b6001600160601b038416146112d857506112d26112cd6100af9361121b565b611c4c565b9061126b565b90506100af91506111fe565b919250908161130e575b50156112fd576100af9061116d565b6113096100af91611098565b6110f4565b905061131e610a096109ee610ee0565b145f6112ee565b5061133161fffe6109e1565b61ffff821614611294565b611346600661093c565b6543727970746f60d01b602082015290565b6100af61133c565b61136a600661093c565b655a6f6469616360d01b602082015290565b6100af611360565b61138e600561093c565b64436172647360d81b602082015290565b6100af611384565b6113b1600461093c565b634469636560e01b602082015290565b6100af6113a7565b6113d25f6107e1565b60ff821614611419576113e560016107e1565b60ff821614611410576113fb610a3660026107e1565b14611408576100af6113c1565b6100af61139f565b506100af61137c565b506100af611358565b6114326001916100af949361104b565b600160fd1b8152611091565b6110b592916100709161145060405190565b948592602084019283611422565b906100af9261147861147e92611472606090565b50611efc565b92612055565b9061143e565b916111586114bf6114f4936111586100af967f5b7b2274726169745f74797065223a224c6576656c222c2276616c7565223a22815260200190565b7f227d2c7b2274726169745f74797065223a2254726f706879222c2276616c7565815262111d1160e91b602082015260230190565b61227d60f01b815260020190565b916111586115166100af946114f49461104b565b7f2c7b2274726169745f74797065223a22416666696c696174652053636f72652281526916113b30b63ab2911d1160b11b6020820152602a0190565b916111586115666100af946114f49461104b565b7f2c7b2274726169745f74797065223a2245787465726d696e6174696f6e205769815270373734b733b99116113b30b63ab2911d1160791b602082015260310190565b6115e06114f4936111586115c4611158946100af989661104b565b6f163d913a3930b4ba2fba3cb832911d1160811b815260100190565b6a1116113b30b63ab2911d1160a91b8152600b0190565b611604906100af9261104b565b605d60f81b815260010190565b6116406100af6100af9a9896949997959361164c9361162e606090565b50604051938492602084019283611484565b908103825203826103bf565b90819780611743575b61170a575b5050806116ef575b6116b4575b5061168b575b50506100af61167b60405190565b80926116406020830191826115f7565b6100af906116ad9361164061169f60405190565b9485936020850193846115a9565b5f8061166d565b6100af6116e892956116d06116cb6116409461121b565b61219b565b906116da60405190565b938492602084019283611552565b925f611667565b506116f95f6108ea565b6001600160601b0382161415611662565b61173b929750611640916117236112cd6100af9361121b565b9061172d60405190565b938492602084019283611502565b945f8061165a565b5061174d5f6108ea565b6001600160601b0382161415611655565b916001611432611789936010600796611091816f02232b3b2b732b93ab9902632bb32b6160851b9052565b662054726f70687960c81b81520190565b6110b59291610070916117ac60405190565b94859260208401928361175e565b90601a6100af92611091817f646174613a696d6167652f7376672b786d6c3b6261736536342c0000000000009052565b906100706117f760405190565b80936110b56020830191826117ba565b683d913730b6b2911d1160b91b81526100af9190600990611091565b9061007061183060405190565b80936110b5602083019182611807565b6118506011916100af949361104b565b701116113232b9b1b934b83a34b7b7111d1160791b8152611091565b6110b592916100709161187e60405190565b948592602084019283611840565b91600b61189e600f946118b49461104b565b6a11161134b6b0b3b2911d1160a91b8152611091565b6e11161130ba3a3934b13aba32b9911d60891b81520190565b6110b59291610070916118df60405190565b94859260208401928361188c565b916111586001936118fd9361104b565b607d60f81b81520190565b6110b592916100709161191a60405190565b9485926020840192836118ed565b90601d6100af92611091817f646174613a6170706c69636174696f6e2f6a736f6e3b6261736536342c0000009052565b9061007061196560405190565b80936110b5602083019182611928565b936119df6100af956119da6119c5956119d56119cf6119ca6119c56119c16119e49c6100af9b6119a3606090565b506119ad5f610811565b81036119e957506119bc610967565b61179a565b9690565b612295565b6117ea565b93611823565b61186c565b6118cd565b611908565b611958565b6119bc90610fba565b6119fb5f610811565b907a184f03e93ff9f4daa797ed6e38ed64bf6a1f010000000000000000611a2181610811565b821015611b71575b506d04ee2d6d415b85acef8100000000611a4281610811565b821015611b4f575b50662386f26fc10000611a5c81610811565b821015611b2d575b506305f5e100611a7381610811565b821015611b0b575b50612710611a8881610811565b821015611ae9575b50611a9b6064610811565b811015611ac7575b611ab0610808600a610811565b1015611ab95790565b6100af906100f16001610811565b611ad8611ae3916110256064610811565b916100f16002610811565b90611aa3565b611b0491611025611af992610811565b916100f16004610811565b905f611a90565b611b2691611025611b1b92610811565b916100f16008610811565b905f611a7b565b611b4891611025611b3d92610811565b916100f16010610811565b905f611a64565b611b6a91611025611b5f92610811565b916100f16020610811565b905f611a4a565b611b8c91611025611b8192610811565b916100f16040610811565b905f611a29565b634e487b7160e01b5f52601160045260245ffd5b8115610fb5570690565b91908201809211611bbe57565b611b93565b611bd9611bd36100af9260ff1690565b60f81b90565b6001600160f81b03191690565b90611bef825190565b8110156108a5570160200190565b916001611c0f600794611c1b9461104b565b601760f91b8152611091565b66204255524e494560c81b81520190565b6110b5929161007091611c3e60405190565b948592602084019283611bfd565b6100af90611de0610808611c7f620f424093611c79611c73611c6d87610811565b83610fab565b95610811565b90611ba7565b92611dc5611ce6611ce1611c9b611c966006610811565b610f74565b96611cdc611dbf603092611c79611cb7611c6d620186a0610811565b8c611cfd611ceb611ce6611ce1611cd3600a96611c7988610811565b611cdc8c610811565b611bb1565b6107e1565b611bc3565b5f1a91611cf75f610811565b90611be6565b538c611d38611d2b611ce6611ce1611cd3611d22611d1c612710610811565b8a610fab565b611c7988610811565b5f1a91611cf76001610811565b538c611d64611d57611ce6611ce1611cd3611d22611d1c6103e8610811565b5f1a91611cf76002610811565b538c611d8f611d82611ce6611ce1611cd3611d22611d1c6064610811565b5f1a91611cf76003610811565b538c611db9611dac611ce6611ce1611cd3611d22611d1c88610811565b5f1a91611cf76004610811565b53610811565b91610811565b5f1a611dda611dd46005610811565b86611be6565b53610fba565b90611c2c565b611df0600461093c565b6350696e6b60e01b602082015290565b6100af611de6565b611e12600661093c565b65507572706c6560d01b602082015290565b6100af611e08565b611e36600561093c565b6423b932b2b760d91b602082015290565b6100af611e2c565b611e59600361093c565b6214995960ea1b602082015290565b6100af611e4f565b611e7a600461093c565b63426c756560e01b602082015290565b6100af611e70565b611e9c600661093c565b654f72616e676560d01b602082015290565b6100af611e92565b611ec0600661093c565b6529b4b63b32b960d11b602082015290565b6100af611eb6565b611ee4600461093c565b6311dbdb1960e21b602082015290565b6100af611eda565b611f055f6107e1565b60ff821614611fbc57611f1860016107e1565b60ff821614611fb357611f2b60026107e1565b60ff821614611faa57611f3e60036107e1565b60ff821614611fa157611f5160046107e1565b60ff821614611f9857611f6460056107e1565b60ff821614611f8f57611f7a610a3660066107e1565b14611f87576100af611ef4565b6100af611ed2565b506100af611eae565b506100af611e8a565b506100af611e68565b506100af611e47565b506100af611e24565b506100af611e00565b6100af735fbdb2315678afecb367f032d93f642f64180aa36104ac565b6100af6100af6100af9260ff1690565b61019a90611fe2565b91602061007092949361201560408201965f830190611ff2565b019060ff169052565b9060076100af926110918166029bcb6b137b6160cd1b9052565b9061007061204560405190565b80936110b560208301918261201e565b61205f60036107e1565b60ff8216106120885750610e6f6120786100af92611fe2565b6120826001610811565b90611bb1565b5f826120c2926120996104d2611fc5565b906120a360405190565b8095819482936120b76323b67b0860e01b90565b845260048401611ffb565b03915afa908115610619575f91612105575b5080516120e36108085f610811565b0361210057506120fb610e6f6120786100af93611fe2565b612038565b905090565b61211991503d805f833e610dad81836103bf565b5f6120d4565b81810292918115918404141715611bbe57565b91908203918211611bbe57565b61214b9060ff16610a36565b019060ff8211611bbe57565b9161218a61217a61216d6100af9560019561104b565b601760f91b815260010190565b80926001600160f81b0319169052565b01630408aa8960e31b815260040190565b6116406100af6121c26100af936121b0606090565b5061102567016345785d8a0000610811565b612214611ce66122046121fe611ce16121e46121de600a610811565b87610fab565b956121f86121f2600a610811565b8861211f565b90612132565b93610fba565b9261220f60306107e1565b61213f565b9061221e60405190565b938492602084019283612157565b612236604061093c565b7f4142434445464748494a4b4c4d4e4f505152535455565758595a61626364656660208201527f6768696a6b6c6d6e6f707172737475767778797a303132333435363738392b2f604082015290565b6100af61222c565b6100af612285565b60016100af916122a3606090565b506122ac61228d565b906122c3565b6100af5f61093c565b6100af6122b2565b90919080516122d46108085f610811565b146123d65781156123c0576001612318611c966123096122ff6122f5865190565b6120826002610811565b6110256003610811565b6123136004610811565b61211f565b930191602084019282908351840160208101918251935f84525b828110612379575050505261234657505090565b6003905106806001146123685760021461235e575090565b6001603d91035390565b50600281603d600181940353035390565b6003600191989293980191603f828080865194848660121c168901518153018385600c1c16880151815301828460061c168701518153019116840151815301969190612332565b6001612318611c966122ff6122f5612309865190565b5050506100af6122bb56fea2646970667358221220e034514f458c1ed8389ad2070b30842437539103af383a86c87d9411d05101b264736f6c634300081e0033","linkReferences":{}},"methodIdentifiers":{"setCustomColorsForMany(uint256[],string,string,string,string,uint32)":"260d7b3c","setMyColors(string,string,string,string)":"5e8ab1f5","setTopAffiliateColor(uint256,string)":"1f239792","tokenURI(uint256,uint256,uint32[4])":"1af98746"},"id":15}