{"abi":[{"type":"function","name":"deployTimestamp","inputs":[],"outputs":[{"name":"","type":"uint48","internalType":"uint48"}],"stateMutability":"view"},{"type":"function","name":"finalizeEndgame","inputs":[{"name":"lvl","type":"uint24","internalType":"uint24"},{"name":"rngWord","type":"uint256","internalType":"uint256"},{"name":"jackpotsAddr","type":"address","internalType":"address"},{"name":"jackpotModuleAddr","type":"address","internalType":"address"},{"name":"coinContract","type":"address","internalType":"contract IDegenerusCoinModule"},{"name":"nftAddr","type":"address","internalType":"address"}],"outputs":[],"stateMutability":"nonpayable"},{"type":"function","name":"gameState","inputs":[],"outputs":[{"name":"","type":"uint8","internalType":"uint8"}],"stateMutability":"view"},{"type":"function","name":"level","inputs":[],"outputs":[{"name":"","type":"uint24","internalType":"uint24"}],"stateMutability":"view"},{"type":"event","name":"PlayerCredited","inputs":[{"name":"player","type":"address","indexed":true,"internalType":"address"},{"name":"recipient","type":"address","indexed":true,"internalType":"address"},{"name":"amount","type":"uint256","indexed":false,"internalType":"uint256"}],"anonymous":false}],"bytecode":{"object":"0x60806040523461002257610011610026565b604051612562610281823961256290f35b5f80fd5b61002e610215565b565b9065ffffffffffff905b9181191691161790565b61005c6100596100599265ffffffffffff1690565b90565b65ffffffffffff1690565b9061007761005961007e92610044565b8254610030565b9055565b9062ffffff60d01b9060d01b61003a565b6100a06100596100599290565b62ffffff1690565b906100b861005961007e92610093565b8254610082565b9061ffff60e81b9060e81b61003a565b6100dc6100596100599290565b61ffff1690565b906100f361005961007e926100cf565b82546100bf565b907fff000000000000000000000000000000000000000000000000000000000000009060f81b61003a565b6101326100596100599290565b60ff1690565b9061014861005961007e92610125565b82546100fa565b906cff0000000000000000000000009060601b61003a565b151590565b9061017c61005961007e92610167565b825461014f565b9060ff60781b9060781b61003a565b906101a261005961007e92610167565b8254610183565b906001600160801b039061003a565b6101c56100596100599290565b6001600160801b031690565b906101e161005961007e926101b8565b82546101a9565b905f199061003a565b6100596100596100599290565b9061020e61005961007e926101f1565b82546101e8565b61022565ffffffffffff5f610067565b61025a6001610234815f6100a8565b6102406101a45f6100e3565b61024a5f80610138565b610254818061016c565b80610192565b61026c6658d15e1762800060026101d1565b61002e6806c6b935b8bbd4000060036101fe56fe6103006040526004361015610012575f80fd5b5f3560e01c8063027a9a8514610051578063607ad0d71461004c5780636fd5ae15146100475763d1f9c24d0361005657610220565b6101ca565b61016f565b61010f565b5f80fd5b62ffffff81165b0361005657565b905035906100758261005a565b565b80610061565b9050359061007582610077565b6001600160a01b031690565b90565b6001600160a01b038116610061565b9050359061007582610099565b909160c082840312610056576100cb8383610068565b926100d9816020850161007d565b926100e782604083016100a8565b926100966100f884606085016100a8565b9360a061010882608087016100a8565b94016100a8565b346100565761012e6101223660046100b5565b94939093929192610619565b60405180805b0390f35b5f91031261005657565b610096916008021c65ffffffffffff1690565b906100969154610142565b6100965f600e610155565b9052565b346100565761017f366004610138565b61013461018a610160565b6040519182918265ffffffffffff909116815260200190565b610096916008021c5b62ffffff1690565b9061009691546101a3565b610096601a5f6101b4565b34610056576101da366004610138565b6101346101e56101bf565b6040519182918262ffffff909116815260200190565b610096916008021c5b60ff1690565b9061009691546101fb565b610096601f5f61020a565b3461005657610230366004610138565b61013461023b610215565b6040519182918260ff909116815260200190565b6101ac6100966100969290565b634e487b7160e01b5f52601160045260245ffd5b6102839062ffffff165b9162ffffff1690565b90039062ffffff821161029257565b61025c565b6100969060e81c5b61ffff1690565b6100969054610297565b61029f6100966100969290565b6100966101a46102b0565b6102046100966100969261ffff1690565b6101ac6100966100969262ffffff1690565b906102f5906102d9565b5f5260205260405f2090565b6100969081565b6100969054610301565b6100966100966100969261ffff1690565b919061032e565b9290565b9180830292818404149015171561029257565b6100966100966100969290565b634e487b7160e01b5f52601260045260245ffd5b9061036c565b9190565b908115610377570490565b61034e565b610096610096610096926001600160601b031690565b61039f6100966100969290565b6001600160601b031690565b6100969061008a906001600160a01b031682565b610096906103ab565b610096906103bf565b6100969060901c610204565b61009690546103d1565b634e487b7160e01b5f52604160045260245ffd5b90601f01601f1916810190811067ffffffffffffffff82111761041d57604052565b6103e7565b9050519061007582610077565b906020828203126100565761009691610422565b90959492610075946104876104909261047d60809661047160a088019c5f8901906001600160a01b03169052565b62ffffff166020870152565b60ff166040850152565b15156060830152565b01906001600160601b03169052565b6040513d5f823e3d90fd5b9190820180921161029257565b9190820391821161029257565b6100966107d06102b0565b610096610096610096926001600160801b031690565b61016b906103c8565b90959492610075946105296105309261052260809661051860a088019c5f89019062ffffff169052565b60ff166020870152565b6040850152565b6060830152565b01906104e5565b9061007561054460405190565b92836103fb565b67ffffffffffffffff811161041d57602090601f01601f19160190565b9061057a6105758361054b565b610537565b918252565b3d156105985761058e3d610568565b903d5f602084013e565b606090565b905f19905b9181191691161790565b906105bc6100966105c392610341565b825461059d565b9055565b6105d46100966100969290565b63ffffffff1690565b9063ffffffff60b01b9060b01b6105a2565b6105d46100966100969263ffffffff1690565b906106126100966105c3926105ef565b82546105dd565b9491939092905f906106368297610630600161024f565b90610270565b936106405f61024f565b62ffffff86161415936106525f6102a6565b61065d61029f6102bd565b61ffff8216036106ca575b50505050506106a4575b50505061067e5f610341565b81036106875750565b61069d610075916106986014610308565b6104aa565b60146105ac565b916106bc91836106b76106c29695611592565b6116b6565b906104aa565b5f8080610672565b6106d89192939499506102c8565b926106f46106e78760126102eb565b546001600160a01b031690565b986106ff6004610308565b9061071b6107156107108b8b610a3a565b610312565b83610323565b916107326127109361072c85610341565b90610362565b9b6001600160601b038d6107486103688361037c565b11156109be57925b60208b61077061076b61076b6062546001600160a01b031690565b6103c8565b8b5f61077c60016103dd565b936107a461078960405190565b9a8b9687958694635a40e13160e01b86528c60048701610443565b03925af19384156109b9578b8f6107c6946106bc93839861098c575b50610b56565b9b8082111561097b576107d8916104b7565b925b6107e35f610341565b8403610820575b505050505050506108046107fd5f610341565b60046105ac565b6108166108105f6105c7565b5f610602565b5f80808080610668565b610842879361072c61083c6108366107106104c4565b88610323565b91610341565b8a61084e8280976104b7565b809261087761086d6108686002546001600160801b031690565b6104cf565b61072c6004610341565b6108805f610341565b81141580610969575b61091f575b505050926108c15f9697936108d0938897966108a960405190565b628cad9760e51b6020820152978895602487016104ee565b602082018103825203836103fb565b602082519201905af46108e96108e461057f565b911590565b61091a5750856108f85f610341565b8203610907575b8186816107ea565b6109119386610e0b565b5f8080856108ff565b610c4f565b5f98506108d094509261095a8261095361094c876109476108c1989f9b97998f9e9d9a610362565b610323565b80926104b7565b909b6104aa565b9450929596819599985061088e565b506109735f610341565b821415610889565b50506109865f610341565b926107da565b6109ad9060203d6020116109b2575b6109a581836103fb565b81019061042f565b6107c0565b503d61099b565b61049f565b506109c88d610392565b92610750565b6109dc9062ffffff1661027a565b908115610377570690565b610a08610096936109fc60608401945f850152565b62ffffff166020830152565b6040818303910152600881526765785f736861726560c01b602082015260400190565b61009690610341565b906109dc565b610a4d610a47600a61024f565b826109ce565b610a5a61027a600461024f565b1480610af4575b610ae757610ad7610ac7610ab7610a93610a9f610ae29561009697610a8560405190565b9384926020840192836109e7565b908103825203826103fb565b610ab1610aaa825190565b9160200190565b20610a2b565b610ac16015610341565b90610a34565b610ad16064610341565b90610323565b6106986107d0610341565b6102b0565b5050610096610fa06102b0565b50610aff600461024f565b62ffffff82161415610a61565b61008a6100966100969290565b61009690610b0c565b801515610061565b9050519061007582610b22565b906020828203126100565761009691610b2a565b6100966109c46102b0565b90915f90610b635f610341565b8414610c425773a513e6e4b8f2a923d98304ec87f64353c4d5c8539193610b8c61008a5f610b19565b6001600160a01b03841603610bbe575b936106bc92610bb89261009696610bb1610b4b565b90876118de565b9261196f565b909350610bcd61076b836103c8565b906020610bd960405190565b631ca27e4760e11b815292839060049082905afa9283156109b957610096956106bc94610bb8945f91610c13575b50965092509250610b9c565b610c35915060203d602011610c3b575b610c2d81836103fb565b810190610b37565b5f610c07565b503d610c23565b505050506100965f610341565b8051610c5d6103685f610341565b1461005657805190602001fd5b634e487b7160e01b5f52603260045260245ffd5b610100821015610c94576001905b910201905f90565b610c6a565b909190610100831015610c94576008610cb160049290565b8185040193060290565b610096916008021c6105d4565b906100969154610cbb565b6100966100966100969263ffffffff1690565b6102046100966100969290565b6100966014610ce6565b6100966100966100969260ff1690565b67ffffffffffffffff811161041d5760208091020190565b9061057a61057583610d0d565b369037565b90610075610d4d610d4784610d25565b93610d0d565b601f190160208401610d32565b610d8e61007594610d84606094989795610d78608086019a5f870152565b62ffffff166020850152565b60ff166040830152565b0152565b8054821015610c9457610c8c6001915f5260205f2090565b610096916008021c61008a565b906100969154610daa565b90610dcb825190565b811015610c94576020809102010190565b5f1981146102925760010190565b6001600160a01b0391909116815263ffffffff909116602082015260400190565b9091949392946102e052610e1e5f610341565b851461151a57610e3c610e35866106986005610308565b60056105ac565b610e57610e5383610e4e8460156102eb565b610c7e565b5090565b92610e60845490565b93610e6a5f610341565b851461151157610e856108686002546001600160801b031690565b610e8e5f610341565b811461150757610ea29061072c6004610341565b610eab5f610341565b811461150757610f0b90610ed1610ecc610ec6886040610c99565b90610cc8565b610cd3565b610ee2610ecc610ec6896020610c99565b808211156114f757610ef3916104b7565b8781116114f0575b610f0590886104b7565b98610362565b918290610f16610cf3565b610f1f81610cfd565b85116114de575b508682116114d6575b610f385f610341565b82146114cb57610f47906103c8565b6102c052610f5481610d37565b61022052610f6181610d37565b97610f6b82610d37565b925f61028052610f785f90565b988961028052610fad8a96610a9f8c9a8d9a836102a052610a93610f9b60405190565b94859360208501936102e05185610d5a565b6102405289975b8489101561114557610fc8610240516119ff565b9081610240528c610fd98b886104b7565b92610fe48d82610a34565b908c610ff9610ff3848a610d92565b90610db7565b918261101761100a61008a5f610b19565b916001600160a01b031690565b14611130575b61102a876102a051610362565b90611038886102a051610a34565b82986110435f610341565b8214159283611114575b5050506110f7575b50906110786110869261106b886102a0516104b7565b6102a05261022051610dc2565b906001600160a01b03169052565b86116110ce57916110c1916106988c6110be6110c89661028051610260526110b061028051610ddc565b610280526102605190610dc2565b52565b9860010190565b97610fb4565b5098976110c8916110f0916106988b6110be6110e98d610ddc565b9c8c610dc2565b9760010190565b6110869291965061110b6110789160010190565b96919250611055565b6111279293506103689161032a91610a34565b105f808061104d565b915061113f610ff35f8a610d92565b9161101d565b92509897505061117b91955093919361117561116a6111646004610341565b83610a34565b9161072c6004610341565b926104aa565b966111855f610341565b610280511415806114b9575b611339575b50506111a15f610341565b86036111b0575b505050509050565b6111b95f610341565b81036112a75750506111d5816111cf8187610362565b95610a34565b916111f0826111e6610240516119ff565b8061024052610a34565b905b8281101561129657806112118461120c8561124c956104aa565b610a34565b858210156112875761123461122e6112296001610ce6565b610cfd565b896104aa565b61123d5f610341565b8103611251575b505060010190565b6111f2565b61127a6112746112676112809461022051610dc2565b516001600160a01b031690565b916105c7565b90611ace565b5f80611244565b61123461122e6112295f610ce6565b5050505090505b805f8080806111a8565b9091506112be816112b88188610362565b96610a34565b926112cf826111e6610240516119ff565b905b8281101561132d57806112fb6112f76112f18661120c87611319976104aa565b87610dc2565b5190565b8682101561131e576112346113136112296001610ce6565b8a6104aa565b6112d1565b6112346113136112295f610ce6565b5050505050905061129d565b93969195909461135a61134f6102805188610362565b966102805190610a34565b9761137961136a610240516119ff565b80610240526102805190610a34565b94825b610280518110156114a7576113aa6112f76113a461139a8a856104aa565b6102805190610a34565b8a610dc2565b908b811015611498576113c96113c36112296001610ce6565b8b6104aa565b63ffffffff816113db61036883610cd3565b11611488575b506113eb5f610341565b8103611402575b50600101905061137c565b61137c565b6114216112746112676114176102c0516103c8565b9561022051610dc2565b833b1561005657611457935f928361143860405190565b80978195829461144c63feaa238a60e01b90565b845260048401610dea565b03925af19182156109b9576113fd92156113f257611482905f61147a81836103fb565b810190610138565b5f6113f2565b6114929150610cd3565b5f6113e1565b6113c96113c36112295f610ce6565b50945094509450949095505f80611196565b506114c35f610341565b821415611191565b505050505050509050565b869150610f2f565b6114e9919250610cfd565b905f610f26565b5086610efb565b50506115025f610341565b610ef3565b5050505050509050565b50505050509050565b5050509050565b9050519061007582610099565b6001600160601b038116610061565b905051906100758261152e565b9190604083820312610056576100969060206115668286611521565b940161153d565b6001600160a01b039091168152606081019392610075929091604091610490906109fc565b6115b061076b73610178da211fef7d417bc0e6fed39f05609ad78881565b9060406115bc60405190565b636a5c457360e11b815262ffffff8316600482015292839060249082905afa80156109b9575f925f91611681575b506115f761008a5f610b19565b6001600160a01b0384161461167c57611650926020925f61162c61076b733aa5ebb10dc797cac828524e59a333d0a371443c81565b9261163660405190565b9687958694859363f6d81ceb60e01b85526004850161156d565b03925af180156109b9576116615750565b6116799060203d6020116109b2576109a581836103fb565b50565b505050565b90506116a691925060403d6040116116af575b61169e81836103fb565b81019061154a565b5f9291926115ea565b503d611694565b5f9283926116c46006610308565b92836116d96116d3600a61024f565b836109ce565b6116ec6116e6606461024f565b846109ce565b916116f65f61024f565b62ffffff8316146117ce575b5061009696975061171661027a600561024f565b1490816117b4575b8161179d575b50611734575b50505060066105ac565b61175461174a611744600f610341565b86610323565b61072c6064610341565b61175d5f610341565b810361176a575b5061172a565b9261178d926117879261179396956117826001610ce6565b611b60565b926104b7565b936104aa565b915f808080611764565b90506117ac61027a605f61024f565b14155f611724565b90506117c0600f61024f565b62ffffff831610159061171e565b9650876117da5f61024f565b62ffffff841614806118c0575b1561187b576100969798506117fc6009610308565b61180f6118085f610341565b60096105ac565b6001995b61182d611826898989866117825f610ce6565b90946104aa565b9a1561186857509061183e916104b7565b6118475f610341565b8103611857575b505b8796611702565b61186191966104aa565b945f61184e565b90506118759297506104b7565b94611850565b61009697611889603261024f565b62ffffff8616036118ad576118a761174a6107156112296019610ce6565b90611813565b6118a761174a610715611229600a610ce6565b506118cb6009610308565b6118d76103685f610341565b14156117e7565b91959490939290915f936119036118f8610836879a610312565b61072c612710610341565b948661190e5f610341565b87148015611948575b61193c57505061192a9392918591611c7d565b61193357509190565b610368916104b7565b98509695505050505050565b5061195561008a5f610b19565b6001600160a01b03841614611917565b906102f5906103c8565b6119989061076b611981826013611965565b6119928561198e83610308565b0190565b906105ac565b807f8d6d307cfee7f8fbe2b0a9eebc059c714d0108fa855c944761169ccff9442d6b6119c360405190565b848152602090a390565b610096906119e16103686100969460ff1690565b901b90565b610096906119fa6103686100969460ff1690565b901c90565b611a12611a0c6007610ce6565b826119cd565b18611a26611a206009610ce6565b826119e6565b18611a34611a0c6008610ce6565b1890565b610096906105d4565b6100969054611a38565b916001600160a01b0360089290920291821b911b6105a2565b9190611a756100966105c3936103c8565b908354611a4b565b908154916801000000000000000083101561041d5782611aa591600161007595018155610d92565b90611a64565b9063ffffffff906105a2565b90611ac76100966105c3926105ef565b8254611aab565b611ad75f6105c7565b63ffffffff831614611b4157611b27611b1f61007593611b00611afb856011611965565b611a41565b611b095f6105c7565b63ffffffff821614611b2c570163ffffffff1690565b916011611965565b611ab7565b611b37856010611a7d565b0163ffffffff1690565b5050565b908152606081019392610075929091604091610d8e906109fc565b919390929091611b6f5f610ce6565b60ff821614611c1d57611b8c611b856001610ce6565b9160ff1690565b14611ba35750505050611b9e5f610341565b908190565b611be093611bb561076b6020946103c8565b905f611bc060405190565b809781958294611bd463275d3a4060e01b90565b84528960048501611b45565b03925af19081156109b957611b9e925f92611bfc575b506104b7565b611c1691925060203d6020116109b2576109a581836103fb565b905f611bf6565b50909192611c2a93611f4b565b9091565b6001600160a01b0390911681526040810192916100759160200152565b6001600160a01b039091168152606081019392610075929091604091611c72906020830152565b019062ffffff169052565b5f9594929392611c8c87610341565b8514611dcc57611d1d5761076b611ca2916103c8565b91823b1561005657611cd592845f8094611cbb60405190565b9687958694859363feb3a1e360e01b855260048501611c4b565b03925af19081611d08575b50611ce85750565b611d03919250611cfc90610698600c610308565b600c6105ac565b600190565b611d17905f61147a81836103fb565b5f611ce0565b611d5f9250602091611d3561076b86939897986103c8565b905f611d4060405190565b809681958294611d54631a301ca060e01b90565b845260048401611c2e565b03925af19081611daf575b50611d73575090565b611d82915061072c6002610341565b611d8b5f610341565b8103611d98575b50600190565b611cfc611da991610698600c610308565b5f611d92565b611dc79060203d6020116109b2576109a581836103fb565b611d6a565b505f955050505050565b90929192611de661057582610d0d565b938185526020808601920283019281841161005657915b838310611e0a5750505050565b60208091611e188486611521565b815201920191611dfd565b9080601f8301121561005657815161009692602001611dd6565b90929192611e4d61057582610d0d565b938185526020808601920283019281841161005657915b838310611e715750505050565b60208091611e7f8486610422565b815201920191611e64565b9080601f8301121561005657815161009692602001611e3d565b60808183031261005657805167ffffffffffffffff81116100565782611ecb918301611e23565b92602082015167ffffffffffffffff811161005657611eef84610096928501611e8a565b936060611eff8260408701610422565b9401610422565b6100966080610ce6565b610096906119e16103686100969490565b6100966127106102b0565b6001600160a01b03909116815260408101929161007591602090611c72565b9190935f946102a052611f5b5f90565b6101a0819052918590611fb390611f8961076b733aa5ebb10dc797cac828524e59a333d0a371443c986103c8565b90611f9360405190565b98899384928391906320c0d7c760e11b83526102a0518b60048501611b45565b03925af180156109b9575f610280525f955f60e0525f916124fc575b50611fda6001610341565b61024052611fe6611f06565b9361200d612004611ffa87610240516119cd565b61024051906104b7565b9560e0516119e6565b60c05273a513e6e4b8f2a923d98304ec87f64353c4d5c8536101e0526101a0516102005261203d61008a5f610b19565b6101e0516001600160a01b031603612497575b61206861086d6108686002546001600160801b031690565b6102c0526101a0516102e0819052955b612086610096610280515190565b6102e05110156120e1576120a06102e05161024051611f10565b60c051166120b06103685f610341565b036120c6575b6102e0516001016102e052612078565b956120db906106bc6112f76102e0518b610dc2565b956120b6565b90919293956120f79097959761072c6002610341565b6101c0526101a051610260819052610220819052610140525b61211e610096610280515190565b6101405110156123b8576121386112f76101405187610dc2565b6101608190526101a05160805261014051610240516121579190611f10565b8060c051166121686103685f610341565b1415908960e051161661217d6103685f610341565b141590156123795750506121905f610341565b6102c05114158061236a575b15612327576121b16102c05161016051610362565b6101805261018051610120526121c65f610341565b61018051146123275763ffffffff6121dd81610cd3565b6101805111612314575b506121f86102c05161012051610323565b6101005261221e6122126112676101405161028051610dc2565b61127a610120516105c7565b61222e61010051610220516104aa565b6102205261224261010051610160516104b7565b61224b5f610341565b811461230157612286906122686112676101405161028051610dc2565b90612271611f21565b9161020051926101e051926102a051926118de565b9060a0526080526122b360a051965b6122a561010051610260516104aa565b610260525b608051906104aa565b80966122be5f610341565b81036122d7575b50506101405160010161014052612110565b6122f99297506106bc906122f46112676101405161028051610dc2565b61196f565b945f806122c5565b506122b361230e5f610341565b96612295565b61231d90610cd3565b610120525f6121e7565b6122b36123616123406112676101405161028051610dc2565b612348611f21565b61020051916101e051916102a0519161016051906118de565b608052966122aa565b506101c051610260511061219c565b96909661238a575b6122b3906122aa565b95506122b36123ad6123a56112676101405161028051610dc2565b6123486104c4565b608052969050612381565b90919294955061036893506123cc5f610341565b6102205103612478575b61028051516123e76103685f610341565b036123f257506104b7565b602061243f61240461076b5f946103c8565b61241c61126761241386610341565b61028051610dc2565b604051948593849283919063390b84db60e01b83526102a0519060048401611f2c565b03925af1908161245b575b50612456575b5f611bf6565b612450565b6124739060203d6020116109b2576109a581836103fb565b61244a565b612492610e356124886005610308565b61022051906104aa565b6123d6565b6124a661076b6101e0516103c8565b60206124b160405190565b631ca27e4760e11b815291829060049082905afa9081156109b9575f916124dd575b5061020052612050565b6124f6915060203d602011610c3b57610c2d81836103fb565b5f6124d3565b905061251b9195503d805f833e61251381836103fb565b810190611ea4565b9196929060e052610280525f611fcf56fea264697066735822122038c3c4b3e33d59b982fa4e1cb0d5d42642cb4786b8861f2259e0044db25e779164736f6c634300081e0033","linkReferences":{}},"methodIdentifiers":{"deployTimestamp()":"607ad0d7","finalizeEndgame(uint24,uint256,address,address,address,address)":"027a9a85","gameState()":"d1f9c24d","level()":"6fd5ae15"},"id":36}