{"abi":[{"type":"constructor","inputs":[],"stateMutability":"nonpayable"},{"type":"function","name":"RECOLOR_COST_PER_TOKEN","inputs":[],"outputs":[{"name":"","type":"uint256","internalType":"uint256"}],"stateMutability":"view"},{"type":"function","name":"addressColor","inputs":[{"name":"user","type":"address","internalType":"address"},{"name":"channel","type":"uint8","internalType":"uint8"}],"outputs":[{"name":"","type":"string","internalType":"string"}],"stateMutability":"view"},{"type":"function","name":"setCustomColorsForMany","inputs":[{"name":"user","type":"address","internalType":"address"},{"name":"tokenContract","type":"address","internalType":"address"},{"name":"tokenIds","type":"uint256[]","internalType":"uint256[]"},{"name":"outlineHex","type":"string","internalType":"string"},{"name":"flameHex","type":"string","internalType":"string"},{"name":"diamondHex","type":"string","internalType":"string"},{"name":"squareHex","type":"string","internalType":"string"},{"name":"trophyOuterPct1e6","type":"uint32","internalType":"uint32"}],"outputs":[{"name":"","type":"bool","internalType":"bool"}],"stateMutability":"nonpayable"},{"type":"function","name":"setMyColors","inputs":[{"name":"user","type":"address","internalType":"address"},{"name":"outlineHex","type":"string","internalType":"string"},{"name":"flameHex","type":"string","internalType":"string"},{"name":"diamondHex","type":"string","internalType":"string"},{"name":"squareHex","type":"string","internalType":"string"}],"outputs":[{"name":"","type":"bool","internalType":"bool"}],"stateMutability":"nonpayable"},{"type":"function","name":"setTopAffiliateColor","inputs":[{"name":"user","type":"address","internalType":"address"},{"name":"tokenContract","type":"address","internalType":"address"},{"name":"tokenId","type":"uint256","internalType":"uint256"},{"name":"trophyHex","type":"string","internalType":"string"}],"outputs":[{"name":"","type":"bool","internalType":"bool"}],"stateMutability":"nonpayable"},{"type":"function","name":"tokenColor","inputs":[{"name":"tokenContract","type":"address","internalType":"address"},{"name":"tokenId","type":"uint256","internalType":"uint256"},{"name":"channel","type":"uint8","internalType":"uint8"}],"outputs":[{"name":"","type":"string","internalType":"string"}],"stateMutability":"view"},{"type":"function","name":"topAffiliateColor","inputs":[{"name":"tokenContract","type":"address","internalType":"address"},{"name":"tokenId","type":"uint256","internalType":"uint256"}],"outputs":[{"name":"","type":"string","internalType":"string"}],"stateMutability":"view"},{"type":"function","name":"trophyOuter","inputs":[{"name":"tokenContract","type":"address","internalType":"address"},{"name":"tokenId","type":"uint256","internalType":"uint256"}],"outputs":[{"name":"","type":"uint32","internalType":"uint32"}],"stateMutability":"view"},{"type":"error","name":"InvalidHexColor","inputs":[]},{"type":"error","name":"InvalidTrophyOuterPercentage","inputs":[]},{"type":"error","name":"NotRenderer","inputs":[]},{"type":"error","name":"ZeroAddress","inputs":[]}],"bytecode":{"object":"0x608060405234601f57600e608b565b6040516118876100d2823961188790f35b5f80fd5b6035906038906001600160a01b031682565b90565b6001600160a01b031690565b6035906023565b6035906044565b90605a90604b565b5f5260205260405f2090565b151590565b90607760356087926066565b825460ff191660ff919091161790565b9055565b60b0600160ac73c6e7df5e7b4f2a278906862b61205850344d4e7d5b5f6052565b606b565b60cf600160ac733aa5ebb10dc797cac828524e59a333d0a371443c60a7565b56fe60c06040526004361015610011575f80fd5b5f3560e01c80630520cb6a146100905780630a8ca8ea1461008b57806321af675414610086578063854104d714610081578063b6acc67b1461007c578063bdf0810414610077578063cfbf6ffe146100725763ec6a5c5b036100955761053e565b61047b565b61033a565b610302565b6102da565b610215565b6101b8565b6100ff565b5f80fd5b6001600160a01b031690565b90565b6001600160a01b0381165b0361009557565b905035906100c7826100a8565b565b806100b3565b905035906100c7826100c9565b9190604083820312610095576100a59060206100f882866100ba565b94016100cf565b346100955761013261011b6101153660046100dc565b906105c1565b6040519182918263ffffffff909116815260200190565b0390f35b909182601f83011215610095578135916001600160401b03831161009557602001926001830284011161009557565b906080828203126100955761017a81836100ba565b9261018882602085016100ba565b9261019683604083016100cf565b9260608201356001600160401b038111610095576101b49201610136565b9091565b34610095576101326101d76101ce366004610165565b93929092610c06565b60405191829182901515815260200190565b5f91031261009557565b6100a56100a56100a59290565b6100a56302faf0806101f3565b6100a5610200565b34610095576102253660046101e9565b61013261023061020d565b6040519182918290815260200190565b60ff81166100b3565b905035906100c782610240565b9091606082840312610095576100a561026f84846100ba565b93604061027f82602087016100cf565b9401610249565b90825f9392825e0152565b6102b26102bb6020936102c5936102a6815190565b80835293849260200190565b95869101610286565b601f01601f191690565b0190565b60208082526100a592910190610291565b34610095576101326102f66102f0366004610256565b91610cf8565b604051918291826102c9565b34610095576101326102f66103183660046100dc565b90610d97565b9190604083820312610095576100a590602061027f82866100ba565b34610095576101326102f661035036600461031e565b90610db7565b909182601f83011215610095578135916001600160401b03831161009557602001926020830284011161009557565b63ffffffff81166100b3565b905035906100c782610385565b91909161010081840312610095576103b683826100ba565b926103c481602084016100ba565b9260408301356001600160401b03811161009557826103e4918501610356565b92909360608101356001600160401b0381116100955782610406918301610136565b92909360808301356001600160401b0381116100955782610428918501610136565b92909360a08101356001600160401b038111610095578261044a918301610136565b92909360c08301356001600160401b038111610095578261047260e0946100a5938701610136565b94909501610391565b34610095576101326101d761049136600461039e565b9b9a909a999199989298979397969496611246565b60a081830312610095576104ba82826100ba565b9260208201356001600160401b03811161009557836104da918401610136565b92909360408201356001600160401b03811161009557816104fc918401610136565b92909360608201356001600160401b038111610095578361051e918401610136565b92909360808201356001600160401b038111610095576101b49201610136565b34610095576101326101d76105543660046104a6565b979690969591959492946113ba565b6100a590610099906001600160a01b031682565b6100a590610563565b6100a590610577565b9061059390610580565b5f5260205260405f2090565b90610593906101f3565b6100a5905b63ffffffff1690565b6100a590546105a9565b6100a5916105db6105e0926105d35f90565b506004610589565b61059f565b6105b7565b9493929190739a676e781a523b5d0c0e43731313a708cb60750833141580610626575b610615576100a595610adf565b631c2fc3fd60e21b5f908152600490fd5b5073959922be3caee4b8cd9a407cc3ac1c251c2007b1331415610608565b6100a5905b60ff1690565b6100a59054610644565b634e487b7160e01b5f52604160045260245ffd5b90601f01601f191681019081106001600160401b0382111761068e57604052565b610659565b905051906100c7826100a8565b90602082820312610095576100a591610693565b6040513d5f823e3d90fd5b634e487b7160e01b5f52602260045260245ffd5b90600160028304921680156106f3575b60208310146106ee57565b6106bf565b91607f16916106e3565b9061070f905f19906020036008021c90565b8154169055565b915f1960089290920291821b911b61072e565b921b90565b9181191691161790565b91906107496100a5610751936101f3565b908354610716565b9055565b6100c7915f91610738565b81811061076b575050565b806107785f600193610755565b01610760565b5f19600883021c1916906002021790565b905f916107aa6107a2825f5260205f2090565b92835461077e565b905555565b919290602082101561080557601f84116001146107d15761075192935061077e565b50906108006100c79360016107f76107ec855f5260205f2090565b92601f602091010490565b82019101610760565b61078f565b50610843829361081a6001945f5260205f2090565b61083c6020601f860104820192601f86168061084b575b50601f602091010490565b0190610760565b600202179055565b610857908886036106fd565b5f610831565b92909168010000000000000000821161068e57602011156108a757602081101561088a576107519161077e565b60019160ff191661089e845f5260205f2090565b55600202019055565b60019150600202019055565b9081546108bf816106d3565b908183116108e8575b8183106108d6575b50505050565b6108df936107af565b5f8080806108d0565b6108f48383838761085d565b6108c8565b634e487b7160e01b5f52601160045260245ffd5b8181029291811591840414171561092057565b6108f9565b5f6100c7916108b3565b634e487b7160e01b5f525f60045260245ffd5b905f03610952576100c790610925565b61092f565b906100c761096460405190565b928361066d565b6001600160401b03811161068e57602090601f01601f19160190565b90825f939282370152565b909291926109a76109a28261096b565b610957565b9381855281830111610095576100c7916020850190610987565b6100a5913691610992565b9190601f81116109db57505050565b6109eb6100c7935f5260205f2090565b906020601f840181900483019310610a0b575b6020601f9091010461083c565b90915081906109fe565b90610a1e815190565b906001600160401b03821161068e57610a4182610a3b85546106d3565b856109cc565b602090601f8311600114610a6e5761075192915f9183610a63575b505061077e565b015190505f80610a5c565b601f19831691610a81855f5260205f2090565b925f5b818110610abd57509160029391856001969410610aa5575b50505002019055565b01515f196008601f8516021c191690555f8080610a9c565b91936020600181928787015181550195019201610a84565b906100c791610a15565b94929493919350610aff610afb610af6865f610589565b61064f565b1590565b61061557610b14610b0f85610580565b610580565b906020610b2060405190565b6331a9108f60e11b81526004810188905292839060249082905afa918215610c01575f92610bc8575b50610b65906001600160a01b03165b916001600160a01b031690565b036106155781610b7b610b775f6101f3565b9190565b14610bae57926105db610b9c610b97610ba494610ba9976109c1565b6113ff565b936003610589565b610ad5565b600190565b5050610bc3610ba9926105db5f936003610589565b610942565b610b65919250610bf2610b589160203d602011610bfa575b610bea818361066d565b8101906106a0565b929150610b49565b503d610be0565b6106b4565b6100a594939291905f6105e5565b90610c216109a28361096b565b918252565b6100a55f610c14565b6100a5610c26565b6106496100a56100a59290565b80545f939291610c60610c56836106d3565b8085529360200190565b9160018116908115610caf5750600114610c7957505050565b610c8a91929394505f5260205f2090565b915f925b818410610c9b5750500190565b805484840152602090930192600101610c8e565b92949550505060ff1916825215156020020190565b906100a591610c44565b906100c7610ce892610cdf60405190565b93848092610cc4565b038361066d565b6100a590610cce565b610d08610afb610af6835f610589565b610d8c57610d1e916105db6100a5926002610589565b90610d285f610c37565b60ff821614610d8257610d3b6001610c37565b60ff821614610d7557610d58610d516002610c37565b9160ff1690565b14610d695760036100a59101610cef565b60026100a59101610cef565b5060016100a59101610cef565b506100a590610cef565b5050506100a5610c2f565b6100a5916105db610db292610daa606090565b506003610589565b610cef565b6100a5610d1e91610dc6606090565b506001610589565b9c9b9a99989796959493929190739a676e781a523b5d0c0e43731313a708cb60750833141580610e06575b610615576100a59d610ed5565b5073959922be3caee4b8cd9a407cc3ac1c251c2007b1331415610df9565b6105ae6100a56100a59290565b634e487b7160e01b5f52603260045260245ffd5b9190811015610e55576020020190565b610e31565b356100a5816100c9565b9063ffffffff9061072e565b6105ae6100a56100a59263ffffffff1690565b90610e936100a561075192610e70565b8254610e64565b9190600861072e91029161072963ffffffff841b90565b9190610ec26100a561075193610e70565b908354610e9a565b6100c7915f91610eb1565b9d97989d9c999b909c9a9496959392919a50610ef7610afb610af68d5f610589565b610615578c9b8e99849e8f610f0b916117c0565b85610f155f6101f3565b149a8282610f225f6101f3565b1460a0529050610f315f6101f3565b149583610f3d5f6101f3565b14998c15611233575050610f4f610c2f565b975b60a05115611220575050610f63610c2f565b9e5b851561120d575050610f75610c2f565b945b87156111fa575050610f87610c2f565b965b610f925f610e24565b63ffffffff8b161415806111e1575b806111ae575b61119d57610fb48b610580565b6080525f9c5b808e5b101561118957610fd6610fd18f8686610e45565b610e5a565b610fe1608051610580565b6020610fec60405190565b6331a9108f60e11b81526004810184905291829060249082905afa908115610c01578f905f92611161575b5061102a906001600160a01b0316610b58565b03610615578f610b779f610fbd928f8f8f8f8f8f8f8f6110c39a6002936110586100a58c6105db8d89610589565b971561115257506110695f88610942565b60a05115611140575061107f5f60018801610942565b1561113057505f611091918501610942565b1561111f57505f60036110a49201610942565b6110ad5f610e24565b63ffffffff8216036110cb575b50505060010190565b9e5050610fba565b6110d56001610e24565b63ffffffff82160361110257506110f56110fa926105db5f936004610589565b610eca565b5f8f8f6110ba565b9061111a926105db611115926004610589565b610e83565b6110fa565b600361112b9201610ad5565b6110a4565b61113b918501610ad5565b611091565b61114d9060018801610ad5565b61107f565b61115c9088610ad5565b611069565b61102a919250611181610b589160203d8111610bfa57610bea818361066d565b929150611017565b509c50505050505050505050505050600190565b632f3b04cd60e01b5f908152600490fd5b506111ba61c350610e24565b63ffffffff8b161080610fa757506111d4620f4240610e24565b63ffffffff8b1611610fa7565b506111ec6001610e24565b63ffffffff8b161415610fa1565b61120791610b97916109c1565b96610f89565b61121a91610b97916109c1565b94610f77565b61122d91610b97916109c1565b9e610f65565b61124091610b97916109c1565b97610f51565b6100a59c9b9a999897969594939291905f610dce565b989796959493929190739a676e781a523b5d0c0e43731313a708cb60750833141580611290575b610615576100a5996112ae565b5073959922be3caee4b8cd9a407cc3ac1c251c2007b1331415611283565b98969392979594919098506112c86100a560019a8b610589565b97806112d6610b775f6101f3565b0361139f57506112e890505f88610942565b806112f5610b775f6101f3565b036113825750506113085f878701610942565b80611315610b775f6101f3565b036113645750506113295f60028501610942565b81611336610b775f6101f3565b0361134a5750505f60036100a59201610942565b61135d610b976100a594936003936109c1565b9101610ad5565b610b976113749161137d936109c1565b60028501610ad5565b611329565b610b976113929161139a936109c1565b878701610ad5565b611308565b610b976113af916113b5936109c1565b88610ad5565b6112e8565b6100a59897969594939291905f61125c565b906113d5825190565b811015610e55570160200190565b6106496100a56100a59260ff1690565b6100a59060f81c6113e3565b80805161140f610b7760076101f3565b1415801561175a575b61157b5761144861144361143561142f60016101f3565b846113cc565b516001600160f81b03191690565b6113f3565b9060309161145583610c37565b60ff821610908115611743575b8161170d575b5061157b5761148061144361143561142f60026101f3565b61148983610c37565b60ff8216109081156116f6575b816116c0575b5061157b576114b461144361143561142f60036101f3565b6114bd83610c37565b60ff8216109081156116a9575b81611673575b5061157b576114e861144361143561142f60046101f3565b6114f183610c37565b60ff82161090811561165c575b81611626575b5061157b5761151c61144361143561142f60056101f3565b61152583610c37565b60ff82161090811561160f575b816115d9575b5061157b5761155a6114436114356115609361155460066101f3565b906113cc565b91610c37565b60ff8216109081156115c2575b8161158c575b5061157b5790565b631bf0ba5f60e21b5f908152600490fd5b90506115986061610c37565b60ff8216109081156115ac575b505f611573565b90506115bb610d516066610c37565b115f6115a5565b90506115ce6039610c37565b60ff8216119061156d565b90506115e56061610c37565b60ff8216109081156115f9575b505f611538565b9050611608610d516066610c37565b115f6115f2565b905061161b6039610c37565b60ff82161190611532565b90506116326061610c37565b60ff821610908115611646575b505f611504565b9050611655610d516066610c37565b115f61163f565b90506116686039610c37565b60ff821611906114fe565b905061167f6061610c37565b60ff821610908115611693575b505f6114d0565b90506116a2610d516066610c37565b115f61168c565b90506116b56039610c37565b60ff821611906114ca565b90506116cc6061610c37565b60ff8216109081156116e0575b505f61149c565b90506116ef610d516066610c37565b115f6116d9565b90506117026039610c37565b60ff82161190611496565b90506117196061610c37565b60ff82161090811561172d575b505f611468565b905061173c610d516066610c37565b115f611726565b905061174f6039610c37565b60ff82161190611462565b5061177061143561176a5f6101f3565b836113cc565b6001600160f81b031916602360f81b1415611418565b6100a5732279b7a0a67db372996a5fab50d91eaa73d2ebe6610580565b6001600160a01b0390911681526040810192916100c79160200152565b906117ca5f6101f3565b811461184d576117e2906117dc610200565b9061090d565b906117ee610b0f611786565b91823b1561009557611825925f928361180660405190565b80968195829461181a63befe68c760e01b90565b8452600484016117a3565b03925af18015610c01576118365750565b6100c7905f611845818361066d565b8101906101e9565b505056fea264697066735822122042f8405b730596b12491ed9689f0a31d801f49ee73c5e4d5bbd4279d4b7faca664736f6c634300081e0033","linkReferences":{}},"methodIdentifiers":{"RECOLOR_COST_PER_TOKEN()":"21af6754","addressColor(address,uint8)":"bdf08104","setCustomColorsForMany(address,address,uint256[],string,string,string,string,uint32)":"cfbf6ffe","setMyColors(address,string,string,string,string)":"ec6a5c5b","setTopAffiliateColor(address,address,uint256,string)":"0a8ca8ea","tokenColor(address,uint256,uint8)":"854104d7","topAffiliateColor(address,uint256)":"b6acc67b","trophyOuter(address,uint256)":"0520cb6a"},"id":13}