{"abi":[{"type":"function","name":"calcPrizePoolForLevelJackpot","inputs":[{"name":"lvl","type":"uint24","internalType":"uint24"},{"name":"rngWord","type":"uint256","internalType":"uint256"},{"name":"stethAddr","type":"address","internalType":"address"}],"outputs":[{"name":"effectiveWei","type":"uint256","internalType":"uint256"}],"stateMutability":"nonpayable"},{"type":"function","name":"deployTimestamp","inputs":[],"outputs":[{"name":"","type":"uint48","internalType":"uint48"}],"stateMutability":"view"},{"type":"function","name":"gameState","inputs":[],"outputs":[{"name":"","type":"uint8","internalType":"uint8"}],"stateMutability":"view"},{"type":"function","name":"level","inputs":[],"outputs":[{"name":"","type":"uint24","internalType":"uint24"}],"stateMutability":"view"},{"type":"function","name":"payCarryoverExterminationJackpot","inputs":[{"name":"lvl","type":"uint24","internalType":"uint24"},{"name":"traitId","type":"uint8","internalType":"uint8"},{"name":"randWord","type":"uint256","internalType":"uint256"},{"name":"coinContract","type":"address","internalType":"contract IDegenerusCoinModule"}],"outputs":[{"name":"paidEth","type":"uint256","internalType":"uint256"}],"stateMutability":"nonpayable"},{"type":"function","name":"payDailyJackpot","inputs":[{"name":"isDaily","type":"bool","internalType":"bool"},{"name":"lvl","type":"uint24","internalType":"uint24"},{"name":"randWord","type":"uint256","internalType":"uint256"},{"name":"coinContract","type":"address","internalType":"contract IDegenerusCoinModule"}],"outputs":[],"stateMutability":"nonpayable"},{"type":"function","name":"payExterminationJackpot","inputs":[{"name":"lvl","type":"uint24","internalType":"uint24"},{"name":"traitId","type":"uint8","internalType":"uint8"},{"name":"randWord","type":"uint256","internalType":"uint256"},{"name":"ethPool","type":"uint256","internalType":"uint256"},{"name":"coinContract","type":"address","internalType":"contract IDegenerusCoinModule"}],"outputs":[{"name":"paidEth","type":"uint256","internalType":"uint256"}],"stateMutability":"nonpayable"},{"type":"function","name":"payLevelJackpot","inputs":[{"name":"lvl","type":"uint24","internalType":"uint24"},{"name":"rngWord","type":"uint256","internalType":"uint256"},{"name":"effectiveWei","type":"uint256","internalType":"uint256"},{"name":"coinContract","type":"address","internalType":"contract IDegenerusCoinModule"}],"outputs":[],"stateMutability":"nonpayable"},{"type":"function","name":"payMapJackpot","inputs":[{"name":"lvl","type":"uint24","internalType":"uint24"},{"name":"randWord","type":"uint256","internalType":"uint256"}],"outputs":[],"stateMutability":"nonpayable"},{"type":"function","name":"processMapBatch","inputs":[{"name":"writesBudget","type":"uint32","internalType":"uint32"}],"outputs":[{"name":"finished","type":"bool","internalType":"bool"}],"stateMutability":"nonpayable"},{"type":"event","name":"PlayerCredited","inputs":[{"name":"player","type":"address","indexed":true,"internalType":"address"},{"name":"recipient","type":"address","indexed":true,"internalType":"address"},{"name":"amount","type":"uint256","indexed":false,"internalType":"uint256"}],"anonymous":false},{"type":"error","name":"MapJackpotPending","inputs":[]}],"bytecode":{"object":"0x60806040523461002257610011610026565b604051616187610281823961618790f35b5f80fd5b61002e610215565b565b9065ffffffffffff905b9181191691161790565b61005c6100596100599265ffffffffffff1690565b90565b65ffffffffffff1690565b9061007761005961007e92610044565b8254610030565b9055565b9062ffffff60d01b9060d01b61003a565b6100a06100596100599290565b62ffffff1690565b906100b861005961007e92610093565b8254610082565b9061ffff60e81b9060e81b61003a565b6100dc6100596100599290565b61ffff1690565b906100f361005961007e926100cf565b82546100bf565b907fff000000000000000000000000000000000000000000000000000000000000009060f81b61003a565b6101326100596100599290565b60ff1690565b9061014861005961007e92610125565b82546100fa565b906cff0000000000000000000000009060601b61003a565b151590565b9061017c61005961007e92610167565b825461014f565b9060ff60781b9060781b61003a565b906101a261005961007e92610167565b8254610183565b906001600160801b039061003a565b6101c56100596100599290565b6001600160801b031690565b906101e161005961007e926101b8565b82546101a9565b905f199061003a565b6100596100596100599290565b9061020e61005961007e926101f1565b82546101e8565b61022565ffffffffffff5f610067565b61025a6001610234815f6100a8565b6102406101a45f6100e3565b61024a5f80610138565b610254818061016c565b80610192565b61026c6658d15e1762800060026101d1565b61002e6806c6b935b8bbd4000060036101fe56fe6104406040526004361015610012575f80fd5b5f3560e01c80631195b2e0146100b157806347cefa0a146100ac578063607ad0d7146100a75780636fd5ae15146100a2578063909e88051461009d578063b80a290c14610098578063bf0e138414610093578063c110f1a51461008e578063d1f9c24d146100895763f5952bf7036100b65761046f565b61041b565b6103da565b610384565b61033b565b6102e5565b61027f565b610224565b6101d2565b61017b565b5f80fd5b62ffffff81165b036100b657565b905035906100d5826100ba565b565b60ff81166100c1565b905035906100d5826100d7565b806100c1565b905035906100d5826100ed565b6001600160a01b031690565b90565b6001600160a01b0381166100c1565b905035906100d58261010f565b919060a0838203126100b65761014181846100c8565b9261014f82602083016100e0565b9261010c61016084604085016100f3565b93608061017082606087016100f3565b940161011e565b9052565b346100b6576101ab61019a61019136600461012b565b93929092610618565b6040515b9182918290815260200190565b0390f35b91906040838203126100b65761010c9060206101cb82866100c8565b94016100f3565b346100b6576101eb6101e53660046101af565b9061078e565b604051005b5f9103126100b657565b61010c916008021c5b65ffffffffffff1690565b9061010c91546101fa565b61010c5f600e61020e565b346100b6576102343660046101f0565b6101ab61023f610219565b6040519182918265ffffffffffff909116815260200190565b61010c916008021c5b62ffffff1690565b9061010c9154610258565b61010c601a5f610269565b346100b65761028f3660046101f0565b6101ab61029a610274565b6040519182918262ffffff909116815260200190565b6080818303126100b6576102c482826100c8565b9261010c6102d584602085016100f3565b93606061017082604087016100f3565b346100b6576101eb6102f83660046102b0565b92919091610938565b8015156100c1565b905035906100d582610301565b6080818303126100b65761032a8282610309565b9261010c6102d584602085016100c8565b346100b6576101eb61034e366004610316565b92919091610d07565b63ffffffff81166100c1565b905035906100d582610357565b906020828203126100b65761010c91610363565b346100b6576101ab61039f61039a366004610370565b61197a565b60405191829182901515815260200190565b90916060828403126100b65761010c6103ca84846100c8565b93604061017082602087016100f3565b346100b6576101ab61019a6103f03660046103b1565b91611e1c565b61010c916008021c5b60ff1690565b9061010c91546103f6565b61010c601f5f610405565b346100b65761042b3660046101f0565b6101ab610436610410565b6040519182918260ff909116815260200190565b6080818303126100b65761045e82826100c8565b9261010c6102d584602085016100e0565b346100b6576101ab61019a61048536600461044a565b929190916120ac565b61049e61010c61010c9260ff1690565b63ffffffff1690565b6103ff61010c61010c9290565b61049e906104d26104c861010c9460ff1690565b9163ffffffff1690565b901b90565b61010c61010c61010c9262ffffff1690565b61010c906104d26104fd61010c9460ff1690565b9190565b61050e61010c61010c9290565b6001600160401b031690565b634e487b7160e01b5f52601160045260245ffd5b610549906001600160401b03165b916001600160401b031690565b02906001600160401b0382165b91820361055f57565b61051a565b61010c6105726107d0610501565b6105826601000100010001610501565b9061052e565b634e487b7160e01b5f52604160045260245ffd5b90601f01601f191681019081106001600160401b038211176105bd57604052565b610588565b906100d56105cf60405190565b928361059c565b61010c60e06105c2565b61010c61010c61010c9290565b906001600160a01b03169052565b61060861010c61010c9290565b61ffff1690565b61010c5f6105fb565b6106fc906106ec61070c946106df5f9761063d61010c9a976106375f90565b5061048e565b61067a61065361064d60086104a7565b836104b4565b821761066861066260106104a7565b846104b4565b179161067460186104a7565b906104b4565b17926106c461069b61068b886104d7565b61069560c06104a7565b906104e9565b926106bd6106a7610564565b986106b06105d6565b9d8e019062ffffff169052565b60208c0152565b6106d76106d05f6105e0565b60408c0152565b186060890152565b63ffffffff166080870152565b6001600160401b031660a0850152565b6001600160a01b031660c0830152565b61071461060f565b5f8061071f816105fb565b936121eb565b61010c9060a01c6103ff565b61010c9054610725565b61010c5f6104a7565b9060ff60a01b9060a01b5b9181191691161790565b6103ff61010c61010c9260ff1690565b9061077961010c61078092610759565b8254610744565b9055565b61010c60016104a7565b906107996001610731565b6107a161073b565b60ff811660ff8316146107e5576107b9906001610769565b6107ce6107c76103ff610784565b9160ff1690565b036107dc576100d5916123fc565b6100d591612304565b50505050565b61010c6107d06105fb565b9190610801565b9290565b820391821161055f57565b61050e906104d261053c61010c9460ff1690565b61082b611770610501565b610836610535610501565b61085d61084c61084660106104a7565b8361080c565b9161085760206104a7565b9061080c565b9061087661086c610536610501565b61085760306104a7565b9217171790565b61010c6109c46105fb565b61010c60196105fb565b61010c600c6105fb565b61010c9081565b61010c905461089c565b9190820180921161055f57565b905f199061074f565b906108d361010c610780926105e0565b82546108ba565b61010c60026104a7565b61020361010c61010c9290565b61010c620142bc6108e4565b61010c61010c61010c9265ffffffffffff1690565b634e487b7160e01b5f52601260045260245ffd5b905b908115610933570490565b610912565b90929161094c61094785612769565b612852565b90805f93849261095b5f6105e0565b8103610afb575b5061096d8783612a4b565b610975610820565b61097d6105d6565b62ffffff9094168452610991856020860152565b61099a5f6105e0565b966109a6886040870152565b6109b18b6060870152565b63ffffffff1660808501526001600160401b031660a08401526001600160a01b03881660c08401526109e161087d565b6109e9610888565b906109f2610892565b926109fc5f6105fb565b94610a0696612b21565b610a0f916107f6565b610a1960046108a3565b90610a23916108ad565b610a2e9060046108c3565b818103610ad8575b508103610a81575b5060016100d592610a7b610a76610a64610a5e610a596108f1565b6108fd565b426107f6565b610a70620151806105e0565b90610926565b6108e4565b92612f9d565b610a8b6001610731565b610a996107c76103ff61073b565b03610ac7576100d592610ac0600192610ab9610ab36108da565b85610769565b60676108c3565b9250610a3e565b63073631af60e21b5f908152600490fd5b610aee610af591610ae960056108a3565b6108ad565b60056108c3565b5f610a36565b92509350610b10610b0a6107eb565b836128e4565b9094909283610b216104fd5f6105e0565b141580610b6e575b610b59575b8390610b395f6105e0565b8203610b46575b50610962565b610b519293506107f6565b90825f610b40565b92509350610b665f6105e0565b938492610b2e565b50610b80610b7c86846129cb565b1590565b610b29565b61010c9060401c6103ff565b61010c9054610b85565b610ba79060ff166107c7565b019060ff821161055f57565b61010c600a6104a7565b61010c61010c61010c9261ffff1690565b8181029291811591840414171561055f57565b61010c6101416105fb565b61010c6113886105fb565b61026161010c61010c9290565b610c179062ffffff165b9162ffffff1690565b019062ffffff821161055f57565b61010c9060301c6001600160a01b031690565b61010c9054610c25565b600161010c910160ff1690565b9068ff00000000000000009060401b61074f565b90610c7361010c61078092610759565b8254610c4f565b61010c90610203565b61010c9054610c7a565b610ca69065ffffffffffff165b9165ffffffffffff1690565b90039065ffffffffffff821161055f57565b610cc99065ffffffffffff16610c9a565b908115610933570690565b61010c611a0b6105fb565b61010c61010c61010c926001600160801b031690565b61010c683635c9adc5dea000006105e0565b9291906101a0526101405261010052610d1e6108f1565b90610d2b610a5e836108fd565b610d3f610a766201518092610a70846105e0565b610180525f916110c757610d5861094761014051612769565b925f91610d645f610c83565b9065ffffffffffff80831603611045575b505050808291611013575b8190838093610d8e5f6105e0565b8103610f5c575b5091610e47610e5e92610e74959697610e6d9591610dcb610dc6610dc16002546001600160801b031690565b610cdf565b911590565b80610f4a575b610f0c575b50610e3790610e2a610ded61068b6101a0516104d7565b610e1e610df8610564565b95610e17610e046105d6565b6101a05162ffffff1681529960208b0152565b6040890152565b61014051186060870152565b63ffffffff166080850152565b6001600160401b031660a0830152565b610100516001600160a01b031660c082015261070c565b610e6860066108a3565b6107f6565b60066108c3565b610e7d5f6105e0565b8103610ee4575b50610e8e5f6105e0565b8103610eab575b506100d5610180515f6101405161010051612f9d565b610eb56001610731565b610ec36107c76103ff61073b565b03610ac757610ede90610ab9610ed76108da565b6001610769565b5f610e95565b610aee81610efc610e6d610f0694610e6860066108a3565b610ae960056108a3565b5f610e84565b610e37919250610f39610f4391610f34610f2660036108a3565b610f2e610cf5565b90610bce565b610926565b610a7060c86105e0565b9190610dd6565b50610f545f6105e0565b811415610dd1565b94509250610f71610f6b610cd4565b856128e4565b9095909485610f826104fd5f6105e0565b141580610ffd575b610fd4575b92610e5e92610e74959287610e6d96610fa75f6105e0565b8203610fbc575b505097969550925092610d95565b610e47945090610fcb916107f6565b9250875f610fae565b94509450610e7492610e6d92610e5e92610fed5f6105e0565b9788979295509295509250610f8f565b5061100e610b7c836101a0516129cb565b610f8a565b905061103f61103461102560966105e0565b61102f60066108a3565b610bce565b610a706127106105e0565b90610d80565b610a7061106a6110709461106461105e610a76966108fd565b916108fd565b906107f6565b916105e0565b65ffffffffffff81166101805165ffffffffffff1611611092575b8080610d75565b6110b491506110a49061018051610c8d565b6110ae60076108e4565b90610cb8565b6110c0610c9a5f6108e4565b145f61108b565b506113fd91506110de610947601661014051613062565b6110fb6110eb6001610b91565b6110f560016104a7565b90610b9b565b6111096107c76103ff610bb3565b10159161113661103461111c60076108a3565b610f2e61113161112c6001610b91565b61324c565b610bbd565b92836111496111436107eb565b826128e4565b90608052806101605261115e6104fd5f6105e0565b141580611725575b61170f575b6111745f6105e0565b61016051036116f8575b5061118b6101a0516104d7565b936111a061119960c06104a7565b80966104e9565b6111af81610140511883612a4b565b9190926112316111ce6111c0610be1565b94858561014051189161334d565b926112206111da610564565b916111f96111e66105d6565b6101a05162ffffff168152956020870152565b6112025f6105e0565b61012052611214610120516040870152565b61014051186060850152565b63ffffffff89166080840152610e37565b610100516001600160a01b031660c082015261127361124e610bec565b91611257610888565b61125f610892565b90848661126b5f6105fb565b998a95612b21565b60e0526101205161128360e05190565b14801560c081905260a0526116e6575b60a0516116bb575b61012051610160510361169c575b6112bf6112b66001610bf7565b6101a051610c04565b90851561157057506112d160046108a3565b926112e06101205160046108c3565b611334610f6b6113126113056112f961102560646105e0565b610f2e611131886135e7565b610a706305f5e1006105e0565b95611324610e6d88610e6860066108a3565b61132e81886108ad565b9661366b565b61012051919a918114158061155d575b611550575b610120518103611504575b509061136b6113a192611366856104d7565b6104e9565b61014051189384916113886113808489612a4b565b9390506136b9565b9061139281610bbd565b82106114e9575050869061334d565b610120518403611486575b50505050506113bd91925015151590565b80611479575b611462575b5061012051608051141590811561144d575b81611424575b50610b7c6113f66113f16001610b91565b610c42565b6001610c63565b611417575b6100d5610180515f6101405161010051612f9d565b61141f613a4c565b611402565b61143c9061143560805160676108c3565b60686108c3565b611447610ed7610784565b5f6113e0565b90506101205161145a8290565b1415906113da565b610e6d61147391610e6860066108a3565b5f6113c8565b50610120518114156113c3565b6113bd96506114986114dc969861373c565b6114bd6114a3610564565b6114b76114b060036105e0565b87166104a7565b906137cc565b906114c8600e610c38565b946114d161060f565b966101005195613818565b9050815f808080806113ac565b6114fe91610e686114f992610bbd565b6105fb565b9061334d565b946113a192916115178761136b936107f6565b96611529610aee82610ae960056108a3565b8915611539575b50919250611354565b610e6d61154a91610e6860066108a3565b5f611530565b5061012051995089611349565b5061156b610b7c8b866129cb565b611344565b9261157b6001610b91565b6115876107c75f6104a7565b036116865761159660036108a3565b6101205190818103611663575b506115af610dac6105e0565b811061161e57506113346115ff6113056115f36115cd6101906105e0565b6115d76001610b91565b6115e46107c760016104a7565b146116055761102f60066108a3565b610f2e611131876135e7565b94610f6b565b6116199061161360646105e0565b906108ad565b611025565b61162c6104fd6109c46105e0565b1061164d576113346115ff6113056115f361164861012c6105e0565b6115cd565b6113346115ff6113056115f361164860c86105e0565b6116809150610f3461167560056108a3565b610f2e6127106105e0565b5f6115a3565b6113346115ff6113056115f361164860646105e0565b6116b6610aee6116ac60056108a3565b61016051906108ad565b6112a9565b6116e16116da6116d06101605160e0516108ad565b610e6860046108a3565b60046108c3565b61129b565b6101205161016051141560a052611293565b61170891945061016051906107f6565b925f61117e565b6117185f6105e0565b806080526101605261116b565b50611736610b7c856101a0516129cb565b611166565b61010c9060b01c61049e565b61010c905461173b565b61010c61010c61010c9263ffffffff1690565b61010c9060901c61049e565b61010c9054611764565b61049e61010c61010c9290565b61010c600861177a565b61010c61030c61177a565b61010c9060d01c610261565b61010c905461179c565b61010c9060f81c6103ff565b61010c90546117b2565b600161010c910162ffffff1690565b6117e69063ffffffff166104c8565b029063ffffffff8216610556565b6109289063ffffffff166104c8565b6118129063ffffffff166104c8565b90039063ffffffff821161055f57565b634e487b7160e01b5f52603260045260245ffd5b80548210156118565761184e6001915f5260205f2090565b910201905f90565b611822565b61010c916008021c610100565b9061010c915461185b565b61010c90610100906001600160a01b031682565b61010c90611873565b61010c90611887565b906118a390611890565b5f5260205260405f2090565b61010c9061049e565b61010c90546118af565b6118d19063ffffffff166104c8565b019063ffffffff821161055f57565b61010c9081906001600160a01b031681565b9063ffffffff9061074f565b61049e61010c61010c9263ffffffff1690565b9061192161010c610780926118fe565b82546118f2565b9063ffffffff60b01b9060b01b61074f565b9061194a61010c610780926118fe565b8254611928565b9063ffffffff60901b9060901b61074f565b9061197361010c610780926118fe565b8254611951565b5f9061198d6119885f611747565b611751565b9261199760105490565b80851015611dd4576119a85f611770565b9283906119b45f61177a565b63ffffffff821603611da957506119c9611791565b935b6119d45f6117a8565b90816119df5f6117be565b6119ec6107c760036104a7565b14611d97575b506119fc5f6105e0565b88149081611d82575b50611d57575b611a1a5f97969594929761177a565b91611a25600a6108a3565b84881080611d42575b15611d2a57611a47611a41896010611836565b90611868565b611a5a611a55826011611899565b6118b8565b99611a645f61177a565b63ffffffff8c1614611d1857611a7a8689611803565b91611a85600261177a565b928c84611a915f61177a565b63ffffffff8616149182611d07575b5050611cf6575b63ffffffff841663ffffffff82161115611cda5783611ac591611803565b611ad061010061177a565b63ffffffff821611611cc057611af090611aea600261177a565b906117f4565b8c611b0063ffffffff83166104c8565b1115611cb857925b611b115f61177a565b63ffffffff851614611c835792828c9d92611bb3611c07968e9f611bed9e9f97868b91611b84938f611b52611b48611b5d926104d7565b61069560e06104a7565b9161069560c06104a7565b611b7b611b71611b6c8b611887565b6118e0565b61069560206104a7565b91171787613aba565b611b8f61010061177a565b63ffffffff861611611c6f57611bae611ba8600261177a565b866117d7565b6118c2565b938463ffffffff821663ffffffff861614611c42575b5090611be384611bf293611bfc9798500363ffffffff1690565b9c8d916011611899565b611911565b0163ffffffff1690565b950163ffffffff1690565b95611c146104c85f61177a565b14611c25575b979695949297611a25565b925096611c329060010190565b96611c3c5f61177a565b92611c1a565b611bfc955084611bf29392611c64611be393611c5e600161177a565b906118c2565b975092935050611bc9565b611bae611c7d61010061177a565b866118c2565b5050935050509650611cb394506104fd935061010c91505b611cad611ca78761177a565b5f61193a565b5f611963565b101590565b508b92611b08565b611cd590611ccf61010061177a565b90611803565b611af0565b5050935050509650611cb394506104fd935061010c9150611c9b565b9280611d01916118c2565b92611aa7565b63ffffffff1611159050848e611aa0565b505092949596611c3291985060010190565b50969050611cb394506104fd935061010c9150611c9b565b5063ffffffff861663ffffffff851610611a2e565b93611d7c90611ccf611d72611d6c602361177a565b836117d7565b611aea606461177a565b93611a0b565b9050611d906104c85f61177a565b145f611a05565b611da29192506117c8565b905f6119f2565b93611db2611787565b63ffffffff811663ffffffff871610611dcc575b506119cb565b94505f611dc6565b5092505050600190565b610cc99062ffffff16610c0e565b905051906100d5826100ed565b906020828203126100b65761010c91611dec565b6040513d5f823e3d90fd5b0190565b92915f90611e2a60056108a3565b611e3460046108a3565b90611e3e916108ad565b611e499060046108c3565b611e525f6105e0565b92611e5e8460056108c3565b611e6860066108a3565b611e7260046108a3565b611e7b916108ad565b9250611e878187613d87565b9390611e9290614064565b611e9c9082610bce565b611ea660c86105e0565b611eaf91610926565b611eba8160066108c3565b611ec3916107f6565b90611ece908761413f565b611ed89082610bce565b611ee260646105e0565b611eeb91610926565b90819003611ef960046108a3565b611f049060036108c3565b611f0f8160046108c3565b611f1a9060076108c3565b94611f256064610bf7565b611f2e91611dde565b611f375f610bf7565b9062ffffff1614611f4757505050565b611f53611f5891611890565b611890565b611f6130611890565b6020611f6c60405190565b6370a0823160e01b81526001600160a01b038316600482015292839060249082905afa9081156120a757611fa8925f92612076575b50316108ad565b90611fe7611fdd611fd3611fc9611fbf60046108a3565b61161360056108a3565b61161360066108a3565b61161360146108a3565b611613600c6108a3565b9283611ff360096108a3565b9082820361206c575b505061200860086108a3565b908103612062575b50828211908161204c575b50612025575b5050565b6120426120386100d593610e6d936107f6565b610a7060026105e0565b610ae960066108a3565b905061205b6104fd60056105e0565b105f61201b565b909201915f612010565b0193505f80611ffc565b61209991925060203d6020116120a0575b612091818361059c565b810190611df9565b905f611fa1565b503d612087565b611e0d565b93929091905f946120c7610a76610a64610a5e610a596108f1565b936120f16113056120e56120db60066108a3565b610f2e60646105e0565b610f2e611131866135e7565b906120fb5f6105e0565b8203612111575b5050506100d592915f91612f9d565b61218e97506100d59594926121975f9593610e376121316121b99561048e565b61214161065361064d60086104a7565b17610e2a61215161068b876104d7565b61217c61215c610564565b956121756121686105d6565b62ffffff909a168e8b0152565b6020890152565b6121858b6105e0565b9e8f6040890152565b89186060870152565b6001600160a01b03831660c08201526121ae61060f565b858061071f816105fb565b80976121c28290565b036121d4575b82949550819350612102565b610e6d6121e591610e6860066108a3565b5f6121c8565b9091929493946121f85f90565b9561221261220d608085015163ffffffff1690565b61373c565b9061224861222a60a08601516001600160401b031690565b6114b7612238606088015190565b61224260036105e0565b166104a7565b92612254602086015190565b6122606104fd5f6105e0565b036122c5575b505060408301516122796104fd5f6105e0565b036122b4575b50505061229e575b61228d57565b6100d5610e6d83610e6860066108a3565b6122af6116da84610e6860046108a3565b612287565b6122bd9261420a565b5f808061227f565b829850836122d39386614185565b955f80612266565b61010c9060501c6103ff565b61010c90546122db565b61010c906105e0565b61010c60fa6105fb565b61230e60676108a3565b916123185f6105e0565b83146123b8576100d59261232e61094783612769565b9161233960016122e7565b15612392577f93579e09b7f140ff32da8fe7cf95cd23f6c7c57da84aa7e012aef23dca86ccd75b61237561236f61068b876104d7565b916122f1565b911818906123816122fa565b9261238c60f46104a7565b94614359565b7f5c9c4f3531ef5aa983fdcc77e13b184b82ff1caaf0c0f3753d5a65f122bc9c61612360565b505050565b6123ce9061ffff165b9161ffff1690565b019061ffff821161055f57565b90610cc9565b6123ee9061ffff166123c6565b90039061ffff821161055f57565b9061240760676108a3565b61241160686108a3565b61241a5f6105e0565b82149081806126dd575b61252657612436610947601686613062565b9161244182856108ad565b9361244a6122fa565b61245381610bbd565b8610156126d85750612464856105fb565b5f9215928084806126c6575b156126ad57505061248081610bbd565b906124926114f988610f348686610bce565b9687926124a66114f983610f348a85610bce565b80996124b46123c65f6105fb565b1461269b575b6124c66123c65f6105fb565b14612689575b6124d689856123bd565b9161ffff841661ffff84161115612600575050906124f3916123e1565b9061ffff871661ffff8216106125ee579061250d916123e1565b915b612598575b505061251f5f6105e0565b8103612533575b50505050506100d5613a4c565b61254a61258e956125446001610bf7565b90610c04565b9361255761068b866104d7565b6125807f14a586a0716ec6b1deae0e118442269523a55aa8d7c09f8c7daa45c58eb21ff16122f1565b9118189161238c60e86104a7565b5f80808080612526565b6125e7916125a861068b896104d7565b6125d17f05261ef095dfcc4d7f2650299221c4b4e10103ef981618f807e44c6b2a2c65316122f1565b908818186125df60dc6104a7565b92868a614359565b5f80612514565b9295906125fa916123e1565b9461250f565b61261084939497959761ffff1690565b61ffff851610612624575b5050505061250f565b6104fd6107fd826126438b612648999e9961264e966126438d8a610bce565b6123db565b96610bce565b1115612673576126689291612662916123e1565b906123bd565b945b5f80808061261b565b61268392979491612662916123e1565b9161266a565b975061269560016105fb565b976124cc565b93506126a760016105fb565b936124ba565b90965083156126bd57509161250f565b9295509461250f565b506126d05f6105e0565b861415612470565b612464565b506126e75f6105e0565b8114612424565b6001600160401b0381116105bd5760200290565b61270e61010c916126ee565b6105c2565b369037565b906100d561272e61272884612702565b936126ee565b83612713565b61010c6004612718565b9060045b811015611856576020020190565b61010c906127646104fd61010c9460ff1690565b901c90565b906100d5612775612734565b6127b1612841612837839661224261106a603f926127b961279f612798866105e0565b83166104a7565b6127b16127ab5f6105e0565b8b61273e565b9060ff169052565b6127fa6127ed6127de6127d56127cf60066104a7565b85612750565b612242886105e0565b6127e860406104a7565b610b9b565b6127b16127ab60016105e0565b61282761281a6128106127d56127cf600c6104a7565b6127e860806104a7565b6127b16127ab60026105e0565b61283160126104a7565b90612750565b6127e860c06104a7565b9161284c60036105e0565b9061273e565b61287661287161286a6128645f6105e0565b8461273e565b5160ff1690565b61048e565b9061289d61289361287161286a61288d60016105e0565b8561273e565b61067460086104a7565b6108766128da61287161286a6128cf6128c561287161286a6128bf60026105e0565b8a61273e565b61067460106104a7565b9561284c60036105e0565b61067460186104a7565b9091906128f05f6105e0565b81148015612978575b61295a5761291f612915610dc16002546001600160801b031690565b610a7060046105e0565b926129295f6105e0565b841461296b5761293f91610f2e61103492610bbd565b82811061295a576129538361010c92610926565b9283610bce565b5090506129665f6105e0565b908190565b505090506129665f6105e0565b506129825f6105fb565b61ffff8416146128f9565b61026161010c61010c9262ffffff1690565b906118a39061298d565b61010c61010c61010c9260ff1690565b6101008210156118565760019061184e565b906129d65f9161373c565b905b6129e260046104a7565b60ff82161015612a4457612a1d612a186129fd85601561299f565b612a1261286a612a0c866129a9565b8761273e565b906129b9565b505490565b612a296104fd5f6105e0565b03612a3c57612a3790610c42565b6129d8565b505050600190565b5050505f90565b9190612a55612734565b612a5d612734565b90612a675f6105e0565b8514612a8357505080612a7c61010c9261486e565b93846149ac565b9350919050565b61010061010c61010c9290565b61010c90612a8a565b905051906100d582610301565b906020828203126100b65761010c91612aa0565b61010c60606105c2565b612ad3612ac1565b5f80825260208201819052604082015290565b61010c612acb565b612afb9061ffff166123c6565b029061ffff8216610556565b6109289061ffff166123c6565b516001600160a01b031690565b96959391909694929461020052610300526101e0526101c05261034052612b455f90565b91612b5d61220d608061020051015163ffffffff1690565b93612b89612b7860a06102005101516001600160401b031690565b6114b7612238606061020051015190565b918492612b955f6105fb565b6101e05161ffff1614156103205261032051612f36575b73a513e6e4b8f2a923d98304ec87f64353c4d5c85361024052612bdd612915610dc16002546001600160801b031690565b612bf3612bee606061020051015190565b614b60565b6102a0889052612c056101005f612a97565b610240516001600160a01b0316141580612efc575b612e81575b612c3c92612c31602061020051015190565b906103005191614b7a565b90612c45612ae6565b6102c0526102005160600151612c5c906102c05152565b6102e08690525b612c6d60046104a7565b6102e05160ff161015612e2857612c9d612c95612c8c6102e0516129a9565b6103005161273e565b5161ffff1690565b61022052612d97610ae9612d84612d71610ae9612d608c612cca612cc66127ab6102e0516129a9565b5190565b6102608e90526102808e90528b8b612ce260016105fb565b6102205161ffff1603612dac5750508c610260525b6102005160c001516001600160a01b031690612d2e61286a612d215f61020051015162ffffff1690565b9461284c6102e0516129a9565b6102c05151909290926102a05194610340519461028051946102605194610240519461022051945f6102e05193614c9c565b94935f6102c0999299949394510152565b61017760406102c0510191610ae9835190565b61017760206102c0510191610ae9835190565b612da36102e051610c42565b6102e052612c63565b6123c6612dc5612c95612dcd9361284c6102e0516129a9565b9261ffff1690565b1480612e1e575b80612e05575b15612cf757612dfc612df26101c05161022051612aee565b6101e05190612b07565b61028052612cf7565b50612e0f5f6105fb565b6101c05161ffff161415612dda565b5061032051612dd4565b9550505050505060206102c05101612e3e815190565b612e4a6104fd5f6105e0565b03612e5c575b506102c0516040015190565b612e74612e6a612e7b925190565b611e1860146108a3565b60146108c3565b5f612e50565b612e90611f5361024051611890565b926020612e9c60405190565b631ca27e4760e11b815294859060049082905afa80156120a757612c3c945f91612ecd575b506102a0529250612c1f565b612eef915060203d602011612ef5575b612ee7818361059c565b810190612aad565b5f612ec1565b503d612edd565b50612f065f6105fb565b61ffff8816141580612c1a5750610320518015612c1a5750612f275f6105fb565b6101c05161ffff161415612c1a565b6101e0519350612bac565b65ffffffffffff90911681526040810192916100d59160200152565b612f956100d594612f8c606094989795612f85608086019a5f87019065ffffffffffff169052565b6020850152565b15156040830152565b019015159052565b90911561300b57612fad90611890565b91823b156100b6576001925f92838593612fe3612fc960405190565b9788968795869463c93c82f560e01b865260048601612f5d565b03925af180156120a757612ff45750565b6100d5905f613003818361059c565b8101906101f0565b61301790929192611890565b91823b156100b657612fe3925f928361302f60405190565b80968195829461304363ef4f779a60e01b90565b845260048401612f41565b6103ff906104d26107c761010c9460ff1690565b91909161306d612734565b9081936130795f6104a7565b61308360086104a7565b908161308f91846151a1565b9061309a60076105e0565b84166130a5906104a7565b916130b060036104a7565b92836130bb9161304e565b176130c55f6105e0565b6130cf908761273e565b60ff9091169052806130e191846151a1565b6130eb8285612750565b6130f560076105e0565b166130ff906104a7565b916131099161304e565b1761311460406104a7565b9061311e91610b9b565b61312860016105e0565b613132908561273e565b60ff909116905261314360106104a7565b61314d60406104a7565b90613157926151a1565b61316160806104a7565b9061316b91610b9b565b61317560026105e0565b61317f908461273e565b60ff909116905261319060066104a7565b61319991612750565b6131a3603f6105e0565b166131ad906104a7565b6131b760c06104a7565b906131c191610b9b565b906131cc60036105e0565b6131d59161273e565b60ff9091169052565b61010c6102626105fb565b61010c6102a56105fb565b61010c6102ea6105fb565b61010c61032d6105fb565b61010c6103716105fb565b61010c6103b56105fb565b61010c6103f96105fb565b61010c61043d6105fb565b61010c6104816105fb565b61010c6104c96105fb565b6132555f6104a7565b60ff8216146133445761326860016104a7565b60ff82161461333b5761327b60026104a7565b60ff8216146133325761328e60036104a7565b60ff821614613329576132a160046104a7565b60ff821614613320576132b460056104a7565b60ff821614613317576132c760066104a7565b60ff82161461330e576132da60076104a7565b60ff821614613305576132f06107c760086104a7565b146132fd5761010c613241565b61010c613236565b5061010c61322b565b5061010c613220565b5061010c613215565b5061010c61320a565b5061010c6131ff565b5061010c6131f4565b5061010c6131e9565b5061010c6131de565b613355612734565b5080926133615f6105fb565b61ffff84161461359257613374826136b9565b9261337e81610bbd565b8411156133da5761338e90610bbd565b916133ab6133a1600194611064866105e0565b94611064856105e0565b93835f95869384835b6134e7575b50505050906133c7916107f6565b806133d46104fd5f6105e0565b036133e1575b5050505090565b6133f0839261283160186104a7565b9361340160039561224260036105e0565b90925b61340f575b506133da565b61341960046104a7565b60ff841610806134d5575b156134d05783926134436127d561343a846129a9565b611613846129a9565b8785613454612c95612864856129a9565b6134606123c6836105fb565b11613478575b50505061347290610c42565b92613404565b6134c7926134b86134b26134ac6134729799956134a7612c9561349d6134c1986105fb565b9261284c886129a9565b6123bd565b926129a9565b8c61273e565b9061ffff169052565b5f190190565b92908785613466565b613409565b506134df5f6105e0565b821415613424565b6134f160046104a7565b60ff8216101561358d5761350a612c95612864836129a9565b613513856105fb565b61ffff82161161352e575b5061352890610c42565b836133b4565b613528919661354785610f348961102f61357596610bbd565b90816135556104fd5f6105e0565b1461357c575b610ae98d6134b861356b856105fb565b9161284c8d6129a9565b959061351e565b9050613587866105e0565b9061355b565b6133b9565b5091505061010c6135a25f6105fb565b6135b8816134b86135b25f6105e0565b8661273e565b6135c9816134b86135b260016105e0565b6135da816134b86135b260026105e0565b6134b861286460036105e0565b6135f05f610bf7565b62ffffff821603613631575061010c6114f961362661361c6136115f6105e0565b610f2e6113886105e0565b610a7060636105e0565b610e686127106105e0565b6114f961362661361c61366661365661364c61010c966104d7565b61106460016105e0565b61366060646105e0565b906123db565b613611565b9061367681836108ad565b61367f5f6105e0565b81146136ad57610f346114f9926116136136a161010c96610f2e611131610bec565b91610f2e6111316107eb565b50505061010c5f6105fb565b61010c90611613611131612c9561370a6136f76136e4611131612c956136de5f6105e0565b8961273e565b611613611131612c956128bf60016105e0565b611613611131612c956136de60026105e0565b9361284c60036105e0565b6103ff61010c61010c9263ffffffff1690565b61049e906127646104c861010c9460ff1690565b906100d5613748612734565b6127b161284161378a839661377161375f82613715565b6127b161376b5f6105e0565b8861273e565b61379c61378f61378a61378460086104a7565b84613728565b613715565b6127b161376b60016105e0565b6137bc6137af61378a61378460106104a7565b6127b161376b60026105e0565b6137c660186104a7565b90613728565b91906137d6612734565b92835f5b6137e460046104a7565b60ff8216101561381157806113f161380061380c9387876152f5565b6134b86128bf846129a9565b6137da565b5093505050565b939990979298949691959661382a5f90565b91613833612ae6565b9961383c898c52565b83986138475f6105fb565b61ffff8816141580613a2e575b6139cd575b6002546001600160801b031661386e90610cdf565b9d8460049f61387d60046105e0565b61388691610926565b9261389090614b60565b9161389a94614b7a565b925b6138a58d6104a7565b60ff82161015613982578b8a8a8a8a8f8a8c916138c1896129a9565b6138cb908c61273e565b5161ffff16908c6138db8b6129a9565b6138e49161273e565b51986138ef8b6129a9565b6138f89161273e565b5160ff1690988a6139078b5190565b926139115f6105fb565b975f61391c9c614c9c565b93613925919552565b61392e916108ad565b90613938916108ad565b60408d0190613945825190565b9061394f916108ad565b6139569152565b60208c0190613963825190565b9061396d916108ad565b6139749152565b61397d90610c42565b61389c565b509a50505050505050505061010c9150604090602081016139a1815190565b6139ad6104fd5f6105e0565b036139b9575b50015190565b612e74612e6a6139c7925190565b5f6139b3565b98506139db611f5386611890565b60206139e660405190565b631ca27e4760e11b815291829060049082905afa9081156120a7575f91613a0f575b5098613859565b613a28915060203d602011612ef557612ee7818361059c565b5f613a08565b50613a3b6101005f612a97565b6001600160a01b0387161415613854565b602060165b818110613a5c575050565b5f8155600101613a51565b61010c610100612718565b61010c675851f42d4c957f2d610501565b61050e61010c61010c9260ff1690565b90610100612742565b600161010c910163ffffffff1690565b600161010c910161ffff1690565b909491929394613ac8613a67565b90613ad1613a67565b925f90613ae48298880163ffffffff1690565b96955b63ffffffff881663ffffffff88161015613ccd57613b238a613b1d613b18611988613b1260046104a7565b8c613728565b870190565b18610501565b600190613b2f82610501565b1781613b45613b3e600f61177a565b8b16613715565b613b85613b50613a72565b93613b78613b5d84613a83565b916001600160401b03878401165b026001600160401b031690565b016001600160401b031690565b90935b613b96575b50505050613ae7565b613ba560109b9293949b6104a7565b60ff8c161080613cb8575b15613cb05790613bd5613bcc858594026001600160401b031690565b613b7884610501565b908d613c11613be384615351565b613c0a613bfa613bf3600361177a565b8616613715565b613c0460066104a7565b9061304e565b0160ff1690565b90613c32613c288d613c22856129a9565b90613a93565b5163ffffffff1690565b613c578d613c4c613c4284613a9c565b91613c22876129a9565b9063ffffffff169052565b613c636104c85f61177a565b14613c84575b5050613c77613c7d91613a9c565b9b610c42565b9392613b88565b9e613c8e90613aac565b9e613c9890610bbd565b613ca2908d613a93565b60ff90911690525f8e613c69565b819a50613b8d565b5063ffffffff8c1663ffffffff831610613bb0565b9395509550959650613ce6613ceb9161283160e06104a7565b610bf7565b5f52601560205260405f20945b61ffff87165b61ffff82161015613d7357613d1e61286a613d1883610bbd565b85613a93565b613d33613c28613d2d836129a9565b87613a93565b908701805480830182555f91825260208220015b828210613d6457505050613d5d613cfe91613aac565b9050613cf8565b87815560019182019101613d47565b50945050505050565b61010c6101a46105e0565b905f91613d9d613d976064610bf7565b82611dde565b613da9610c0e5f610bf7565b1461404557613dc4613dbe633b9aca006105e0565b836123db565b613dd26104fd61010c613d7c565b1461403857613de16050610bf7565b62ffffff8216101580614020575b613f6757613dfd6063610bf7565b62ffffff821614613f5a57613e769250613e176004610bf7565b62ffffff821611613f1057613e2b5f610bf7565b62ffffff82161115613ef257613e66613e70613e66613e5c613e5261364c611613966104d7565b610f2e60086105e0565b610ae960086105e0565b610f2e60026105e0565b9261567e565b80613e846104fd60c46105e0565b11613ee2575b613e9881610e6860c86105e0565b613ea260226105e0565b81109081613ecb575b50613ebb575b9061010c5f6105e0565b50613ec660a66105e0565b613eb1565b9050613eda6104fd603c6105e0565b14155f613eab565b50613eed60c46105e0565b613e8a565b50611613613e66613e70613e66613e5c613f0b5f6105e0565b613e52565b613e666116139183613f22604f610bf7565b62ffffff831611613f515750613f47613f3d613e70926104d7565b61106460046105e0565b610ae960406105e0565b613e70916154dc565b505050613eb160c46105e0565b613eb1925090611613613fd283613fae613f9d613f93613f8961400f986104d7565b61106460506105e0565b610ae9604b6105e0565b91613fa8600a610bf7565b90611dde565b613fbb610c0e6009610bf7565b0361401457611613613fcd60056104a7565b6129a9565b917f72b1f89425766e300268d62720107b0321b629a59d167cfb36c5a1873ebb7810613ffe60046104a7565b9061400960036104a7565b926153de565b61549a565b611613613fcd5f6104a7565b5061402b6062610bf7565b62ffffff82161115613def565b505050613eb160146105e0565b50614050915061538d565b906104fd61405e60026105e0565b83610bce565b908161407060666108a3565b9061407a5f6105e0565b821461413a575061408b60656108a3565b8181101580614127575b156140ec575050906140a760036105e0565b8111156140dc576140bc9061106460046105e0565b905b6140c860c46105e0565b82116140d057565b905061010c60c46105e0565b506140e65f6105e0565b906140be565b818110918261410c575b5050156140be57906140e69061161360046105e0565b8192506107fd61411f926104fd926107f6565b115f806140f6565b5061413282826107f6565b821115614095565b925050565b61414d90613fa86014610bf7565b61415a610c0e6010610bf7565b1461417a5761417061010c9161366060156105e0565b610ae960146105e0565b5061010c60286105e0565b61010c949392919060608101926141a261419d855190565b61486e565b926141bc60208401946141b3865190565b87515b916149ac565b9273a513e6e4b8f2a923d98304ec87f64353c4d5c8539561420460c06141f56141f06141eb865162ffffff1690565b995190565b935190565b9301516001600160a01b031690565b95613818565b90916100d592606083019161422061419d845190565b9161426a5f9361423b610dc16002546001600160801b031690565b946040880195614249875190565b6142556104fd5f6105e0565b1415806142f4575b6142d5575b5086516141b6565b92614276612bee865190565b9461428f61428a6141f0895162ffffff1690565b915190565b966142cd60c06142be7fb4a03e5d47449c5970e463d3dba42755269512690ded8fe2b399b6ec4b1b52c26122f1565b9201516001600160a01b031690565b971891615733565b6142ee91506142e69061102f885190565b610a70610cf5565b5f614262565b506142fe5f6105e0565b81141561425d565b600161010c910361ffff1690565b61010c60fa6104a7565b61060861010c61010c9260ff1690565b6103ff61010c61010c9261ffff1690565b90614348825190565b811015611856576020809102010190565b9591939492906143685f6105e0565b8514614865576143779061373c565b91614380612734565b905f9081958297835b8b61439460046104a7565b60ff8316101561441257612a186143af6143c492601561299f565b612a1261286a6143be866129a9565b8d61273e565b6143d06104fd5f6105e0565b036143e4575b6143df90610c42565b614389565b979861440a6143df916144036143fe8c61136660016105e0565b6104a7565b179a610c42565b9890506143d6565b505090919397959294986144255f6104a7565b60ff8916146148585761443790610bbd565b610400819052811061484e575b6144816114f96144786144656114f961445c8c6129a9565b61040051610926565b99610f2e6144728c610bbd565b916129a9565b610400516107f6565b998a99865b61449060046104a7565b60ff821610156144e857808b8b6144b16143fe6144cc9561136660016105e0565b8c166144bf6107c75f6104a7565b036144d1575b5050610c42565b614486565b6134b86144e19261284c856129a9565b8b8b6144c5565b5093989499919692975094996145006123c65f6105fb565b0361477a575b50506145156104005185610926565b6103c05261452661040051856123db565b6103a05261453761040051826123db565b6103e052610420889052610360889052955b61455360046104a7565b6103605160ff16101561477057614572612c95612864610360516129a9565b8061457c5f6105fb565b61ffff82160361459e575b505061459561036051610c42565b61036052614549565b6145a9989198614314565b906145b66123c68361431e565b1161475a575b50614629906145ec866145d1610360516129a9565b926145e56145df60406104a7565b856104e9565b18186157f4565b809961460f61460961286a6146028a601561299f565b958d61273e565b9161432e565b91614624614620610360518c610b9b565b9490565b615879565b61038081905251610340526103208890525b610340516103205110156147535761465c612b14610320516103805161433f565b6103c0519061466a5f6105e0565b6103a05103614705575b6146806101005f612a97565b6001600160a01b0382161415806146f3575b6146b4575b50506104205160010161042052610320516001016103205261463b565b6146d66146dc9263ffffffff6146c981611751565b82116146e3575b5061177a565b906159e4565b5f80614697565b6146ed9150611751565b5f6146d0565b506146fd5f6105e0565b821415614692565b6147226147186103e051610420516108ad565b61040051906123db565b61472f6104fd6103a05190565b101561467457905061474d61474460016105e0565b6103c0516108ad565b90614674565b5f80614587565b6146299198506147699061431e565b97906145bc565b9650505050505050565b946003999499989396919792989961479c61479560036105e0565b8b166104a7565b6147a55f6105fb565b61ffff89161461483b576001896147c26143fe84611366856105e0565b8c166147d06107c75f6104a7565b036147f3575b50906110f56147e4926104a7565b6147ed8c6104a7565b1661479c565b614830829a61482b6110f5936134b86148216148126147e499986105fb565b6134a7612c956135b28b6129a9565b9161284c886129a9565b614306565b9991925050896147d6565b5094995094509491969095505f80614506565b8061040052614444565b5050505095505050505050565b50509350505050565b90614877612734565b8092614881612734565b61489a61488e60196105fb565b6134b86128645f6105e0565b6148a4600f6105fb565b916148b86001936134b861288d60016105e0565b6148d26148c560086105fb565b6134b861288d60026105e0565b6148f36148df60016105fb565b916122386003936134b8612a0c60036105e0565b5f845b614903575b505050505050565b61490d60046104a7565b60ff8216101561494657806113f1613800612c9561376b6149318761494097610b9b565b61493a896104a7565b166129a9565b846148f6565b6148fb565b61010c678ac7230489e800006105e0565b61010c6802b5e3af16b18800006105e0565b61010c680ad78ebc5ac62000006105e0565b61010c619c406105fb565b61010c614e206105fb565b61010c6127106105fb565b61010c61012c6105fb565b9190916149b7612734565b50806149c161494b565b90818510614b5857505f936149d461495c565b9182821015614b0157614a1b6149fa826149f4610ae994614a21976107f6565b946107f6565b92610f34614a06614996565b94610f2e61113187614a1661498b565b6123e1565b91610bbd565b614a2c611131614996565b8103614a41575b5061010c92506114fe6149a1565b91925b614a4e60046104a7565b60ff82161015614af45780614a6b612c9561288d614a86946129a9565b614a7560016105fb565b61ffff821611614a8b575b50610c42565b614a44565b614aca614a9a614ad692610bbd565b614aa76110348883610bce565b90808210614aec575b5061ffff614abd81610bbd565b8211614adc575b506105fb565b6134b86135b2846129a9565b5f614a80565b614ae69150610bbd565b5f614ac4565b90505f614ab0565b5061010c9291505f614a33565b50614b0a61496e565b80821015614b4a57614a1b614b29846149f4614b4596610ae9956107f6565b92610f34614b3561498b565b94610f2e61113187614a16614980565b614a21565b505050614b45611131614980565b935050505090565b61010c90612242614b7160036105e0565b809216826107f6565b9290919493614b87612734565b908192614b915f90565b93845b614b9e60046104a7565b60ff82161015614c7d57868a60ff851660ff841603614bc8575b5050614bc390610c42565b614b94565b918097614c00611034614bfa611131612c95614c1d9761284c614bf4612c95614bc39c61284c8c6129a9565b986129a9565b8d610bce565b8092614c0b5f6105fb565b61ffff821603614c27575b50506108ad565b959050868a614bb8565b614c305f6105e0565b8903614c53575b5050614c4c82614c496127ab8c6129a9565b52565b5f80614c16565b614c75929350614c6e614c6861102f92610bbd565b8a610bce565b8092610926565b905f80614c37565b50975093505061284c614c96614c49936100d5966107f6565b936129a9565b9c9b96919597939c9a929994989a61042052610400526103e05261036052614cc15f90565b968790889680614cd05f6105e0565b8a1461513757506103e0516103c052614ce85f6105fb565b6103e05161ffff16146151205790614d3589614d75938f614d2b6145e591614d0e614314565b614d178161431e565b6103e05161ffff161161510d575b506129a9565b61069560406104a7565b6103a0526103a0519c614d4987601561299f565b91614d6b614d67614d5c6103c05161432e565b936127e860c86104a7565b9390565b6103a05190615879565b61038081905251614d886104fd5f6105e0565b146150f457614da2614d9c6103c051610bbd565b88610926565b98614dac5f6105e0565b8a146150de57614dbb5f612a97565b976001600160a01b0389166001600160a01b038516610400511591141581806150c8575b806150c1575b806150a8575b614fe1578180614fcb575b80614fc4575b15614f5557505050505091614e2393918a89614e1c956103805190615dc0565b90926108ad565b955b61038051519561040051614f01578497855b885b811015614eac57614e50612b14826103805161433f565b6001600160a01b0387166001600160a01b03821603614e7a575b50614e39906001015b9050614e37565b614ea4614e3992989b614e9e614e98614e73948d6103605191615bf0565b926108ad565b9c6108ad565b979150614e6a565b5092965092509350614ebd5f6105e0565b861480614ef0575b614edb5785614ed3916108ad565b929493929190565b9294509050614ee95f6105e0565b9291908390565b50614efa5f6105e0565b8314614ec5565b9496925090925b855b811015614f4557614f3e81614f3789614f2c612b14614f0a966103805161433f565b600161042051615f1a565b5060010190565b9050614f08565b50945090925090614ee95f6105e0565b90809294999e9897965094929491614fac575b81614fa4575b50614f7e575b5050505050614e25565b859b965094614e1c949392918a614f99976103805190615d51565b955f80808080614f74565b90505f614f6e565b9050614fb75f6105fb565b61ffff8516141590614f68565b5080614dfc565b50614fd55f6105fb565b61ffff88161415614df6565b505050925097929398999650935061501761500a612b146150015f6105e0565b6103805161433f565b956001600160a01b031690565b6001600160a01b0386161461508d5761103461405e61503592610bbd565b9181936150415f6105e0565b8403615066575b5050505061505d929394506103605191615bf0565b91939092918391565b61505d96975061507f945097610e68918487819b615a92565b93929150835f808080615048565b50505050509150509061509f5f6105e0565b90819082908390565b506150b360016105fb565b6103c05161ffff1614614deb565b5080614de5565b506150d25f6105fb565b61ffff85161415614ddf565b50989996505050505092505092614ee95f6105e0565b50505050505050505090506103a0519061509f5f6105e0565b6151169061431e565b6103c0525f614d25565b9a9b50505050505050505050509061509f5f6105e0565b9b9c5050505050505050505050509061509f5f6105e0565b909190605083101561185657600861516660049290565b8185040193060290565b61010c916008021c61049e565b9061010c9154615170565b6151949060ff166107c7565b90039060ff821161055f57565b90916151ac5f6104a7565b60ff821614801561529e575b615292576151d16151cb6134ac856129a9565b826108ad565b806151df6104fd60506105e0565b11615282575b9290615218916151f45f6104a7565b94615208615202838761514f565b9061517d565b92600194859161161360016105e0565b905b615228575b50505050505090565b8181101561527d5761523d615202828861514f565b63ffffffff851663ffffffff82161161525c575b506001015b8461521a565b909650925061525661527683615271896104a7565b615188565b9690615251565b61521f565b5061528d60506105e0565b6151e5565b50505061010c5f6104a7565b506152a960506104a7565b60ff841610156151b8565b6152c09060ff166107c7565b029060ff8216610556565b61050e9061276461053c61010c9460ff1690565b61060861010c61010c926001600160401b031690565b6153306153206122386153166153369561161361447261010c99614d255f90565b61161360016105e0565b61532a60106104a7565b906152b4565b906152cb565b6152df565b61049e61010c61010c926001600160401b031690565b61538961537e61536961537961536e6153698661533b565b615fdd565b9461533060206104a7565b61533b565b91613c0460036104a7565b1790565b61010c906116136153c36153cd6153ad6153a7600b6105e0565b856123db565b6116136153c36153bd60106104a7565b87612750565b613660600b6105e0565b9261283160206104a7565b01918252565b93919061541661542261543a926153f25f90565b976153fc60405190565b9384926020840192836020816153d8611e18938396959052565b9081038252038261059c565b61543461542d825190565b9160200190565b206122f1565b91845b60ff85165b60ff871610156154925761548961548361547861544293611e1861546e615468896129a9565b8a6123db565b611e1860016105e0565b9561283160106104a7565b96610c42565b9593905061543d565b945092505050565b6154a460626105e0565b81116154b9575b61010c90610f2e60026105e0565b5061010c6154c760626105e0565b90506154ab565b6109289062ffffff16610c0e565b613e669061010c926154eb5f90565b506155076155026154fc6064610bf7565b84611dde565b6104d7565b615511600a610bf7565b62ffffff8416101561558c57505061553561552b826104d7565b610f2e60056105e0565b905b615544613d97600a610bf7565b615551610c0e6009610bf7565b1461556e575b615502611613916155686064610bf7565b906154ce565b906155026155836116139261161360056105e0565b92915050615557565b6155966014610bf7565b62ffffff841610156155c457506155b46155be9161366060106105e0565b610ae960376105e0565b90615537565b6155ce6028610bf7565b62ffffff841610156155ec57506155b46155be9161366060156105e0565b6155f6603c610bf7565b62ffffff8416101561561e57506156146155be9161366060156105e0565b610ae9603c6105e0565b6156286050610bf7565b62ffffff8416101561564657506156146155be91613660601a6105e0565b6156536104fd60636105e0565b0361566357506155be605d6105e0565b6156746155be91613660601a6105e0565b610ae960416105e0565b6157296156c161541661542261010c946156955f90565b507fff0b075b6010a7aab87642f02b8acc93ba322b9d9b52e045181cd673fc101989906153fc60405190565b610ae96156dd6156d1600f6105e0565b831661366060046105e0565b91614e986157146157096156f46127cf60086104a7565b6156fe600f6105e0565b1661366060046105e0565b9261283160106104a7565b61571e60ff6105e0565b16613660600e6105e0565b61161360036105e0565b979294919396959061575f9183615748610cf5565b9961575960049b610a7060046105e0565b93614b7a565b915f935b61576c886104a7565b60ff861610156157e9576157e16157d75f8b60018b8a8a61576c988e6157b961286a6157af8f6157a5612c95612cc69261284c8b6129a9565b9661284c896129a9565b9261284c876129a9565b936157c389612a97565b946157cd8a6105fb565b9889988998614c9c565b5050505095610c42565b949050615763565b509650505050505050565b61580761580160076104a7565b826104e9565b1861581b61581560096104a7565b82612750565b1861582961580160086104a7565b1890565b6001600160401b0381116105bd5760208091020190565b9061585161270e8361582d565b918252565b906100d561586c61586684615844565b9361582d565b601f190160208401612713565b61589383615897929695939661588d606090565b506129b9565b5090565b916158a0835490565b916158aa5f6105e0565b83148015615970575b615959576158c3909695966129a9565b956158cd87615856565b946158eb61068b6134ac6158e189966129a9565b61069560806104a7565b911818945f5b8781101561594f5761592690615920615916611a41615910888c6123db565b89611836565b6105ed838a61433f565b60010190565b9561594861593d61593760106104a7565b83612750565b9161069560f06104a7565b17956158f1565b5094509450505050565b50505050505061010c61596b5f6105e0565b615856565b5061597a5f6104a7565b60ff8216146158b3565b916001600160a01b0360089290920291821b911b61074f565b91906159ae61010c61078093611890565b908354615984565b90815491680100000000000000008310156105bd57826159de9160016100d595018155611836565b9061599d565b6159ed5f61177a565b63ffffffff83161461202157611bed615a306100d593615a11611a55856011611899565b615a1a5f61177a565b63ffffffff821614615a38570163ffffffff1690565b916011611899565b611bf28560106159b6565b6001600160a01b0390911681526040810192916100d59160200152565b6001600160a01b0390911681526060810193926100d5929091604091615a87906020830152565b019062ffffff169052565b90919293615a9f5f6105e0565b84148015615bd3575b615bcc57615b2e57611f53615abc91611890565b92833b156100b657615aef93835f8094615ad560405190565b9788958694859363feb3a1e360e01b855260048501615a60565b03925af19081156120a7576100d592615b1292615b19575b50610ae9600c6108a3565b600c6108c3565b615b28905f613003818361059c565b5f615b07565b615b6d9350602091615b43611f538593611890565b905f615b4e60405190565b809781958294615b62631a301ca060e01b90565b845260048401615a43565b03925af19182156120a757615b8c92615baf575b50610a7060026105e0565b615b955f6105e0565b8103615b9e5750565b615b126100d591610ae9600c6108a3565b615bc79060203d6020116120a057612091818361059c565b615b81565b5050505050565b50615be06101005f612a97565b6001600160a01b03841614615aa8565b9290915f938493615c036101005f612a97565b6001600160a01b038316148015615d40575b615d31578092615c245f6105fb565b61ffff821603615c55575b5050615c3a5f6105e0565b8203615c44575050565b8192945090615c52916160f6565b91565b615c6d612915610dc16002546001600160801b031690565b90615c775f6105e0565b8203615c84575b50615c2f565b611034615c93615c9992610bbd565b84610bce565b818110615c7e5781615caa91610926565b9063ffffffff82615cbd6104fd83611751565b11615d1b575b50615cce9082610bce565b90615cd85f6105e0565b8214615c7e57615cfa91929650615d12939450615cf49061177a565b846159e4565b615d0b610aee82610ae960056108a3565b80946107f6565b905f8080615c7e565b615cce919250615d2a90611751565b9190615cc3565b5050509150506129665f6105e0565b50615d4a5f6105e0565b8114615c15565b9392611034615d779198979698615d655f90565b50610f2e615d71855190565b9a610bbd565b828110615daf57615da397615d8f84615d9d93610926565b90808211615da757506105fb565b93615dc0565b9091565b90505f614ac4565b50505050505050506129665f6105e0565b939591949092915f80988190615dd4875190565b95615dde5f6105fb565b61ffff8c16148015615f09575b615ef45786615df98c610bbd565b11615ed4575b6114f987615e0c926123db565b929a5b615e188b610bbd565b8c1015615ec5578b615e43612b14615e3d8a612643615e368a610bbd565b95866108ad565b8b61433f565b90615e4d5f612a97565b916001600160a01b0383166001600160a01b03821614615eae57615e18938f615ea3948f938f8f908f8f8f96615e9c9a610ae9610ae999612643948d6105ed9a615e9699615a92565b9061433f565b9c60010190565b9a5b9a9b9050615e0f565b5050509a615ebf615e189160010190565b9a615ea5565b9a509098509650505050505050565b9950615e18615e0c6114f988615ee9816105fb565b9d9350505050615dff565b5099505050505050505050506129665f6105e0565b50615f135f6105e0565b8714615deb565b90615f276101005f612a97565b6001600160a01b038416148015615fb9575b615fb15715615fa157615f4b90611890565b91823b156100b657615f77925f9283615f6360405190565b809681958294615b62633e8b68b060e01b90565b03925af180156120a757615f8c575b50600190565b615f9b905f613003818361059c565b5f615f86565b5090615fac916160f6565b600190565b505050505f90565b50615fc35f6105e0565b8414615f39565b61050e61010c61010c9263ffffffff1690565b615379616001615ff761600b93615ff15f90565b50615fca565b613b6b604b610501565b61533060206104a7565b616015600a61177a565b63ffffffff8216106160ec5761602b601461177a565b63ffffffff8216106160e157616041601e61177a565b63ffffffff8216106160d657616057602861177a565b63ffffffff8216106160cb5761606d603161177a565b63ffffffff8216106160c057616083603a61177a565b63ffffffff8216106160b55761609c6104c8604361177a565b106160ab5761010c60076104a7565b61010c60066104a7565b5061010c60056104a7565b5061010c60046104a7565b5061010c60036104a7565b5061010c60026104a7565b5061010c60016104a7565b5061010c5f6104a7565b907f8d6d307cfee7f8fbe2b0a9eebc059c714d0108fa855c944761169ccff9442d6b61614061614c93611f5361612d826013611899565b61613a86611e18836108a3565b906108c3565b92839261019e60405190565b0390a356fea2646970667358221220fc3c91b01764ca0ae19e03c74e1067aaea8d347393a6a3cbaf9bc015f7e737af64736f6c634300081e0033","linkReferences":{}},"methodIdentifiers":{"calcPrizePoolForLevelJackpot(uint24,uint256,address)":"c110f1a5","deployTimestamp()":"607ad0d7","gameState()":"d1f9c24d","level()":"6fd5ae15","payCarryoverExterminationJackpot(uint24,uint8,uint256,address)":"f5952bf7","payDailyJackpot(bool,uint24,uint256,address)":"b80a290c","payExterminationJackpot(uint24,uint8,uint256,uint256,address)":"1195b2e0","payLevelJackpot(uint24,uint256,uint256,address)":"909e8805","payMapJackpot(uint24,uint256)":"47cefa0a","processMapBatch(uint32)":"bf0e1384"},"id":37}