{"abi":[{"type":"function","name":"trophySvg","inputs":[{"name":"params","type":"tuple","internalType":"struct IIconRendererTrophy32Svg.SvgParams","components":[{"name":"tokenId","type":"uint256","internalType":"uint256"},{"name":"exterminatedTrait","type":"uint16","internalType":"uint16"},{"name":"isAffiliate","type":"bool","internalType":"bool"},{"name":"isBaf","type":"bool","internalType":"bool"},{"name":"lvl","type":"uint24","internalType":"uint24"},{"name":"invertFlag","type":"bool","internalType":"bool"}]}],"outputs":[{"name":"","type":"string","internalType":"string"}],"stateMutability":"view"},{"type":"error","name":"E","inputs":[]}],"bytecode":{"object":"0x608060405234601957604051612ab761001e8239612ab790f35b5f80fdfe6101006040526004361015610012575f80fd5b5f3560e01c637d9c30251461009f575b5f80fd5b908160c09103126100225790565b9060c0828203126100225761004891610026565b90565b90825f9392825e0152565b61007761008060209361008a9361006b815190565b80835293849260200190565b9586910161004b565b601f01601f191690565b0190565b602080825261004892910190610056565b34610022576100c66100ba6100b5366004610034565b6107f0565b6040519182918261008e565b0390f35b805b0361002257565b35610048816100ca565b61ffff81166100cc565b35610048816100dd565b8015156100cc565b35610048816100f1565b62ffffff81166100cc565b3561004881610103565b6101256100486100489290565b61ffff1690565b61004861fffa610118565b6101486100486100489261ffff1690565b60ff1690565b6101486100486100489290565b6101489061017661016f6100489460ff1690565b9160ff1690565b901c90565b6100489061018f906001600160a01b031682565b6001600160a01b031690565b6100489061017b565b6100489061019b565b610048730dcd1bf9a1b36ce34237eeafef220932846bcd826101a4565b6101a4565b610048733aa5ebb10dc797cac828524e59a333d0a371443c6101a4565b634e487b7160e01b5f52604160045260245ffd5b90601f01601f1916810190811067ffffffffffffffff82111761022257604052565b6101ec565b9061023b61023460405190565b9283610200565b565b67ffffffffffffffff811161022257602090601f01601f19160190565b9092919261026f61026a8261023d565b610227565b93818552818301116100225761023b91602085019061004b565b9080601f830112156100225781516100489260200161025a565b9060208282031261002257815167ffffffffffffffff8111610022576100489201610289565b6102d29061018f565b9052565b91602061023b9294936102f060408201965f8301906102c9565b0152565b6040513d5f823e3d90fd5b6100486100486100489290565b61031c6100486100489260ff1690565b63ffffffff1690565b6101489061033961016f6100489460ff1690565b901b90565b9061034b61026a8361023d565b918252565b61035a600461033e565b632331313160e01b602082015290565b610048610350565b63ffffffff81166100cc565b9050519061023b82610372565b90602082820312610022576100489161037e565b61031c6100486100489290565b6100486100486100489263ffffffff1690565b634e487b7160e01b5f52601160045260245ffd5b818102929181159184041417156103e657565b6103bf565b634e487b7160e01b5f52601260045260245ffd5b90610409565b9190565b908115610414570490565b6103eb565b610048620be6e061039f565b610048620975e061039f565b6100486082610118565b6100486100486100489261ffff1690565b811561041457600160ff1b81145f198314166103e6570590565b600160ff1b81146103e6575f0390565b9190828101925f138015918412918216911516176103e657565b61004873e7f1725e7734ce288f8367e1bb143e90bb3f05126101a4565b61008a6104c5926020926104bf815190565b94859290565b9384910161004b565b916104fa61050061050e936104fa610048966d3c67207472616e73666f726d3d2760901b8152600e0190565b906104ad565b61139f60f11b815260020190565b631e17b39f60e11b815260040190565b610528600761033e565b662364396439643960c81b602082015290565b61004861051e565b6100486100486100489260ff1690565b919082018092116103e657565b610048735fbdb2315678afecb367f032d93f642f64180aa36101a4565b610048610200610118565b610592600461033e565b636e6f6e6560e01b602082015290565b610048610588565b61064e936104fa6105fb61004897956104fa6105e46104fa976104fa610611986d3c67207472616e73666f726d3d2760901b8152600e0190565b6a273e3c672066696c6c3d2760a81b8152600b0190565b6927207374726f6b653d2760b01b8152600a0190565b7f27207374796c653d27766563746f722d6566666563743a6e6f6e2d7363616c6981526a373396b9ba3937b5b2939f60a91b6020820152602b0190565b671e17b39f1e17b39f60c11b815260080190565b916104fa61068e61064e936104fa610048966d3c67207472616e73666f726d3d2760901b8152600e0190565b7f273e3c67207374796c653d27766563746f722d6566666563743a6e6f6e2d736381526d30b634b73396b9ba3937b5b2939f60911b6020820152602e0190565b6106d8600461033e565b6311b3333360e11b602082015290565b6100486106ce565b6106fd6100486100489290565b60010b90565b61078661076561050e946104fa6107216104fa9561004899976104ad565b7f3c646566733e3c636c6970506174682069643d27637432273e3c636972636c658152712063783d2730272063793d27302720723d2760701b602082015260320190565b7413979f1e17b1b634b82830ba341f1e17b232b3399f60591b815260150190565b7f3c6720636c69702d706174683d2775726c282363743229273e00000000000000815260190190565b6107bc6100486100489290565b62ffffff1690565b751e33903334b63a32b91e913ab9361411b4b73b14911f60511b81526100489161050e916016016104fa565b6060906107fc816100d3565b60a05261080b602082016100e7565b90610818604082016100f9565b90610825606082016100f9565b936108326080830161010e565b60805261083d611063565b9383158060c052611059575b83611040575b85611022575b61085e90610137565b938561088061086d603f61014e565b87169661087a600661014e565b9061015b565b90611004575b8415610feb57610896600461014e565b965b8515610fd9576108a75f61014e565b955b5f9889986108b96080518361106d565b998315610fd257506109045f6108d06101ca6101ad565b6108db6101ca6101cf565b906108e560405190565b9384928391829163b6acc67b60e01b5b835260a05190600484016102d6565b03915afa8015610dc05784915f91610fb8575b5080516109266104055f6102ff565b1480159c90610fb157505b9a5b81610fa9575b5015610f5f575050610963886109506101ca6101cf565b6109595f61014e565b9060a051906111e6565b945b6109706101ca6101cf565b9761097b600161014e565b60e05261099561098961036a565b60e05160a0518c6111e6565b956109be60208b6109a76101ca6101ad565b6040519384928391829163029065b560e11b6108f5565b03915afa908115610dc0575f91610f30575b506109db600161039f565b63ffffffff821611610f085750506109f3602c61039f565b955b6109fe876103ac565b9a610a07610419565b610a10906103ac565b610a1a908d6103d3565b620f424090610a28826102ff565b610a31916103ff565b610a3a9061039f565b9c610a43610425565b610a4c906103ac565b610a55916103d3565b90610a5f906102ff565b610a68916103ff565b610a719061039f565b95610df357610abe9798999a9b9c50845f14610dc5575f610a9260206102ff565b610a9d6101ca610560565b6040519a8b92839182916303c2ea1160e61b5b835260048301526024820190565b03915afa948515610dc0576100489d610c0f9a610bd88f9b9a610bf499610bef99610be9998d976100489f5f94610d9c575b50610af961057d565b91610d8b565b868c83610b16610b0e5f610118565b9161ffff1690565b14610d60575b91610b48610b42610b34610b4e94610b54968b6118cb565b92610b48610b4260026102ff565b916103ac565b906103d3565b9161043b565b906103ff565b61039f565b858196611a62565b96909450610b7761016f5f61014e565b14918280610d58575b15610cc05750505091610b9d610bba9461004893610bae956114ec565b604051938492602084019283610662565b90810382520382610200565b9b5b610bc6600261014e565b610bce6106e8565b9160a051906111e6565b610be15f6106f0565b958695611bf2565b926103ac565b611ca6565b90610bae610c0160405190565b948593602085019384610703565b809260c0519060c051610c7d575b50610c4e575b50610c3e610c449293610c36600361014e565b610bce61053b565b90611744565b9060c05191611840565b610c449250610c76610c3e91610048610c6660405190565b8092610bae6020830191826107c4565b9250610c23565b9050610c89605a6107af565b60805162ffffff1603610caf57610ca560a0610ca992016100f9565b1590565b5f610c1d565b60a0610cbb91016100f9565b610ca9565b610d11966100489590929091159384610d50575b5083610d1e575b50610ce692936114ec565b9015610d1757610cf46105a2565b905b610bae610d0260405190565b9485938c6020860194856105aa565b9b610bbc565b8890610cf6565b60e051610ce6945060ff821614908115610d3a575b5092610cdb565b9050610d4961016f600561014e565b145f610d33565b93505f610cd4565b508015610b80565b9250610b5491610b48610b42610b34610b4e94610d7d6001610118565b979496509450505050610b1c565b610b6782610b5f610b5a868e610aff565b610db99194503d805f833e610db18183610200565b8101906102a3565b925f610af0565b6102f4565b5f610dee610ddf610dd58a610543565b610b4860086102ff565b610de886610543565b90610553565b610a92565b50505050505050509350509050610e82610e0f620a875061039f565b610e46610e36610e31610e28610e23610431565b61043b565b610b48856103ac565b6102ff565b610e4060026102ff565b9061044c565b610e7c610e55624323806102ff565b610e71610e76610e676227ac406102ff565b92610e7186610466565b610476565b93610466565b916114ec565b610e8d6101ca610490565b925f610e9860405190565b63069b339360e01b815294859060049082905afa938415610dc057610ee1610bae61004861004897610c4496610c3e955f92610eec575b506040519384926020840192836104ce565b93610c36600361014e565b610f019192503d805f833e610db18183610200565b905f610ecf565b610f1e610b5a91610b48610b42610f2a956103ac565b610b54621e84806102ff565b956109f5565b610f52915060203d602011610f58575b610f4a8183610200565b81019061038b565b5f6109d0565b503d610f40565b610f99610fa392610f8d610f7d610f776101ca6101cf565b9461030c565b91610f88600161014e565b610325565b6080519160a0516110b0565b906109595f61014e565b94610965565b90505f610939565b9050610931565b610fcc91503d805f833e610db18183610200565b5f610917565b8390610933565b610fe3600761014e565b8716956108a9565b610ffe610ff8600361014e565b8761015b565b96610898565b509350611011600361014e565b9361101c603861014e565b94610886565b945061085e61103261012561012c565b61ffff871614959050610855565b925061104d61fffe610118565b61ffff8416149261084f565b851560c052610849565b610048605861039f565b6100489161107a91611dc7565b611f2e565b61031c906101766110936100489460ff1690565b9163ffffffff1690565b6101486100486100489263ffffffff1690565b9261112b926110e86110d861110e946110c7606090565b506110d2600361014e565b9061107f565b6110e2600761039f565b1661109d565b906110f782610f88600161014e565b1661110461016f5f61014e565b1461114e5761106d565b809261111b6101ca6101cf565b906111255f61014e565b916111e6565b90611134825190565b6111406104055f6102ff565b14611149575090565b905090565b506111585f61014e565b61106d565b60409061118361023b949695939661117c60608401985f8501906102c9565b6020830152565b019060ff169052565b6100cc8161018f565b9050519061023b8261118c565b906020828203126100225761004891611195565b61018f6100486100489290565b610048906111b6565b91602061023b92949361118360408201965f8301906102c9565b906111f26101ca6101ad565b916111fc60405190565b63854104d760e01b81525f81806112188887876004850161115d565b0381875afa908115610dc0575f91611474575b50805161123a6104055f6102ff565b0361141a57506112719161125a6101ca6020936112545f90565b506101a4565b604051938492839182916331a9108f60e11b610ab0565b03915afa5f9181611443575b5061143d575061128c5f6111c3565b905b63bdf081049161129d60405190565b6112a78460e01b90565b81525f81806112ba8886600484016111cc565b0381865afa908115610dc0575f91611423575b5080516112dc6104055f6102ff565b0361141a57506112eb90612068565b906112f55f6111c3565b916112ff8361018f565b6113088261018f565b03611316575b505050505090565b6040516113238560e01b90565b81525f81806113368986600484016111cc565b0381865afa908115610dc0575f91611400575b5080516113586104055f6102ff565b036113f6575061136a61137091612068565b9261018f565b6113798361018f565b03611385575b8061130e565b6113a35f936113ae61139660405190565b9687958694859460e01b90565b8452600484016111cc565b03915afa908115610dc0575f916113dc575b5080516113cf6104055f6102ff565b036111495780808061137f565b6113f091503d805f833e610db18183610200565b5f6113c0565b9550505050505090565b61141491503d805f833e610db18183610200565b5f611349565b94505050505090565b61143791503d805f833e610db18183610200565b5f6112cd565b9061128e565b61146691925060203d60201161146d575b61145e8183610200565b8101906111a2565b905f61127d565b503d611454565b61148891503d805f833e610db18183610200565b5f61122b565b6114df936104fa6114d261004897956104fa6114c16104fa976104fa6114d298660dac2e8e4d2f0560cb1b815260070190565b64010181018160dd1b815260050190565b600160fd1b815260010190565b602960f81b815260010190565b6100489261151f61151961151361150e61004895611508606090565b506103ac565b61211f565b946121a1565b916121a1565b92610bae61152c60405190565b9485936020850193808561148e565b916104fa61170e611724936104fa6116bf6116a061168a61167361165c61164561160e6115bf6100489e7f3c73766720786d6c6e733d22687474703a2f2f7777772e77332e6f72672f323081527f30302f737667222076696577426f783d222d3630202d36302031323020313230602082015261111f60f11b604082015260420190565b7f3c646566733e3c66696c7465722069643d22696e762220636f6c6f722d696e7481527f6572706f6c6174696f6e2d66696c746572733d2273524742223e0000000000006020820152603a0190565b7f3c6665436f6c6f724d617472697820747970653d226d6174726978222076616c8152643ab2b99e9160d91b602082015260250190565b6a016989018101810181018960ad1b8152600b0190565b6a018101698901810181018960ad1b8152600b0190565b6a018101810169890181018960ad1b8152600b0190565b690302030203020203120360b41b8152600a0190565b7211179f1e17b334b63a32b91f1e17b232b3399f60691b815260130190565b7f3c7265637420783d222d35302220793d222d3530222077696474683d2231303081527f22206865696768743d22313030222072783d223132222066696c6c3d220000006020820152603d0190565b69111039ba3937b5b29e9160b11b8152600a0190565b73111039ba3937b5b296bbb4b23a341e911911179f60611b815260140190565b610048610bae9161004893611757606090565b5060405193849260208401928361153b565b6100485f61033e565b610048611769565b611784602161033e565b7f6d617472697828302e35312030203020302e3531202d362e3132202d362e31326020820152602960f81b604082015290565b61004861177a565b6100486117b7565b6117d1602961033e565b7f6d617472697828302e30323831302030203020302e3032383130202d31322e3060208201526833202d392e3038322960b81b604082015290565b6100486117c7565b61004861180c565b6104fa9061004893926104ad565b6104fa926104fa6104fa926100489796946104ad565b906100489061004893611851606090565b50156118b157611893610bae61004861187061186b6117bf565b612253565b61187b61186b611814565b9061188560405190565b93849260208401928361181c565b925b610bae6118a0612297565b60405195869460208601948561182a565b6118b9611772565b92611895565b610048620adac061039f565b6119da576118d85f61014e565b60ff821614806119b0575b6119a2576118f1600261014e565b60ff82161480611978575b6119555761190a600161014e565b60ff82161480611963575b6119555761192661016f600361014e565b14908161193f575b5061041957610048620d949061039f565b905061194e61016f600761014e565b145f61192e565b5050610048620c832061039f565b5061196e600661014e565b60ff831614611915565b50611983600161014e565b60ff831614806118fc5750611998600561014e565b60ff8316146118fc565b5050610048620c0df061039f565b506119bb600161014e565b60ff831614806118e357506119d0600561014e565b60ff8316146118e3565b50506100486118bf565b8181029291600160ff1b81145f8312166103e65781840514901517156103e657565b6100486307270e006102ff565b610048611a31611a21611a06565b611a2b60046102ff565b906119e4565b610e4060646102ff565b9190808303925f90911280158285131691841216176103e657565b6100486230d4006102ff565b929391610e31611a73916115085f90565b90611a9f610e36610e76611a9285611a8d610e318a61043b565b6119e4565b94611a8d610e318661043b565b918295611aae610e3683610466565b92839682611afd575b5050611ac257505050565b611afa939550611aeb929450611add611ae591611a2b611a13565b610e40611a06565b90611a3b565b91611af4611a56565b90610476565b91565b909150611b0d9061ffff16610b0e565b115f80611ab7565b611bda611bcb611bb79a6100489f9d97611bcb9f9b611bb7906104fa9f97611ba66104fa9e6104fa611ba69f611b94906104fa9f611b949f611bcb6104fa9f9b6104fa611bb76104fa956104fa9f611ba6611bda976104fa9f611b946104fa916104fa6104fa966b1e31b4b931b6329031bc1e9160a11b8152600c0190565b65111031bc9e9160d11b815260060190565b641110391e9160d91b815260050190565b6711103334b6361e9160c11b815260080190565b6211179f60e91b815260030190565b6b1e31b4b931b6329031bc1e9160a11b8152600c0190565b94959691929096611c01606090565b50611c0b906122f3565b91611c15906122f3565b90611c1f906103ac565b611c2890611ca6565b93611c32906103ac565b611c3b90611ca6565b95611c45906103ac565b611c4e90611ca6565b91611c5860405190565b978897838360208b0199611c6e9983838d611b15565b9081038252036100489082610200565b369037565b9061023b611c99611c938461033e565b9361023d565b601f190160208401611c7e565b611caf8161232f565b90611cc060019261008a60016102ff565b9180611ccb84611c83565b936020850101905b611cde575b50505090565b8115611d2c57611d11905f1901926f181899199a1a9b1b9c1cb0b131b232b360811b600a82061a8453610b54600a6102ff565b9081611d1f6104055f6102ff565b14611d2c57909181611cd3565b611cd8565b611d449062ffffff165b9162ffffff1690565b90039062ffffff82116103e657565b611d619062ffffff16611d3b565b908115610414570690565b6104099062ffffff16611d3b565b6101486100486100489262ffffff1690565b60010b617fff1981146103e6575f0390565b611dad9060010b5b9160010b90565b90811561041457617fff1981145f198314166103e6570590565b611dd1600761014e565b8116611de5611ddf826124d0565b916125b9565b928392611df561016f600761014e565b148015611ed4575b611ecd57611e3e611e2e611e1e611e4393611e1860016107af565b90611d31565b611e2860186107af565b90611d53565b611e3860086107af565b90611d6c565b611d7a565b92611e4d5f61014e565b60ff851614611ecd5761004893611e6761016f600161014e565b14611e73575b506126cd565b909150611e7f5f6106f0565b611e898260010b90565b1315611eaa57611ea390611e9d60026106f0565b90611d9e565b905f611e6d565b611ec3611eb9611ec892611d8c565b611e9d60026106f0565b611d8c565b611ea3565b5091505090565b50611ede5f6107af565b62ffffff821614611dfd565b6107bc90610176611d3b6100489460ff1690565b634e487b7160e01b5f52603260045260245ffd5b90611f1b825190565b811015611f29570160200190565b611efe565b6100489061203f611f4b611e3e611f45601061014e565b84611eea565b61202a611fb7611f70611f6a611e3e611f64600861014e565b88611eea565b95611d7a565b9261200e611f86611f8160076102ff565b611c83565b966023611f9b611f955f6102ff565b8a611f12565b53611fe2611fa9600461014e565b93611fbc611fb7868361015b565b61294e565b5f1a611fd1611fcb60016102ff565b8c611f12565b53611fdc600f61014e565b1661294e565b5f1a611ff1611f9560026102ff565b53611fff611fb7848361015b565b5f1a611fd1611f9560036102ff565b5f1a61202361201d60046102ff565b88611f12565b538361015b565b5f1a611fd161203960056102ff565b85611f12565b5f1a61205461204e60066102ff565b83611f12565b5390565b60208101929161023b91906102c9565b6120715f6111c3565b61207a8161018f565b6120838361018f565b14611149575060206120cd916120b06101ca6101ca73610178da211fef7d417bc0e6fed39f05609ad78890565b60405193849283918291634a9fefc760e01b835260048301612058565b03915afa908115610dc0575f916120e2575090565b610048915060203d60201161146d5761145e8183610200565b90611d61565b6121126104fa9161004894936104ad565b601760f91b815260010190565b610bae61004861004892612131606090565b5061217561217061216a612164620f42409461215e612158612152886102ff565b836103ff565b966102ff565b906120fb565b93611ca6565b9261039f565b6129e4565b9061217f60405190565b938492602084019283612101565b602d60f81b815261004891906001016104fa565b6121aa5f6102ff565b81126121bc5761150e610048916102ff565b6121ce61150e610e3161004893610466565b6100486121da60405190565b8092610bae60208301918261218d565b6d3c67207472616e73666f726d3d2760901b81526100489161220e91600e016104fa565b7f273e3c7061746820643d274d3133203231682d352e356c2d312e3520372d312e8152721a969ba41698ab18b4189a3d13979f1e17b39f60691b602082015260330190565b6100489061004861226360405190565b8092610bae6020830191826121ea565b61227d600661033e565b651e17b9bb339f60d11b602082015290565b610048612273565b61004861228f565b6100486100486100489260010b90565b906001610048926122c381602d60f81b9052565b01906104ad565b9061023b6122d760405190565b80936122e76020830191826122af565b90810382520383610200565b6122fc9061229f565b6123055f6102ff565b8112156123235761231e610bef610e3161004893610466565b6122ca565b610bef610048916102ff565b6123385f6102ff565b907a184f03e93ff9f4daa797ed6e38ed64bf6a1f01000000000000000061235e816102ff565b8210156124ae575b506d04ee2d6d415b85acef810000000061237f816102ff565b82101561248c575b50662386f26fc10000612399816102ff565b82101561246a575b506305f5e1006123b0816102ff565b821015612448575b506127106123c5816102ff565b821015612426575b506123d860646102ff565b811015612404575b6123ed610405600a6102ff565b10156123f65790565b6100489061008a60016102ff565b61241561242091610b5460646102ff565b9161008a60026102ff565b906123e0565b61244191610b54612436926102ff565b9161008a60046102ff565b905f6123cd565b61246391610b54612458926102ff565b9161008a60086102ff565b905f6123b8565b61248591610b5461247a926102ff565b9161008a60106102ff565b905f6123a1565b6124a791610b5461249c926102ff565b9161008a60206102ff565b905f612387565b6124c991610b546124be926102ff565b9161008a60406102ff565b905f612366565b6124d95f61014e565b60ff8216146125ac576124ec600161014e565b60ff82161461259f576124ff600261014e565b60ff82161461259257612512600361014e565b60ff82161461258557612525600461014e565b60ff82161461257857612538600561014e565b60ff82161461256b5761254e61016f600661014e565b1461255f5761004862ab8d3f6107af565b610048625e5e5e6107af565b5061004862f7931a6107af565b50610048621317f76107af565b5061004862ed0e116107af565b506100486230d1006107af565b50610048627c2bff6107af565b5061004862f409cd6107af565b6125c25f61014e565b60ff82161461268a576125d5600161014e565b60ff82161461267e576125e8600261014e565b60ff821614612673576125fb600361014e565b60ff8216146126675761260e600461014e565b60ff82161461265c57612621600561014e565b60ff8216146126515761263761016f600661014e565b1461264657610048600a6106f0565b6100486007196106f0565b5061004860066106f0565b50610048600e6106f0565b506100486009196106f0565b50610048600c6106f0565b506100486005196106f0565b50610048600d196106f0565b6101256100486100489262ffffff1690565b6107bc6100486100489261ffff1690565b6107bc90610339611d3b6100489460ff1690565b906126d78161229f565b906126e2601061014e565b6126fe83610e71610e31610e236126f9868a611eea565b612696565b92839061270b600861014e565b936127168588611eea565b9161274e61273982610e71610e31610e2360ff986127338a6107af565b16612696565b91610e71610e31610e23859c612733896107af565b90819761275d6104055f6102ff565b12612902575b61276f6104055f6102ff565b126128f1575b6127816104055f6102ff565b126128e0575b612790826102ff565b83136128a8575b6127a0826102ff565b8713612870575b6127b0826102ff565b8613612803575b50506127f76127fd936127ec6127e76127e26127f16127e7976127ec6127e76127e26127e29a6102ff565b610118565b6126a8565b6126b9565b996102ff565b936102ff565b91171790565b6127e2929550936127ec6127e76127e26127f16127e7976127f7966127fd9a61282e611da65f6106f0565b1315612858576127e76127e26128466127ec936102ff565b9d9a50505050975050505050936127b7565b506127ec6127e76127e261286b5f6102ff565b612846565b955061287b5f6106f0565b6128858760010b90565b131561289a57612894816102ff565b956127a7565b6128a35f6102ff565b612894565b91506128b35f6106f0565b6128bd8360010b90565b13156128d2576128cc816102ff565b91612797565b6128db5f6102ff565b6128cc565b94506128eb5f6102ff565b94612787565b96506128fc5f6102ff565b96612775565b935061290d5f6102ff565b93612763565b61291f9060ff1661016f565b019060ff82116103e657565b61294161293b6100489260ff1690565b60f81b90565b6001600160f81b03191690565b61298c6100489161295c5f90565b50612967600f61014e565b16612972600a61014e565b60ff8216101561299157612986603061014e565b90612913565b61292b565b612986605761014e565b611d619063ffffffff16611093565b6129b99063ffffffff16611093565b019063ffffffff82116103e657565b919082039182116103e657565b6104099063ffffffff16611093565b906129ef60066102ff565b906129f982611c83565b905f935b83851015612a7957612a6c612a7391612a66600a612a4061298c612a3b612a2c612a268561039f565b8761299b565b612a36603061039f565b6129aa565b61109d565b612a60612a568b612a5160056102ff565b6129c8565b915f1a9189611f12565b5361039f565b906129d5565b9460010190565b936129fd565b50925090509056fea26469706673582212205ae81e21dfb20dd4b8f0dbe29d9f79b15a50e88981743fb9b7c0bfb8ceb748d464736f6c634300081e0033","linkReferences":{}},"methodIdentifiers":{"trophySvg((uint256,uint16,bool,bool,uint24,bool))":"7d9c3025"},"id":16}