{"abi":[{"type":"function","name":"setCustomColorsForMany","inputs":[{"name":"tokenIds","type":"uint256[]","internalType":"uint256[]"},{"name":"outlineHex","type":"string","internalType":"string"},{"name":"flameHex","type":"string","internalType":"string"},{"name":"diamondHex","type":"string","internalType":"string"},{"name":"squareHex","type":"string","internalType":"string"}],"outputs":[{"name":"","type":"bool","internalType":"bool"}],"stateMutability":"nonpayable"},{"type":"function","name":"setMyColors","inputs":[{"name":"outlineHex","type":"string","internalType":"string"},{"name":"flameHex","type":"string","internalType":"string"},{"name":"diamondHex","type":"string","internalType":"string"},{"name":"squareHex","type":"string","internalType":"string"}],"outputs":[{"name":"","type":"bool","internalType":"bool"}],"stateMutability":"nonpayable"},{"type":"function","name":"tokenURI","inputs":[{"name":"tokenId","type":"uint256","internalType":"uint256"},{"name":"data","type":"uint256","internalType":"uint256"},{"name":"remaining","type":"uint32[4]","internalType":"uint32[4]"}],"outputs":[{"name":"","type":"string","internalType":"string"}],"stateMutability":"view"},{"type":"error","name":"E","inputs":[]}],"bytecode":{"object":"0x6080604052346100225761001161029a565b604051614631610320823961463190f35b5f80fd5b634e487b7160e01b5f52604160045260245ffd5b90601f01601f191681019081106001600160401b0382111761005b57604052565b610026565b9061007461006d60405190565b928361003a565b565b6001600160401b03811161005b5760200290565b61009661009b91610076565b610060565b90565b6100ab61009b61009b9290565b60010b90565b915f1960089290920291821b911b6100c9565b921b90565b9181191691161790565b61009b61009b61009b9290565b91906100f161009b6100f9936100d3565b9083546100b1565b9055565b610074915f916100e0565b818110610113575050565b806101205f6001936100fd565b01610108565b90610138905f19906020036008021c90565b8154169055565b91909182821061014e57505050565b610074926010600f90910104906002601061016d600f86018290049390565b9283019406025f8111610183575b500190610108565b6101909060018503610126565b5f61017b565b9068010000000000000000811161005b576100749160049061013f565b919060086100c99102916100c461ffff841b90565b906004906101dd6101e19161009b8486610196565b9290565b60108204915f5b83811061024c57506010830290035f8111610204575b50505050565b925f935f5b81811061021e5750505001555f8080806101fe565b909194602061024260019261023761009b8a5160010b90565b9085600202906101b3565b9601929101610209565b5f5f5b601081106102645750838201556001016101e8565b9590602061028760019261027c61009b865160010b90565b908a600202906101b3565b9201960161024f565b90610074916101c8565b6100746102a7600461008a565b6103186102b560181961009e565b600181900b83526102ea6102c9601961009e565b600181810b602087018190529084900b60408701526060860152935f610290565b6103076102f7600461008a565b60019490940b8085526020850152565b60010b604083018190526060830152565b600161029056fe6101006040526004361015610012575f80fd5b5f3560e01c80631af98746146100415780635e8ab1f51461003c5763cd682c9d03610046576102f8565b6101e5565b6100f6565b5f80fd5b805b0361004657565b905035906100608261004a565b565b9190608083011161004657565b909160c0828403126100465761009f6100888484610053565b9360406100988260208701610053565b9401610062565b90565b90825f9392825e0152565b6100ce6100d76020936100e1936100c2815190565b80835293849260200190565b958691016100a2565b601f01601f191690565b0190565b602080825261009f929101906100ad565b346100465761011e61011261010c36600461006f565b916105fc565b604051918291826100e5565b0390f35b909182601f83011215610046578135916001600160401b03831161004657602001926001830284011161004657565b90916080828403126100465781356001600160401b0381116100465783610179918401610122565b92909360208201356001600160401b038111610046578161019b918401610122565b92909360408201356001600160401b03811161004657836101bd918401610122565b92909360608201356001600160401b038111610046576101dd9201610122565b9091565b9052565b346100465761011e61020a6101fb366004610151565b9695909594919493929361098e565b60405191829182901515815260200190565b909182601f83011215610046578135916001600160401b03831161004657602001926020830284011161004657565b9060a0828203126100465781356001600160401b038111610046578161027291840161021c565b92909360208201356001600160401b0381116100465783610294918401610122565b92909360408201356001600160401b03811161004657816102b6918401610122565b92909360608201356001600160401b03811161004657836102d8918401610122565b92909360808201356001600160401b038111610046576101dd9201610122565b346100465761011e61020a61030e36600461024b565b98979097969196959295949394610adf565b61009f61009f61009f9290565b61033a61009f61009f9290565b60ff1690565b61009f9061035861035461009f9460ff1690565b9190565b901c90565b61036a61009f61009f9290565b62ffffff1690565b61037f61009f61009f9290565b61ffff1690565b61039361009f61009f9290565b63ffffffff1690565b634e487b7160e01b5f52604160045260245ffd5b90601f01601f191681019081106001600160401b038211176103d157604052565b61039c565b906100606103e360405190565b92836103b0565b6001600160401b0381116103d15760200290565b63ffffffff811661004c565b90503590610060826103fe565b9092919261042c610427826103ea565b6103d6565b93602085920283019281841161004657915b83831061044b5750505050565b60208091610459848661040a565b81520192019161043e565b61009f9060043691610417565b61009f61009f61009f9262ffffff1690565b6001600160401b0381116103d157602090601f01601f19160190565b906104ac61042783610483565b918252565b6104bb600361049f565b6215109160ea1b602082015290565b61009f6104b1565b634e487b7160e01b5f52603260045260245ffd5b9060048110156104f7576020020190565b6104d2565b6100e16105149260209261050e815190565b94859290565b938491016100a2565b61059b61057e9761057e6105846105b99961057e61009f9f9d976105ed9f9b61057e61058461057e9d61057e61059b6105849f61057e61057e9f61059b9961057e610584926f2dbd913a3930b4ba2fba3cb832911d1160811b815260100190565b906104fc565b6a1116113b30b63ab2911d1160a91b8152600b0190565b71113e963d913a3930b4ba2fba3cb832911d1160711b815260120190565b7f227d2c7b2274726169745f74797065223a224c6576656c222c2276616c7565228152611d1160f11b602082015260220190565b62227d5d60e81b815260030190565b6106055f610320565b811461086b5761061e610618608061032d565b83610340565b61062a6103545f610320565b0361082f578061009f9361081361080d61066261065061064a602061032d565b88610340565b61065c62ffffff610320565b1661035d565b9561009f6106c36106bc6106b68a6106a061069a610689610683603861032d565b89610340565b61069461ffff610320565b16610372565b96610386565b95896106ab88610da0565b9d9080998f92610f75565b96610464565b88846112d3565b966106cd5f61035d565b62ffffff8a1603610819576106e06104ca565b6108016106f46106ef5f61032d565b61160e565b9161073861071461070d6107075f610320565b896104e6565b5160ff1690565b61072961070d6107235f610320565b886104e6565b906107335f610320565b611685565b9360019661077961074b6106ef8a61032d565b9861076161070d61075b83610320565b856104e6565b61073361077361070d61072385610320565b92610320565b9160026107e96107b061078e6106ef8461032d565b9261079e61070d61072383610320565b61073361077361070d61070785610320565b9260039061073361077361070d6107df61070d6107cf6106ef8861032d565b9a6107d988610320565b906104e6565b936107d986610320565b936107f360405190565b9a8b9960208b01998a61051d565b908103825203826103b0565b94610471565b91611833565b61082a6108258a610471565b6114f0565b6106e0565b60405162461bcd60e51b815260206004820152601460248201527372656e64657265723a74726f7068792d6461746160601b6044820152606490fd5b50505061009f610ce7565b61009f9061088a906001600160a01b031682565b6001600160a01b031690565b61009f90610876565b61009f90610896565b61009f730dcd1bf9a1b36ce34237eeafef220932846bcd8261089f565b61089f565b80151561004c565b90505190610060826108ca565b906020828203126100465761009f916108d2565b6101e19061088a565b90825f939282370152565b91906100d78161091e816100e19560209181520190565b80956108fc565b97959390946109598961009f9b99956109679561094c6109759a5f60a086019501906108f3565b8c830360208e0152610907565b9189830360408b0152610907565b918683036060880152610907565b926080818503910152610907565b6040513d5f823e3d90fd5b9092966109d3906020975f94976109a25f90565b506109ae6108c56108a8565b976109b860405190565b9b8c9a8b998a9863ec6a5c5b60e01b8a523360048b01610925565b03925af1908115610a11575f916109e8575090565b61009f915060203d602011610a0a575b610a0281836103b0565b8101906108df565b503d6109f8565b610983565b61009f73c6e7df5e7b4f2a278906862b61205850344d4e7d61089f565b9037565b8183529091602001916001600160fb1b03811161004657829160206100e19202938491610a33565b6101e190610386565b9d9c9a9790966109758f9396610ac9986100609f9a8660e09f99610ad79f9b99610aae610abb9b610aa4610967965f61010088019701906108f3565b60208c01906108f3565b89830360408b0152610a37565b918b830360a08d0152610907565b9188830360c08a0152610907565b940190610a5f565b93949791969095989298610af05f90565b50610af96108a8565b610b029061089f565b98610b0b610a16565b610b149061089f565b96610b1e60405190565b9b8c9a8b9a6367dfb7ff60e11b8c52610b3e9a5f9a903360048f01610a68565b03815a6020945f91f1908115610a11575f916109e8575090565b90601a61009f92610b88817f646174613a696d6167652f7376672b786d6c3b6261736536342c0000000000009052565b01906104fc565b90610060610b9c60405190565b8093610bac602083019182610b58565b908103825203836103b0565b7f7b226e616d65223a22446567656e657275732047656e6573697320546f6b656e81527f222c226465736372697074696f6e223a224120636f736d6574696320746f6b6560208201527f6e206c6f636b656420746f207468652063726561746f722773207661756c742e60408201526a11161134b6b0b3b2911d1160a91b606082015261009f9190606b0161057e565b90610060610c5560405190565b8093610bac602083019182610bb8565b610c71906002926104fc565b61227d60f01b81520190565b90610060610c8a60405190565b8093610bac602083019182610c65565b90601d61009f92610b88817f646174613a6170706c69636174696f6e2f6a736f6e3b6261736536342c0000009052565b90610060610cd760405190565b8093610bac602083019182610c9a565b61009f610d1b610d0761009f610d16610d11610d0c610d0761009f611c58565b611d32565b610b8f565b610c48565b610c7d565b610cca565b61042761009f916103ea565b369037565b90610060610d47610d4184610d20565b936103ea565b83610d2c565b61009f6004610d31565b61039390610358610d6861009f9490565b9163ffffffff1690565b61033a61009f61009f9263ffffffff1690565b61033a90610358610d9961009f9460ff1690565b9160ff1690565b90610da9610d4d565b8092610db3610d4d565b93845f5b610dc16004610320565b811015610e4557610e4090610e3a610dfd610ded610de7610de26008610320565b850290565b88610d57565b610df7603f610386565b16610d72565b610e25610e13610e0d600361032d565b83610d85565b610e1d858b6104e6565b9060ff169052565b610e2f600761032d565b16610e1d838b6104e6565b60010190565b610db7565b50939250935050565b610e58600461049f565b6311b3333360e11b602082015290565b61009f610e4e565b610e7a600461049f565b632331313160e01b602082015290565b61009f610e70565b610e9c600761049f565b662364396439643960c81b602082015290565b61009f610e92565b61009f735fbdb2315678afecb367f032d93f642f64180aa361089f565b90929192610ee461042782610483565b9381855281830111610046576100609160208501906100a2565b9080601f8301121561004657815161009f92602001610ed4565b906020828203126100465781516001600160401b0381116100465761009f9201610efe565b61057e9061009f93926104fc565b610bac929161006091610f5d60405190565b948592602084019283610f3d565b3561009f816103fe565b92939495610f98929660805260c052610f8c606090565b508560c0519184611d9f565b92610fb8610fa76108c5610a16565b94610fb15f61032d565b8487611f6b565b92600294610fd8610fc88761032d565b610fd0610e68565b908684611f6b565b60019561101f611019610ffd610fed8a61032d565b610ff5610e8a565b908a88611f6b565b9460039861100a8a61032d565b90611013610eaf565b92611f6b565b82612414565b9261102b6108c5610eb7565b925f61103660405190565b63785beda760e11b815294859060049082905afa928315610a1157611062945f9461121f575b5061259a565b61106b91610f4b565b9461107581610320565b61107f90886104e6565b5160ff169561108d82610320565b61109790846104e6565b5160ff16966110a583610320565b6110af90866104e6565b6110b890610f6b565b6110c15f610320565b936110cb90610320565b9860c05191608051916110df948c88612851565b6110e891610f4b565b956110f285610320565b6110fc90896104e6565b5160ff1660e05261110c85610320565b61111690846104e6565b5160ff169661112486610320565b61112e90866104e6565b61113790610f6b565b9661114190610320565b97889761114e8998610320565b60a05260c051906080519060e0519360a0519461116b958c612851565b61117491610f4b565b9161117f818a6104e6565b5160ff169061118e81866104e6565b5160ff1661119c82886104e6565b6111a590610f6b565b9060c05193608051936111b796612851565b6111c091610f4b565b95836111cb916104e6565b5160ff16926111d9916104e6565b5160ff16926111e7916104e6565b6111f090610f6b565b60c051926080519260a0519561120596612851565b61120e91610f4b565b611216612d20565b61009f91610f4b565b61123c9194503d805f833e61123481836103b0565b810190610f18565b925f61105c565b61009f61009f61009f9263ffffffff1690565b9561057e61129661057e9761057e6112a56112969961057e61009f9f9d6112bd9f9b61057e6112a561057e9d61057e6112966112a59f96611296976104fc565b620101d160ed1b815260030190565b6b103932b6b0b4b734b733ae3760a11b8152600c0190565b692072656d61696e696e6760b01b8152600a0190565b90916112de5f610320565b6112e890836104e6565b5160ff166112f55f610320565b6112ff90856104e6565b5160ff169061130d5f610320565b916113189183611685565b9061132390836104e6565b5163ffffffff1661133390611243565b61133c906114f0565b9160019361134985610320565b61135390826104e6565b5160ff1661136086610320565b61136a90886104e6565b5160ff169561137890610320565b956113839187611685565b9461138e90836104e6565b5163ffffffff1661139e90611243565b6113a7906114f0565b956002926113b484610320565b6113be90846104e6565b5160ff166113cb85610320565b6113d590846104e6565b5160ff16946113e390610320565b946113ee9186611685565b936113f990826104e6565b5163ffffffff1661140990611243565b611412906114f0565b9160039361141f85610320565b611428916104e6565b5160ff169061143685610320565b61143f916104e6565b5160ff169361144d90610320565b936114589185611685565b92611462916104e6565b5163ffffffff1661147290611243565b61147b906114f0565b9261148560405190565b97889760208901976114979789611256565b90810382520361009f90826103b0565b906100606114bd6114b78461049f565b93610483565b601f190160208401610d2c565b634e487b7160e01b5f52601260045260245ffd5b905b9081156114eb570490565b6114ca565b6114f981612d28565b9061150a6001926100e16001610320565b9180611515846114a7565b936020850101905b611528575b50505090565b811561157c57611561905f1901926f181899199a1a9b1b9c1cb0b131b232b360811b600a82061a845361155b600a610320565b906114de565b908161156f6103545f610320565b1461157c5790918161151d565b611522565b61158b600661049f565b6543727970746f60d01b602082015290565b61009f611581565b6115af600661049f565b655a6f6469616360d01b602082015290565b61009f6115a5565b6115d3600561049f565b64436172647360d81b602082015290565b61009f6115c9565b6115f6600461049f565b634469636560e01b602082015290565b61009f6115ec565b6116175f61032d565b60ff82161461165e5761162a600161032d565b60ff82161461165557611640610d99600261032d565b1461164d5761009f611606565b61009f6115e4565b5061009f6115c1565b5061009f61159d565b61167861057e9161009f94936104fc565b600160fd1b815260010190565b610801916116ab6116a561009f9561009f9461169f606090565b50612f15565b916130e7565b604051938492602084019283611667565b6116e561009f93926010600293610b88816f02232b3b2b732b93ab9902632bb32b6160851b9052565b61202360f01b8152610b88565b610bac92916100609161170460405190565b9485926020840192836116bc565b683d913730b6b2911d1160b91b815261009f9190600990610b88565b9061006061173b60405190565b8093610bac602083019182611712565b61175b60119161009f94936104fc565b701116113232b9b1b934b83a34b7b7111d1160791b8152610b88565b610bac92916100609161178960405190565b94859260208401928361174b565b91600b6117a9600f946117bf946104fc565b6a11161134b6b0b3b2911d1160a91b8152610b88565b6e11161130ba3a3934b13aba32b9911d60891b81520190565b610bac9291610060916117ea60405190565b948592602084019283611797565b9161057e600193611808936104fc565b607d60f81b81520190565b610bac92916100609161182560405190565b9485926020840192836117f8565b9361189d61009f92611898610d1b9661189361188d610d0c610d0761188961009f9d610d079c611861606090565b5061186b5f610320565b81036118a2575061188361187d6104ca565b916114f0565b906116f2565b9690565b9361172e565b611777565b6117d8565b611813565b61187d611883916114f0565b611bec611ba8611b64611b20611ac3611a74611a4b61009f9861057e6119f1611987611926611c469c7f3c73766720786d6c6e733d27687474703a2f2f7777772e77332e6f72672f323081527f30302f737667272076696577426f783d273020302035313220353132273e00006020820152603e0190565b7f3c646566733e3c636c6970506174682069643d27666c616d652d636c6970273e81527f3c636972636c652063783d2730272063793d27302720723d273237272f3e3c2f60208201526831b634b82830ba341f60b91b604082015260490190565b7f3c73796d626f6c2069643d27666c616d652d69636f6e272076696577426f783d81527f272d3630202d36302031323020313230273e3c6720636c69702d706174683d276020820152713ab9361411b33630b6b296b1b634b814939f60711b604082015260520190565b7f3c706174682066696c6c3d272366663333303027207472616e73666f726d3d2781527f6d617472697828302e31332030203020302e3133202d3536202d3431292720646020820152613d2760f01b604082015260420190565b7f272f3e3c2f673e3c2f73796d626f6c3e3c2f646566733e000000000000000000815260170190565b7f3c726563742077696474683d2735313227206865696768743d2735313227207281527f783d273634272066696c6c3d2723333064313030272f3e000000000000000000602082015260370190565b7f3c7265637420783d2731362720793d273136272077696474683d27343830272081527f6865696768743d27343830272072783d273438272066696c6c3d27236363636360208201526431b193979f60d91b604082015260450190565b7f3c636972636c652063783d27323536272063793d273235362720723d2731383081527113903334b6361e939199983218981813979f60711b602082015260320190565b7f3c636972636c652063783d27323536272063793d273235362720723d2731343081527113903334b6361e939198989898989893979f60711b602082015260320190565b7f3c636972636c652063783d27323536272063793d273235362720723d2731313581527113903334b6361e9391b3333333333313979f60711b602082015260320190565b7f3c75736520687265663d2723666c616d652d69636f6e2720783d27313536272081527f793d27313536272077696474683d2732303027206865696768743d2732303027602082015261179f60f11b604082015260420190565b651e17b9bb339f60d11b815260060190565b611c636108c5610eb7565b5f611c6d60405190565b63785beda760e11b815291829060049082905afa8015610a115761009f915f91611caf575b5061009f611c9f60405190565b80926108016020830191826118ae565b611cc391503d805f833e61123481836103b0565b5f611c92565b611cd3604061049f565b7f4142434445464748494a4b4c4d4e4f505152535455565758595a61626364656660208201527f6768696a6b6c6d6e6f707172737475767778797a303132333435363738392b2f604082015290565b61009f611cc9565b61009f611d22565b600161009f91611d40606090565b50611d49611d2a565b906131c1565b6101e19063ffffffff1660e01b90565b018092611d4f565b61009f90610320565b610320565b905b9081156114eb570690565b61009f61009f61009f9260ff1690565b600161009f910160ff1690565b611dd1611de99261080192611db2606090565b50604051938492602084019283602081611d5f6100e193600496959052565b611de3611ddc825190565b9160200190565b20611d67565b91611e08611e03600894611dfd6008610320565b90611d75565b61032d565b5f9283915b611e168661032d565b60ff86161015611eca5760ff81860116611e30600761032d565b16928096815b611e40600461032d565b60ff82161015611ebb57611e5f61070d611e5983611d82565b876104e6565b611e6b60ff8816610d99565b14611e7e57611e7990611d92565b611e36565b5095919293909650611e8f60011590565b611eab5750611ea0611e1691611d92565b949592919050611e0d565b93945050505061009f92506132e4565b50959192939096611e8f901590565b505050905061009f9150611edd5f61032d565b6132e4565b604090611f086100609496959396611f0160608401985f8501906108f3565b6020830152565b019060ff169052565b61004c8161088a565b9050519061006082611f11565b906020828203126100465761009f91611f1a565b916020610060929493611f0860408201965f8301906108f3565b61088a61009f61009f9290565b61009f90611f55565b90611f776108c56108a8565b91611f8160405190565b63854104d760e01b81525f8180611f9d88878760048501611ee2565b0381875afa908115610a11575f916121f1575b508051611fbf6103545f610320565b0361219d5750611ff99291611fd86108c560209361089f565b604051948592839182916331a9108f60e11b5b835260048301526024820190565b03915afa918215610a11575f926121c0575b5063bdf081049161201b60405190565b6120258460e01b90565b81525f8180612038888660048401611f3b565b0381865afa908115610a11575f916121a6575b50805161205a6103545f610320565b0361219d575061206990613306565b906120735f611f62565b9161207d8361088a565b6120868261088a565b03612094575b505050505090565b6040516120a18560e01b90565b81525f81806120b4898660048401611f3b565b0381865afa908115610a11575f91612183575b5080516120d66103545f610320565b0361217957506120e86120ee91613306565b9261088a565b6120f78361088a565b03612103575b8061208c565b6121215f9361212c61211460405190565b9687958694859460e01b90565b845260048401611f3b565b03915afa908115610a11575f9161215f575b50805161214d6103545f610320565b0361215a578080806120fd565b905090565b61217391503d805f833e61123481836103b0565b5f61213e565b9550505050505090565b61219791503d805f833e61123481836103b0565b5f6120c7565b94505050505090565b6121ba91503d805f833e61123481836103b0565b5f61204b565b6121e391925060203d6020116121ea575b6121db81836103b0565b810190611f27565b905f61200b565b503d6121d1565b61220591503d805f833e61123481836103b0565b5f611fb0565b9161057e6123de6123f49361057e61238f61237061235a61234361232c6123156122de61228f61009f9e7f3c73766720786d6c6e733d22687474703a2f2f7777772e77332e6f72672f323081527f30302f737667222076696577426f783d222d3630202d36302031323020313230602082015261111f60f11b604082015260420190565b7f3c646566733e3c66696c7465722069643d22696e762220636f6c6f722d696e7481527f6572706f6c6174696f6e2d66696c746572733d2273524742223e0000000000006020820152603a0190565b7f3c6665436f6c6f724d617472697820747970653d226d6174726978222076616c8152643ab2b99e9160d91b602082015260250190565b6a016989018101810181018960ad1b8152600b0190565b6a018101698901810181018960ad1b8152600b0190565b6a018101810169890181018960ad1b8152600b0190565b690302030203020203120360b41b8152600a0190565b7211179f1e17b334b63a32b91f1e17b232b3399f60691b815260130190565b7f3c7265637420783d222d35302220793d222d3530222077696474683d2231303081527f22206865696768743d22313030222072783d223132222066696c6c3d220000006020820152603d0190565b69111039ba3937b5b29e9160b11b8152600a0190565b73111039ba3937b5b296bbb4b23a341e911911179f60611b815260140190565b61009f6108019161009f93612427606090565b5060405193849260208401928361220b565b9261057e6123de61057e9461057e6125366125266124ee6124b661247961257a9a61057e61009f9f9e6a1e339039ba3937b5b29e9160a91b8152600b0190565b7f22207374726f6b652d77696474683d2231222066696c6c3d226e6f6e6522206f81526a3830b1b4ba3c9e9118911f60a91b6020820152602b0190565b7f3c6c696e652078313d2230222079313d222d3530222078323d2230222079323d815265111a9811179f60d11b602082015260260190565b7f3c6c696e652078313d222d3530222079313d2230222078323d223530222079328152651e911811179f60d11b602082015260260190565b631e17b39f60e11b815260040190565b7f3c7061746820643d224d302c31352e35204c31352e352c3020302c2d31352e358152711016989a971a9618102d11103334b6361e9160711b602082015260320190565b73111039ba3937b5b296bbb4b23a341e911891179f60611b815260140190565b6125b461009f9461009f93946125ae606090565b50613500565b926108016125c160405190565b94859360208501938185612439565b61033a61009f61009f9261ffff1690565b634e487b7160e01b5f52601160045260245ffd5b8181029291811591840414171561260857565b6125e1565b61009f620f6950610386565b61009f620be6e0610386565b61009f620975e0610386565b90919060048310156104f757601061264860029290565b8185040193060290565b61009f916008021c5b60010b90565b9061009f9154612652565b9190820180921161260857565b61009f610200610372565b61009f61009f61009f9261ffff1690565b6126a561009f61009f9260010b90565b60030b90565b61009f61009f61009f9260030b90565b8181029291600160ff1b81145f83121661260857818405149015171561260857565b81156114eb57600160ff1b81145f19831416612608570590565b9190808303925f909112801582851316918412161761260857565b6127a09361057e6123de61009f979561057e61274c61057e9761057e612763986d1e33903a3930b739b337b9369e9160911b8152600e0190565b6a111f1e33903334b6361e9160a91b8152600b0190565b7f22207374796c653d22766563746f722d6566666563743a6e6f6e2d7363616c6981526a373396b9ba3937b5b2911f60a91b6020820152602b0190565b671e17b39f1e17b39f60c11b815260080190565b9161057e6127e06127a09361057e61009f966d1e33903a3930b739b337b9369e9160911b8152600e0190565b7f223e3c67207374796c653d22766563746f722d6566666563743a6e6f6e2d736381526d30b634b73396b9ba3937b5b2911f60911b6020820152602e0190565b9161057e6125269261057e61009f95751e33903334b63a32b91e913ab9361411b4b73b14911f60511b815260160190565b91909395612a309395612862606090565b5061287687846128718961032d565b613556565b612880605a61035d565b62ffffff841603612c9d576128966101a4610372565b61ffff8316141580612c86575b15612c79576128ba610d9961033a612915946125d0565b1415975b61290f6129096129036128d0886135e4565b936128dc8c898d6136ee565b906128e65f610386565b63ffffffff821603612c5957506128fd6001610386565b9061379d565b92611243565b91611243565b906125f5565b916129e761295761293961294e61294361293e612939620f42409961155b8b610320565b610386565b611243565b61290f61293e61260d565b61155b87610320565b6129ab61296382611243565b946129a561293961299c61299061293961298761298161293e612619565b8c6125f5565b61155b8d610320565b9861290f61293e612625565b61155b8a610320565b946132e4565b93836129c06129ba895f612631565b90612661565b916129cf6129ba8a6001612631565b936129d8610e8a565b6129e0610e68565b9089613919565b965f612a0e6129ff6129f96008610320565b8a6125f5565b612a0884611d82565b9061266c565b612a196108c5610eb7565b604051988992839182916303c2ea1160e61b611feb565b03915afa958615610a11575f96612c39575b50612a4d90876139d2565b90612a586002610320565b90612a6290611243565b612a6b916125f5565b90612a7590611243565b612a7e916125f5565b612a86612679565b90612a9082612684565b612a99916114de565b612aa290610386565b92612aad855f612631565b612ab691612661565b612abf90612695565b612ac8906126ab565b612ad182610320565b612ada916126bb565b94612ae6906001612631565b612aef91612661565b612af890612695565b612b01906126ab565b90612b0b90610320565b612b14916126bb565b90612b1e90612684565b612b2790610320565b612b3084611243565b612b3990610320565b94612b4486836126bb565b612b4e6002610320565b612b57916126dd565b612b60916126f7565b94612b6a916126bb565b612b746002610320565b612b7d916126dd565b612b86916126f7565b94612b905f610320565b03612c06575091612bab612bbc9461009f9361080195613c3a565b6040519384926020840192836127b4565b915b612be45761009f61009f9261080192612bd660405190565b938492602084019283610f3d565b61009f61009f9261080192612bf860405190565b938492602084019283612820565b90612c339461009f93612c1892613c3a565b610801612c2460405190565b94838694602086019485612712565b91612bbe565b612a4d919650612c52903d805f833e61123481836103b0565b9590612a42565b63ffffffff821663ffffffff82161115612c7457508061379d565b6128fd565b50506129156001976128be565b50612c9160ff610372565b61ffff831611156128a3565b9061291591612cad6101a4610372565b61ffff831614159182612ce3575b82612cc9575b5050976128be565b612cdb91925061033a610d99916125d0565b145f80612cc1565b9150612cef60ff610372565b61ffff8316111591612cbb565b612d06600661049f565b651e17b9bb339f60d11b602082015290565b61009f612cfc565b61009f612d18565b612d315f610320565b907a184f03e93ff9f4daa797ed6e38ed64bf6a1f010000000000000000612d5781610320565b821015612ea7575b506d04ee2d6d415b85acef8100000000612d7881610320565b821015612e85575b50662386f26fc10000612d9281610320565b821015612e63575b506305f5e100612da981610320565b821015612e41575b50612710612dbe81610320565b821015612e1f575b50612dd16064610320565b811015612dfd575b612de6610354600a610320565b1015612def5790565b61009f906100e16001610320565b612e0e612e199161155b6064610320565b916100e16002610320565b90612dd9565b612e3a9161155b612e2f92610320565b916100e16004610320565b905f612dc6565b612e5c9161155b612e5192610320565b916100e16008610320565b905f612db1565b612e7e9161155b612e7392610320565b916100e16010610320565b905f612d9a565b612ea09161155b612e9592610320565b916100e16020610320565b905f612d80565b612ec29161155b612eb792610320565b916100e16040610320565b905f612d5f565b90815260408101929161006091602090611f08565b90600761009f92610b888166029bcb6b137b6160cd1b9052565b90610060612f0560405190565b8093610bac602083019182612ede565b612f1f6003610320565b8110612f3f5750610825612f3561009f92611d82565b612a086001610320565b5f82612f7992612f506108c5610eb7565b90612f5a60405190565b809581948293612f6e6323b67b0860e01b90565b845260048401612ec9565b03915afa908115610a11575f91612fb7575b508051612f9a6103545f610320565b0361215a5750612fb2610825612f3561009f93611d82565b612ef8565b612fcb91503d805f833e61123481836103b0565b5f612f8b565b612fdb600461049f565b6350696e6b60e01b602082015290565b61009f612fd1565b612ffd600661049f565b65507572706c6560d01b602082015290565b61009f612ff3565b613021600561049f565b6423b932b2b760d91b602082015290565b61009f613017565b613044600361049f565b6214995960ea1b602082015290565b61009f61303a565b613065600461049f565b63426c756560e01b602082015290565b61009f61305b565b613087600661049f565b654f72616e676560d01b602082015290565b61009f61307d565b6130ab600661049f565b6529b4b63b32b960d11b602082015290565b61009f6130a1565b6130cf600461049f565b6311dbdb1960e21b602082015290565b61009f6130c5565b6130f05f61032d565b60ff8216146131a757613103600161032d565b60ff82161461319e57613116600261032d565b60ff82161461319557613129600361032d565b60ff82161461318c5761313c600461032d565b60ff8216146131835761314f600561032d565b60ff82161461317a57613165610d99600661032d565b146131725761009f6130df565b61009f6130bd565b5061009f613099565b5061009f613075565b5061009f613053565b5061009f613032565b5061009f61300f565b5061009f612feb565b61009f5f61049f565b61009f6131b0565b90919080516131d26103545f610320565b146132d95781156132c357600161321b6132166132076131fd6131f3865190565b612a086002610320565b61155b6003610320565b6132116004610320565b6125f5565b6114a7565b930191602084019282908351840160208101918251935f84525b82811061327c575050505261324957505090565b60039051068060011461326b57600214613261575090565b6001603d91035390565b50600281603d600181940353035390565b6003600191989293980191603f828080865194848660121c168901518153018385600c1c16880151815301828460061c168701518153019116840151815301969190613235565b600161321b6132166131fd6131f3613207865190565b50505061009f6131b9565b61009f916132f191613d98565b613f48565b60208101929161006091906108f3565b61330f5f611f62565b6133188161088a565b6133218361088a565b1461215a5750602061336b9161334e6108c56108c573610178da211fef7d417bc0e6fed39f05609ad78890565b60405193849283918291634a9fefc760e01b8352600483016132f6565b03915afa908115610a11575f91613380575090565b61009f915060203d6020116121ea576121db81836103b0565b61009f9261057e6134a26127a09461057e61348a6134296134f1977f3c646566733e3c636c6970506174682069643d226364223e3c7061746820643d81527f224d302c31352e35204c31352e352c3020302c2d31352e35202d31352e352c3060208201527f205a222f3e3c2f636c6970506174683e3c2f646566733e000000000000000000604082015260570190565b7f3c6720636c69702d706174683d2275726c2823636429223e3c67207472616e7381527f666f726d3d227472616e736c617465282d312e3539362c2d312e36363429207360208201526831b0b632941914911f60b91b604082015260490190565b6b1e3830ba34103334b6361e9160a11b8152600c0190565b7f22207472616e73666f726d3d226d617472697828302e3032372030203020302e81527f303237202d31302e38202d382e3130393435292220643d220000000000000000602082015260380190565b6211179f60e91b815260030190565b61009f61009f9261080192613513606090565b50604051938492602084019283613399565b61033a90613539610d9961009f9460ff1690565b901b90565b61354a9060ff16610d99565b019060ff821161260857565b9061009f9261357a613586926135695f90565b50613574600361032d565b90613525565b1791613574600661032d565b9061353e565b6126a561009f61009f9290565b60030b637fffffff198114612608575f0390565b61039361009f61009f9260030b90565b6135cb9060030b9160030b90565b900390637fffffff198212637fffffff83131761260857565b61366d61363661363b6136136136066129ba61360b6136066129ba895f612631565b612695565b966001612631565b9361361d5f61358c565b6136278260030b90565b12156136365761363690613599565b6135ad565b926136455f61358c565b61364f8260030b90565b12156136ab5761365e90613599565b613668603261358c565b6135bd565b63ffffffff811663ffffffff831610156136a457505b80613691610d686018610386565b116136995790565b5061009f6018610386565b9050613683565b61365e565b61009f7359b670e9fa9d0a427751af201d676719a970857b61089f565b90505190610060826103fe565b906020828203126100465761009f916136cd565b613714613740936020936136ff5f90565b5061287161370e6108c56136b0565b9461032d565b9061371e60405190565b93849283918291632bbaa2a960e21b83526004830160ff909116815260200190565b03915afa908115610a11575f91613755575090565b61009f915060203d602011613777575b61376f81836103b0565b8101906136da565b503d613765565b61378d9063ffffffff16610d68565b90039063ffffffff821161260857565b6137a76001610386565b63ffffffff8216111561383d5761009f91612939916137c55f610386565b63ffffffff83161461382b575b63ffffffff811663ffffffff831611613823575b612a089061155b61293e61381261380c61293e6138056207a120610320565b978661377e565b866125f5565b9261381d6001610386565b9061377e565b9050806137e6565b90506138376001610386565b906137d2565b505061009f620f4240610386565b6139016134f16138ed9a61009f9f9d976134f19f9b6138ed9061057e9f976138dc61057e9e61057e6138dc9f6138ca9061057e9f6138ca9f6134f161057e9f9b61057e6138ed61057e9561057e9f6138dc6139019761057e9f6138ca61057e9161057e61057e966b1e31b4b931b6329031bc1e9160a11b8152600c0190565b65111031bc9e9160d11b815260060190565b641110391e9160d91b815260050190565b6711103334b6361e9160c11b815260080190565b6b1e31b4b931b6329031bc1e9160a11b8152600c0190565b94959691929096613928606090565b50613932906140c3565b9161393c906140c3565b9061394690611243565b61394f906114f0565b9361395990611243565b613962906114f0565b9561396c90611243565b613975906114f0565b9161397f60405190565b978897838360208b01996114979983838d61384b565b61009f620b71b0610386565b6139b09063ffffffff16610d68565b029063ffffffff82165b91820361260857565b6114e09063ffffffff16610d68565b613a006139f06139e0613995565b6139ea605f610386565b906139a1565b6139fa6064610386565b906139c3565b91613a0b6001610320565b821480613bd4575b15613a44575050612939613a38613a2c61009f93611243565b61290f620b0644610320565b61155b620f4240610320565b613a4e6002610320565b8214918280613bbf575b15613a8a57505050612939613a7e613a7261009f93611243565b61290f6201fbd0610320565b61155b620186a0610320565b613a946003610320565b811480613b95575b15613ac257505050612939613a7e613ab661009f93611243565b61290f6201adb0610320565b613ace6103545f610320565b14918280613b80575b15613af157505050612939613a7e613ab661009f93611243565b80613b6b575b15613b1c575050612939613a7e613b1061009f93611243565b61290f62017318610320565b81613b35575b501561009f575061009f620f4240610386565b9050613b41600361032d565b60ff821614908115613b55575b505f613b22565b9050613b64610d99600761032d565b145f613b4e565b50613b76600561032d565b60ff821614613af7565b50613b8b600661032d565b60ff831614613ad7565b50613ba0600661032d565b60ff83161480613a9c5750613bb5600761032d565b60ff831614613a9c565b50613bca600761032d565b60ff831614613a58565b50613bdf600661032d565b60ff821614613a13565b613c2d9361057e61167861009f979561057e613c1c61057e9761057e61167898660dac2e8e4d2f0560cb1b815260070190565b64010181018160dd1b815260050190565b602960f81b815260010190565b61009f92613c6d613c67613c61613c5c61009f95613c56606090565b50611243565b61411d565b94614199565b91614199565b92610801613c7a60405190565b94859360208501938085613be9565b611d779062ffffff165b9162ffffff1690565b61036a90610358613c9361009f9460ff1690565b61033a61009f61009f9262ffffff1690565b6101e19062ffffff1660e81b90565b60f81b90565b6101e19060ff1660f81b90565b600381613cf76100e19360019695613cc2565b018092613cd7565b613d0f61009f61009f9260ff1690565b5f0b90565b61265b61009f61009f925f0b90565b61265b61009f61009f9290565b613d3f9060010b5b9160010b90565b900390617fff198212617fff83131761260857565b613d609060010b613d38565b0190617fff8213617fff1983121761260857565b61036a61009f61009f9260ff1690565b61036a90613539613c9361009f9460ff1690565b90613da3600a61035d565b613dac91613c89565b613db5826141e2565b90613dc0601061032d565b90613dcb8284613c9c565b613dd490613cb0565b90613ddf600861032d565b90613dea8286613c9c565b613df390613cb0565b94613dfd90613cb0565b95613e07816142cb565b91613e1160405190565b9182916020830191613e239183613ce4565b908103825203613e3390826103b0565b80519060200120613e4390611d67565b613e4d601f610320565b16613e579061032d565b613e6090613cff565b613e6990613d14565b613e736010613d23565b613e7c91613d30565b613e8591613d54565b9182613e916018613d23565b9060010b13613eff94613eee613ee8613ef996613eee95613ef395613f1f575b601719613ebd81613d23565b613ec78460010b90565b12613f05575b5081613edc81613ee29361441d565b9b61441d565b9a61441d565b97613d74565b613d84565b95613d74565b91613d74565b91171790565b613edc925090613f17613ee292613d23565b925090613ecd565b9050613f2b6018613d23565b90613eb1565b90613f3a825190565b8110156104f7570160200190565b61009f90614059613f6a613f65613f5f601061032d565b84613c9c565b613cb0565b614044613fd1613f8f613f89613f65613f83600861032d565b88613c9c565b95613cb0565b92614028613fa06132166007610320565b966023613fb5613faf5f610320565b8a613f31565b53613ffc613fc3600461032d565b93613fd6613fd18683610d85565b6144e3565b5f1a613feb613fe56001610320565b8c613f31565b53613ff6600f61032d565b166144e3565b5f1a61400b613faf6002610320565b53614019613fd18483610d85565b5f1a613feb613faf6003610320565b5f1a61403d6140376004610320565b88613f31565b5383610d85565b5f1a613feb6140536005610320565b85613f31565b5f1a61406e6140686006610320565b83613f31565b5390565b61009f61009f61009f9260010b90565b600160ff1b8114612608575f0390565b90600161009f92610b8881602d60f81b9052565b906100606140b360405190565b8093610bac602083019182614092565b6140cc90614072565b6140d55f610320565b8112156140f3576140ee610825611d7061009f93614082565b6140a6565b61082561009f91610320565b61411061057e9161009f94936104fc565b601760f91b815260010190565b61080161009f61009f9261412f606090565b5061416d61416861416261415c620f424094611dfd61415661415088610320565b836114de565b96610320565b936114f0565b92610386565b614564565b9061417760405190565b9384926020840192836140ff565b602d60f81b815261009f919060010161057e565b6141a25f610320565b81126141b457613c5c61009f91610320565b6141c6613c5c611d7061009f93614082565b61009f6141d260405190565b8092610801602083019182614185565b6141eb5f61032d565b60ff8216146142be576141fe600161032d565b60ff8216146142b157614211600261032d565b60ff8216146142a457614224600361032d565b60ff82161461429757614237600461032d565b60ff82161461428a5761424a600561032d565b60ff82161461427d57614260610d99600661032d565b146142715761009f62ab8d3f61035d565b61009f625e5e5e61035d565b5061009f62f7931a61035d565b5061009f621317f761035d565b5061009f62ed0e1161035d565b5061009f6230d10061035d565b5061009f627c2bff61035d565b5061009f62f409cd61035d565b6142d45f61032d565b60ff82161461439c576142e7600161032d565b60ff821614614390576142fa600261032d565b60ff8216146143855761430d600361032d565b60ff82161461437957614320600461032d565b60ff82161461436e57614333600561032d565b60ff82161461436357614349610d99600661032d565b146143585761009f600a613d23565b61009f600719613d23565b5061009f6006613d23565b5061009f600e613d23565b5061009f600919613d23565b5061009f600c613d23565b5061009f600519613d23565b5061009f600d19613d23565b6143b49060ff16610d99565b90039060ff821161260857565b61037f61009f61009f9260ff1690565b61037f61009f61009f9260010b90565b6143f29061ffff165b9161ffff1690565b029061ffff82166139ba565b6114e09061ffff166143ea565b60010b617fff198114612608575f0390565b6144265f613d23565b6144308360010b90565b1461215a5761443e5f613d23565b6144488360010b90565b136144955761448f61448a61447a61009f9461447461446f614469876143c1565b9261440b565b6143d1565b906143e1565b6144846020610372565b906143fe565b6125d0565b906143a8565b61358661448a61447a61009f946144746144c06144bb876144b660ff61032d565b6143a8565b6143c1565b916143d1565b6144d6613cd161009f9260ff1690565b6001600160f81b03191690565b61451b61009f916144f15f90565b506144fc600f61032d565b16614507600a61032d565b60ff8216101561452057613586603061032d565b6144c6565b613586605761032d565b611d779063ffffffff16610d68565b6145489063ffffffff16610d68565b019063ffffffff821161260857565b9190820391821161260857565b9061456f6006610320565b90614579826114a7565b905f935b838510156145f3576145e66145ed916139fa600a6145c061451b6145bb6145ac6145a685610386565b8761452a565b6145b66030610386565b614539565b610d72565b6145e06145d68b6145d16005610320565b614557565b915f1a9189613f31565b53610386565b9460010190565b9361457d565b50925090509056fea2646970667358221220f4cdc042b7f742e3cdf2ab2bbfa1b8fcc1e2f7b9d75c90cb6640180a900f50bb64736f6c634300081e0033","linkReferences":{}},"methodIdentifiers":{"setCustomColorsForMany(uint256[],string,string,string,string)":"cd682c9d","setMyColors(string,string,string,string)":"5e8ab1f5","tokenURI(uint256,uint256,uint32[4])":"1af98746"},"id":14}