{"abi":[{"type":"function","name":"bafFlipSymbol","inputs":[],"outputs":[{"name":"","type":"string","internalType":"string"}],"stateMutability":"pure"}],"bytecode":{"object":"0x608060405234601957604051610cef61001e8239610cef90f35b5f80fdfe60806040526004361015610011575f80fd5b5f3560e01c63069b339314610086575b5f80fd5b5f91031261002157565b90825f9392825e0152565b61005b61006460209361006e9361004f815190565b80835293849260200190565b9586910161002f565b601f01601f191690565b0190565b60208082526100839291019061003a565b90565b3461002157610096366004610025565b6100ad6100a1610c90565b60405191829182610072565b0390f35b610b88610b78610a6b6109946109106108fd6108dc61087d6108196107b86107306106c76106526105b761050c6100839f61043461038e6102f36102736101c861010d61045196681e339f1e3232b3399f60b91b815260090190565b7f3c73796d626f6c2069643d276661636541272076696577426f783d273020302081527f31333020313330273e3c646566733e3c636c6970506174682069643d2766612d60208201527f636c69702720636c697050617468556e6974733d277573657253706163654f6e60408201527f557365273e3c636972636c652063783d273635272063793d2736352720723d27606082015276199993979f1e17b1b634b82830ba341f1e17b232b3399f60491b608082015260970190565b7f3c636972636c652063783d273635272063793d2736352720723d27353827206681527f696c6c3d2723656430653131272f3e3c636972636c652063783d27363527206360208201527f793d2736352720723d273436272066696c6c3d2723313131272f3e3c6369726360408201527f6c652063783d273635272063793d2736352720723d273333272066696c6c3d2760608201526611b3333313979f60c91b608082015260870190565b7f3c6720636c69702d706174683d2775726c282366612d636c697029273e3c672081527f7472616e73666f726d3d277472616e736c61746528363520363529207363616c60208201527f6528302e30393636373929207472616e736c617465282d323536202d32313229604082015261139f60f11b606082015260620190565b7f3c706174682066696c6c3d27236564306531312720643d274d3433372030683781527f344c333537203135322e3438632d35352e37372035352e31392d3134362e313960208201527f2035352e31392d32303220304c2e393420304837356c313137203131352e383360408201527f6139312e312039312e31203020302030203132372e393120305a272f3e0000006060820152607d0190565b7f3c706174682066696c6c3d27236564306531312720643d274d37342e3035203481527f323448306c3135352d3135332e34326335352e37372d35352e3139203134362e60208201527f31392d35352e31392032303220304c35313220343234682d37344c333230203360408201527f30372e32336139312e312039312e312030203020302d3132372e393120305a27606082015261179f60f11b608082015260820190565b701e17b39f1e17b39f1e17b9bcb6b137b61f60791b815260110190565b7f3c73796d626f6c2069643d276661636542272076696577426f783d273020302081527f31333020313330273e3c646566733e3c636c6970506174682069643d2766622d60208201527f636c69702720636c697050617468556e6974733d277573657253706163654f6e60408201527f557365273e3c636972636c652063783d273635272063793d2736352720723d27606082015276199993979f1e17b1b634b82830ba341f1e17b232b3399f60491b608082015260970190565b7f3c636972636c652063783d273635272063793d2736352720723d27353827206681527f696c6c3d2723333044313030272f3e3c636972636c652063783d27363527206360208201527f793d2736352720723d273436272066696c6c3d2723313131272f3e3c6369726360408201527f6c652063783d273635272063793d2736352720723d273333272066696c6c3d2760608201526611b3333313979f60c91b608082015260870190565b7f3c6720636c69702d706174683d2775726c282366622d636c697029273e3c672081527f7472616e73666f726d3d277472616e736c61746528363520363529207363616c60208201527f6528302e30333837363229207472616e736c617465282d333932202d3633382960408201527f273e3c672066696c6c2d72756c653d276e6f6e7a65726f273e00000000000000606082015260790190565b7f3c706f6c79676f6e2066696c6c3d27233334333433342720706f696e74733d2781527f3339322e30372c30203338332e352c32392e3131203338332e352c3837332e3760208201527f34203339322e30372c3838322e3239203738342e31332c3635302e3534272f3e604082015260600190565b7f3c706f6c79676f6e2066696c6c3d27233843384338432720706f696e74733d2781527f3339322e30372c30202d302c3635302e3534203339322e30372c3838322e323960208201527010199c9917181b961a1b9917199993979f60791b604082015260510190565b7f3c706f6c79676f6e2066696c6c3d27233343334333422720706f696e74733d2781527f3339322e30372c3935362e3532203338372e32342c3936322e3431203338372e60208201527f32342c313236332e3238203339322e30372c313237372e3338203738342e3337604082015269161b991a171c1c93979f60b11b6060820152606a0190565b7f3c706f6c79676f6e2066696c6c3d27233843384338432720706f696e74733d2781527f3339322e30372c313237372e3338203339322e30372c3935362e3532202d302c6020820152681b991a171c1c93979f60b91b604082015260490190565b7f3c706f6c79676f6e2066696c6c3d27233134313431342720706f696e74733d2781527f3339322e30372c3838322e3239203738342e31332c3635302e3534203339322e60208201526b181b961a1b9917199993979f60a11b6040820152604c0190565b7f3c706f6c79676f6e2066696c6c3d27233339333933392720706f696e74733d2781527f302c3635302e3534203339322e30372c3838322e3239203339322e30372c34376020820152661917199993979f60c91b604082015260470190565b741e17b39f1e17b39f1e17b39f1e17b9bcb6b137b61f60591b815260150190565b661e17b232b3399f60c91b815260070190565b7f3c67207472616e73666f726d3d277472616e736c61746528363520363529273e81527f3c672069643d27666c697027207472616e73666f726d3d277363616c6528312060208201527f3129273e3c67207472616e73666f726d3d277472616e736c617465282d363520604082015265169b1a94939f60d11b606082015260660190565b7f3c75736520687265663d27236661636541273e3c616e696d617465206174747281527f69627574654e616d653d276f706163697479272076616c7565733d27313b313b60208201527f303b303b313b3127206b657954696d65733d27303b302e323439393b302e323560408201527f3b302e37353b302e373530313b31272063616c634d6f64653d2764697363726560608201527f746527206475723d2736732720726570656174436f756e743d27696e6465666960808201526c3734ba3293979f1e17bab9b29f60991b60a082015260ad0190565b7f3c67207472616e73666f726d3d277472616e736c61746528302031333029207381527f63616c652831202d3129273e3c75736520687265663d27236661636542273e3c60208201527f616e696d617465206174747269627574654e616d653d276f706163697479272060408201527f76616c7565733d27303b303b313b313b303b3027206b657954696d65733d273060608201527f3b302e323439393b302e32353b302e37353b302e373530313b31272063616c6360808201527f4d6f64653d27646973637265746527206475723d27367327207265706561744360a08201527f6f756e743d27696e646566696e697465272f3e3c2f7573653e3c2f673e00000060c082015260dd0190565b631e17b39f60e11b815260040190565b7f3c616e696d6174655472616e73666f726d206174747269627574654e616d653d81527f277472616e73666f726d2720747970653d277363616c65272076616c7565733d60208201527f273120313b3120303b31202d313b3120303b31203127206b657954696d65733d60408201527f27303b302e32353b302e353b302e37353b3127206475723d273673272072657060608201527f656174436f756e743d27696e646566696e697465272f3e3c2f673e3c2f673e3c60808201526217b39f60e91b60a082015260a30190565b634e487b7160e01b5f52604160045260245ffd5b90601f01601f1916810190811067ffffffffffffffff821117610c8b57604052565b610c55565b610083610c9c60405190565b6100838160208101610cad816100b1565b90810382520382610c6956fea2646970667358221220c65369fcda3fc7c3975653e31636d5ab532ced6164e9b6f9ff2f6cc51edc06ac64736f6c634300081e0033","linkReferences":{}},"methodIdentifiers":{"bafFlipSymbol()":"069b3393"},"id":20}