{"abi":[{"type":"function","name":"bondUpkeep","inputs":[{"name":"bondsAddr","type":"address","internalType":"address"},{"name":"stethAddr","type":"address","internalType":"address"},{"name":"coinAddr","type":"address","internalType":"address"},{"name":"rngWord","type":"uint256","internalType":"uint256"}],"outputs":[],"stateMutability":"nonpayable"},{"type":"function","name":"deployTimestamp","inputs":[],"outputs":[{"name":"","type":"uint48","internalType":"uint48"}],"stateMutability":"view"},{"type":"function","name":"drainToBonds","inputs":[{"name":"bondsAddr","type":"address","internalType":"address"},{"name":"stethAddr","type":"address","internalType":"address"}],"outputs":[],"stateMutability":"nonpayable"},{"type":"function","name":"gameState","inputs":[],"outputs":[{"name":"","type":"uint8","internalType":"uint8"}],"stateMutability":"view"},{"type":"function","name":"level","inputs":[],"outputs":[{"name":"","type":"uint24","internalType":"uint24"}],"stateMutability":"view"},{"type":"function","name":"stakeForTargetRatio","inputs":[{"name":"bondsAddr","type":"address","internalType":"address"},{"name":"stethAddr","type":"address","internalType":"address"},{"name":"lvl","type":"uint24","internalType":"uint24"}],"outputs":[],"stateMutability":"nonpayable"},{"type":"function","name":"yieldPool","inputs":[{"name":"stethAddr","type":"address","internalType":"address"}],"outputs":[{"name":"total","type":"uint256","internalType":"uint256"}],"stateMutability":"view"}],"bytecode":{"object":"0x60806040523461002257610011610026565b6040516110d661028182396110d690f35b5f80fd5b61002e610215565b565b9065ffffffffffff905b9181191691161790565b61005c6100596100599265ffffffffffff1690565b90565b65ffffffffffff1690565b9061007761005961007e92610044565b8254610030565b9055565b9062ffffff60d01b9060d01b61003a565b6100a06100596100599290565b62ffffff1690565b906100b861005961007e92610093565b8254610082565b9061ffff60e81b9060e81b61003a565b6100dc6100596100599290565b61ffff1690565b906100f361005961007e926100cf565b82546100bf565b907fff000000000000000000000000000000000000000000000000000000000000009060f81b61003a565b6101326100596100599290565b60ff1690565b9061014861005961007e92610125565b82546100fa565b906cff0000000000000000000000009060601b61003a565b151590565b9061017c61005961007e92610167565b825461014f565b9060ff60781b9060781b61003a565b906101a261005961007e92610167565b8254610183565b906001600160801b039061003a565b6101c56100596100599290565b6001600160801b031690565b906101e161005961007e926101b8565b82546101a9565b905f199061003a565b6100596100596100599290565b9061020e61005961007e926101f1565b82546101e8565b61022565ffffffffffff5f610067565b61025a6001610234815f6100a8565b6102406101a45f6100e3565b61024a5f80610138565b610254818061016c565b80610192565b61026c6658d15e1762800060026101d1565b61002e6806c6b935b8bbd4000060036101fe56fe60806040526004361015610011575f80fd5b5f3560e01c806338850ed914610080578063607ad0d71461007b5780636fd5ae15146100765780637bbe2e40146100715780639b71b3dc1461006c578063ace06d21146100675763d1f9c24d03610085576102f1565b6102b1565b610237565b61020a565b610191565b610136565b6100dc565b5f80fd5b6001600160a01b031690565b90565b6001600160a01b0381165b0361008557565b905035906100b782610098565b565b9190604083820312610085576100959060206100d582866100aa565b94016100aa565b34610085576100f56100ef3660046100b9565b90610453565b60405180805b0390f35b5f91031261008557565b610095916008021c65ffffffffffff1690565b906100959154610109565b6100955f600e61011c565b9052565b34610085576101463660046100ff565b6100fb610151610127565b6040519182918265ffffffffffff909116815260200190565b610095916008021c5b62ffffff1690565b90610095915461016a565b610095601a5f61017b565b34610085576101a13660046100ff565b6100fb6101ac610186565b6040519182918262ffffff909116815260200190565b62ffffff81166100a3565b905035906100b7826101c2565b9091606082840312610085576100956101f384846100aa565b93604061020382602087016100aa565b94016101cd565b34610085576100f561021d3660046101da565b91610711565b9060208282031261008557610095916100aa565b34610085576100fb61025261024d366004610223565b61097a565b6040519182918290815260200190565b806100a3565b905035906100b782610262565b6080818303126100855761028982826100aa565b9261009561029a84602085016100aa565b9360606102aa82604087016100aa565b9401610268565b34610085576100f56102c4366004610275565b92919091610b02565b610095916008021c60ff1690565b9061009591546102cd565b610095601f5f6102db565b34610085576103013660046100ff565b6100fb61030c6102e6565b6040519182918260ff909116815260200190565b61009590610089906001600160a01b031682565b61009590610320565b61009590610334565b634e487b7160e01b5f52604160045260245ffd5b90601f01601f1916810190811067ffffffffffffffff82111761037c57604052565b610346565b6040513d5f823e3d90fd5b9060ff60a01b9060a01b5b9181191691161790565b906103b16100956103b892151590565b825461038c565b9055565b6100956100956100959290565b905f1990610397565b906103e26100956103b8926103bc565b82546103c9565b905051906100b782610262565b9060208282031261008557610095916103e9565b6001600160a01b03909116815260200190565b610132906103bc565b60409061044c6100b7949695939661044560608401985f85019061041d565b6020830152565b019061041d565b61045f6104649161033d565b61033d565b90813b15610085576040516308830d0760e11b8152905f8260048183875af19081156105ab576105049261045f926105e1575b506104a46001600f6103a1565b61045f6104b05f6103bc565b6104bb81600c6103d2565b6104c68160046103d2565b6104d18160056103d2565b6104dc8160066103d2565b6104e78160146103d2565b6104f28160086103d2565b6104fd8160096103d2565b60076103d2565b61050d3061033d565b602061051860405190565b9283906370a0823160e01b82528180610534866004830161040a565b03915afa9182156105ab575f926105b0575b50319063e291388892803b15610085576105775f9493859461058361056a60405190565b9788968795869460e01b90565b84528160048501610426565b03925af180156105ab576105945750565b6100b7905f6105a3818361035a565b8101906100ff565b610381565b6105d391925060203d6020116105da575b6105cb818361035a565b8101906103f6565b905f610546565b503d6105c1565b6105f0905f6105a3818361035a565b5f610497565b6101736100956100959290565b634e487b7160e01b5f52601260045260245ffd5b61062a9062ffffff165b9162ffffff1690565b908115610635570690565b610603565b61ffff81166100a3565b905051906100b78261063a565b906020828203126100855761009591610644565b6106726100956100959290565b61ffff1690565b6100959081565b6100959054610679565b634e487b7160e01b5f52601160045260245ffd5b919082039182116106ab57565b61068a565b919082018092116106ab57565b6100956100956100959261ffff1690565b818102929181159184041417156106ab57565b8115610635570490565b610095662386f26fc100006103bc565b6100896100956100959290565b610095906106fb565b90916107279061072160646105f6565b90610617565b61073160636105f6565b62ffffff821614908115610965575b506108ef5761045f6107519161033d565b602061075c60405190565b631135906b60e11b815291829060049082905afa9081156105ab575f91610936575b506107885f610665565b61ffff8216146108ef576127109161079f83610665565b61ffff8316116109315761045f6107b59161033d565b916107bf3061033d565b906107c960405190565b916370a0823160e01b8352602083806107e5846004830161040a565b0381885afa9283156105ab575f93610910575b5031906108045f6103bc565b8214610909576108146014610680565b91828111156109015761084a610830610856946108509361069e565b9561084461083e88886106b0565b916106bd565b906106ce565b916103bc565b906106e1565b90808211156108fb576108689161069e565b90808210156108f35750905b61087f6100956106eb565b82106108ef576108c0916020916108b563a1903eab9261089e5f610708565b936108a860405190565b9687958694859360e01b90565b83526004830161040a565b03925af190816108d2575b506100b757565b6108ea9060203d6020116105da576105cb818361035a565b6108cb565b5050565b905090610874565b50505050565b505050505050565b5050505050565b61092a91935060203d6020116105da576105cb818361035a565b915f6107f8565b505050565b610958915060203d60201161095e575b610950818361035a565b810190610651565b5f61077e565b503d610946565b90506109736106215f6105f6565b145f610740565b61045f61098e916109885f90565b5061033d565b6109973061033d565b60206109a260405190565b9283906370a0823160e01b825281806109be866004830161040a565b03915afa9182156105ab575f92610a8d575b503190610a17610a0d610a036109f96109e96004610680565b6109f36005610680565b906106b0565b6109f36006610680565b6109f36014610680565b6109f3600c610680565b9081610a236009610680565b90610a2d5f6103bc565b8203610a83575b5050610a406008610680565b610a495f6103bc565b8103610a78575b50610a5b91926106b0565b9080821115610a6d576100959161069e565b50506100955f6103bc565b610a5b920191610a50565b0191505f80610a34565b610aa791925060203d6020116105da576105cb818361035a565b905f6109d0565b610095683635c9adc5dea000006103bc565b546001600160801b031690565b610095610095610095926001600160801b031690565b9081526060810193926100b7929091604091610afe90610445565b0152565b61045f610b15610b1b929594939561033d565b9461033d565b906370a0823193610b2b3061033d565b93610b3560405190565b94610b408760e01b90565b865260208680610b53846004830161040a565b0381885afa9586156105ab575f9661107f575b50803196610b74600c610680565b928395610b816006610680565b809a610ba087610b9b610a0385610b9b6109e96004610680565b6106b0565b80610bab6009610680565b90610bb55f6103bc565b8203611075575b5050610bc86008610680565b610bd15f6103bc565b810361106e575b50610be38c836106b0565b908082111561105d57610bf59161069e565b935b610c2e610c24610c12610c0a6003610680565b610844610aae565b610850610c1f6002610ac0565b610acd565b61085060146103bc565b98610c50610c45610c3f60046103bc565b886106e1565b9661085060146103bc565b945f99610c5c5f6103bc565b88148061104c575b15610fe557610c725f6103bc565b975b81891115610fd757610c86828a61069e565b80821015610fd1575080915b610c9b5f6103bc565b8303610fb4575b509c9d9c035b8a948b9f610cb55f6103bc565b8303610f70575b505050610cc85f6103bc565b8b03610efd575b50610cd99061033d565b9863e29138889c8a3b1561008557610d068e610d115f95610cf960405190565b9788968795869560e01b90565b855260048501610ae3565b03918c5af180156105ab57610ee8575b50610d2b5f6103bc565b8203610ed5575b5050610d3b8190565b8711610d91575b5050505050509050610d57610095600c610680565b8103610d80575b50610d6c6100956006610680565b8103610d755750565b6100b79060066103d2565b610d8b90600c6103d2565b5f610d5e565b610db59291610da26020928961069e565b96610dac60405190565b94859260e01b90565b82528180610dc6866004830161040a565b03915afa9182156105ab575f92610eb4575b5031915083811015610ea957610def90809461069e565b80821015610ea15750905b610e035f6103bc565b8314158015610e8f575b610e1a575b808080610d42565b803b1561008557610e39945f91610e3060405190565b96879260e01b90565b8252818481610e4d86898160048501610426565b03925af19182156105ab57610e7194610e6b93610e7a575b506106b0565b9061069e565b805f8080610e12565b610e89905f6105a3818361035a565b5f610e65565b50610e995f6103bc565b821415610e0d565b905090610dfa565b50610def838061069e565b610ece91925060203d6020116105da576105cb818361035a565b905f610dd8565b610ee0929a506106b0565b975f80610d32565b610ef7905f6105a3818361035a565b5f610d21565b61045f610f099161033d565b90813b15610085575f610f4081938d610f2160405190565b958693849283919063e7640d4960e01b5b835260048301526024820190565b03925af19182156105ab57610cd992610f5b575b5090610ccf565b610f6a905f6105a3818361035a565b5f610f54565b919550919e50610f7d8590565b811015610faa57610f90905b809561069e565b80821015610fa357505b9c5f8080610cbc565b9050610f9a565b50610f9084610f89565b82610ca893929f509e9f9e610fc8916106b0565b9d9e9091610ca2565b91610c92565b610fe05f6103bc565b610c86565b6110146020610ff48a846106b0565b610ffd8661033d565b604051938492839182916335c298d960e11b610f32565b03915afa9081156105ab575f9161102d575b5097610c74565b611046915060203d6020116105da576105cb818361035a565b5f611026565b506110565f6103bc565b8114610c64565b50506110685f6103bc565b93610bf7565b015f610bd8565b0190505f80610bbc565b61109991965060203d6020116105da576105cb818361035a565b945f610b6656fea2646970667358221220977be15c7967b2c99868796ae88cae01afd2753e0fca9c7b2c754ecc7f86356164736f6c634300081e0033","linkReferences":{}},"methodIdentifiers":{"bondUpkeep(address,address,address,uint256)":"ace06d21","deployTimestamp()":"607ad0d7","drainToBonds(address,address)":"38850ed9","gameState()":"d1f9c24d","level()":"6fd5ae15","stakeForTargetRatio(address,address,uint24)":"7bbe2e40","yieldPool(address)":"9b71b3dc"},"id":35}