{"abi":[{"type":"receive","stateMutability":"payable"},{"type":"function","name":"addPresaleCoinCredit","inputs":[{"name":"player","type":"address","internalType":"address"},{"name":"amount","type":"uint256","internalType":"uint256"}],"outputs":[],"stateMutability":"nonpayable"},{"type":"function","name":"affiliateBonusInfo","inputs":[{"name":"lvl","type":"uint24","internalType":"uint24"},{"name":"player","type":"address","internalType":"address"}],"outputs":[{"name":"topScore","type":"uint96","internalType":"uint96"},{"name":"playerScore","type":"uint256","internalType":"uint256"}],"stateMutability":"view"},{"type":"function","name":"affiliateBonusPointsBest","inputs":[{"name":"currLevel","type":"uint24","internalType":"uint24"},{"name":"player","type":"address","internalType":"address"}],"outputs":[{"name":"points","type":"uint256","internalType":"uint256"}],"stateMutability":"view"},{"type":"function","name":"affiliateCode","inputs":[{"name":"","type":"bytes32","internalType":"bytes32"}],"outputs":[{"name":"owner","type":"address","internalType":"address"},{"name":"rakeback","type":"uint8","internalType":"uint8"}],"stateMutability":"view"},{"type":"function","name":"affiliateCoinEarned","inputs":[{"name":"","type":"uint24","internalType":"uint24"},{"name":"","type":"address","internalType":"address"}],"outputs":[{"name":"","type":"uint256","internalType":"uint256"}],"stateMutability":"view"},{"type":"function","name":"affiliateTop","inputs":[{"name":"lvl","type":"uint24","internalType":"uint24"}],"outputs":[{"name":"player","type":"address","internalType":"address"},{"name":"score","type":"uint96","internalType":"uint96"}],"stateMutability":"view"},{"type":"function","name":"consumePresaleCoin","inputs":[{"name":"player","type":"address","internalType":"address"}],"outputs":[{"name":"amount","type":"uint256","internalType":"uint256"}],"stateMutability":"nonpayable"},{"type":"function","name":"createAffiliateCode","inputs":[{"name":"code_","type":"bytes32","internalType":"bytes32"},{"name":"rakebackPct","type":"uint8","internalType":"uint8"}],"outputs":[],"stateMutability":"nonpayable"},{"type":"function","name":"getReferrer","inputs":[{"name":"player","type":"address","internalType":"address"}],"outputs":[{"name":"","type":"address","internalType":"address"}],"stateMutability":"view"},{"type":"function","name":"payAffiliate","inputs":[{"name":"amount","type":"uint256","internalType":"uint256"},{"name":"code","type":"bytes32","internalType":"bytes32"},{"name":"sender","type":"address","internalType":"address"},{"name":"lvl","type":"uint24","internalType":"uint24"},{"name":"gameState","type":"uint8","internalType":"uint8"},{"name":"rngLocked","type":"bool","internalType":"bool"}],"outputs":[{"name":"playerRakeback","type":"uint256","internalType":"uint256"}],"stateMutability":"nonpayable"},{"type":"function","name":"presaleActive","inputs":[],"outputs":[{"name":"","type":"bool","internalType":"bool"}],"stateMutability":"view"},{"type":"function","name":"presaleClaimableTotal","inputs":[],"outputs":[{"name":"","type":"uint256","internalType":"uint256"}],"stateMutability":"view"},{"type":"function","name":"presaleCoinEarned","inputs":[{"name":"","type":"address","internalType":"address"}],"outputs":[{"name":"","type":"uint256","internalType":"uint256"}],"stateMutability":"view"},{"type":"function","name":"referPlayer","inputs":[{"name":"code_","type":"bytes32","internalType":"bytes32"}],"outputs":[],"stateMutability":"nonpayable"},{"type":"function","name":"referralCodeOf","inputs":[{"name":"player","type":"address","internalType":"address"}],"outputs":[{"name":"code","type":"bytes32","internalType":"bytes32"}],"stateMutability":"view"},{"type":"function","name":"referralJoinLevel","inputs":[{"name":"","type":"address","internalType":"address"}],"outputs":[{"name":"","type":"uint24","internalType":"uint24"}],"stateMutability":"view"},{"type":"function","name":"shutdownPresale","inputs":[],"outputs":[],"stateMutability":"nonpayable"},{"type":"event","name":"Affiliate","inputs":[{"name":"amount","type":"uint256","indexed":false,"internalType":"uint256"},{"name":"code","type":"bytes32","indexed":true,"internalType":"bytes32"},{"name":"sender","type":"address","indexed":false,"internalType":"address"}],"anonymous":false},{"type":"error","name":"Insufficient","inputs":[]},{"type":"error","name":"InvalidRakeback","inputs":[]},{"type":"error","name":"OnlyAuthorized","inputs":[]},{"type":"error","name":"OnlyBonds","inputs":[]},{"type":"error","name":"Zero","inputs":[]},{"type":"error","name":"ZeroAddress","inputs":[]}],"bytecode":{"object":"0x6080604052346019576040516120f761001e82396120f790f35b5f80fdfe60806040526004361015610022575b3615610018575f80fd5b610020611c2e565b005b5f3560e01c80630d13312214610131578063122264e61461012c5780631787a097146101275780633f891a2b1461012257806344af2edb1461011d5780634a9fefc7146101185780634d3d3168146101135780634d5369561461010e57806353135ca0146101095780635d47c24c1461010457806360c75c5b146100ff5780636cf945bf146100fa578063a83536a1146100f5578063d4b88ae6146100f0578063fa10f02d146100eb578063fb0b2610146100e65763fb9332dc0361000e5761068e565b61064a565b61061b565b6105cc565b61056d565b6104e5565b6104a7565b610481565b610454565b610438565b61041f565b6103bf565b610394565b610377565b610351565b6102af565b6101f9565b805b0361013f57565b5f80fd5b9050359061015082610136565b565b9060208282031261013f5761016691610143565b90565b905b5f5260205260405f2090565b610166905b6001600160a01b031690565b6101669054610177565b6101669060a01c5b60ff1690565b6101669054610192565b6101b4905f610169565b906101665f6101c284610188565b93016101a0565b6101d29061017c565b9052565b9160206101509294936101f060408201965f8301906101c9565b019060ff169052565b3461013f5761021161020c366004610152565b6101aa565b9061022761021e60405190565b928392836101d6565b0390f35b6101388161017c565b905035906101508261022b565b9060208282031261013f5761016691610234565b6101669061017c906001600160a01b031682565b61016690610255565b61016690610269565b9061016b90610272565b610166916008021c81565b906101669154610285565b5f6102aa61016692600461027b565b610290565b3461013f576102276102ca6102c5366004610241565b61029b565b6040519182918290815260200190565b62ffffff8116610138565b90503590610150826102da565b919060408382031261013f5761016690602061030e82866102e5565b9401610234565b6103276101666101669262ffffff1690565b62ffffff1690565b9061016b90610315565b6102aa6101669261034c5f93600161032f565b61027b565b3461013f576102276102ca6103673660046102f2565b90610339565b5f91031261013f57565b3461013f5761038736600461036d565b61038f6106e9565b604051005b3461013f576102276102ca6103aa366004610241565b610736565b60208101929161015091906101c9565b3461013f576102276103da6103d5366004610241565b610742565b604051918291826103af565b60ff8116610138565b90503590610150826103e6565b919060408382031261013f576101669060206104188286610143565b94016103ef565b3461013f5761038f6104323660046103fc565b906108b5565b3461013f576102276102ca61044e3660046102f2565b906109ce565b3461013f5761046436600461036d565b61022761046f610ab8565b60405191829182901515815260200190565b3461013f576102276102ca610497366004610241565b610b42565b6101665f6006610290565b3461013f576104b736600461036d565b6102276102ca61049c565b919060408382031261013f576101669060206104de8286610234565b9401610143565b3461013f5761038f6104f83660046104c2565b90610c35565b801515610138565b90503590610150826104fe565b909160c08284031261013f576105298383610143565b926105378160208501610143565b926105458260408301610234565b9261016661055684606085016102e5565b9360a061056682608087016103ef565b9401610506565b3461013f576102276102ca610583366004610513565b94939093929192610f1e565b9060208282031261013f57610166916102e5565b9160206101509294936105bd60408201965f8301906101c9565b01906001600160601b03169052565b3461013f576105e46105df36600461058f565b6119ab565b906102276105f160405190565b928392836105a3565b6001600160601b0390911681526040810192916101509160200152565b0152565b3461013f5761063461062e3660046102f2565b906119f1565b9061022761064160405190565b928392836105fa565b3461013f5761038f61065d366004610152565b611acd565b610166916008021c610327565b906101669154610662565b5f61068961016692600361027b565b61066f565b3461013f576102276106a96106a4366004610241565b61067a565b6040519182918262ffffff909116815260200190565b9060ff905b9181191691161790565b906106de6101666106e592151590565b82546106bf565b9055565b61070b73a513e6e4b8f2a923d98304ec87f64353c4d5c85361017c565b61017c565b6107143361017c565b0361072557610150600160076106ce565b63333dbc9760e21b5f908152600490fd5b610166905f5b50611c6d565b61016690611cdb565b6101666101666101669290565b610166610765600161074b565b61074b565b61019a6101666101669290565b61017c6101666101669290565b61016690610777565b634e487b7160e01b5f52604160045260245ffd5b90601f01601f1916810190811067ffffffffffffffff8211176107c357604052565b61078d565b906101506107d560405190565b92836107a1565b61016660406107c8565b906101d29061017c565b610166905161017c565b906001600160a01b03906106c4565b906108196101666106e592610272565b82546107fa565b9060ff60a01b9060a01b6106c4565b61019a6101666101669260ff1690565b9061084f6101666106e59261082f565b8254610820565b6101509161087b9060209061087361086d826107f0565b85610809565b015160ff1690565b9061083f565b9061015091610856565b6101d29061074b565b9160206101509294936108ae60408201965f83019061088b565b01906101c9565b6108c16101665f61074b565b811480156109a4575b610993576108d8601961076a565b60ff831611610982576108f85f6108f26101668483610169565b01610188565b61090d6109076107065f610784565b9161017c565b0361097157610166610948926109396109246107dc565b9161092f33846107e6565b60ff166020830152565b610943835f610169565b610881565b5f5160206120a25f395f51905f5261095f60405190565b8061096c33600183610894565b0390a2565b631dc930eb60e01b5f908152600490fd5b6378d7fbb160e01b5f908152600490fd5b63f456040360e01b5f908152600490fd5b506109b0610166610758565b81146108ca565b6103276101666101669290565b610166601961074b565b906109db6107065f610784565b6109e48261017c565b148015610a8f575b610a8457610a076109fd60016109b7565b830362ffffff1690565b90610a128183611d3e565b92610a1e6101666109c4565b8414908115610a65575b50610a6057610a48610a4d92610a3e60016109b7565b900362ffffff1690565b611d3e565b9080825b1115610a5b575090565b905090565b505090565b9050610a7d610a7460016109b7565b9162ffffff1690565b145f610a28565b50506101665f61074b565b50610a995f6109b7565b62ffffff8316146109ec565b6101669061019a565b6101669054610aa5565b610166610ac56007610aae565b1590565b610166732279b7a0a67db372996a5fab50d91eaa73d2ebe6610272565b610272565b6101669081565b6101669054610aeb565b905f19906106c4565b90610b156101666106e59261074b565b8254610afc565b634e487b7160e01b5f52601160045260245ffd5b91908203918211610b3d57565b610b1c565b90610b51610706610ae6610ac9565b610b5a3361017c565b03610bff57610b6c610ac56007610aae565b610bf457610b83610b7e83600461027b565b610af2565b8092610b8e5f61074b565b8203610b98575050565b610bb7610bb291610ba85f61074b565b928391600461027b565b610b05565b610bc46101666006610af2565b8211610be85750610be161015091610bdc6006610af2565b610b30565b6006610b05565b61015091506006610b05565b90506101665f61074b565b637d7b71b560e01b5f908152600490fd5b91602061015092949361061760408201965f8301906101c9565b6040513d5f823e3d90fd5b610c40610ae6610ac9565b91610c4a8361017c565b610c533361017c565b141580610d2d575b80610cff575b610bff57610c716107065f610784565b610c7a8361017c565b148015610cee575b610ce957823b1561013f57610cbc925f9283610c9d60405190565b809681958294610cb1633e8b68b060e01b90565b845260048401610c10565b03925af18015610ce457610ccd5750565b610150905f610cdc81836107a1565b81019061036d565b610c2a565b505050565b50610cf85f61074b565b8114610c82565b50610d1d734ed7c70f96b99c776995fb64377f0d4ab3b0e1c161017c565b610d263361017c565b1415610c61565b50610d4b73a513e6e4b8f2a923d98304ec87f64353c4d5c85361017c565b610d543361017c565b1415610c5b565b90610b156101666106e59290565b81810292918115918404141715610b3d57565b634e487b7160e01b5f52601260045260245ffd5b90610d9a565b9190565b908115610da5570490565b610d7c565b6101666101666101669260ff1690565b91908201809211610b3d57565b67ffffffffffffffff81116107c35760200290565b610de861016691610dc7565b6107c8565b369037565b90610150610e08610e0284610ddc565b93610dc7565b83610ded565b6101666003610df2565b634e487b7160e01b5f52603260045260245ffd5b906003811015610e3d576020020190565b610e18565b90610e4f816020936101c9565b0190565b610e5f610d9660039390565b5f915b838310610e6f5750505050565b610e86610e7f6001928451610e42565b9260200190565b92019190610e62565b610e9b610d9660039390565b5f915b838310610eab5750505050565b610ebe610e7f6001928451815260200190565b92019190610e9e565b916060610150929493610ee160c08201965f830190610e53565b0190610e8f565b9050519061015082610136565b9060208282031261013f5761016691610ee8565b908152604081019291610150916020906108ae565b9350919350610f2a5f90565b91610f36610ae6610ac9565b9273c6e7df5e7b4f2a278906862b61205850344d4e7d610f558561017c565b610f5e3361017c565b14159081611917575b816118fc575b50610bff57610f7f610ac56007610aae565b95866118c1575b6002610f95610b7e868361027b565b80610f9e610758565b918281146118ad57610fb26101665f61074b565b8103611860575050610fc66101665f61074b565b851461184e57610fd9610166865f610169565b80610fe381610188565b610ff26109076107065f610784565b14908115611831575b506117f8576110138661100e898661027b565b610d5b565b61101d8488611e0a565b61102681610188565b926110305f610784565b9261103a8461017c565b6110438661017c565b1480156117df575b6117b45750508684926110ef6110c49c610ac56110bc6110ac8f976110745f6110a692016101a0565b9861108b8b61108560019d8e61032f565b9a611e93565b612710906110988261074b565b810361179857505098610daa565b88610d69565b6110b6606461074b565b90610d90565b9e8f87610b30565b986110db8a6110d6610b7e8c8a61027b565b610dba565b6110e981610bb28c8a61027b565b89611fe3565b156114e5579089916110ff610e0e565b9680611109610e0e565b9960208963cd24a8d097610cb15f8a61113161112460405190565b9889968795869460e01b90565b03925af18015610ce4578a8f94838e61116f8e61116a84611164611177996111749861117d9d5f926114c4575b50610dba565b97610e2c565b6107e6565b610e2c565b52565b60010190565b6111878198611cdb565b956111918461017c565b61119a8861017c565b1415806114aa575b611312575b505050505050506111b75f61074b565b82036111ef575b505050505f5160206120a25f395f51905f5292505b926111e96111e060405190565b92839283610f09565b0390a290565b610d966111fb9161074b565b0361129d5761122b61122161121c61122f936112165f61074b565b90610e2c565b6107f0565b926112165f61074b565b5190565b843b1561013f5761125a945f928361124660405190565b809881958294610cb1633e8b68b060e01b90565b03925af1908115610ce4575f5160206120a25f395f51905f52936111d392611288575b505b905f80806111be565b611297905f610cdc81836107a1565b5f61127d565b90843b1561013f576112d4945f92836112b560405190565b8098819582946112c9634edd931660e01b90565b845260048401610ec7565b03925af1908115610ce4575f5160206120a25f395f51905f52936111d3926112fd575b5061127f565b61130c905f610cdc81836107a1565b5f6112f7565b8698506113286020916110b6600599989961074b565b958693610cb15f8a61133c61112460405190565b03925af1918215610ce457856113898a61116a858e61116f8b610bb2866113836113756113939e6111779d5f9161148b575b508c610dba565b9a6110d6610b7e848761027b565b9261027b565b611174838d610e2c565b926113a76113a18598611cdb565b9261017c565b6113b08361017c565b036113be575b808c916111a7565b6113d2919293949596506110b6600561074b565b906113e66113df60405190565b9560e01b90565b85526020858c815f816113fd888860048401610c10565b03925af1908115610ce45761143d61117794610bb28361138361142f611447976114519c5f9161145c575b5089610dba565b976110d6610b7e848761027b565b61116a8589610e2c565b6111748388610e2c565b905f808080806113b6565b61147e915060203d602011611484575b61147681836107a1565b810190610ef5565b5f611428565b503d61146c565b6114a4915060203d6020116114845761147681836107a1565b5f61136e565b506114b48d61017c565b6114bd8861017c565b14156111a2565b6114de91925060203d6020116114845761147681836107a1565b905f61115e565b9698969495949061151c6114f7610e0e565b96611177611503610e0e565b996115128961116a858d610e2c565b611174838c610e2c565b916115278396611cdb565b936115318261017c565b61153a8661017c565b14158061177e575b6116ca575b50505050506115555f61074b565b82036115f5575b505050506115695f61074b565b8503611585575b505f5160206120a25f395f51905f52916111d3565b91823b1561013f575f61159760405190565b9384906303e8b68b60e41b82528183816115b58b8960048401610c10565b03925af1908115610ce4575f5160206120a25f395f51905f52936111d3926115e0575b509250611570565b6115ef905f610cdc81836107a1565b5f6115d8565b610d966116019161074b565b036116765761122b61122161121c61161c936112165f61074b565b90823b1561013f57611645915f9161163360405190565b93849283926303e8b68b60e41b610cb1565b038183865af18015610ce457611661575b505b5f80808061155c565b611670905f610cdc81836107a1565b5f611656565b823b1561013f5761169e915f9161168c60405190565b938492839263276ec98b60e11b6112c9565b038183865af18015610ce4576116b5575b50611658565b6116c4905f610cdc81836107a1565b5f6116af565b61171c9192939496506116e1906110b6600561074b565b936117006116f6866110d6610b7e8b8961027b565b610bb2898761027b565b61170e8761116a838b610e2c565b61117785611174838c610e2c565b9261172a6113a18597611cdb565b6117338361017c565b0361173f575b80611547565b611774949550611177929161143d61175e611447936110b6600561074b565b93610bb283611383876110d6610b7e848761027b565b905f808080611739565b506117888b61017c565b6117918661017c565b1415611542565b6117a86110b6916117ae94610d69565b9161074b565b98610daa565b96509850505050505061100e92506117d6945f1461138357506113835f61074b565b6101665f61074b565b506117e98961017c565b6117f28661017c565b1461104b565b50965094505050509261180b9015151590565b61181c575b5050506101665f61074b565b6118299261100e9161027b565b5f8080611810565b61183b9150610188565b6118476109078961017c565b145f610ffb565b5050505050505050506101665f61074b565b611870919650610166905f610169565b61187981610188565b6118886109076107065f610784565b0361101d575093509550505061100e92506117d6945f1461138357506113835f61074b565b50505050505050505050506101665f61074b565b6118de73a513e6e4b8f2a923d98304ec87f64353c4d5c85361017c565b6118e73361017c565b14610f8657505050505050506101665f61074b565b611906915061017c565b61190f3361017c565b14155f610f6d565b905061193673a513e6e4b8f2a923d98304ec87f64353c4d5c85361017c565b61193f3361017c565b141590610f67565b6101669060a01c5b6001600160601b031690565b6101669054611947565b906101506119925f6119756107dc565b9461198c611984838301610188565b8388016107e6565b0161195b565b6001600160601b03166020840152565b61016690611965565b6119c16119c6916119b95f90565b50600561032f565b6119a2565b9061016660206119d5846107f0565b9301516001600160601b031690565b61194f6101666101669290565b9190611a025f61198c85600561032f565b9283611a0d5f6119e4565b6001600160601b038216148015611a73575b611a645750611a369161034c610b7e92600161032f565b611a3f5f61074b565b8114611a5a57610166906110b6670de0b6b3a764000061074b565b506101665f61074b565b9293505050906101665f61074b565b50611a806107065f610784565b611a898461017c565b14611a1f565b6101667359b670e9fa9d0a427751af201d676719a970857b610272565b90505190610150826102da565b9060208282031261013f5761016691611aac565b611ade5f6108f26101668483610169565b611aea6107065f610784565b611af38261017c565b14908115611bcc575b5061097157611b0f610b7e33600261027b565b611b1e610d966101665f61074b565b0361097157611b328161100e33600261027b565b611b3d610ae6611a8f565b906020611b4960405190565b636fd5ae1560e01b815292839060049082905afa918215610ce457611b7a92610166915f91611b9d575b5033611e0a565b5f5160206120a25f395f51905f52611b9160405190565b8061096c335f83610894565b611bbf915060203d602011611bc5575b611bb781836107a1565b810190611ab9565b5f611b73565b503d611bad565b9050611bda6109073361017c565b145f611afc565b67ffffffffffffffff81116107c357602090601f01601f19160190565b90611c0b610de883611be1565b918252565b3d15611c2957611c1f3d611bfe565b903d5f602084013e565b606090565b611c675f80611c51610ae673a513e6e4b8f2a923d98304ec87f64353c4d5c85381565b6040515f9134905af1611c62611c10565b501590565b61097157565b610b7e611c8391611c7b5f90565b50600261027b565b80611c8d5f61074b565b90818114908115611cc4575b50610a5b57611cac5f6108f28482610169565b611cbb6109076107065f610784565b14610a5b575090565b9050611cd4610d96610166610758565b145f611c99565b611ce5905f61073c565b611cf16101665f61074b565b8114611d05575f6108f26101669282610169565b506101665f610784565b610166611d1a6109c4565b611d24600561074b565b0290565b610166610166610166926001600160601b031690565b90611d4e5f61198c84600561032f565b91611d585f6119e4565b6001600160601b0384161461181057611d799161034c610b7e92600161032f565b611d825f61074b565b8114610a8457611d9d906110b6670de0b6b3a764000061074b565b90611da75f61074b565b8214610a84576110b6611dbf611dc593611d24611d0f565b91611d28565b611dcd6109c4565b908181610a51565b61016690610327565b6101669054611dd5565b9062ffffff906106c4565b90611e036101666106e592610315565b8254611de8565b90611e176107065f610784565b611e208361017c565b14611e6057611e38611e3383600361027b565b611dde565b611e44610a745f6109b7565b14611e4d575050565b611e5b61015092600361027b565b611df3565b5050565b611e729062ffffff16610a74565b90039062ffffff8211610b3d57565b6101666101666101669262ffffff1690565b611e33611ea991611ea15f90565b50600361027b565b9062ffffff821662ffffff82161115611f6157611ece91611ec991611e64565b611e81565b611ed8603261074b565b811115611f5557611ee9609661074b565b811015611f4957611f1a611f0a611f2592611f04603261074b565b90610b30565b611f14604b61074b565b90610d69565b610bdc61271061074b565b906109c482611f36610d968361074b565b10611f3e5750565b61016691925061074b565b506101666109c461074b565b5061016661271061074b565b505061016661271061074b565b906001600160a01b03199060a01b6106c4565b61194f610166610166926001600160601b031690565b90611fa76101666106e592611f81565b8254611f6e565b61015091611fd390602090611fc561086d826107f0565b01516001600160601b031690565b90611f97565b9061015091611fae565b90611fed90612050565b61200361194f6020611fc56119c187600561032f565b6001600160601b0382161161201757505050565b6101509261204461204b9261203461202d6107dc565b95866107e6565b6001600160601b03166020850152565b600561032f565b611fd9565b6120706101669161205e5f90565b506110b6670de0b6b3a764000061074b565b6001600160601b0381612085610d9683611d28565b11612091575b506119e4565b61209b9150611d28565b5f61208b56fe81ab2ccc92875f8ec0a28d38ce828d517626ffd3a7f5db3aab5c04a4cc1a5588a26469706673582212200dc398cfa6a82bd9bd92148b2c3d65e1d9a0c3387149ad29fc3c4c098226c7b264736f6c634300081e0033","linkReferences":{}},"methodIdentifiers":{"addPresaleCoinCredit(address,uint256)":"6cf945bf","affiliateBonusInfo(uint24,address)":"fa10f02d","affiliateBonusPointsBest(uint24,address)":"4d536956","affiliateCode(bytes32)":"0d133122","affiliateCoinEarned(uint24,address)":"1787a097","affiliateTop(uint24)":"d4b88ae6","consumePresaleCoin(address)":"5d47c24c","createAffiliateCode(bytes32,uint8)":"4d3d3168","getReferrer(address)":"4a9fefc7","payAffiliate(uint256,bytes32,address,uint24,uint8,bool)":"a83536a1","presaleActive()":"53135ca0","presaleClaimableTotal()":"60c75c5b","presaleCoinEarned(address)":"122264e6","referPlayer(bytes32)":"fb0b2610","referralCodeOf(address)":"44af2edb","referralJoinLevel(address)":"fb9332dc","shutdownPresale()":"3f891a2b"},"id":2}