{"abi":[{"type":"function","name":"creditFlip","inputs":[{"name":"","type":"address","internalType":"address"},{"name":"","type":"uint256","internalType":"uint256"}],"outputs":[],"stateMutability":"nonpayable"},{"type":"function","name":"rollDailyQuest","inputs":[{"name":"","type":"uint48","internalType":"uint48"},{"name":"","type":"uint256","internalType":"uint256"}],"outputs":[],"stateMutability":"nonpayable"},{"type":"function","name":"rollDailyQuestWithOverrides","inputs":[{"name":"","type":"uint48","internalType":"uint48"},{"name":"","type":"uint256","internalType":"uint256"},{"name":"","type":"bool","internalType":"bool"},{"name":"","type":"bool","internalType":"bool"}],"outputs":[],"stateMutability":"nonpayable"}],"bytecode":{"object":"0x6080604052346019576040516101a661001e82396101a690f35b5f80fdfe60806040526004361015610011575f80fd5b5f3560e01c80633e8b68b014610040578063c93c82f51461003b5763ef4f779a0361004557610160565b610127565b6100a3565b5f80fd5b90565b6001600160a01b0381165b0361004557565b9050359061006b8261004c565b565b80610057565b9050359061006b8261006d565b91906040838203126100455761004990602061009c828661005e565b9401610073565b34610045576100b3366004610080565b50506040515b005b65ffffffffffff8116610057565b9050359061006b826100bb565b801515610057565b9050359061006b826100d6565b608081830312610045576100ff82826100c9565b926100496101108460208501610073565b93606061012082604087016100de565b94016100de565b34610045576101373660046100eb565b505050506100b960405190565b91906040838203126100455761004990602061009c82866100c9565b34610045576100b336600461014456fea2646970667358221220c6368bc68f2e856d03aef1bc99b728d3d7757f7dace5a78d2816b526b6b6c6c064736f6c634300081e0033","linkReferences":{}},"methodIdentifiers":{"creditFlip(address,uint256)":"3e8b68b0","rollDailyQuest(uint48,uint256)":"ef4f779a","rollDailyQuestWithOverrides(uint48,uint256,bool,bool)":"c93c82f5"},"id":41}