{"abi":[{"type":"function","name":"depositCurrentFor","inputs":[{"name":"","type":"address","internalType":"address"},{"name":"","type":"uint256","internalType":"uint256"}],"outputs":[{"name":"","type":"uint256","internalType":"uint256"}],"stateMutability":"payable"},{"type":"function","name":"depositFromGame","inputs":[{"name":"beneficiary","type":"address","internalType":"address"},{"name":"amount","type":"uint256","internalType":"uint256"}],"outputs":[{"name":"","type":"uint256","internalType":"uint256"}],"stateMutability":"nonpayable"},{"type":"function","name":"deposits","inputs":[{"name":"","type":"address","internalType":"address"}],"outputs":[{"name":"","type":"uint256","internalType":"uint256"}],"stateMutability":"view"},{"type":"function","name":"mintJackpotDgnrs","inputs":[{"name":"","type":"address","internalType":"address"},{"name":"","type":"uint256","internalType":"uint256"},{"name":"","type":"uint24","internalType":"uint24"}],"outputs":[],"stateMutability":"nonpayable"},{"type":"function","name":"purchasesEnabled","inputs":[],"outputs":[{"name":"","type":"bool","internalType":"bool"}],"stateMutability":"pure"},{"type":"function","name":"totalDeposits","inputs":[],"outputs":[{"name":"","type":"uint256","internalType":"uint256"}],"stateMutability":"view"}],"bytecode":{"object":"0x60806040523460195760405161035a61001e823961035a90f35b5f80fdfe60806040526004361015610011575f80fd5b5f3560e01c80631a301ca0146100705780633944fc8e1461006b5780634c10e3a9146100665780637d88209714610061578063fc7e286d1461005c5763feb3a1e3036100755761024e565b6101eb565b61016c565b610135565b610119565b6100df565b5f80fd5b6001600160a01b031690565b90565b6001600160a01b0381165b0361007557565b905035906100a782610088565b565b80610093565b905035906100a7826100a9565b9190604083820312610075576100859060206100d8828661009a565b94016100af565b346100755761010b6100fb6100f53660046100bc565b906102c4565b6040519182918290815260200190565b0390f35b5f91031261007557565b346100755761012936600461010f565b60405160018152602090f35b61010b6100fb6101463660046100bc565b90610311565b610085916008021c81565b90610085915461014c565b6100855f80610157565b346100755761017c36600461010f565b61010b6100fb610162565b90602082820312610075576100859161009a565b61008590610079906001600160a01b031682565b6100859061019b565b610085906101af565b906101cb906101b8565b5f5260205260405f2090565b5f6101e66100859260016101c1565b610157565b346100755761010b6100fb610201366004610187565b6101d7565b62ffffff8116610093565b905035906100a782610206565b909160608284031261007557610085610237848461009a565b93604061024782602087016100af565b9401610211565b346100755761025e36600461021e565b50505061026a60405190565b005b6100859081565b610085905461026c565b634e487b7160e01b5f52601160045260245ffd5b9190820180921161029e57565b61027d565b6100856100856100859290565b906100856100856102c0926102a3565b9055565b610308916102f96102e1610302936102d95f90565b5060016101c1565b6102f3836102ee83610273565b610291565b906102b0565b6102ee5f610273565b5f6102b0565b6100855f6102a3565b505061031a5f90565b506100855f6102a356fea264697066735822122041ac8ffd3aa2881c2c78f963b0a9444ad698a86f816e3ed7704e007eb71d1b1764736f6c634300081e0033","linkReferences":{}},"methodIdentifiers":{"depositCurrentFor(address,uint256)":"4c10e3a9","depositFromGame(address,uint256)":"1a301ca0","deposits(address)":"fc7e286d","mintJackpotDgnrs(address,uint256,uint24)":"feb3a1e3","purchasesEnabled()":"3944fc8e","totalDeposits()":"7d882097"},"id":41}