{"abi":[{"type":"function","name":"depositCurrentFor","inputs":[{"name":"","type":"address","internalType":"address"},{"name":"","type":"uint256","internalType":"uint256"}],"outputs":[{"name":"","type":"uint256","internalType":"uint256"}],"stateMutability":"payable"},{"type":"function","name":"depositFromGame","inputs":[{"name":"","type":"address","internalType":"address"},{"name":"","type":"uint256","internalType":"uint256"}],"outputs":[{"name":"","type":"uint256","internalType":"uint256"}],"stateMutability":"pure"},{"type":"function","name":"mintJackpotDgnrs","inputs":[{"name":"","type":"address","internalType":"address"},{"name":"","type":"uint256","internalType":"uint256"},{"name":"","type":"uint24","internalType":"uint24"}],"outputs":[],"stateMutability":"nonpayable"},{"type":"function","name":"purchasesEnabled","inputs":[],"outputs":[{"name":"","type":"bool","internalType":"bool"}],"stateMutability":"pure"}],"bytecode":{"object":"0x6080604052346019576040516101d561001e82396101d590f35b5f80fdfe60806040526004361015610011575f80fd5b5f3560e01c80631a301ca0146100505780633944fc8e1461004b5780634c10e3a9146100465763feb3a1e30361005557610161565b610108565b6100ed565b6100b3565b5f80fd5b90565b6001600160a01b0381165b0361005557565b9050359061007b8261005c565b565b80610067565b9050359061007b8261007d565b9190604083820312610055576100599060206100ac828661006e565b9401610083565b34610055576100df6100cf6100c9366004610090565b9061018c565b6040519182918290815260200190565b0390f35b5f91031261005557565b34610055576100fd3660046100e3565b6040515f8152602090f35b6100df6100cf6100c9366004610090565b62ffffff8116610067565b9050359061007b82610119565b90916060828403126100555761005961014a848461006e565b93604061015a8260208701610083565b9401610124565b3461005557610171366004610131565b50505061017d60405190565b005b6100596100596100599290565b50506101955f90565b506100595f61017f56fea2646970667358221220bbeeb8417bdc2232ee8e7874b9fb8d61346b802673ee198b5e5ba24ff7b9937f64736f6c634300081e0033","linkReferences":{}},"methodIdentifiers":{"depositCurrentFor(address,uint256)":"4c10e3a9","depositFromGame(address,uint256)":"1a301ca0","mintJackpotDgnrs(address,uint256,uint24)":"feb3a1e3","purchasesEnabled()":"3944fc8e"},"id":41}