{"abi":[{"type":"function","name":"approve","inputs":[{"name":"","type":"address","internalType":"address"},{"name":"","type":"uint256","internalType":"uint256"}],"outputs":[{"name":"","type":"bool","internalType":"bool"}],"stateMutability":"pure"},{"type":"function","name":"balanceOf","inputs":[{"name":"","type":"address","internalType":"address"}],"outputs":[{"name":"","type":"uint256","internalType":"uint256"}],"stateMutability":"view"},{"type":"function","name":"submit","inputs":[{"name":"","type":"address","internalType":"address"}],"outputs":[{"name":"","type":"uint256","internalType":"uint256"}],"stateMutability":"payable"},{"type":"function","name":"transfer","inputs":[{"name":"to","type":"address","internalType":"address"},{"name":"amount","type":"uint256","internalType":"uint256"}],"outputs":[{"name":"","type":"bool","internalType":"bool"}],"stateMutability":"nonpayable"},{"type":"function","name":"transferFrom","inputs":[{"name":"from","type":"address","internalType":"address"},{"name":"to","type":"address","internalType":"address"},{"name":"amount","type":"uint256","internalType":"uint256"}],"outputs":[{"name":"","type":"bool","internalType":"bool"}],"stateMutability":"nonpayable"}],"bytecode":{"object":"0x60806040523460195760405161038661001e823961038690f35b5f80fdfe60806040526004361015610011575f80fd5b5f3560e01c8063095ea7b31461006057806323b872dd1461005b57806370a0823114610056578063a1903eab146100515763a9059cbb0361006557610200565b6101ea565b6101bf565b61012a565b6100cf565b5f80fd5b6001600160a01b031690565b90565b6001600160a01b0381165b0361006557565b9050359061009782610078565b565b80610083565b9050359061009782610099565b9190604083820312610065576100759060206100c8828661008a565b940161009f565b34610065576100fd6100eb6100e53660046100ac565b9061021c565b60405191829182901515815260200190565b0390f35b90916060828403126100655761007561011a848461008a565b9360406100c8826020870161008a565b34610065576100fd6100eb610140366004610101565b91610283565b90602082820312610065576100759161008a565b61007590610069906001600160a01b031682565b6100759061015a565b6100759061016e565b9061018a90610177565b5f5260205260405f2090565b610075916008021c81565b906100759154610196565b5f6101ba6100759282610180565b6101a1565b34610065576100fd6101da6101d5366004610146565b6101ac565b6040519182918290815260200190565b6100fd6101da6101fb366004610146565b6102ee565b34610065576100fd6100eb6102163660046100ac565b90610313565b50506102255f90565b50600190565b6100759081565b610075905461022b565b6100756100756100759290565b906100756100756102599261023c565b9055565b634e487b7160e01b5f52601160045260245ffd5b9190820180921161027e57565b61025d565b909190610298610293825f610180565b610232565b908282106102e6576102e1936102c66102cc926102c16102ba876102db970390565b915f610180565b610249565b5f610180565b916102d683610232565b610271565b90610249565b600190565b505050505f90565b5061030f6102fc335f610180565b6102db61030882610232565b3490610271565b3490565b90610321610293335f610180565b91818310610349576102cc6102db916102c661033f856102e1970390565b6102c1335f610180565b5050505f9056fea264697066735822122071093116f2589a3a2fbfa915cab27895119bc153cabb946979ffa1de0108f3ae64736f6c634300081e0033","linkReferences":{}},"methodIdentifiers":{"approve(address,uint256)":"095ea7b3","balanceOf(address)":"70a08231","submit(address)":"a1903eab","transfer(address,uint256)":"a9059cbb","transferFrom(address,address,uint256)":"23b872dd"},"id":45}