{"abi":[{"type":"function","name":"allowance","inputs":[{"name":"","type":"address","internalType":"address"},{"name":"","type":"address","internalType":"address"}],"outputs":[{"name":"","type":"uint256","internalType":"uint256"}],"stateMutability":"view"},{"type":"function","name":"approve","inputs":[{"name":"spender","type":"address","internalType":"address"},{"name":"amount","type":"uint256","internalType":"uint256"}],"outputs":[{"name":"","type":"bool","internalType":"bool"}],"stateMutability":"nonpayable"},{"type":"function","name":"balanceOf","inputs":[{"name":"","type":"address","internalType":"address"}],"outputs":[{"name":"","type":"uint256","internalType":"uint256"}],"stateMutability":"view"},{"type":"function","name":"burn","inputs":[{"name":"from","type":"address","internalType":"address"},{"name":"amount","type":"uint256","internalType":"uint256"}],"outputs":[],"stateMutability":"nonpayable"},{"type":"function","name":"decimals","inputs":[],"outputs":[{"name":"","type":"uint8","internalType":"uint8"}],"stateMutability":"view"},{"type":"function","name":"mint","inputs":[{"name":"to","type":"address","internalType":"address"},{"name":"amount","type":"uint256","internalType":"uint256"}],"outputs":[],"stateMutability":"nonpayable"},{"type":"function","name":"name","inputs":[],"outputs":[{"name":"","type":"string","internalType":"string"}],"stateMutability":"view"},{"type":"function","name":"nuke","inputs":[],"outputs":[],"stateMutability":"nonpayable"},{"type":"function","name":"setVault","inputs":[{"name":"vault_","type":"address","internalType":"address"}],"outputs":[],"stateMutability":"nonpayable"},{"type":"function","name":"supplyIncUncirculated","inputs":[],"outputs":[{"name":"","type":"uint256","internalType":"uint256"}],"stateMutability":"view"},{"type":"function","name":"symbol","inputs":[],"outputs":[{"name":"","type":"string","internalType":"string"}],"stateMutability":"view"},{"type":"function","name":"totalSupply","inputs":[],"outputs":[{"name":"","type":"uint256","internalType":"uint256"}],"stateMutability":"view"},{"type":"function","name":"transfer","inputs":[{"name":"to","type":"address","internalType":"address"},{"name":"amount","type":"uint256","internalType":"uint256"}],"outputs":[{"name":"","type":"bool","internalType":"bool"}],"stateMutability":"nonpayable"},{"type":"function","name":"transferFrom","inputs":[{"name":"from","type":"address","internalType":"address"},{"name":"to","type":"address","internalType":"address"},{"name":"amount","type":"uint256","internalType":"uint256"}],"outputs":[{"name":"","type":"bool","internalType":"bool"}],"stateMutability":"nonpayable"},{"type":"function","name":"vaultEscrow","inputs":[{"name":"amount","type":"uint256","internalType":"uint256"}],"outputs":[],"stateMutability":"nonpayable"},{"type":"function","name":"vaultMintAllowance","inputs":[],"outputs":[{"name":"","type":"uint256","internalType":"uint256"}],"stateMutability":"view"},{"type":"function","name":"vaultMintTo","inputs":[{"name":"to","type":"address","internalType":"address"},{"name":"amount","type":"uint256","internalType":"uint256"}],"outputs":[],"stateMutability":"nonpayable"},{"type":"event","name":"Approval","inputs":[{"name":"owner","type":"address","indexed":true,"internalType":"address"},{"name":"spender","type":"address","indexed":true,"internalType":"address"},{"name":"value","type":"uint256","indexed":false,"internalType":"uint256"}],"anonymous":false},{"type":"event","name":"Transfer","inputs":[{"name":"from","type":"address","indexed":true,"internalType":"address"},{"name":"to","type":"address","indexed":true,"internalType":"address"},{"name":"value","type":"uint256","indexed":false,"internalType":"uint256"}],"anonymous":false},{"type":"error","name":"AlreadySet","inputs":[]},{"type":"error","name":"Disabled","inputs":[]},{"type":"error","name":"InsufficientAllowance","inputs":[]},{"type":"error","name":"InsufficientBalance","inputs":[]},{"type":"error","name":"Unauthorized","inputs":[]}],"bytecode":{"object":"0x608060405234601f57600e6040565b604051610c156100558239610c1590f35b5f80fd5b602d602d602d9290565b90565b90602d602d603c926023565b9055565b60526802b5e3af16b188000060046030565b56fe60806040526004361015610011575f80fd5b5f3560e01c806306fdde0314610120578063095ea7b31461011b57806318160ddd1461011657806323b872dd14610111578063313ce5671461010c57806340c10f19146101075780636817031b1461010257806370a08231146100fd57806372f95142146100f8578063878bb039146100f35780638e48a2fa146100ee57806395d89b41146100e95780639dc29fac146100e4578063a9059cbb146100df578063bc8fbbf8146100da578063dd62ed3e146100d55763e7640d4903610125576105f4565b6105c4565b610571565b610555565b61053c565b610521565b6104d5565b6104ba565b61049f565b610484565b61041c565b6103ea565b6103bb565b61037a565b610325565b6102d7565b61024b565b5f80fd5b5f91031261012557565b634e487b7160e01b5f52604160045260245ffd5b90601f01601f1916810190811067ffffffffffffffff82111761016957604052565b610133565b9061018261017b60405190565b9283610147565b565b67ffffffffffffffff811161016957602090601f01601f19160190565b0190565b906101b76101b283610184565b61016e565b918252565b6101c6600e6101a5565b6d111959d95b995c9d5cc8109bdb9960921b602082015290565b6101e86101bc565b90565b6101e86101e0565b6101e86101eb565b90825f9392825e0152565b6102276102306020936101a19361021b815190565b80835293849260200190565b958691016101fb565b601f01601f191690565b60208082526101e892910190610206565b346101255761025b366004610129565b6102726102666101f3565b6040519182918261023a565b0390f35b6001600160a01b031690565b6001600160a01b0381165b0361012557565b9050359061018282610282565b8061028d565b90503590610182826102a1565b9190604083820312610125576101e89060206102d08286610294565b94016102a7565b34610125576102726102f36102ed3660046102b4565b90610643565b60405191829182901515815260200190565b6101e8916008021c81565b906101e89154610305565b6101e85f80610310565b3461012557610335366004610129565b61027261034061031b565b6040515b9182918290815260200190565b9091606082840312610125576101e861036a8484610294565b9360406102d08260208701610294565b34610125576102726102f3610390366004610351565b916106b4565b6103a36101e86101e89290565b60ff1690565b6101e86012610396565b6101e86103a9565b34610125576103cb366004610129565b6102726103d66103b3565b6040519182918260ff909116815260200190565b34610125576104036103fd3660046102b4565b90610777565b604051005b90602082820312610125576101e891610294565b346101255761040361042f366004610408565b61080e565b6101e890610276906001600160a01b031682565b6101e890610434565b6101e890610448565b9061046490610451565b5f5260205260405f2090565b5f61047f6101e892600161045a565b610310565b346101255761027261034061049a366004610408565b610470565b34610125576104af366004610129565b610272610340610857565b34610125576104ca366004610129565b610272610340610887565b34610125576104036104e83660046102b4565b906108a3565b6104f860056101a5565b6444474e525360d81b602082015290565b6101e86104ee565b6101e8610509565b6101e8610511565b3461012557610531366004610129565b610272610266610519565b346101255761040361054f3660046102b4565b9061091e565b34610125576102726102f361056b3660046102b4565b906109ea565b3461012557610581366004610129565b610403610a1d565b9190604083820312610125576101e89060206105a58286610294565b9401610294565b61047f6101e8926105bf5f93600261045a565b61045a565b34610125576102726103406105da366004610589565b906105ac565b90602082820312610125576101e8916102a7565b34610125576104036106073660046105e0565b610a44565b905f19905b9181191691161790565b6101e86101e86101e89290565b906106386101e861063f9261061b565b825461060c565b9055565b61065b82610656836105bf33600261045a565b610628565b7f8c5be1e5ebec7d5bd14f71427d1e84f3dd0314c0f7b2291e5b200ac8c7c3b92561069b61069161068b33610451565b93610451565b9361034460405190565b0390a3600190565b6101e89081565b6101e890546106a3565b91906106be610ac7565b6106db6106d66106cf85600261045a565b339061045a565b6106aa565b92828410610751576106f893835f1982036106fd575b5050610ae8565b600190565b9003610711816106566106cf85600261045a565b61071a82610451565b7f8c5be1e5ebec7d5bd14f71427d1e84f3dd0314c0f7b2291e5b200ac8c7c3b92561074761069133610451565b0390a35f836106f1565b6282b42960e81b5f908152600490fd5b6102766101e86101e89290565b6101e890610761565b61077f610ac7565b73a513e6e4b8f2a923d98304ec87f64353c4d5c8533303610751576107b06107aa836101a15f6106aa565b5f610628565b6107d16107be82600161045a565b6107cb846101a1836106aa565b90610628565b7fddf252ad1be2c89b69c2b068fc378daa952ba7f163c4a11628f55a4df523b3ef61080961069161068b6108045f61076e565b610451565b0390a3565b610816610ac7565b73a513e6e4b8f2a923d98304ec87f64353c4d5c853330361075157738a791620dd6260079bf849dc5567adc3f2fdc318906001600160a01b03160361075157565b6101e860046106aa565b634e487b7160e01b5f52601160045260245ffd5b9190820180921161088257565b610861565b6101e86108935f6106aa565b61089d60046106aa565b90610875565b6108ab610ac7565b738a791620dd6260079bf849dc5567adc3f2fdc3183303610751576108cf5f61061b565b821461091a576108df60046106aa565b808311610909576108f2836108f9920390565b6004610628565b6107b06107aa836101a15f6106aa565b6313be252b60e01b5f908152600490fd5b5050565b90610927610ac7565b73a513e6e4b8f2a923d98304ec87f64353c4d5c853331415806109d7575b610953575b61018291610b66565b6109646106d66106cf84600261045a565b918183106107515761018292825f198203610983575b5050915061094a565b9003610997816106566106cf85600261045a565b6109a082610451565b7f8c5be1e5ebec7d5bd14f71427d1e84f3dd0314c0f7b2291e5b200ac8c7c3b9256109cd61069133610451565b0390a35f8261097a565b50336001600160a01b0383161415610945565b6106f891906109f7610ac7565b33610ae8565b9060ff90610611565b90610a166101e861063f92151590565b82546109fd565b73a513e6e4b8f2a923d98304ec87f64353c4d5c85333036107515761018260016003610a06565b610a4c610ac7565b610a555f61061b565b8114610ab15773a513e6e4b8f2a923d98304ec87f64353c4d5c85333141580610a93575b610751576108f261018291610a8e60046106aa565b610875565b50738a791620dd6260079bf849dc5567adc3f2fdc318331415610a79565b50565b6101e8906103a3565b6101e89054610ab4565b610ad16003610abd565b610ad757565b633ac4266d60e11b5f908152600490fd5b600190610af86106d6828461045a565b848110610b555761068b61080992610804610b48877fddf252ad1be2c89b69c2b068fc378daa952ba7f163c4a11628f55a4df523b3ef976105bf610b3e8c610691990390565b610656878461045a565b6107cb896101a1836106aa565b631e9acf1760e31b5f908152600490fd5b610b746106d682600161045a565b828110610b5557610b8783610b92920390565b61065683600161045a565b610ba66107aa83610ba25f6106aa565b0390565b7fddf252ad1be2c89b69c2b068fc378daa952ba7f163c4a11628f55a4df523b3ef61080961069161068b610bd95f61076e565b9461045156fea2646970667358221220d04c87649e3bc32eb1898bad6a7fff58f288bd1016d5e7a691dfdb503d913bbf64736f6c634300081e0033","linkReferences":{}},"methodIdentifiers":{"allowance(address,address)":"dd62ed3e","approve(address,uint256)":"095ea7b3","balanceOf(address)":"70a08231","burn(address,uint256)":"9dc29fac","decimals()":"313ce567","mint(address,uint256)":"40c10f19","name()":"06fdde03","nuke()":"bc8fbbf8","setVault(address)":"6817031b","supplyIncUncirculated()":"878bb039","symbol()":"95d89b41","totalSupply()":"18160ddd","transfer(address,uint256)":"a9059cbb","transferFrom(address,address,uint256)":"23b872dd","vaultEscrow(uint256)":"e7640d49","vaultMintAllowance()":"72f95142","vaultMintTo(address,uint256)":"8e48a2fa"},"id":1}