{"abi":[{"type":"constructor","inputs":[],"stateMutability":"nonpayable"},{"type":"function","name":"bondMaintenance","inputs":[{"name":"rngWord","type":"uint256","internalType":"uint256"},{"name":"workCapOverride","type":"uint32","internalType":"uint32"}],"outputs":[{"name":"done","type":"bool","internalType":"bool"}],"stateMutability":"nonpayable"},{"type":"function","name":"burnDGNRS","inputs":[{"name":"amount","type":"uint256","internalType":"uint256"}],"outputs":[],"stateMutability":"nonpayable"},{"type":"function","name":"claim","inputs":[{"name":"maturityLevel","type":"uint24","internalType":"uint24"}],"outputs":[],"stateMutability":"nonpayable"},{"type":"function","name":"depositCurrentFor","inputs":[{"name":"beneficiary","type":"address","internalType":"address"}],"outputs":[{"name":"scoreAwarded","type":"uint256","internalType":"uint256"}],"stateMutability":"payable"},{"type":"function","name":"depositFromGame","inputs":[{"name":"beneficiary","type":"address","internalType":"address"},{"name":"amount","type":"uint256","internalType":"uint256"}],"outputs":[{"name":"scoreAwarded","type":"uint256","internalType":"uint256"}],"stateMutability":"nonpayable"},{"type":"function","name":"dgnrsToken","inputs":[],"outputs":[{"name":"","type":"address","internalType":"address"}],"stateMutability":"view"},{"type":"function","name":"gameOver","inputs":[],"outputs":[],"stateMutability":"payable"},{"type":"function","name":"gameOverEntropyAttempted","inputs":[],"outputs":[{"name":"","type":"bool","internalType":"bool"}],"stateMutability":"view"},{"type":"function","name":"gameOverStarted","inputs":[],"outputs":[{"name":"","type":"bool","internalType":"bool"}],"stateMutability":"view"},{"type":"function","name":"gameOverWithEntropy","inputs":[{"name":"entropy","type":"uint256","internalType":"uint256"}],"outputs":[],"stateMutability":"payable"},{"type":"function","name":"mintJackpotDgnrs","inputs":[{"name":"beneficiary","type":"address","internalType":"address"},{"name":"amount","type":"uint256","internalType":"uint256"},{"name":"currLevel","type":"uint24","internalType":"uint24"}],"outputs":[],"stateMutability":"nonpayable"},{"type":"function","name":"notifyGameOver","inputs":[],"outputs":[],"stateMutability":"nonpayable"},{"type":"function","name":"payBonds","inputs":[{"name":"coinAmount","type":"uint256","internalType":"uint256"},{"name":"stEthAmount","type":"uint256","internalType":"uint256"},{"name":"rngWord","type":"uint256","internalType":"uint256"}],"outputs":[],"stateMutability":"payable"},{"type":"function","name":"presaleDeposit","inputs":[{"name":"beneficiary","type":"address","internalType":"address"}],"outputs":[{"name":"scoreAwarded","type":"uint256","internalType":"uint256"}],"stateMutability":"payable"},{"type":"function","name":"purchasesEnabled","inputs":[],"outputs":[{"name":"","type":"bool","internalType":"bool"}],"stateMutability":"view"},{"type":"function","name":"requiredCoverNext","inputs":[{"name":"stopAt","type":"uint256","internalType":"uint256"}],"outputs":[{"name":"required","type":"uint256","internalType":"uint256"}],"stateMutability":"view"},{"type":"function","name":"rewardStakeTargetBps","inputs":[],"outputs":[{"name":"","type":"uint16","internalType":"uint16"}],"stateMutability":"view"},{"type":"function","name":"runPresaleDailyFromGame","inputs":[{"name":"rngWord","type":"uint256","internalType":"uint256"},{"name":"day","type":"uint48","internalType":"uint48"}],"outputs":[{"name":"advanced","type":"bool","internalType":"bool"}],"stateMutability":"nonpayable"},{"type":"function","name":"setAutoBurnDgnrs","inputs":[{"name":"enabled","type":"bool","internalType":"bool"}],"outputs":[],"stateMutability":"nonpayable"},{"type":"function","name":"setRewardStakeTargetBps","inputs":[{"name":"bps","type":"uint16","internalType":"uint16"}],"outputs":[],"stateMutability":"nonpayable"},{"type":"function","name":"shutdownPresale","inputs":[],"outputs":[],"stateMutability":"nonpayable"},{"type":"function","name":"sweepExpiredPools","inputs":[],"outputs":[],"stateMutability":"nonpayable"},{"type":"event","name":"BondBurned","inputs":[{"name":"player","type":"address","indexed":true,"internalType":"address"},{"name":"maturityLevel","type":"uint24","indexed":true,"internalType":"uint24"},{"name":"lane","type":"uint8","indexed":false,"internalType":"uint8"},{"name":"amount","type":"uint256","indexed":false,"internalType":"uint256"},{"name":"boostedScore","type":"bool","indexed":false,"internalType":"bool"}],"anonymous":false},{"type":"event","name":"BondCoinJackpot","inputs":[{"name":"player","type":"address","indexed":true,"internalType":"address"},{"name":"amount","type":"uint256","indexed":false,"internalType":"uint256"},{"name":"maturityLevel","type":"uint24","indexed":false,"internalType":"uint24"},{"name":"lane","type":"uint8","indexed":false,"internalType":"uint8"}],"anonymous":false},{"type":"event","name":"BondDeposit","inputs":[{"name":"player","type":"address","indexed":true,"internalType":"address"},{"name":"maturityLevel","type":"uint24","indexed":true,"internalType":"uint24"},{"name":"amount","type":"uint256","indexed":false,"internalType":"uint256"},{"name":"scoreAwarded","type":"uint256","indexed":false,"internalType":"uint256"}],"anonymous":false},{"type":"event","name":"BondGameOver","inputs":[{"name":"poolSpent","type":"uint256","indexed":false,"internalType":"uint256"},{"name":"partialMaturity","type":"uint24","indexed":false,"internalType":"uint24"}],"anonymous":false},{"type":"event","name":"BondJackpot","inputs":[{"name":"maturityLevel","type":"uint24","indexed":true,"internalType":"uint24"},{"name":"dayIndex","type":"uint8","indexed":true,"internalType":"uint8"},{"name":"mintedAmount","type":"uint256","indexed":false,"internalType":"uint256"},{"name":"rngWord","type":"uint256","indexed":false,"internalType":"uint256"}],"anonymous":false},{"type":"event","name":"BondSeriesCreated","inputs":[{"name":"maturityLevel","type":"uint24","indexed":true,"internalType":"uint24"},{"name":"saleStartLevel","type":"uint24","indexed":false,"internalType":"uint24"},{"name":"token","type":"address","indexed":false,"internalType":"address"},{"name":"payoutBudget","type":"uint256","indexed":false,"internalType":"uint256"}],"anonymous":false},{"type":"event","name":"BondSeriesResolved","inputs":[{"name":"maturityLevel","type":"uint24","indexed":true,"internalType":"uint24"},{"name":"winningLane","type":"uint8","indexed":false,"internalType":"uint8"},{"name":"payoutEth","type":"uint256","indexed":false,"internalType":"uint256"},{"name":"remainingToken","type":"uint256","indexed":false,"internalType":"uint256"}],"anonymous":false},{"type":"event","name":"ExpiredSweep","inputs":[{"name":"ethAmount","type":"uint256","indexed":false,"internalType":"uint256"},{"name":"stEthAmount","type":"uint256","indexed":false,"internalType":"uint256"}],"anonymous":false},{"type":"event","name":"PresaleBondDeposit","inputs":[{"name":"buyer","type":"address","indexed":true,"internalType":"address"},{"name":"amount","type":"uint256","indexed":false,"internalType":"uint256"},{"name":"scoreAwarded","type":"uint256","indexed":false,"internalType":"uint256"}],"anonymous":false},{"type":"event","name":"PresaleBuyerCoinJackpot","inputs":[{"name":"player","type":"address","indexed":true,"internalType":"address"},{"name":"amount","type":"uint256","indexed":false,"internalType":"uint256"},{"name":"lane","type":"uint8","indexed":false,"internalType":"uint8"}],"anonymous":false},{"type":"event","name":"PresaleDailyPayout","inputs":[{"name":"day","type":"uint48","indexed":true,"internalType":"uint48"},{"name":"buyerCoin","type":"uint256","indexed":false,"internalType":"uint256"},{"name":"burnCoin","type":"uint256","indexed":false,"internalType":"uint256"},{"name":"ticketCoin","type":"uint256","indexed":false,"internalType":"uint256"},{"name":"dgnrsMinted","type":"uint256","indexed":false,"internalType":"uint256"},{"name":"rngWord","type":"uint256","indexed":false,"internalType":"uint256"},{"name":"finalDay","type":"bool","indexed":false,"internalType":"bool"}],"anonymous":false},{"type":"event","name":"PresaleJackpot","inputs":[{"name":"round","type":"uint8","indexed":true,"internalType":"uint8"},{"name":"mintedTotal","type":"uint256","indexed":false,"internalType":"uint256"},{"name":"rngWord","type":"uint256","indexed":false,"internalType":"uint256"}],"anonymous":false},{"type":"event","name":"PresaleStopQueued","inputs":[{"name":"queuedDay","type":"uint48","indexed":true,"internalType":"uint48"},{"name":"stopDay","type":"uint48","indexed":true,"internalType":"uint48"}],"anonymous":false},{"type":"error","name":"AlreadyResolved","inputs":[]},{"type":"error","name":"AlreadySet","inputs":[]},{"type":"error","name":"BankCallFailed","inputs":[]},{"type":"error","name":"InsufficientScore","inputs":[]},{"type":"error","name":"InvalidBps","inputs":[]},{"type":"error","name":"MinimumDeposit","inputs":[]},{"type":"error","name":"NotExpired","inputs":[]},{"type":"error","name":"NotReady","inputs":[]},{"type":"error","name":"PresaleClosed","inputs":[]},{"type":"error","name":"PurchasesDisabled","inputs":[]},{"type":"error","name":"SaleClosed","inputs":[]},{"type":"error","name":"Unauthorized","inputs":[]}],"bytecode":{"object":"0x60806040523461002257610011610151565b60405161759b610227823961759b90f35b5f80fd5b6100366100336100339290565b90565b61ffff1690565b6100366100336100339261ffff1690565b9061005e61003361007e9261003d565b8254906dffff0000000000000000000000009060601b9181191691161790565b9055565b61003390610096906001600160a01b031682565b6001600160a01b031690565b61003390610082565b610033906100a2565b634e487b7160e01b5f52604160045260245ffd5b90601f01601f191681019081106001600160401b038211176100e957604052565b6100b4565b8015150361002257565b90505190610105826100ee565b565b9060208282031261002257610033916100f8565b61012490610096565b9052565b91602061010592949361014260408201965f83019061011b565b0152565b6040513d5f823e3d90fd5b61016661015f612710610026565b600661004e565b5f60206101c461018f61018a738464135c8f25da09e49bc8782676a84730c318bc81565b6100ab565b60405163095ea7b360e01b815293849283919082908219738a791620dd6260079bf849dc5567adc3f2fdc31860048401610128565b03925af18015610221576101dd915f916101f457501590565b6101e357565b632c62cb9160e21b5f908152600490fd5b610216915060203d60201161021a575b61020e81836100c8565b810190610107565b1590565b503d610204565b61014656fe60806040526004361015610011575f80fd5b5f3560e01c806311061a0e146101705780631a301ca01461016b578063226b20d61461016657806327a70308146101615780632ef0c76d1461015c5780633944fc8e146101575780633f891a2b1461015257806346d9c8a91461014d57806347da6496146101485780636400b620146101435780636b8531b21461013e5780636e106ab9146101395780639cd9d61914610134578063b68dbd511461012f578063ba87e8771461012a578063bdb337d114610125578063be85fea314610120578063c2dfe9231461011b578063cb88d6c214610116578063e291388814610111578063e2ddcae71461010c5763feb3a1e30361017557610620565b6105d8565b610599565b610554565b610500565b6104e8565b6104d5565b6104ba565b610492565b61043e565b6103e0565b6103c5565b6103ad565b610366565b610328565b610310565b6102e3565b6102d0565b6102a6565b610262565b61020f565b610183565b5f80fd5b5f91031261017557565b3461017557610193366004610179565b61019b6106da565b60405180805b0390f35b6001600160a01b031690565b90565b6001600160a01b0381165b0361017557565b905035906101d3826101b4565b565b806101bf565b905035906101d3826101d5565b9190604083820312610175576101b190602061020482866101c6565b94016101db565b9052565b34610175576101a161022b6102253660046101e8565b90610734565b6040519182918290815260200190565b6101b1916008021c5b61ffff1690565b906101b1915461023b565b6101b1600c600661024b565b3461017557610272366004610179565b6101a161027d610256565b6040519182918261ffff909116815260200190565b90602082820312610175576101b1916101c6565b6101a161022b6102b7366004610292565b61076a565b90602082820312610175576101b1916101db565b61019b6102de3660046102bc565b6107d2565b34610175576102f3366004610179565b6101a16102fe6107db565b60405191829182901515815260200190565b3461017557610320366004610179565b61019b61082b565b346101755761019b61033b3660046102bc565b6108e2565b6101b1916008021c5b60ff1690565b906101b19154610340565b6101b1600b600661034f565b3461017557610376366004610179565b6101a16102fe61035a565b62ffffff81166101bf565b905035906101d382610381565b90602082820312610175576101b19161038c565b346101755761019b6103c0366004610399565b610b7f565b34610175576101a161022b6103db3660046102bc565b610def565b34610175576103f0366004610179565b6101a16103fb610e15565b604051918291826001600160a01b03909116815260200190565b8015156101bf565b905035906101d382610415565b90602082820312610175576101b19161041d565b346101755761019b61045136600461042a565b610e71565b63ffffffff81166101bf565b905035906101d382610456565b9190604083820312610175576101b190602061048b82866101db565b9401610462565b34610175576101a16102fe6104a836600461046f565b90611439565b6101b16004600661034f565b34610175576104ca366004610179565b6101a16102fe6104ae565b6104e0366004610179565b61019b611444565b34610175576104f8366004610179565b61019b6114ec565b6101a161022b610511366004610292565b6118ba565b65ffffffffffff81166101bf565b905035906101d382610516565b9190604083820312610175576101b190602061054d82866101db565b9401610524565b34610175576101a16102fe61056a366004610531565b90612374565b9091606082840312610175576101b161058984846101db565b93604061020482602087016101db565b61019b6105a7366004610570565b9161258e565b61ffff81166101bf565b905035906101d3826105ad565b90602082820312610175576101b1916105b7565b346101755761019b6105eb3660046105c4565b612626565b9091606082840312610175576101b161060984846101c6565b93604061061982602087016101db565b940161038c565b346101755761019b6106333660046105f0565b91612754565b6101b19060201c610349565b6101b19054610639565b9064ff000000009060201b5b9181191691161790565b906106756101b161067c92151590565b825461064f565b9055565b61068d6101b16101b19290565b65ffffffffffff1690565b906affffffffffff00000000009060281b61065b565b61068d6101b16101b19265ffffffffffff1690565b906106d36101b161067c926106ae565b8254610698565b5f5160206175465f395f51905f523303610724576106ff6106fb6006610645565b1590565b61070557565b61071160016006610665565b6101d361071d42610680565b60066106c3565b6282b42960e81b5f908152600490fd5b5f5160206175465f395f51905f523303610724576101b19160019161278b565b6101a56101b16101b19290565b6101b190610754565b5f5160206175465f395f51905f5233146107245761078a6101a55f610761565b6001600160a01b038216036107a757506101b15f335b349061278b565b5f6101b1916107a0565b5f5160206175465f395f51905f523303610724576101d3906101d390612ea1565b6101d3906107b1565b6107e56006610645565b6107f9576101b16107f461336b565b6133e4565b5f90565b734ed7c70f96b99c776995fb64377f0d4ab3b0e1c13303610724576101d36101d3610826613461565b6134be565b6101d36107fd565b6101b16101b16101b19290565b6101b1906101a5906001600160a01b031682565b6101b190610840565b6101b190610854565b634e487b7160e01b5f52604160045260245ffd5b90601f01601f1916810190811067ffffffffffffffff82111761089c57604052565b610866565b905051906101d382610381565b90602082820312610175576101b1916108a1565b6040513d5f823e3d90fd5b6108da6101b16101b19290565b62ffffff1690565b6108eb5f610833565b81146109dc576108fb6006610645565b6109cb57610907613583565b6109ba576109136135e3565b1561092f5760016101d3916109275f6108cd565b905b33613675565b61094b6109465f5160206175465f395f51905f5281565b61085d565b602061095660405190565b636fd5ae1560e01b815291829060049082905afa9182156109b5576101d3926001925f91610986575b5090610929565b6109a8915060203d6020116109ae575b6109a0818361087a565b8101906108ae565b5f61097f565b503d610996565b6108c2565b63555ba1f960e11b5f908152600490fd5b634c013bd760e01b5f908152600490fd5b6358f1c8d360e11b5f908152600490fd5b6108da6101b16101b19262ffffff1690565b90610a09906109ed565b5f5260205260405f2090565b6101b190610349565b6101b19054610a15565b6101b19060081c610349565b6101b19054610a28565b6101b19081565b6101b19054610a3e565b634e487b7160e01b5f52603260045260245ffd5b6002821015610a78576004905b910201905f90565b610a4f565b90610a099061085d565b905f199061065b565b90610aa06101b161067c92610833565b8254610a87565b634e487b7160e01b5f52601160045260245ffd5b81810292918115918404141715610ace57565b610aa7565b634e487b7160e01b5f52601260045260245ffd5b90610af1565b9190565b908115610afc570490565b610ad3565b91908201809211610ace57565b91908203918211610ace57565b6101b1906108da565b6101b19054610b1b565b6101b16101b16101b19262ffffff1690565b8054919291831015610a7857600a610b5d6003925f5260205f2090565b8185040193060290565b6101b1916008021c6108da565b906101b19154610b67565b610b8c6101b1825f6109ff565b60118101610b9c6106fb82610a1e565b6109cb57610baa5f91610a34565b90610bb760128401610a45565b610bc05f610833565b8103610d6e575b50905060148201610be0610bdb3383610a7d565b610a45565b90610bea5f610833565b8203610d41575b5050610bfc5f610833565b8114610d3c57610c5692610c3d60136106fb9401610c37610c1c82610a45565b91858310610d3057610bdb610c318785610b0e565b82610a90565b90610b0e565b90610c475f610833565b8203610c6d575b5050336137ec565b610c5c57565b632c62cb9160e21b5f908152600490fd5b5f90610c796002610b24565b90610c835f6108cd565b62ffffff831611610cbf575b5050610c9c575b80610c4e565b610cb2610cb991610cad6003610a45565b610b0e565b6003610a90565b5f610c96565b600191610ccd6101b1845490565b610cd682610b2e565b03610ce757505090505b5f80610c8f565b610d136108da5f610d0d610d07610d01610d1c9689610b40565b90610b74565b826109ff565b01610b24565b9162ffffff1690565b10610d28575b50610ce0565b90505f610d22565b610bdb610c315f610833565b505050565b91610d62610d6793610d5d610d555f610833565b913390610a7d565b610a90565b610b01565b5f80610bf1565b6009840192610d8e610bdb6003610d858488610a63565b50013390610a7d565b90610d985f610833565b8203610da6575b5050610bc7565b610dcf9350610de694610d5d6003610d85610dca94610dc45f610833565b94610a63565b610abb565b610de0670de0b6b3a7640000610833565b90610ae7565b805f8080610d9f565b6101b190613976565b6101b1730165878a594ca255338adfa4d48449f69242eb8f61085d565b6101b1610946610df8565b6103496101b16101b19290565b6101b16002610e20565b6101b16001610e20565b9060ff9061065b565b6103496101b16101b19260ff1690565b90610e6a6101b161067c92610e4a565b8254610e41565b15610e91576101d3610e81610e37565b610e8c336007610a7d565b610e5a565b6101d3610e9c610e2d565b610e81565b91905f5160206175465f395f51905f523303610724576101b192610fda565b610ecd6101b16101b19290565b63ffffffff1690565b6101b16003610ec0565b9062ffffff9061065b565b90610efb6101b161067c926109ed565b8254610ee0565b60016101b1910162ffffff1690565b610f1f9062ffffff16610d13565b90039062ffffff8211610ace57565b6101b19060181c6108da565b6101b19054610f2e565b6101b19060081c6108da565b6101b19054610f44565b9081526060810193926101d3929091604091610f7d905b62ffffff166020830152565b019060ff169052565b6101b190610833565b0190565b610fa86101b193610f7160608401945f850152565b604081830391015260078152667265736f6c766560c81b602082015260400190565b60016101b1910163ffffffff1690565b5090610fe55f610ec0565b63ffffffff8216036114335750610ffa610ed6565b905b5f809261100761336b565b611012816006610eeb565b829361102561102083613a98565b613b13565b509280916001948561103d611038825490565b6108cd565b946110486002610b24565b915b611155575b5050505050825b61107c575b5050901591506110689050565b806110705790565b611078614318565b5090565b831580611136575b156111315763ffffffff821663ffffffff86161015611120576110bf6101b16110b9610d016110b36002610b24565b87610b40565b5f6109ff565b6110cb60118201610a1e565b1561111a578394956110f2610cb26110e860136111139501610a45565b610d626003610a45565b61110e6111076111026002610b24565b610f02565b6002610eeb565b610fca565b9493611056565b5061105b565b5050905061106891505f808061105b565b61105b565b506111416002610b24565b61114f62ffffff8316610d13565b10611084565b9798978762ffffff871662ffffff8416101561142a575063ffffffff871663ffffffff8a1610156114165761119c6111966101b16110b9610d01868d610b40565b92610f02565b9160118101896111ab82610a1e565b61140e575086919081906111c66111c183610b24565b613b68565b6111cf84610b24565b6005906111de610d13836108cd565b11156113ff57611200906111fa6111f487610b24565b916108cd565b90610f11565b9061120a85610b24565b611217610d13600a6108cd565b146113ed575b6112296108da86610f3a565b62ffffff8b16101591826113d7575b50816113ae575b508061138c575b61133f575b6112576108da84610b24565b62ffffff89161015908161132b575b5061128e575b505061127d575b875b99989961104a565b6112878899610fca565b9850611273565b90915061129d81959395613fdb565b80611323575b1561131957826112b291614077565b15611310576112ee611306926112ca6112e293610b24565b906112d460405190565b938492602084019283610f93565b9081038252038261087a565b6113006112f9825190565b9160200190565b20610f86565b915b875f8061126c565b50915086611308565b5050915086611308565b5084156112a3565b61133991506106fb90610a1e565b5f611266565b92509480611351886113849389613bbb565b6112ee61135d84610b24565b61136960048a01610a1e565b926112e261137660405190565b948593602085019384610f5a565b948a9261124b565b5061139960048301610f50565b6113a762ffffff8a16610d13565b1415611246565b90506113d06113c96113c260048601610a1e565b9260ff1690565b9160ff1690565b105f61123f565b90915062ffffff1662ffffff8a1610905f611238565b90506113f960066108cd565b9061121d565b506114095f6108cd565b611200565b915050611275565b50505050508280955093945f80808061104f565b5098979861104f565b90610ffc565b6101b191905f610ea1565b6101d36114586114535f610833565b6144e3565b612ea1565b6101b19060281c61068d565b6101b1905461145d565b61148c9065ffffffffffff165b9165ffffffffffff1690565b019065ffffffffffff8211610ace57565b6101b16101b16101b19265ffffffffffff1690565b61020b90610833565b9160206101d39294936114d560408201965f8301906114b2565b0152565b9081526040810192916101d39160200152565b6114f66006611469565b6115026114805f610680565b146107245761152f61152a6115176006611469565b6115246301e13380610680565b90611473565b61149d565b42111561166957738a791620dd6260079bf849dc5567adc3f2fdc3186115543061085d565b319061155e614554565b906115685f610833565b8314158015611657575b6115b4575b507fa45aeba284c236011063be47227cc4274efe7c17a7a93de0e4030675c1c19988916115af6115a660405190565b928392836114d9565b0390a1565b6109466115c09161085d565b9163e2bbb15892803b15610175576115e6935f916115dd60405190565b95869260e01b90565b82528184816115f98887600484016114bb565b03925af19283156109b5577fa45aeba284c236011063be47227cc4274efe7c17a7a93de0e4030675c1c1998893611632575b5091611577565b61164a905f5b611642818361087a565b810190610179565b5f61162b565b503d611638565b506116615f610833565b821415611572565b63d0404f8560e01b5f908152600490fd5b6101b19060181c610349565b6101b1905461167a565b6101b1662386f26fc10000610833565b905051906101d382610415565b90602082820312610175576101b1916116a0565b9160206101d39294936116db60408201965f8301906114b2565b01906114b2565b6102446101b16101b19290565b6101b16103e86116e2565b90610a09906106ae565b6101b19061068d565b6101b19054611704565b9065ffffffffffff9061065b565b906117356101b161067c926106ae565b8254611717565b6101b168056bc75e2d63100000610833565b61020b906001600160a01b031660601b90565b01809261174e565b906101d361177660405190565b928361087a565b6101b16040611769565b8054821015610a7857610a706002915f5260205f2090565b634e487b7160e01b5f525f60045260245ffd5b906001600160a01b039061065b565b906117d16101b161067c9261085d565b82546117b2565b600161180460206101d3946117ff6117f95f8301516001600160a01b031690565b866117c1565b015190565b9101610a90565b919061181a576101d3916117d8565b61179f565b90815491600160401b83101561089c57826118429160016101d395018155611787565b9061180b565b8054821015610a7857610a706001915f5260205f2090565b915f1960089290920291821b911b61065b565b921b90565b91906118896101b161067c93610833565b908354611860565b90815491600160401b83101561089c57826118b49160016101d395018155611848565b90611878565b906118c56006610645565b6109cb576118d36006611686565b611caa576118e26101b1611690565b3410611ce4576118f0613583565b6109ba5761191261094673610178da211fef7d417bc0e6fed39f05609ad78881565b602061191d60405190565b6302989ae560e51b815291829060049082905afa80156109b557611947915f91611cbb575b501590565b611caa57611953613461565b916119606110205f6108cd565b50738a791620dd6260079bf849dc5567adc3f2fdc3185f5160206175465f395f51905f526119a461199a611994601e610833565b34610abb565b610de06064610833565b6119b461199a6119946032610833565b6119ce6109466119c883610cad8634610b0e565b9561085d565b63e2bbb158813b15610175575f916119f4916119e960405190565b958693849260e01b90565b825281611a058680600484016116c1565b03925af19182156109b557611a2092611c95575b50826145da565b611a295f610833565b8203611c2e575b5050611a3e6101a55f610761565b6001600160a01b03821603611c255750611bb1335b611a65611a5e6116ef565b34836146c4565b610946611b5b6110783496611a78600b90565b90611adb60028301611a96610c31611a8f83610a45565b3490610b01565b611ab6611aa48460086116fa565b611ab0611a8f82610a45565b90610a90565b600d8401611ac38161170d565b611acf6114805f610680565b14611bfb575b50610a45565b611ae9610aed6101b161173c565b1015611bec575b506005611b54611b447fba3642690f75858c79862f02da6405d1687adaf10fc26a47c479419532d0a6046112ee611b2660405190565b80926112e28c602084019283602081611761610f8f93601496959052565b611b4e6001610833565b16610e20565b9101610a63565b611b8760018201611b6a61177d565b6001600160a01b038616815290611b82346020840152565b61181f565b611bab611ba5600283610f8f611b9f611a8f83610a45565b86610a90565b91610a45565b90611891565b7f8ae78bdc1ef9914766530de02e8e7878c0e7713a7bc64f923897bbc847a3f250611bdb60405190565b80611be73434836114d9565b0390a2565b611bf5906134be565b5f611af0565b611c1f90611c19611c0c6001610680565b860165ffffffffffff1690565b90611725565b5f611ad5565b611bb190611a53565b610946611c3a9161085d565b639cb34357813b15610175575f91611c6091611c5560405190565b948593849260e01b90565b825284151560048301526024925af180156109b557611c80575b80611a30565b611c8f905f611642818361087a565b5f611c7a565b611ca4905f611642818361087a565b5f611a19565b63178883df60e01b5f908152600490fd5b6106fb915060203d602011611cdd575b611cd5818361087a565b8101906116ad565b503d611ccb565b63631ad4f960e11b5f908152600490fd5b91905f5160206175465f395f51905f523303610724576101b192611e23565b6101b19060301c61068d565b6101b19054611d14565b611d3b9065ffffffffffff16611480565b90039065ffffffffffff8211610ace57565b6101b16117706116e2565b6101b16101b16101b19261ffff1690565b6101b1683635c9adc5dea00000610833565b6101b1611d86611d69565b610dca6107d0610833565b6101b1611d9c611d69565b610dca6014610833565b6101b15f610e20565b9194611dee611df592989795611de760a096611ddd6101d39a611dd660c08a019e5f8b0152565b6020890152565b60408701906114b2565b6060850152565b6080830152565b019015159052565b9063ff0000009060181b61065b565b90611e1c6101b161067c92151590565b8254611dfd565b50611e2d5f610833565b811461236e57611e3d6006611686565b61236e57600e91600b90611e5361068d8561170d565b65ffffffffffff8216111561236657611e6c8185611725565b600d8201611e798161170d565b611e856114805f610680565b14612342575b50611e968282614838565b611e9f84611d20565b611eab6114805f610680565b14159384612321575b505f9182611ec15f610680565b65ffffffffffff8416036122f9575b611ee4611edf60028401610a45565b6149c0565b611eee8184610a90565b6001830190611eff6101b183610a45565b8111156122e257611f19611f3191610c37611f3c94610a45565b955b611f2b611f26611d4d565b611d58565b90610abb565b610de0612710610833565b848111156122dc5750835b8685816122d2575b506122ca575b50858194611f625f610833565b8103612232575b507f4108f762cc53e4b353d7478bd6d1492528edb5bbe5bf19369defb7784fd3466f94956004611f97611d7b565b940193611fa9610aed6101b187610a45565b111561222457611fc3611fba611d7b565b610c3786610a45565b83948491611fe0611fd2611d91565b611fda611d91565b90610b01565b611fe95f610833565b82141580612212575b612162575b505084956120045f610833565b8103612124575b506120155f610833565b82036120df575b505061202c6120409394956106ae565b965f61203760405190565b96879687611daf565b0390a261204c57600190565b61205860016006611e0c565b61207661094673610178da211fef7d417bc0e6fed39f05609ad78881565b803b15610175575f61208760405190565b633f891a2b60e01b8152918290600490829084905af190816120ca575b506120c5575b6120c05f5160206175465f395f51905f52615549565b600190565b6120aa565b6120d9905f611642818361087a565b5f6120a4565b6120fd60016120f76120f16003610833565b86614a26565b84615176565b1561201c576120409495509061211d82611ab083610d6261202c96610a45565b949361201c565b6121436121346120f16002610833565b61213c611da6565b9083614e0c565b1561200b5790945061215b611b9f82610d6288610a45565b935f61200b565b909650909150808610156121985761218861218f9161218388610dca611d91565b610ae7565b8096610b0e565b905b5f80611ff7565b94906121a2611d91565b80966121ac611d91565b9081948780612209575b6121c4575b50505050612191565b611fda929399506121ff949550906121db91610b0e565b976121f96121f26121ec6002610833565b8b610ae7565b8092610b01565b98610b0e565b905f8080806121bb565b508181116121b6565b5061221c5f610833565b811415611ff2565b61222d5f610833565b611fc3565b7f4108f762cc53e4b353d7478bd6d1492528edb5bbe5bf19369defb7784fd3466f95506122959061226e60058601612268610e37565b90610a63565b50612285610aed61227f6001610833565b8b614a26565b9161228f5f6108cd565b92614a9c565b95866122a05f610833565b81036122af575b509594611f69565b6122c490611ab06001870191610d6283610a45565b5f6122a7565b93505f611f55565b905081115f611f4f565b93611f47565b5050611f3c611f316122f35f610833565b95611f1b565b925061231b610bdb61231461230e6001610680565b85611d2a565b60086116fa565b92611ed0565b61233091945061068d90611d20565b65ffffffffffff84161015925f611eb4565b61236090611c196123536001610680565b840165ffffffffffff1690565b5f611e8b565b505050505f90565b50505f90565b6101b191905f611cf5565b91905f5160206175465f395f51905f523303610724576101d3926123cf565b6001600160a01b0390911681526060810193926101d39290916040916114d5905b6001600160a01b03166020830152565b915f916123db5f610833565b81036124d0575b506123fe91926123f15f610833565b81036124b2575b506155f3565b6124086006610645565b612424576124155f610833565b34141580156124a0575b612427575b50565b612445610946738a791620dd6260079bf849dc5567adc3f2fdc31881565b9063e2bbb15890823b156101755761247e926124725f9361246560405190565b9586948593849360e01b90565b835286600484016114bb565b039134905af180156109b5576124915750565b6101d3905f611642818361087a565b506124aa5f610833565b81141561241f565b6124c36124ca91610d626004610a45565b6004610a90565b5f6123f8565b61252f60206124dd614554565b926124fc610946738464135c8f25da09e49bc8782676a84730c318bc81565b6125053061085d565b5f61250f60405190565b8096819582946125236323b872dd60e01b90565b8452336004850161239e565b03925af19081612571575b5061256c575b612548614554565b818111612556575b506123e2565b6123fe93509061256591610b0e565b915f612550565b612540565b6125899060203d602011611cdd57611cd5818361087a565b61253a565b906101d3929161237f565b734ed7c70f96b99c776995fb64377f0d4ab3b0e1c13303610724576101d3906125f5565b9061ffff60601b9060601b61065b565b6102446101b16101b19261ffff1690565b906125ee6101b161067c926125cd565b82546125bd565b6126006127106116e2565b61ffff821611612615576101d39060066125de565b63c6cc5d7f60e01b5f908152600490fd5b6101d390612599565b91905f5160206175465f395f51905f523303610724576101d39261266b565b6001600160a01b0390911681526040810192916101d39160200152565b9190916126775f610833565b83148015612737575b610d3c5761268e6006610645565b6109cb5761269a6135e3565b6126a35f6108cd565b62ffffff8416141590811561272f575b5080612720575b156126cb57906101d3925f92613675565b90506126d8610946610df8565b91823b156101755761270f925f92836126f060405190565b8096819582946127046340c10f1960e01b90565b84526004840161264e565b03925af180156109b5576124915750565b5061272a81615652565b6126ba565b90505f6126b3565b506127446101a55f610761565b6001600160a01b03821614612680565b906101d3929161262f565b905051906101d3826101d5565b90602082820312610175576101b19161275f565b6101b161012c6116e2565b92915f906127985f610833565b83146109cb5715938480612e26575b611ce4576127b56006610645565b6109cb578480612e18575b6109ba575f5160206175465f395f51905f52906127df6109468361085d565b9160206127eb60405190565b636fd5ae1560e01b815293849060049082905afa9283156109b5575f93612df7575b5061281a6106fb846133e4565b6109ba576128288793613a98565b9361283285613b13565b936129cb575b50506128448482615699565b908196612911575b7f6a9c8c78d6bcddcbd4a3746a265ce7cab99e02d2eee16b2df4eba543c5a4b20b926128ec916128e6916128a360058201611ab08785600786016008870161289d610aed61289988610a45565b9390565b90615770565b600160038201916128c06128ba8b610d6286610a45565b84610a90565b016128ca81610a45565b6128d9610aed6101b185610a45565b106128fe575b505061085d565b936109ed565b936128f96115a660405190565b0390a3565b611ab061290a92610a45565b5f806128df565b61292361291c612780565b86836146c4565b612941610946732279b7a0a67db372996a5fab50d91eaa73d2ebe681565b90813b15610175575f61295360405190565b9283906306495a6f60e41b82528183816129718c886004840161264e565b03925af19081156109b5577f6a9c8c78d6bcddcbd4a3746a265ce7cab99e02d2eee16b2df4eba543c5a4b20b946128ec936128e6936129b6575b50945091505061284c565b6129c5905f611642818361087a565b5f6129ab565b6129e161199a6129db6028610833565b88610abb565b6129f761199a6129f16014610833565b89610abb565b8092612a2283610cad8b610cad612a1a61199a612a14600a610833565b84610abb565b988992610b0e565b92738a791620dd6260079bf849dc5567adc3f2fdc3188291612a435f610833565b8103612c9e575b829350612a565f610833565b8314159283612c26575b612a6991610b0e565b90612a735f610833565b8203612bc4575b5050612b6e575b50612a8b5f610833565b8103612b19575b50612a9c5f610833565b8103612ac3575b50612aad5f610833565b811461283857612abc916145da565b5f80612838565b612acf6109468461085d565b639cb34357813b15610175575f91612aea91611c5560405190565b825284151560048301526024925af180156109b55715612aa357612b13905f611642818361087a565b5f612aa3565b612b256109468561085d565b639cb34357813b15610175575f91612b4091611c5560405190565b8252600160048301526024925af180156109b55715612a9257612b68905f611642818361087a565b5f612a92565b612b7a6109468661085d565b639cb34357813b15610175575f91612b9591611c5560405190565b825284151560048301526024925af180156109b55715612a8157612bbe905f611642818361087a565b5f612a81565b610946612bd09161085d565b63e2bbb158813b15610175575f91612beb91611c5560405190565b825281612bfc8680600484016116c1565b03925af180156109b557612c11575b80612a7a565b612c20905f611642818361087a565b5f612c0b565b50612c336109468361085d565b9063e2bbb15891612c435f610833565b92813b15610175575f91612c5a916119e960405190565b825281612c6b8b87600484016114bb565b03925af19081156109b557612a69928692612c89575b509150612a60565b612c98905f611642818361087a565b5f612c81565b83612cbd610946738464135c8f25da09e49bc8782676a84730c318bc81565b90612cf360208b612ccd60405190565b9283918291906370a0823160e01b5b83526001600160a01b031660048301526024820190565b0381865afa5f9181612dc6575b50612dbf57505b612d105f610833565b8103612d1e575b5050612a4a565b82811015612db1576020612d5f9180975b938c5f612d3b3061085d565b91612d4560405190565b968795869485936323b872dd60e01b85526004850161239e565b03925af15f9181612d90575b50612d8957505b612d7e575b8380612d17565b915091908290612d77565b9050612d72565b612daa91925060203d602011611cdd57611cd5818361087a565b905f612d6b565b50612d5f6020838097612d2f565b9050612d07565b612de991925060203d602011612df0575b612de1818361087a565b81019061276c565b905f612d00565b503d612dd7565b612e1191935060203d6020116109ae576109a0818361087a565b915f61280d565b50612e21613583565b6127c0565b50612e326101b1611690565b83106127a7565b9060ff60581b9060581b61065b565b90612e586101b161067c92151590565b8254612e39565b90610e6a6101b161067c92151590565b612e846101b193610f7160608401945f850152565b60408183039101526002815261676f60f01b602082015260400190565b5f5160206175465f395f51905f5233141580613358575b61072457612ec96106fb6006610645565b61333b575b6001612edb816006612e48565b612ee45f610833565b82146133375790612ef43061085d565b90813192612f00614554565b93612f0b8582610b01565b92905f9483612f1b611038825490565b93612f266002610b24565b915b6131a8575b505083612f3a6002610b24565b905b613137575b50612f5b903194610cad612f53614554565b988994610b01565b9383612f676003610a45565b93612f726002610b24565b955b6130df575b5050612f86929350610b01565b818111612fd8575b50507f222a363ff36a71d83a452dedff2e925a28dd89a86fa7552b7887cc16b5f2cfb892506115af612fbf60405190565b9283928390815262ffffff909116602082015260400190565b90612fe291610b0e565b92612fec5f610833565b8403612ff9575b80612f8e565b838110156130d45761300c908094610b0e565b6130155f610833565b84141580156130c2575b15612ff357613042610946738a791620dd6260079bf849dc5567adc3f2fdc31881565b9363e2bbb15894803b156101755761306f5f9361307b9761306260405190565b9889958694859360e01b90565b835287600484016114bb565b03925af19283156109b5577f222a363ff36a71d83a452dedff2e925a28dd89a86fa7552b7887cc16b5f2cfb89315612ff3576130bc905f611642818361087a565b5f612ff3565b506130cc5f610833565b81141561301f565b5061300c8380610b0e565b9193909262ffffff831662ffffff8716101561312d57509061312061311a8493611fda60136131146110b9610d018c8a610b40565b01610a45565b95610f02565b9190889395949295612f74565b9281949250612f79565b61314884959693989462ffffff1690565b62ffffff8216101561319d5785601161317361316d6101b16110b9610d018787610b40565b93610f02565b92018161317f82610a1e565b6131965761318c91612e5f565b9493979295612f3c565b505061318c565b969194939296612f41565b9092979394956131ba8662ffffff1690565b62ffffff8516101561332d576131e26131dc6101b16110b9610d01888c610b40565b94610f02565b916011850191886131f284610a1e565b613323575061321b60098701611fda5f6132148d610dc4836132148188610a63565b5001610a45565b90896132265f610833565b831461330e57506132365f610833565b81146132ea57610aed83926101b18c6132a56112e26112ee5f6132818f996132746132ab9b6132628390565b8b111585146132e1578a9d8e916157cd565b908082116132d957610b0e565b9e019961328d8b610b24565b9061329760405190565b938492602084019283612e6f565b97612e5f565b106132bd5750865b9594989396612f28565b9150506132cb919650610b24565b945f80979295949397612f2d565b905080610b0e565b829d8e916157cd565b929950919461330193508892506132a59150610b24565b5f80979295949397612f2d565b92938391975061331e9250612e5f565b6132b3565b91925094506132b3565b9594939792612f2d565b5050565b61334760016006610665565b61335361071d42610680565b612ece565b506133666106fb6006610645565b612eb8565b6133826109465f5160206175465f395f51905f5281565b602061338d60405190565b636fd5ae1560e01b815291829060049082905afa9081156109b5575f916133b2575090565b6101b1915060203d6020116109ae576109a0818361087a565b6133d99062ffffff16610d13565b908115610afc570690565b6133ed5f6108cd565b62ffffff82161461343f57613402600a6108cd565b62ffffff821610613432576134219061341b600a6108cd565b906133cb565b61342e610d1360056108cd565b1090565b61342e610d1360066108cd565b505f90565b6101b1620142bc610680565b610af19065ffffffffffff16611480565b6101b161347e61347042610680565b613478613444565b90611d2a565b61348a62015180610680565b90613450565b906bffffffffffff0000000000009060301b61065b565b906134b76101b161067c926106ae565b8254613490565b6134c86006611686565b61242457600b9060036134eb6134de6001610680565b830165ffffffffffff1690565b92016134f681611d20565b6134ff5f610680565b65ffffffffffff821614908115613569575b5061351b57505050565b6135379161352c84613531936134a7565b6106ae565b916106ae565b907fce26361773ee10d9d5fec996057235554b5c04dd1607ba5d921791c5fe69d2b761356260405190565b80806128f9565b65ffffffffffff16905065ffffffffffff8416105f613511565b61359a6109465f5160206175465f395f51905f5281565b60206135a560405190565b630f3b90b560e01b815291829060049082905afa9081156109b5575f916135ca575090565b6101b1915060203d602011611cdd57611cd5818361087a565b61360161094673610178da211fef7d417bc0e6fed39f05609ad78881565b602061360c60405190565b6302989ae560e51b815291829060049082905afa5f9181613632575b506101b157505f90565b61364c91925060203d602011611cdd57611cd5818361087a565b905f613628565b60ff90911681526060810193926101d3929091604091611df5905b6020830152565b929192613692613684856158af565b61368d81613a98565b615908565b936136f2575b906128f96136df6136d1836136d99887897fb0c4c105e61062d2a1a39ad3d8d28c33e1fdc790f609e64dc83eba99f6089ba799986159fa565b97909361085d565b956109ed565b956136e960405190565b93849384613653565b91906136ff610946610df8565b94853b15610175575f61371160405190565b968790632770a7eb60e21b825281838161372f89896004840161264e565b03925af19586156109b5576136d1836128f99386897fb0c4c105e61062d2a1a39ad3d8d28c33e1fdc790f609e64dc83eba99f6089ba7996136df966136d99d613785575b50975050509850949550505050613698565b613794905f611642818361087a565b5f613773565b67ffffffffffffffff811161089c57602090601f01601f19160190565b906137c96137c48361379a565b611769565b918252565b3d156137e7576137dd3d6137b7565b903d5f602084013e565b606090565b6137f55f610833565b8214613839576138086106fb6006610645565b61390957816138163061085d565b316138205f610833565b81036138c7575b50506138325f610833565b8203613840575b5050600190565b61388491602091613865610946738464135c8f25da09e49bc8782676a84730c318bc81565b905f61387060405190565b80968195829461270463a9059cbb60e01b90565b03925af15f91816138a6575b5061389a57505f90565b156107f9575f80613839565b6138c091925060203d602011611cdd57611cd5818361087a565b905f613890565b8181106139035750805b5f806138dc60405190565b5f9085875af16138ea6137ce565b5015613827576138fb929350610b0e565b905f80613827565b906138d1565b6139206109465f5160206175465f395f51905f5281565b91823b156101755761394c925f928361393860405190565b809681958294612704630dd13d0960e01b90565b03925af180156109b557613961575b50600190565b613970905f611642818361087a565b5f61395b565b61397e61336b565b613989610946610df8565b602061399460405190565b63878bb03960e01b815291829060049082905afa9081156109b5575f91613a30575b506139c082615b7e565b906139ca5f610833565b8414613a1457906139da91610b01565b90828211613a09576139f9610aed6139f28486610b0e565b8093615c86565b8111613a09576101b19250610b01565b50506101b190615d9f565b6101b19350610d62610d629293613a2a5f610833565b90615c86565b613a49915060203d602011612df057612de1818361087a565b5f6139b6565b610af19062ffffff16610d13565b613a6b9062ffffff16610d13565b019062ffffff8211610ace57565b613a879062ffffff16610d13565b029062ffffff8216918203610ace57565b613aa06135e3565b613af657600a613aaf816108cd565b62ffffff831610613aec57613ae66111f4613ad66101b194613ad0856108cd565b90613a4f565b613ae060016108cd565b90613a5d565b90613a79565b6101b191506108cd565b506101b15f6108cd565b6101b1906101a5565b6101b19054613b00565b90613b216101b1835f6109ff565b91613b3161094660068501613b09565b613b4d613b406101a55f610761565b916001600160a01b031690565b14613b555750565b6101b1919250806110b96101b192615e59565b506101b16005610e20565b613b7f9060ff166113c9565b019060ff8211610ace57565b6101b16064610e20565b9063ffffff009060081b61065b565b90613bb46101b161067c926109ed565b8254613b95565b9190613bc96111c184610b24565b906004840191613bf16113c96113c2613be186610a1e565b613beb6001610e20565b90613b73565b03613e4757613c15613c0560038601610a45565b613c0f6005610a45565b906162b1565b90613c1f5f610833565b8214613e4057613c328260018701610a90565b6002850191613c4083610a45565b811115613e3857613c59613c5384610a45565b82610b0e565b92613c635f610833565b84141580613e18575b613ca6575b505050506101d392505b613ca1613c9b613c8b6001610e20565b613c9484610a1e565b0160ff1690565b82610e5a565b613ba4565b90613cb481613cff93610a90565b613cf586613cc460068a01613b09565b86868b6007810193613cdc6005600884019301610a45565b91613cef610aed613ceb613b8b565b9790565b9161600d565b610de0600a610833565b613d085f610833565b8103613d74575b507f9db6d4ac7aab4c18c7e59b3007525d8741c4d6da9025564a1b508ec91909c604613d3f5f6101d39701610b24565b91613d5b613d55613d4f87610a1e565b946109ed565b93610e4a565b93613d686115a660405190565b0390a35f808080613c71565b94613d80610946610df8565b803b1561017557613db75f97918892613d9860405190565b998a93849283919063e7640d4960e01b83526004830190815260200190565b03925af19586156109b5575f7f9db6d4ac7aab4c18c7e59b3007525d8741c4d6da9025564a1b508ec91909c60492613d3f926101d399613dfc575b5097505050613d0f565b613e1290833d851161165057611642818361087a565b5f613df2565b50613e2560058801610a45565b613e31610aed5f610833565b1415613c6c565b505050505050565b5050505050565b6001840190613e5582610a45565b613e61610aed5f610833565b148015613fb8575b613e405784613e8a5f613e7b83610b24565b613e8487610a1e565b90615f67565b90613e945f610833565b8214613faf576101d396613eb261199a8894610dca60038601610a45565b613ebc8196610a45565b90613ece6002850192610c3784610a45565b908110613fa7575b50613ee05f610833565b86141580613f87575b613ef9575b505050505050613c7b565b7f9db6d4ac7aab4c18c7e59b3007525d8741c4d6da9025564a1b508ec91909c60493613f5c93613f3383611ab08a610d62613f5797610a45565b8787613f4160068401613b09565b926007810193613cdc6005600884019301610a45565b610b24565b91613f6c613d55613d4f87610a1e565b93613f796115a660405190565b0390a35f8083818080613eee565b50613f9460058401610a45565b613fa0610aed5f610833565b1415613ee9565b95505f613ed6565b50505050505050565b50613fc560028601610a45565b613fd4610aed6101b185610a45565b1015613e69565b613ffd610aed611078613fec61336b565b93613ff56162e1565b948591616339565b101590565b61020b90610e20565b6040906116db6101d3949695939661402a60608401985f850190614002565b60208301906114b2565b9061ff009060081b61065b565b906140516101b161067c92610e4a565b8254614034565b60ff90911681526060810193926101d39290916040916116db9061366e565b5f90601181019261408784610a1e565b61430f5761409361336b565b91600981016140a65f6132148184610a63565b956140bb600197611fda5f6132148b87610a63565b946140cf6140c76162e1565b809286616339565b909182811061430157610c376101b1926140e894610b0e565b85116142f65786956140f95f610833565b861494856142a6576141179750614110818561644a565b9098901590565b614299577f914006043b235389433b8bd130ad65fd554b8b0f435efb88ebdc7a821198d13e9661414b6110788a8c97610a63565b918397156141c0575b505050506141929261416a61418d935f93612e5f565b61417660038201610a45565b61417f83610833565b81036141af575b5001610b24565b6109ed565b926141a95f6141a060405190565b93849384614058565b0390a290565b6141ba906005610a90565b5f614186565b6141dd6141d66141d06002610833565b84610ae7565b8093610b0e565b916141e88b87614041565b83906141f382610a45565b6141ff610aed5f610833565b11614259575b5050896142115f610833565b830361421e575b50614154565b5f95985093611fda61416a9461418d989461424b946141929b986142456106fb6006610645565b936165a7565b969383965081955089614218565b61428961428061429293610de0611ba561427a670de0b6b3a7640000610833565b86610abb565b60128b01610a90565b60138901610a90565b5f80614205565b5050505050505050505f90565b505061418d94505f935061416a9150946142bf95612e5f565b7f914006043b235389433b8bd130ad65fd554b8b0f435efb88ebdc7a821198d13e6142e960405190565b806141a95f80808461400b565b505050505050505f90565b505050505050505050505f90565b50505050600190565b5f90738a791620dd6260079bf849dc5567adc3f2fdc31861433c6106fb6006610645565b6144dd5761434a6003610a45565b9081906143563061085d565b319161437161436d614366614554565b8095610b01565b9490565b8411156144d45761438061336b565b9060019461438f611038875490565b928661439b6002610b24565b905b61446c575b50506143ae9250610b0e565b9182811015614461576143c2908093610b0e565b906143cc5f610833565b831415801561444f575b6143e1575b50505050565b6143f39192939495506109469061085d565b9163e2bbb15892803b156101755761306f5f936144209561441360405190565b9687958694859360e01b90565b03925af180156109b55761443a575b50905f8080806143db565b614449905f611642818361087a565b5f61442f565b506144595f610833565b8214156143d6565b506143c28280610b0e565b9091928761447c8662ffffff1690565b62ffffff841610156144cc5790611fda846144a661311a6101b16110b9610d01896144ac99610b40565b94616953565b93838510156144bf57939291908761439d565b505f985050505050505050565b5092916143a2565b505f9450505050565b505f9150565b6144ec5f610833565b81036101b1575061450a6109465f5160206175465f395f51905f5281565b602061451560405190565b91829063fb0f78bd60e01b5b825260049082905afa9081156109b5575f9161453b575090565b6101b1915060203d602011612df057612de1818361087a565b61459e6020614577610946738464135c8f25da09e49bc8782676a84730c318bc81565b6145803061085d565b9061458a60405190565b938492839182916370a0823160e01b612cdc565b03915afa5f91816145b9575b506101b157506101b15f610833565b6145d391925060203d602011612df057612de1818361087a565b905f6145aa565b906145e45f610833565b8114613337575f80916145fc610946610c569561085d565b9061460660405190565b90818003925af16119426137ce565b60ff81166101bf565b905051906101d382614615565b919060a0838203126101755761464181846108a1565b9261464f826020830161461e565b926101b161466084604085016116a0565b93608061467082606087016116a0565b940161275f565b91946146ba611df5929897956146ae60a09661469e6101d39a611dd660c08a019e5f8b0152565b6001600160a01b03166040870152565b62ffffff166060850152565b60ff166080830152565b9190916146d05f6116e2565b61ffff831614801561481d575b610d3c576146f86109465f5160206175465f395f51905f5281565b9260a061470460405190565b637f84d03d60e01b815294859060049082905afa80156109b5575f935f915f935f916147c9575b60209697505f92611f2b61474b61475194612183611f3195611f2b611d69565b91611d58565b6147a061477261094673610178da211fef7d417bc0e6fed39f05609ad78881565b9461477c84610833565b9461478660405190565b998a988997889663a83536a160e01b885260048801614677565b03925af180156109b5576147b15750565b6124249060203d602011612df057612de1818361087a565b9350506020945061474b9150614751611f315f92611f2b6148046121839a60a03d60a011614816575b6147fc818361087a565b81019061462b565b9750999550509650985050925061472b565b503d6147f2565b506148275f610833565b83146146dd565b6101b16031610680565b9061484560028201610a45565b614853610aed6101b161173c565b10614934575b506148716109465f5160206175465f395f51905f5281565b604051630fea127760e41b8152602081600481855afa9081156109b5575f91614915575b5061489f5f610833565b81036148aa57505050565b60206148b560405190565b632127096360e21b815292839060049082905afa9182156109b5575f926148ec575b50905b10156148e35750565b6101d3906134be565b6148da91925061490d610aed9160203d602011612df057612de1818361087a565b9291506148d7565b61492e915060203d602011612df057612de1818361087a565b5f614895565b600d614940910161170d565b6149495f610680565b65ffffffffffff8216146148595761068d61496b61497f926134786001610680565b61497361482e565b0165ffffffffffff1690565b65ffffffffffff82161015614995575b5f614859565b61499e816134be565b61498f565b6101b1680ad78ebc5ac6200000610833565b6101b1612ee06116e2565b611f316101b1916149ce5f90565b506149d76149a3565b90818111156149ed57505b611f2b611f266149b5565b90506149e2565b6101b190614a08610aed6101b19460ff1690565b901b90565b6101b190614a21610aed6101b19460ff1690565b901c90565b614a7690614a3d614a376020610e20565b826149f4565b18614a51614a4b600d610e20565b82614a0d565b18614a5f614a376007610e20565b1891614a72679e3779b97f4a7c15610833565b0290565b1890565b9060065b811015610a78576020020190565b6101b16101b16101b19260ff1690565b91939092915f9283614aad5f610833565b86148015614dbd575b614dad57614ac383610a45565b614acf610aed5f610833565b14614dad576002830154614ae5610aed5f610833565b14614dad57614afc614af5613b8b565b8097616a0f565b614b046135e3565b91614b0e5f6108cd565b62ffffff85161415928315614da5575b50945b600495614b2d87610833565b811015614c5c57614b45614b418285614a7a565b5190565b614b4e5f610833565b8103614b82575b506001015b614b648197610833565b8110614b71575b50614b21565b614b7b9199614a26565b975f614b6b565b614b8c8b88616cb9565b90614b996101a55f610761565b6001600160a01b03831603614baf575b50614b55565b909198868680614c4d575b15614bdb5790610d625f8493614bd395614b5a97613675565b97905f614ba9565b5090614be8610946610df8565b803b1561017557815f91614c1a95838d614c0160405190565b988995869485936340c10f1960e01b5b8552840161264e565b03925af19182156109b557614b5a93614bd393614c38575b50610b01565b614c47905f611642818361087a565b5f614c32565b50614c5784615652565b614bba565b5096614c6d91929498939550614a8c565b90600492614c7b6004610833565b905b83821015614d9a5781614c8f91614a26565b9081614ca76101b1614ca16001610833565b87610b0e565b8203614d8557614cc3614b41614cbd6005610833565b86614a7a565b905b614cce5f610833565b8203614ce1575b50506001015b90614c7d565b614ceb908c616cb9565b90614cf86101a55f610761565b6001600160a01b03831614614cd557909198888880614d76575b15614d335790610d625f8493614d2b95614cdb97613675565b97905f614cd5565b5090614d40610946610df8565b803b1561017557815f91614d5995838b614c0160405190565b03925af19182156109b557614cdb93614d2b93614c385750610b01565b50614d8084615652565b614d12565b614d94614b41614cbd88610833565b90614cc5565b505050505050509150565b92505f614b1e565b505050925050506101b15f610833565b50614dc75f610833565b8714614ab6565b6101b16105dc6116e2565b6101b16101f46116e2565b6101b160c86116e2565b6101b160646116e2565b6101b16005610e20565b6101b16032610e20565b9092915f90614e1a5f610833565b8314801561515b575b61515357614e35611078826010610a63565b92614e3f84610a45565b614e4b610aed5f610833565b146144d457614e58614dce565b614e6190611d58565b614e6b9082610abb565b9361271094614e7986610833565b614e8291610ae7565b968792614e8d614dd9565b614e9690611d58565b614ea09082610abb565b614ea988610833565b614eb291610ae7565b95614ebb614de4565b614ec490611d58565b614ece9083610abb565b614ed789610833565b614ee091610ae7565b97614ee9614dee565b614ef290611d58565b614efc9084610abb565b90614f0690610833565b614f0f91610ae7565b94614f18614df8565b9a614f228c614a8c565b614f2c908a610abb565b614f369082610b01565b614f3f8d614a8c565b614f49908c610abb565b614f5291610b01565b93614f5b614e02565b94614f6586614a8c565b614f6f908a610abb565b614f7891610b01565b90808210615147575b505050614f8e8486616cb9565b614f9a6101a55f610761565b6001600160a01b0382161461513857614fb4918891616d70565b60019788614fc181610833565b98614fcb5f610833565b81036150c9575b5050614fdd5f610833565b8103615065575b5087989950614ff25f610833565b8503615004575b505050505050505090565b918796975b615016575b869750614ff9565b61501f82614a8c565b831015615060576150516150368961505893614a26565b9361504b8888615046888a616cb9565b616d70565b60010190565b9760010190565b969186615009565b61500e565b889a829b5b615075575b50614fe4565b615085819c959c9b9a999b614a8c565b8510156150bd576150b76150b06150a08d9e9d8c9d9e614a26565b9661504b8b866150468b8d616cb9565b9c60010190565b9861506a565b8b94509997989961506f565b81908d85935b6150dc575b505090614fd2565b6150ef909b939b9a99989791929a614a8c565b8b101561512a5761511a899a9b61504b899a9b856150466151138961512198614a26565b809d616cb9565b9260010190565b99908d826150cf565b9596979890829a508d6150d4565b505f9a50505050505050505050565b030190505f8080614f81565b505f93505050565b506151655f610833565b8514614e23565b90610a09906108cd565b9092915f906151845f610833565b83148015615538575b61515357156155095761519f5f6108cd565b6151ac6101b15f8061516c565b6151b860118201610a1e565b6144d4579060096151d6925b016151cf878261644a565b9093901590565b6154ff576151e2614dce565b6151eb90611d58565b6151f59086610abb565b946127109561520387610833565b61520c91610ae7565b978891615217614dd9565b61522090611d58565b61522a9082610abb565b61523389610833565b61523c91610ae7565b9686615246614de4565b61524f90611d58565b6152599084610abb565b6152628b610833565b61526b91610ae7565b99615274614dee565b61527d90611d58565b6152879085610abb565b9061529190610833565b61529a91610ae7565b956152a3614df8565b9c8d8c8c6152b083614a8c565b6152b991610abb565b6152c39084610b01565b916152cd90614a8c565b6152d691610abb565b6152df91610b01565b946152e8614e02565b956152f287614a8c565b6152fc908b610abb565b61530591610b01565b908082106154df575b50505061531e9161107891610a63565b936153298486616cb9565b6153356101a55f610761565b6001600160a01b038216146154cf5787615350928a92616f14565b6001988961535d81610833565b996153675f610833565b810361546a575b50506153795f610833565b81036153fd575b5088999a5061538e5f610833565b85036153a1575b50505050505050505090565b918897985b6153b3575b879850615395565b6153bc82614a8c565b8310156153f8576153e96153d38a6153f093614a26565b9361504b8989896153e4898b616cb9565b616f14565b9860010190565b9791876153a6565b6153ab565b909a8b8a5b615410575b508b9150615380565b90919293615421839c9b9a9c614a8c565b82101561545f579161545461544d85938e9f958d9e9f8c8b9a998f926151136153e49161504b96614a26565b9d60010190565b999c9091929c615402565b93929a98999a615407565b838e835b61547a575b505061536e565b61548c909c949596979192939c614a8c565b8210156154c35761511a839261504b8d8d88976153e46154b38f9e9d9c9b6154ba99614a26565b809e616cb9565b9a918e8361546e565b959493929a918e615473565b505f9b5050505050505050505050565b61107893985091610f8f6154f69261531e96940390565b9691819361530e565b505f955050505050565b61551961551461336b565b616e5a565b9081615527610d135f6108cd565b146144d4579060096151d6926151c4565b506155425f610833565b851461518d565b6155536009610a45565b9061555e600a610a45565b916155685f610833565b8114806155e2575b610d3c5761559d6155805f610833565b9161558c836009610a90565b61559783600a610a90565b836145da565b82036155a7575050565b6109466155b39161085d565b639cb34357813b15610175575f916155ce91611c5560405190565b82528415156004830152816024810161270f565b506155ec5f610833565b8314615570565b6155fc5f610833565b81146124245761561f61560f6004610a45565b6156196001610e20565b90614a0d565b906156295f610833565b8214613337575f61563a9183615176565b6156415750565b6124c36101d391610cad6004610a45565b61566861566d916156605f90565b506007610a7d565b610a1e565b615678610349610e37565b60ff82161461395b5761568f6113c9610349610e2d565b146107f957600190565b60206156d5916156a65f90565b506156be6109465f5160206175465f395f51905f5281565b60405193849283918291636307dfe560e01b612cdc565b03915afa80156109b5576101b192611f31925f926156f4575b50610abb565b61570e91925060203d602011612df057612de1818361087a565b905f6156ee565b916001600160a01b0360089290920291821b911b61065b565b919061573f6101b161067c9361085d565b908354615715565b90815491600160401b83101561089c578261576a9160016101d395018155611848565b9061572e565b949390916157806101a55f610761565b6001600160a01b0385161480156157bc575b6157b5576157a86101d39493926157b092610b01565b928396615747565b611891565b9450505050565b506157c65f610833565b8214615792565b9291906157d95f610833565b82146158a2576157f190600985016151cf828261644a565b61589357826101d3949261580e61107861585696611fda95610a63565b9161582561218861581f6002610833565b87610ae7565b926158338260118c01614041565b8061583d81610a45565b615849610aed5f610833565b11615860575b5089616fe7565b6013819401610a90565b61588461588d91610de0611ba561587e670de0b6b3a7640000610833565b8b610abb565b60128c01610a90565b5f61584f565b5050505090506101b15f610833565b505090506101b15f610833565b90816158ba5f6108cd565b62ffffff82161415806158e9575b6158cf5750565b6101b19192506158df60016108cd565b900362ffffff1690565b506158f46006610b24565b61590262ffffff8316610d13565b106158c8565b91829161591484613b13565b938461591f5f6108cd565b62ffffff83161461598d575b5050929190915b62ffffff821662ffffff85161015801561597b575b1561597657506159649061595b600a6108cd565b0162ffffff1690565b9061596e82613b13565b919091615932565b925090565b5061598860118201610a1e565b615947565b91945091925061599b6135e3565b806159c3575b6159765750506159b1600a6108cd565b906159bb82613b13565b925f8061592b565b506159d36106fb60118301610a1e565b6159a1565b61020b9062ffffff1660e81b90565b600381611761610f8f93601496956159d8565b92949093909291615a26611b445f966112ee615a1560405190565b80926112e2886020840192836159e7565b95615ac260098501611bab5f6132148b615a6f615a4d6001615a488489610a63565b500190565b615a5561177d565b6001600160a01b038c168682015290611b828b6020840152565b615a8c83615a7d8388610a63565b5001611ab08a610d6283610a45565b615ab3615aa68a6003615a9f858a610a63565b5001610a7d565b611ab08a610d6283610a45565b610dc46002615a488388610a63565b615acb5f6108cd565b62ffffff821614159081615b66575b5080615b46575b80615b21575b615af057505050565b6120c093945090615b04611ab09282615699565b906007840160056008860195019461289d610aed61289988610a45565b50615b2e60028401610a45565b615b40610aed6101b160018701610a45565b10615ae7565b50615b5360048401610a1e565b615b606113c96005610e20565b10615ae1565b9050615b77610d136108da86610b24565b105f615ada565b615b87906158af565b615b9081613a98565b9081615b9b5f6108cd565b62ffffff821614615c1e575b50905b62ffffff811662ffffff831610158015615c03575b15615bd757615bd29061595b600a6108cd565b615baa565b6101b19150615beb6101b16009925f6109ff565b01611fda5f6132146001610dc4836132148188610a63565b50615c196011615c13835f6109ff565b01610a1e565b615bbf565b615c2e9192506101b1905f6109ff565b615c366135e3565b80615c71575b615c525750615c4b600a6108cd565b905f615ba7565b6101b19150600901611fda5f6132146001610dc4836132148188610a63565b50615c816106fb60118301610a1e565b615c3c565b9190615c926003610a45565b926001918291615ca3611038845490565b615cad6002610b24565b945b615cba575050505050565b9091929395615ccb8262ffffff1690565b62ffffff88161015615d9957615cea6101b16110b9610d018a89610b40565b90615cf482610b24565b615d0262ffffff8616610d13565b11615d9257615d1360118301610a1e565b15615d6c57611fda6013615d279301610a45565b955b615d325f610833565b84141580615d63575b615d535790615d4a8592610f02565b94939291615caf565b50505090506101b1919250615d9f565b50838711615d3b565b611fda6009615d8c9301611fda5f6132148a610dc4836132148188610a63565b95615d29565b9650613e40565b95613e40565b5f198103615daa5790565b6101b190611fda6001610833565b9065ffffff0000009060181b61065b565b90615dd96101b161067c926109ed565b8254615db8565b9190600861065b91029161187362ffffff841b90565b9190615e076101b161067c936109ed565b908354615de0565b90815491600160401b83101561089c5782615e329160016101d395018155610b40565b90615df6565b62ffffff90911681526060810193926101d39290916040916116db906123bf565b7f08fd82bc4ca92bfc8489e1802264ba5ac3d073e38c639a5f5852b5aeb304e44d615e876101b1835f6109ff565b91615f0e615f08610946615f0286615e9f8682610eeb565b615ea9600a6108cd565b62ffffff871603615f2557615ec7615ec160016108cd565b82615dc9565b615edc615ed35f610833565b60018a01610a90565b615ef26006615ee9610df8565b990198896117c1565b615efd866001615e0f565b610f3a565b95613b09565b916109ed565b92611be75f615f1c60405190565b93849384615e38565b615f2f600a6108cd565b62ffffff87161115615f5657615f51615ec1615f4b600a6108cd565b88610f11565b615ec7565b615f51615f625f6108cd565b615ec1565b5090615fe857615f765f610e20565b60ff821614615fdd57615f896001610e20565b60ff821614615fdd57615f9c6002610e20565b60ff821614615fdd57615faf6003610e20565b60ff821614615fdd57615fc56113c96004610e20565b14615fd3576101b15f610833565b6101b1603c610833565b506101b1600a610833565b615ff56113c96004610e20565b10616003576101b15f610833565b6101b1600a610833565b9197948661602091989594929798616a0f565b929761602a6135e3565b936160345f6108cd565b62ffffff871614159485156162a9575b505f965b60049761605489610833565b81101561615e57808c8961606c614b418e9588614a7a565b9188886160785f610833565b85036160b7575b505050505061608f915060010190565b6160998199610833565b81106160a6575b50616048565b6160b0919b614a26565b995f6160a0565b6160c29394966170f0565b898061614f575b156160e8576160dd9161608f945f92613675565b8a91898e888861607f565b90506160f38861085d565b92833b1561017557616120935f92838e61610c60405190565b978895869485936340c10f1960e01b614c11565b03925af19182156109b55761608f9261613a575b506160dd565b616149905f611642818361087a565b5f616134565b5061615981615652565b6160c9565b50986161709194959a96989750614a8c565b9260049561617e6004610833565b905b8582101561629b57818a8d61619789958d95614a26565b88888d6161ac6101b1859a610c376001610833565b870361628657506161c9614b416161c36005610833565b8b614a7a565b965b6161d45f610833565b88036161f2575b5050505050506161ec915060010190565b90616180565b906161fe9392916170f0565b9080616277575b1561622457616219916161ec945f92613675565b8a8d5f88888e6161db565b905061622f8961085d565b92833b1561017557616248935f92838d61610c60405190565b03925af19182156109b5576161ec92616262575b50616219565b616271905f611642818361087a565b5f61625c565b5061628181615652565b616205565b614b416161c361629592610833565b966161cb565b505050505050505050509050565b94505f616044565b90611f316162ca6162d0926162c35f90565b508461716d565b83610abb565b818110156162dc575090565b905090565b6162ee6106fb6006610645565b616307576101b16162fe3061085d565b31611fda614554565b61631e6109465f5160206175465f395f51905f5281565b602061632960405190565b9182906302de28a360e21b614521565b9092905f926163486003610a45565b9460019283916163645f61635d611038865490565b9301610b24565b9161636f6002610b24565b955b61637d57505050505050565b61638e81999495969962ffffff1690565b62ffffff8a161015616442576163b66163b06101b16110b9610d018d8a610b40565b99610f02565b936163c46121f2848c616953565b906163d15f839c01610b24565b6163df62ffffff8716610d13565b1461643a575b506163ef5f610833565b8714159081616430575b506164075784939594616371565b5050505090919293506164185f1990565b820361642357509190565b90611fda610aed92610833565b879150115f6163f9565b98505f6163e5565b839850613e38565b919061645a90611b4e6001610833565b91828061646b5f6132148386610a63565b616477610aed5f610833565b1461649d575b506132145f9161648c93610a63565b616498610aed5f610833565b141590565b90506164a96001610e20565b186164b85f6132148385610a63565b6164c4610aed5f610833565b036164d1575b839061647d565b92505f6164ca565b67ffffffffffffffff811161089c5760208091020190565b906137c96137c4836164d9565b369037565b906101d3616519616513846164f1565b936164d9565b601f1901602084016164fe565b90600e614a7e565b9081526060810193926101d3929091604091610f7d9061366e565b6101b16101b16101b19263ffffffff1690565b6001600160a01b0390911681526060810193926101d39290916040916165819061366e565b019063ffffffff169052565b90616596825190565b811015610a78576020809102010190565b919493905f80946165b75f610833565b811461694257906165c8849261727a565b6060938496839a8495616890575b989997969594939291906165e95f610833565b915b6165f5600e610833565b83101561685a578261661461660d614b418388616526565b9160010190565b809c61661f5f610833565b8314616845576112ee6166489285926112e261663a60405190565b94859360208501938461652e565b936166538585616cb9565b906166606101a55f610761565b6001600160a01b03831614616831578a156167fc5760049061668182610833565b81101590816167d0575b50806167be575b6166f2575b508e8b9c9d9e9f836166d7828d9e9f6166d26166e0999a9b9c9d9e9f976166c461504b976166da9a61658d565b906001600160a01b03169052565b61658d565b52565b9d610b01565b995b98979695949392999a91906165eb565b6166fc8884610ae7565b90816167075f610833565b8103616714575050616697565b9e9f92919495969798999a9b9c9d9e63ffffffff90616735610aed83616549565b116167ac575b5061675c6167566109465f5160206175465f395f51905f5281565b95610ec0565b94803b15610175575f9283869361678d61677560405190565b998a9687958694630f8f529160e21b8652850161655c565b03925af19283156109b5576167a693614c385750610b01565b996166e2565b6167b7919550616549565b935f61673b565b506167c85f610833565b881415616692565b6167de9150610c3783610833565b6167e86001610833565b166167f5610aed8b614a8c565b145f61668b565b5081616815919e9d9e9c939495969798999a9b9c6137ec565b616820575b506166e2565b61682a919b610b01565b995f61681a565b5050509091929394959697989a999a6166e2565b95969798999a9b9293945050509a999a6166e2565b5050505050509350949193948061687e575b61687557505050565b6101d392617461565b506168885f610833565b82141561686c565b94509250955092506168a2600e610833565b926168b56168af85616503565b94616503565b956168cd6109465f5160206175465f395f51905f5281565b60206168d860405190565b631a05f1db60e21b815291829060049082905afa80156109b557616908915f91616923575b50610de06004610833565b9261691d6169166001610833565b8616610e20565b946165d6565b61693c915060203d602011612df057612de1818361087a565b5f6168fd565b50505050505090506101b15f610833565b61695f60118201610a1e565b6169a75761698160098201611fda5f6132146001610dc4836132148188610a63565b91616991610d136108da84610b24565b1061699a575090565b6101b19150600101610a45565b6101b19150601301610a45565b67ffffffffffffffff811161089c5760200290565b6137c46101b1916169b4565b906101d36169eb6169e5846169c9565b936169b4565b836164fe565b6101b160066169d5565b6101b16014610e20565b6101b1600a610e20565b9190616a196169f1565b9283616a245f610833565b8214616cad5750616a336169fb565b616a3c90614a8c565b616a469082610abb565b90606491616a5383610833565b616a5c91610ae7565b616a655f610833565b616a6f9087614a7a565b52616a78616a05565b616a8190614a8c565b616a8b9082610abb565b616a9483610833565b616a9d91610ae7565b91600192616aaa84610833565b616ab49088614a7a565b52616abd614df8565b616ac681614a8c565b616ad09084610abb565b616ad983610833565b616ae291610ae7565b616aec6002610833565b616af69089614a7a565b52616b0090614a8c565b616b0a9083610abb565b90616b1490610833565b616b1d91610ae7565b90600391616b2a83610833565b616b349088614a7a565b52616b3e5f610833565b616b489087614a7a565b51616b5291610b0e565b616b5b83610833565b616b659087614a7a565b51616b6f91610b0e565b616b796002610833565b616b839087614a7a565b51616b8d91610b0e565b616b9682610833565b616ba09087614a7a565b51616baa91610b0e565b92616bb490614a8c565b600491616bc083610833565b821115616c845750616bd590610c3783610833565b90616bdf5f610833565b8214616c6757616c04616bf28386610ae7565b6166d7616bfe84610833565b89614a7a565b616c0d83610833565b8211616c2d575050506101d3906166d7616c276005610833565b85614a7a565b616c5a92611f2b6101d39593610c37616c54614b41616c4e610c3797610833565b8c614a7a565b93610833565b6166d7616c276005610833565b5050506101b1906166d7616c7e6005959495610833565b84614a7a565b925050506166d7616c7e616ca76101b194610d62614b41616bfe879a999a610833565b92610833565b93505050565b906133d9565b616cc281610a45565b91616ccc5f610833565b8314616d4f5760028201805493616ce25f610833565b8514616d4157610aed616cf891616cfd94616cb3565b6174db565b9180831015616d1f5750616d186101b19260015f9301611787565b5001613b09565b6101b19250616d1890616d3b60015f940191610c376001610833565b90611787565b50505050506101b15f610761565b5050506101b15f610761565b9081526040810192916101d391602090610f7d565b9091616d7e6101a55f610761565b6001600160a01b038316148015616e49575b610d3c57616db2610946732279b7a0a67db372996a5fab50d91eaa73d2ebe681565b91823b15610175575f616dc460405190565b9384906303e8b68b60e41b8252818381616de28a886004840161264e565b03925af19081156109b5577f2a00dcecf694dd35200ac585a45779181b0cf0e468ea795521d6acda761ab40a93616e1e92616e34575b5061085d565b92611be7616e2b60405190565b92839283616d5b565b616e43905f611642818361087a565b5f616e18565b50616e535f610833565b8314616d90565b6001616e67611038825490565b81616e726002610b24565b905b616e94575b50505050616e8a6101b15f8061516c565b906101b15f6108cd565b62ffffff821662ffffff82161015616f0f57616eb96101b16110b9610d018487610b40565b616ec86106fb60118301610a1e565b80616ef6575b616ee5575090616ede8392610f02565b9091616e74565b9493505050506101b15f8301610b24565b50616f036108da82610b24565b62ffffff861610616ece565b616e79565b9190616f226101a55f610761565b6001600160a01b038416148015616fd6575b6143db57616f56610946732279b7a0a67db372996a5fab50d91eaa73d2ebe681565b803b15610175575f616f6760405190565b9182906303e8b68b60e41b8252818381616f85888b6004840161264e565b03925af180156109b5577fb5369e92d9336c2d67b9c71dcefabb13cd3c5370ebd9d732a6e32c22895080db94611be792616fc392616e34575061085d565b94616fcd60405190565b93849384610f5a565b50616fe05f610833565b8114616f34565b949392915f93616ff65f610833565b81146170c857617009909594939561727a565b6170125f610833565b61701c600e610833565b8110156170be5761703361660d614b418385616526565b809761703e5f610833565b83146170b4576112ee6170599286926112e261663a60405190565b946170648686616cb9565b6170706101a55f610761565b6001600160a01b038216146170ab5790610d626170946170a1949360148d01610a7d565b611ab084610d6283610a45565b945b949395617012565b509590506170a3565b95969150506170a3565b5050505092509050565b505050505090506101b15f610833565b6101b1916008021c6101a5565b906101b191546170d8565b91906170fb5f610833565b82146171605780549361710d5f610833565b8514616d41576171269261712091616cb3565b906174db565b918083101561714357506101b19161713d91611848565b906170e5565b6101b192509061715a61713d92610c376001610833565b90611848565b505050506101b15f610761565b906171775f610833565b8114801561725f575b6172525761719e90612183670de0b6b3a764000093611f2b85610833565b6171af6706f05b59d3b20000610833565b811115617245576171bf82610833565b811115617221576171d7671bc16d674ec80000610833565b8111156171eb5750506101b1612710610833565b81610de061721061720561721694610c376101b197610833565b610dca612710610833565b91610833565b610cad614e20610833565b6101b191610de061721061723a93610dca614e20610833565b610cad619c40610833565b50506101b1617530610833565b50506101b1614e20610833565b506172695f610833565b8214617180565b6101b1600e6169d5565b90617283617270565b918261728e5f610833565b821461739c5750606461735d61734a6172af6172a984610833565b85610ae7565b926172de6172cc6172c36129db6014610833565b610de084610833565b6166d76172d85f610833565b8a616526565b610de06172106172fd6172f46129f1600a610833565b610de085610833565b966173176001986166d76173116001610833565b8d616526565b61734061733361732a612a146005610833565b610de087610833565b6166d76173116002610833565b611f2b6005610833565b6166d76173576003610833565b87616526565b816173686004610833565b905b61737357505050565b61737d600e610833565b811015610d3c578061504b836166d76173969489616526565b8261736a565b925050565b906173c16173ba6173b0845190565b8084529260200190565b9260200190565b905f5b8181106173d15750505090565b9091926173f76173f060019286516001600160a01b0316815260200190565b9460200190565b9291016173c4565b9061740e6173ba6173b0845190565b905f5b81811061741e5750505090565b9091926174346173f06001928651815260200190565b929101617411565b60408082526101b1939192617453918401906173a1565b9160208184039101526173ff565b909161746c5f610833565b8114610d3c57808252825261748e6109465f5160206175465f395f51905f5281565b91823b156101755761270f925f92836174a660405190565b8096819582946174ba63fdb319ec60e01b90565b84526004840161743c565b6101b1916008021c81565b906101b191546174c5565b915f83545b8082101561753e576174f28183610b01565b9061750260019261561984610e20565b916175166175108489611848565b906174d0565b861015617527575050915b916174e0565b6175389291949350611fda90610833565b90617521565b509250905056fe00000000000000000000000059b670e9fa9d0a427751af201d676719a970857ba2646970667358221220886c4a3b0c4ef679ee477bfb67d3f16754fff5d5600155d0da924e97fe39b13d64736f6c634300081e0033","linkReferences":{}},"methodIdentifiers":{"bondMaintenance(uint256,uint32)":"b68dbd51","burnDGNRS(uint256)":"46d9c8a9","claim(uint24)":"6400b620","depositCurrentFor(address)":"27a70308","depositFromGame(address,uint256)":"1a301ca0","dgnrsToken()":"6e106ab9","gameOver()":"bdb337d1","gameOverEntropyAttempted()":"47da6496","gameOverStarted()":"ba87e877","gameOverWithEntropy(uint256)":"2ef0c76d","mintJackpotDgnrs(address,uint256,uint24)":"feb3a1e3","notifyGameOver()":"11061a0e","payBonds(uint256,uint256,uint256)":"e2913888","presaleDeposit(address)":"c2dfe923","purchasesEnabled()":"3944fc8e","requiredCoverNext(uint256)":"6b8531b2","rewardStakeTargetBps()":"226b20d6","runPresaleDailyFromGame(uint256,uint48)":"cb88d6c2","setAutoBurnDgnrs(bool)":"9cd9d619","setRewardStakeTargetBps(uint16)":"e2ddcae7","shutdownPresale()":"3f891a2b","sweepExpiredPools()":"be85fea3"},"id":1}