{"abi":[{"type":"function","name":"approve","inputs":[{"name":"","type":"address","internalType":"address"},{"name":"","type":"uint256","internalType":"uint256"}],"outputs":[],"stateMutability":"pure"},{"type":"function","name":"balanceOf","inputs":[{"name":"owner","type":"address","internalType":"address"}],"outputs":[{"name":"","type":"uint256","internalType":"uint256"}],"stateMutability":"view"},{"type":"function","name":"getApproved","inputs":[{"name":"","type":"uint256","internalType":"uint256"}],"outputs":[{"name":"","type":"address","internalType":"address"}],"stateMutability":"pure"},{"type":"function","name":"isApprovedForAll","inputs":[{"name":"","type":"address","internalType":"address"},{"name":"","type":"address","internalType":"address"}],"outputs":[{"name":"","type":"bool","internalType":"bool"}],"stateMutability":"pure"},{"type":"function","name":"mintAffiliate","inputs":[{"name":"to","type":"address","internalType":"address"},{"name":"level","type":"uint24","internalType":"uint24"},{"name":"score","type":"uint96","internalType":"uint96"}],"outputs":[{"name":"tokenId","type":"uint256","internalType":"uint256"}],"stateMutability":"nonpayable"},{"type":"function","name":"mintBaf","inputs":[{"name":"to","type":"address","internalType":"address"},{"name":"level","type":"uint24","internalType":"uint24"}],"outputs":[{"name":"tokenId","type":"uint256","internalType":"uint256"}],"stateMutability":"nonpayable"},{"type":"function","name":"mintExterminator","inputs":[{"name":"to","type":"address","internalType":"address"},{"name":"level","type":"uint24","internalType":"uint24"},{"name":"trait","type":"uint8","internalType":"uint8"},{"name":"invertFlag","type":"bool","internalType":"bool"},{"name":"exterminationWinnings","type":"uint96","internalType":"uint96"}],"outputs":[{"name":"tokenId","type":"uint256","internalType":"uint256"}],"stateMutability":"nonpayable"},{"type":"function","name":"name","inputs":[],"outputs":[{"name":"","type":"string","internalType":"string"}],"stateMutability":"pure"},{"type":"function","name":"ownerOf","inputs":[{"name":"tokenId","type":"uint256","internalType":"uint256"}],"outputs":[{"name":"","type":"address","internalType":"address"}],"stateMutability":"view"},{"type":"function","name":"safeTransferFrom","inputs":[{"name":"","type":"address","internalType":"address"},{"name":"","type":"address","internalType":"address"},{"name":"","type":"uint256","internalType":"uint256"}],"outputs":[],"stateMutability":"pure"},{"type":"function","name":"safeTransferFrom","inputs":[{"name":"","type":"address","internalType":"address"},{"name":"","type":"address","internalType":"address"},{"name":"","type":"uint256","internalType":"uint256"},{"name":"","type":"bytes","internalType":"bytes"}],"outputs":[],"stateMutability":"pure"},{"type":"function","name":"setApprovalForAll","inputs":[{"name":"","type":"address","internalType":"address"},{"name":"","type":"bool","internalType":"bool"}],"outputs":[],"stateMutability":"pure"},{"type":"function","name":"supportsInterface","inputs":[{"name":"interfaceId","type":"bytes4","internalType":"bytes4"}],"outputs":[{"name":"","type":"bool","internalType":"bool"}],"stateMutability":"pure"},{"type":"function","name":"symbol","inputs":[],"outputs":[{"name":"","type":"string","internalType":"string"}],"stateMutability":"pure"},{"type":"function","name":"tokenURI","inputs":[{"name":"tokenId","type":"uint256","internalType":"uint256"}],"outputs":[{"name":"","type":"string","internalType":"string"}],"stateMutability":"view"},{"type":"function","name":"totalSupply","inputs":[],"outputs":[{"name":"","type":"uint256","internalType":"uint256"}],"stateMutability":"view"},{"type":"function","name":"transferFrom","inputs":[{"name":"","type":"address","internalType":"address"},{"name":"","type":"address","internalType":"address"},{"name":"","type":"uint256","internalType":"uint256"}],"outputs":[],"stateMutability":"pure"},{"type":"function","name":"trophyData","inputs":[{"name":"tokenId","type":"uint256","internalType":"uint256"}],"outputs":[{"name":"","type":"uint256","internalType":"uint256"}],"stateMutability":"view"},{"type":"event","name":"Approval","inputs":[{"name":"owner","type":"address","indexed":true,"internalType":"address"},{"name":"approved","type":"address","indexed":true,"internalType":"address"},{"name":"tokenId","type":"uint256","indexed":true,"internalType":"uint256"}],"anonymous":false},{"type":"event","name":"ApprovalForAll","inputs":[{"name":"owner","type":"address","indexed":true,"internalType":"address"},{"name":"operator","type":"address","indexed":true,"internalType":"address"},{"name":"approved","type":"bool","indexed":false,"internalType":"bool"}],"anonymous":false},{"type":"event","name":"Transfer","inputs":[{"name":"from","type":"address","indexed":true,"internalType":"address"},{"name":"to","type":"address","indexed":true,"internalType":"address"},{"name":"tokenId","type":"uint256","indexed":true,"internalType":"uint256"}],"anonymous":false},{"type":"event","name":"TrophyMinted","inputs":[{"name":"tokenId","type":"uint256","indexed":true,"internalType":"uint256"},{"name":"to","type":"address","indexed":true,"internalType":"address"},{"name":"kind","type":"uint8","indexed":false,"internalType":"enum DegenerusTrophies.TrophyKind"},{"name":"level","type":"uint24","indexed":false,"internalType":"uint24"},{"name":"trait","type":"uint8","indexed":false,"internalType":"uint8"}],"anonymous":false},{"type":"error","name":"InvalidRenderer","inputs":[]},{"type":"error","name":"InvalidToken","inputs":[]},{"type":"error","name":"NotGame","inputs":[]},{"type":"error","name":"TransfersDisabled","inputs":[]},{"type":"error","name":"ZeroAddress","inputs":[]}],"bytecode":{"object":"0x608060405234601f57600e6040565b6040516111c361004c82396111c390f35b5f80fd5b602d602d602d9290565b90565b90602d602d603c926023565b9055565b604960015f6030565b56fe60806040526004361015610011575f80fd5b5f3560e01c806301ffc9a71461012b57806306fdde0314610126578063081812fc14610121578063095ea7b31461011c57806318160ddd1461011757806323b872dd1461010d578063390b84db1461011257806342842e0e1461010d5780635367d7f1146101085780635a40e131146101035780636352211e146100fe57806370a08231146100f957806395d89b41146100f4578063a22cb465146100ef578063b88d4fde146100ea578063c87b56dd146100e5578063e985e9c5146100e05763f6d81ceb036101305761062f565b6105ea565b6105ac565b610593565b6104ff565b6104c1565b6104a6565b610477565b610458565b6103aa565b61033d565b61038e565b6102e9565b6102d3565b61026d565b610200565b610171565b5f80fd5b6001600160e01b031981165b0361013057565b9050359061015482610134565b565b906020828203126101305761016a91610147565b90565b9052565b346101305761019e61018c610187366004610156565b61066b565b60405191829182901515815260200190565b0390f35b5f91031261013057565b90825f9392825e0152565b6101d86101e16020936101eb936101cc815190565b80835293849260200190565b958691016101ac565b601f01601f191690565b0190565b602080825261016a929101906101b7565b34610130576102103660046101a2565b61019e61021b61078e565b604051918291826101ef565b80610140565b9050359061015482610227565b906020828203126101305761016a9161022d565b6001600160a01b031690565b6001600160a01b03909116815260200190565b346101305761019e61028861028336600461023a565b6107ac565b6040519182918261025a565b6001600160a01b038116610140565b9050359061015482610294565b91906040838203126101305761016a9060206102cc82866102a3565b940161022d565b34610130576102e33660046102b0565b906107b6565b34610130576102f93660046101a2565b61019e6103046107e5565b6040519182918290815260200190565b90916060828403126101305761016a61032d84846102a3565b9360406102cc82602087016102a3565b346101305761034d366004610314565b916107b6565b62ffffff8116610140565b9050359061015482610353565b91906040838203126101305761016a90602061038782866102a3565b940161035e565b346101305761019e6103046103a436600461036b565b90610a28565b346101305761019e6103046103c036600461023a565b610a46565b60ff8116610140565b90503590610154826103c5565b801515610140565b90503590610154826103db565b6001600160601b038116610140565b90503590610154826103f0565b919060a0838203126101305761042281846102a3565b92610430826020830161035e565b9261016a61044184604085016103ce565b93608061045182606087016103e3565b94016103ff565b346101305761019e61030461046e36600461040c565b93929092610bca565b346101305761019e61028861048d36600461023a565b610bd8565b906020828203126101305761016a916102a3565b346101305761019e6103046104bc366004610492565b610c16565b34610130576104d13660046101a2565b61019e61021b610c65565b91906040838203126101305761016a9060206104f882866102a3565b94016103e3565b34610130576102e33660046104dc565b909182601f830112156101305781359167ffffffffffffffff831161013057602001926001830284011161013057565b906080828203126101305761055481836102a3565b9261056282602085016102a3565b92610570836040830161022d565b92606082013567ffffffffffffffff81116101305761058f920161050f565b9091565b34610130576105a336600461053f565b939290926107b6565b346101305761019e61021b6105c236600461023a565b610e6a565b91906040838203126101305761016a9060206105e382866102a3565b94016102a3565b346101305761019e61018c6106003660046105c7565b90610fb8565b90916060828403126101305761016a61061f84846102a3565b936040610451826020870161035e565b346101305761019e610304610645366004610606565b91611098565b61065e61065861016a9290565b60e01b90565b6001600160e01b03191690565b6106786301ffc9a761064b565b6001600160e01b03198216149081156106ba575b8115610696575090565b90506106b66106a8635b5e139f61064b565b916001600160e01b03191690565b1490565b90506106c96380ac58cd61064b565b6001600160e01b03198216149061068c565b634e487b7160e01b5f52604160045260245ffd5b90601f01601f1916810190811067ffffffffffffffff82111761071157604052565b6106db565b9061015461072360405190565b92836106ef565b67ffffffffffffffff811161071157602090601f01601f19160190565b906107596107548361072a565b610716565b918252565b6107686012610747565b71446567656e657275732054726f706869657360701b602082015290565b61016a61075e565b61016a610786565b61024e61016a61016a9290565b61016a90610796565b5061016a5f6107a3565b638574adcf60e01b5f908152600490fd5b61016a9081565b61016a90546107c7565b61016a61016a61016a9290565b61016a6107f15f6107ce565b6107fb60016107d8565b900390565b91907359b670e9fa9d0a427751af201d676719a970857b33036108265761016a92610981565b63ba160f4360e01b5f908152600490fd5b61016a61fffa6107d8565b61084f61016a61016a9290565b60ff1690565b61016a9061086d61086961016a9460ff1690565b9190565b901b90565b61016a61016a61016a9262ffffff1690565b61016a61089160016107d8565b61089b60cb610842565b90610855565b906108ab906107d8565b5f5260205260405f2090565b905f19905b9181191691161790565b906108d661016a6108dd926107d8565b82546108b7565b9055565b61016a9061024e906001600160a01b031682565b61016a906108e1565b61016a906108f5565b634e487b7160e01b5f52602160045260245ffd5b6003111561092557565b610907565b906101548261091b565b61016a9061092a565b61016d90610934565b61016d90610842565b60409061097a610154949695939661096e60608401985f85019061093d565b62ffffff166020830152565b0190610946565b50919061098d836110ca565b927f03e2cdaa521b8faffce96f25d3e2e821fa1ed9dcd1784140b31ff8d597a938f55f610a0b610a0587610a006109cf6109c5610837565b61089b6098610842565b6109e56109db8a610872565b61089b6080610842565b6109ed610884565b9117176109fb8360036108a1565b6108c6565b6107d8565b936108fe565b93610a23610a1860405190565b92839260018461094f565b0390a3565b61016a91905f610800565b61016a9061024e565b61016a9054610a33565b610a59610a548260016108a1565b610a3c565b610a75610a6861024e5f6107a3565b916001600160a01b031690565b14610a8d57610a8861016a9160036108a1565b6107ce565b63c1ab6dc160e01b5f908152600490fd5b94939291907359b670e9fa9d0a427751af201d676719a970857b33036108265761016a95610b2c565b61016a61016a61016a926001600160601b031690565b61016a61016a61016a9260ff1690565b61016a610afa60016107d8565b61089b60e5610842565b604090610b23610154949695939661096e60608401985f85019061093d565b019060ff169052565b610a057f03e2cdaa521b8faffce96f25d3e2e821fa1ed9dcd1784140b31ff8d597a938f59395610ba29298979895939550610a00610b69876110ca565b91610b74839b610ac7565b610b806109c588610add565b610b8c6109db8c610872565b9117178091610bb9575b506109fb8360036108a1565b93610a23610baf60405190565b9283925f84610b04565b9050610bc3610aed565b175f610b96565b61016a94939291905f610a9e565b610a54610bee91610be65f90565b5060016108a1565b610bfa61024e5f6107a3565b6001600160a01b03821614610a8d5790565b906108ab906108fe565b610c2261024e5f6107a3565b6001600160a01b03821614610a8d57610a8861016a916002610c0c565b610c496008610747565b67504754524f50485960c01b602082015290565b61016a610c3f565b61016a610c5d565b67ffffffffffffffff81116107115760200290565b61075461016a91610c6d565b369037565b90610154610ca9610ca384610c82565b93610c6d565b83610c8e565b61016a6004610c93565b634e487b7160e01b5f52601160045260245ffd5b91908203918211610cda57565b610cb9565b61016a610cec60016107d8565b610cff610cf96060610842565b82610855565b610ccd565b610d1161016a61016a9290565b6001600160601b031690565b610d3361016a61016a926001600160601b031690565b63ffffffff1690565b634e487b7160e01b5f52603260045260245ffd5b906004811015610d61576020020190565b610d3c565b610d1190610d87610d7a61016a9460ff1690565b916001600160601b031690565b901c90565b90929192610d9c6107548261072a565b9381855281830111610130576101549160208501906101ac565b9080601f8301121561013057815161016a92602001610d8c565b9060208282031261013057815167ffffffffffffffff81116101305761016a9201610db6565b610e0261086960049390565b5f915b838310610e125750505050565b610e32610e2b600192845163ffffffff16815260200190565b9260200190565b92019190610e05565b90815260c081019392610154929091604091610e58906020830152565b0190610df6565b6040513d5f823e3d90fd5b610e78610a548260016108a1565b610e87610a6861024e5f6107a3565b14610a8d575f81610e9f610a88610f829460036108a1565b90610ea8610caf565b91610f3b610f28610f06610ec4610ebd610cdf565b8516610d04565b610eed610ed082610d1d565b610ee2610edc8b6107d8565b8a610d50565b9063ffffffff169052565b610f18610f0b610f06610f006020610842565b84610d66565b610d1d565b610ee2610edc60016107d8565b610f226040610842565b90610d66565b610ee2610f3560026107d8565b86610d50565b610f5e610f597368b1d87f95878fe05b998f19b66f4baba5de1aed81565b6108fe565b91610f6860405190565b95869485938493630d7cc3a360e11b855260048501610e3b565b03915afa908115610fb3575f91610f97575090565b61016a91503d805f833e610fab81836106ef565b810190610dd0565b610e5f565b5050610fc15f90565b505f90565b9291907359b670e9fa9d0a427751af201d676719a970857b33036108265761016a9361100f565b61016a61fffe6107d8565b61016a61100560016107d8565b61089b60c9610842565b939293507f03e2cdaa521b8faffce96f25d3e2e821fa1ed9dcd1784140b31ff8d597a938f55f611080610a05611044856110ca565b610a00611051829a610ac7565b61105d6109db8a610872565b6110686109c5610fed565b90611071610ff8565b921717176109fb8360036108a1565b93610a2361108d60405190565b92839260028461094f565b61016a9291905f610fc6565b906001600160a01b03906108bc565b906110c361016a6108dd926108fe565b82546110a4565b906110d45f6107a3565b916001600160a01b0383166001600160a01b03821614610a8d576110f75f6107ce565b61115d611157610a05839661111d61111761111260016107d8565b870190565b5f6108c6565b6111318661112c8760016108a1565b6110b3565b610f5961113f876002610c0c565b61115161114b826107ce565b60010190565b906108c6565b916107d8565b917fddf252ad1be2c89b69c2b068fc378daa952ba7f163c4a11628f55a4df523b3ef61118860405190565b5f90a456fea26469706673582212206d11fa7d6dde3f86cb9b8cb7995e12cc798d66715f156495c20ccbc32b3bf00f64736f6c634300081e0033","linkReferences":{}},"methodIdentifiers":{"approve(address,uint256)":"095ea7b3","balanceOf(address)":"70a08231","getApproved(uint256)":"081812fc","isApprovedForAll(address,address)":"e985e9c5","mintAffiliate(address,uint24,uint96)":"f6d81ceb","mintBaf(address,uint24)":"390b84db","mintExterminator(address,uint24,uint8,bool,uint96)":"5a40e131","name()":"06fdde03","ownerOf(uint256)":"6352211e","safeTransferFrom(address,address,uint256)":"42842e0e","safeTransferFrom(address,address,uint256,bytes)":"b88d4fde","setApprovalForAll(address,bool)":"a22cb465","supportsInterface(bytes4)":"01ffc9a7","symbol()":"95d89b41","tokenURI(uint256)":"c87b56dd","totalSupply()":"18160ddd","transferFrom(address,address,uint256)":"23b872dd","trophyData(uint256)":"5367d7f1"},"id":10}