{"abi":[{"type":"function","name":"calcPrizePoolForLevelJackpot","inputs":[{"name":"lvl","type":"uint24","internalType":"uint24"},{"name":"rngWord","type":"uint256","internalType":"uint256"},{"name":"stethAddr","type":"address","internalType":"address"}],"outputs":[{"name":"effectiveWei","type":"uint256","internalType":"uint256"}],"stateMutability":"nonpayable"},{"type":"function","name":"deployTimestamp","inputs":[],"outputs":[{"name":"","type":"uint48","internalType":"uint48"}],"stateMutability":"view"},{"type":"function","name":"gameState","inputs":[],"outputs":[{"name":"","type":"uint8","internalType":"uint8"}],"stateMutability":"view"},{"type":"function","name":"level","inputs":[],"outputs":[{"name":"","type":"uint24","internalType":"uint24"}],"stateMutability":"view"},{"type":"function","name":"payCarryoverExterminationJackpot","inputs":[{"name":"lvl","type":"uint24","internalType":"uint24"},{"name":"traitId","type":"uint8","internalType":"uint8"},{"name":"randWord","type":"uint256","internalType":"uint256"},{"name":"coinContract","type":"address","internalType":"contract IDegenerusCoinModule"}],"outputs":[{"name":"paidEth","type":"uint256","internalType":"uint256"}],"stateMutability":"nonpayable"},{"type":"function","name":"payDailyJackpot","inputs":[{"name":"isDaily","type":"bool","internalType":"bool"},{"name":"lvl","type":"uint24","internalType":"uint24"},{"name":"randWord","type":"uint256","internalType":"uint256"},{"name":"coinContract","type":"address","internalType":"contract IDegenerusCoinModule"}],"outputs":[],"stateMutability":"nonpayable"},{"type":"function","name":"payDailyJackpotAndMap","inputs":[{"name":"lvl","type":"uint24","internalType":"uint24"},{"name":"randWord","type":"uint256","internalType":"uint256"},{"name":"coinContract","type":"address","internalType":"address"}],"outputs":[],"stateMutability":"nonpayable"},{"type":"function","name":"payDailyJackpotAndMapWithRand","inputs":[{"name":"lvl","type":"uint24","internalType":"uint24"},{"name":"randWordDaily","type":"uint256","internalType":"uint256"},{"name":"randWordMap","type":"uint256","internalType":"uint256"},{"name":"coinContract","type":"address","internalType":"address"}],"outputs":[],"stateMutability":"nonpayable"},{"type":"function","name":"payExterminationJackpot","inputs":[{"name":"lvl","type":"uint24","internalType":"uint24"},{"name":"traitId","type":"uint8","internalType":"uint8"},{"name":"randWord","type":"uint256","internalType":"uint256"},{"name":"ethPool","type":"uint256","internalType":"uint256"},{"name":"coinContract","type":"address","internalType":"contract IDegenerusCoinModule"}],"outputs":[{"name":"paidEth","type":"uint256","internalType":"uint256"}],"stateMutability":"nonpayable"},{"type":"function","name":"payLevelJackpot","inputs":[{"name":"lvl","type":"uint24","internalType":"uint24"},{"name":"rngWord","type":"uint256","internalType":"uint256"},{"name":"effectiveWei","type":"uint256","internalType":"uint256"},{"name":"coinContract","type":"address","internalType":"contract IDegenerusCoinModule"}],"outputs":[],"stateMutability":"nonpayable"},{"type":"function","name":"payMapJackpot","inputs":[{"name":"lvl","type":"uint24","internalType":"uint24"},{"name":"randWord","type":"uint256","internalType":"uint256"}],"outputs":[],"stateMutability":"nonpayable"},{"type":"function","name":"pendingMapMintsLength","inputs":[],"outputs":[{"name":"","type":"uint256","internalType":"uint256"}],"stateMutability":"view"},{"type":"function","name":"processMapBatch","inputs":[{"name":"writesBudget","type":"uint32","internalType":"uint32"}],"outputs":[{"name":"finished","type":"bool","internalType":"bool"}],"stateMutability":"nonpayable"},{"type":"function","name":"seedTraitTickets","inputs":[{"name":"lvl","type":"uint24","internalType":"uint24"},{"name":"traitId","type":"uint8","internalType":"uint8"},{"name":"addrs","type":"address[]","internalType":"address[]"}],"outputs":[],"stateMutability":"nonpayable"},{"type":"function","name":"setBonds","inputs":[{"name":"bondsAddr","type":"address","internalType":"address"}],"outputs":[],"stateMutability":"nonpayable"},{"type":"function","name":"setDailyBurnCounts","inputs":[{"name":"symbolIdx","type":"uint8","internalType":"uint8"},{"name":"colorIdx","type":"uint8","internalType":"uint8"},{"name":"traitIdx","type":"uint8","internalType":"uint8"}],"outputs":[],"stateMutability":"nonpayable"},{"type":"function","name":"setState","inputs":[{"name":"lvl","type":"uint24","internalType":"uint24"},{"name":"priceWei","type":"uint128","internalType":"uint128"},{"name":"rewardPoolWei","type":"uint256","internalType":"uint256"},{"name":"currentPrizePoolWei","type":"uint256","internalType":"uint256"},{"name":"dailyJackpotBaseWei","type":"uint256","internalType":"uint256"},{"name":"jackpotCounter_","type":"uint8","internalType":"uint8"}],"outputs":[],"stateMutability":"nonpayable"},{"type":"function","name":"simulateMapPayout","inputs":[{"name":"winners","type":"address[]","internalType":"address[]"},{"name":"perWinner","type":"uint256","internalType":"uint256"},{"name":"mapBps","type":"uint16","internalType":"uint16"}],"outputs":[],"stateMutability":"nonpayable"},{"type":"function","name":"simulateWorstCaseWrites","inputs":[{"name":"ethWinners","type":"address[]","internalType":"address[]"},{"name":"ethPerWinner","type":"uint256","internalType":"uint256"},{"name":"mapWinners","type":"address[]","internalType":"address[]"},{"name":"mapPerWinner","type":"uint256","internalType":"uint256"},{"name":"mapBps","type":"uint16","internalType":"uint16"}],"outputs":[],"stateMutability":"nonpayable"},{"type":"event","name":"PlayerCredited","inputs":[{"name":"player","type":"address","indexed":true,"internalType":"address"},{"name":"recipient","type":"address","indexed":true,"internalType":"address"},{"name":"amount","type":"uint256","indexed":false,"internalType":"uint256"}],"anonymous":false},{"type":"error","name":"MapJackpotPending","inputs":[]}],"bytecode":{"object":"0x60806040523461002257610011610026565b604051616a5c6102898239616a5c90f35b5f80fd5b61002e610030565b565b61002e61021d565b9065ffffffffffff905b9181191691161790565b6100646100616100619265ffffffffffff1690565b90565b65ffffffffffff1690565b9061007f6100616100869261004c565b8254610038565b9055565b9062ffffff60d01b9060d01b610042565b6100a86100616100619290565b62ffffff1690565b906100c06100616100869261009b565b825461008a565b9061ffff60e81b9060e81b610042565b6100e46100616100619290565b61ffff1690565b906100fb610061610086926100d7565b82546100c7565b907fff000000000000000000000000000000000000000000000000000000000000009060f81b610042565b61013a6100616100619290565b60ff1690565b906101506100616100869261012d565b8254610102565b906cff0000000000000000000000009060601b610042565b151590565b906101846100616100869261016f565b8254610157565b9060ff60781b9060781b610042565b906101aa6100616100869261016f565b825461018b565b906001600160801b0390610042565b6101cd6100616100619290565b6001600160801b031690565b906101e9610061610086926101c0565b82546101b1565b905f1990610042565b6100616100616100619290565b90610216610061610086926101f9565b82546101f0565b61022d65ffffffffffff5f61006f565b610262600161023c815f6100b0565b6102486101a45f6100eb565b6102525f80610140565b61025c8180610174565b8061019a565b6102746658d15e1762800060026101d9565b61002e6806c6b935b8bbd40000600361020656fe6104406040526004361015610012575f80fd5b5f3560e01c8063047ecd5f146101415780631195b2e01461013c57806320d60eb31461013757806347cefa0a1461013257806349953ebd1461012d5780635038ecc514610128578063517fbf1214610123578063607ad0d71461011e5780636fd5ae15146101195780638902491314610114578063909e88051461010f57806397b801c71461010a578063a466b0d114610105578063b80a290c14610100578063b96d0a70146100fb578063bf0e1384146100f6578063c110f1a5146100f1578063d1f9c24d146100ec5763f5952bf703610146576107e8565b610794565b610753565b610726565b6106da565b61064f565b6105fc565b6105b7565b61055c565b610544565b6104ff565b6104a4565b610461565b610412565b61036c565b610349565b61030a565b610266565b6101e1565b5f80fd5b62ffffff81165b0361014657565b905035906101658261014a565b565b80610151565b9050359061016582610167565b6001600160a01b031690565b90565b6001600160a01b038116610151565b9050359061016582610189565b608081830312610146576101b98282610158565b926101866101ca846020850161016d565b9360606101da826040870161016d565b9401610198565b34610146576101fd6101f43660046101a5565b929190916108d0565b60405180805b0390f35b60ff8116610151565b9050359061016582610207565b919060a083820312610146576102338184610158565b926102418260208301610210565b92610186610252846040850161016d565b9360806101da826060870161016d565b9052565b346101465761020361028561027c36600461021d565b93929092610af0565b6040515b9182918290815260200190565b909182601f83011215610146578135916001600160401b03831161014657602001926020830284011161014657565b91606083830312610146576102da8284610158565b926102e88360208301610210565b9260408201356001600160401b038111610146576103069201610296565b9091565b34610146576101fd61031d3660046102c5565b92919091610cf9565b9190604083820312610146576101869060206103428286610158565b940161016d565b34610146576101fd61035c366004610326565b90610dbd565b5f91031261014657565b346101465761037c366004610362565b61020361028560105490565b61ffff8116610151565b9050359061016582610388565b60a0818303126101465780356001600160401b03811161014657826103c5918301610296565b9290936103d5826020850161016d565b926040810135916001600160401b038311610146576103f984610186948401610296565b939094608061040b826060870161016d565b9401610392565b34610146576101fd61042536600461039f565b95949094939193610e1a565b90916060828403126101465761018661044a8484610210565b93604061045a8260208701610210565b9401610210565b34610146576101fd610474366004610431565b91610ec3565b610186916008021c5b65ffffffffffff1690565b90610186915461047a565b6101865f600e61048e565b34610146576104b4366004610362565b6102036104bf610499565b6040519182918265ffffffffffff909116815260200190565b610186916008021c5b62ffffff1690565b9061018691546104d8565b610186601a5f6104e9565b346101465761050f366004610362565b61020361051a6104f4565b6040519182918262ffffff909116815260200190565b906020828203126101465761018691610198565b34610146576101fd610557366004610530565b610f85565b34610146576101fd61056f3660046101a5565b929190916110dd565b919091606081840312610146578035916001600160401b038311610146576105a584610186948401610296565b939094604061040b826020870161016d565b34610146576101fd6105ca366004610578565b9291909161132a565b9091606082840312610146576101866105ec8484610158565b9360406101da826020870161016d565b34610146576101fd61060f3660046105d3565b91611336565b801515610151565b9050359061016582610615565b6080818303126101465761063e828261061d565b926101866101ca8460208501610158565b34610146576101fd61066236600461062a565b929190916114f9565b6001600160801b038116610151565b905035906101658261066b565b909160c0828403126101465761069d8383610158565b926106ab816020850161067a565b926106b9826040830161016d565b926101866106ca846060850161016d565b9360a061045a826080870161016d565b34610146576101fd6106ed366004610687565b94939093929192611f89565b63ffffffff8116610151565b90503590610165826106f9565b906020828203126101465761018691610705565b346101465761020361074161073c366004610712565b612169565b60405191829182901515815260200190565b34610146576102036102856107693660046105d3565b91612600565b610186916008021c5b60ff1690565b90610186915461076f565b610186601f5f61077e565b34610146576107a4366004610362565b6102036107af610789565b6040519182918260ff909116815260200190565b608081830312610146576107d78282610158565b926101866101ca8460208501610210565b34610146576102036102856107fe3660046107c3565b9291909161288b565b6101869061017a906001600160a01b031682565b61018690610807565b6101869061081b565b634e487b7160e01b5f52604160045260245ffd5b90601f01601f191681019081106001600160401b0382111761086257604052565b61082d565b61026290610824565b6108a56101659461089e606094989795610892608086019a5f87019015159052565b62ffffff166020850152565b6040830152565b0190610867565b6040513d5f823e3d90fd5b62ffffff90911681526040810192916101659160200152565b91906108e46108de30610824565b94610824565b90843b1561014657610916915f916108fb60405190565b9384928392632e028a4360e21b845288600160048601610870565b038183885af180156109865761098b575b50823b156101465761095e925f928361093f60405190565b8096819582946109536347cefa0a60e01b90565b8452600484016108b7565b03925af180156109865761096f5750565b610165905f61097e8183610841565b810190610362565b6108ac565b61099a905f61097e8183610841565b5f610927565b6109b06101866101869260ff1690565b63ffffffff1690565b6107786101866101869290565b6109b0906109e46109da6101869460ff1690565b9163ffffffff1690565b901b90565b6101866101866101869262ffffff1690565b610186906109e4610a0f6101869460ff1690565b9190565b610a206101866101869290565b6001600160401b031690565b634e487b7160e01b5f52601160045260245ffd5b610a5b906001600160401b03165b916001600160401b031690565b02906001600160401b0382165b918203610a7157565b610a2c565b610186610a846107d0610a13565b610a946601000100010001610a13565b90610a40565b90610165610aa760405190565b9283610841565b61018660e0610a9a565b6101866101866101869290565b906001600160a01b03169052565b610ae06101866101869290565b61ffff1690565b6101865f610ad3565b610bd490610bc4610be494610bb75f97610b156101869a97610b0f5f90565b506109a0565b610b52610b2b610b2560086109b9565b836109c6565b8217610b40610b3a60106109b9565b846109c6565b1791610b4c60186109b9565b906109c6565b1792610b9c610b73610b63886109e9565b610b6d60c06109b9565b906109fb565b92610b95610b7f610a76565b98610b88610aae565b9d8e019062ffffff169052565b60208c0152565b610baf610ba85f610ab8565b60408c0152565b186060890152565b63ffffffff166080870152565b6001600160401b031660a0850152565b6001600160a01b031660c0830152565b610bec610ae7565b5f80610bf781610ad3565b936129ca565b6104e16101866101869262ffffff1690565b90610c1990610bfd565b5f5260205260405f2090565b634e487b7160e01b5f52603260045260245ffd5b610100821015610c4f576001905b910201905f90565b610c25565b9190811015610c4f576020020190565b3561018681610189565b8054821015610c4f57610c476001915f5260205f2090565b916001600160a01b0360089290920291821b911b610ca4565b921b90565b9181191691161790565b9190610cbf610186610cc793610824565b908354610c86565b9055565b90815491680100000000000000008310156108625782610cf391600161016595018155610c6e565b90610cae565b610d1891610d0f610d1492969594966015610c0f565b610c39565b5090565b9281925f5b845b811015610d5657610d4f81610d49610d43610d3e610d1f958989610c54565b610c64565b89610ccb565b60010190565b9050610d1d565b509350505050565b6101869060a01c610778565b6101869054610d5e565b6101865f6109b9565b9060ff60a01b9060a01b610ca4565b6107786101866101869260ff1690565b90610dac610186610cc792610d8c565b8254610d7d565b61018660016109b9565b90610dc86001610d6a565b610dd0610d74565b60ff811660ff831614610e1457610de8906001610d9c565b610dfd610df6610778610db3565b9160ff1690565b03610e0b5761016591612bdb565b61016591612ae3565b50505050565b6101659695949392610e3592610e2f5f610ad3565b92612ee3565b612ee3565b6109b06101866101869290565b9091906050831015610c4f576008610e5e60049290565b8185040193060290565b91906008610ca4910291610c9f63ffffffff841b90565b6109b06101866101869263ffffffff1690565b9190610ea3610186610cc793610e7f565b908354610e68565b610eb79060ff16610df6565b019060ff8211610a7157565b90915f5b610ed16050610ab8565b811015610efe57610ef990610d49610ee85f610e3a565b610ef3836016610e47565b90610e92565b610ec7565b50610f4091610f50610ef392610f4661016596610ef3610f1e6001610e3a565b978892610f3184610ef360169a8b610e47565b610f3b60086109b9565b610eab565b86610e47565b610f3b60106109b9565b90610e47565b906601000000000000600160d01b039060301b610ca4565b90610f7e610186610cc792610824565b8254610f56565b61016590600e610f6e565b6101866107d0610ad3565b9190610fa6565b9290565b8203918211610a7157565b610a20906109e4610a4e6101869460ff1690565b610fd0611770610a13565b610fdb610535610a13565b611002610ff1610feb60106109b9565b83610fb1565b91610ffc60206109b9565b90610fb1565b9061101b611011610536610a13565b610ffc60306109b9565b9217171790565b6101866109c4610ad3565b6101866019610ad3565b610186600c610ad3565b6101869081565b6101869054611041565b91908201809211610a7157565b905f1990610ca4565b90611078610186610cc792610ab8565b825461105f565b61018660026109b9565b6104836101866101869290565b610186620142bc611089565b6101866101866101869265ffffffffffff1690565b634e487b7160e01b5f52601260045260245ffd5b905b9081156110d8570490565b6110b7565b9092916110f16110ec85613177565b61325b565b90805f9384926111005f610ab8565b81036112a0575b506111128783613414565b61111a610fc5565b611122610aae565b62ffffff9094168452611136856020860152565b61113f5f610ab8565b9661114b886040870152565b6111568b6060870152565b63ffffffff1660808501526001600160401b031660a08401526001600160a01b03881660c0840152611186611022565b61118e61102d565b90611197611037565b926111a15f610ad3565b946111ab966134d4565b6111b491610f9b565b6111be6004611048565b906111c891611052565b6111d3906004611068565b81810361127d575b508103611226575b5060016101659261122061121b6112096112036111fe611096565b6110a2565b42610f9b565b61121562015180610ab8565b906110cb565b611089565b92613941565b6112306001610d6a565b61123e610df6610778610d74565b0361126c576101659261126560019261125e61125861107f565b85610d9c565b6067611068565b92506111e3565b63073631af60e21b5f908152600490fd5b61129361129a9161128e6005611048565b611052565b6005611068565b5f6111db565b925093506112b56112af610f90565b836132ed565b90949092836112c6610a0f5f610ab8565b141580611313575b6112fe575b83906112de5f610ab8565b82036112eb575b50611107565b6112f6929350610f9b565b90825f6112e5565b9250935061130b5f610ab8565b9384926112d3565b506113256113218684613394565b1590565b6112ce565b90610165939291612ee3565b9061134961134330610824565b93610824565b833b15610146575f6109169161135e60405190565b928391829190632e028a4360e21b83528688600160048601610870565b6101869060401c610778565b610186905461137b565b610186600a6109b9565b6101866101866101869261ffff1690565b81810292918115918404141715610a7157565b610186610141610ad3565b610186611388610ad3565b6104e16101866101869290565b6113f59062ffffff165b9162ffffff1690565b019062ffffff8211610a7157565b6101869060301c61017a565b6101869054611403565b6001610186910160ff1690565b9068ff00000000000000009060401b610ca4565b9061144a610186610cc792610d8c565b8254611426565b61018690610483565b6101869054611451565b61147d9065ffffffffffff165b9165ffffffffffff1690565b90039065ffffffffffff8211610a7157565b6114a09065ffffffffffff16611471565b9081156110d8570690565b610186611a0b610ad3565b610186905b6001600160801b031690565b61018690546114b6565b610186610186610186926001600160801b031690565b610186683635c9adc5dea00000610ab8565b9291906101a0526101405261010052611510611096565b9061151d611203836110a2565b61153161121b620151809261121584610ab8565b610180525f916118b15761154a6110ec61014051613177565b925f916115565f61145a565b9065ffffffffffff8083160361182f575b5050508082916117fd575b81908380936115805f610ab8565b8103611746575b50916116316116489261165e95969761165795916115b56115b06115ab60026114c7565b6114d1565b911590565b80611734575b6116f6575b50611621906116146115d7610b636101a0516109e9565b6116086115e2610a76565b956116016115ee610aae565b6101a05162ffffff1681529960208b0152565b6040890152565b61014051186060870152565b63ffffffff166080850152565b6001600160401b031660a0830152565b610100516001600160a01b031660c0820152610be4565b6116526006611048565b610f9b565b6006611068565b6116675f610ab8565b81036116ce575b506116785f610ab8565b8103611695575b50610165610180515f6101405161010051613941565b61169f6001610d6a565b6116ad610df6610778610d74565b0361126c576116c89061125e6116c161107f565b6001610d9c565b5f61167f565b611293816116e66116576116f0946116526006611048565b61128e6005611048565b5f61166e565b61162191925061172361172d9161171e6117106003611048565b6117186114e7565b906113ac565b6110cb565b61121560c8610ab8565b91906115c0565b5061173e5f610ab8565b8114156115bb565b9450925061175b6117556114ab565b856132ed565b909590948561176c610a0f5f610ab8565b1415806117e7575b6117be575b926116489261165e959287611657966117915f610ab8565b82036117a6575b505097969550925092611587565b6116319450906117b591610f9b565b9250875f611798565b9450945061165e9261165792611648926117d75f610ab8565b9788979295509295509250611779565b506117f8611321836101a051613394565b611774565b905061182961181e61180f6096610ab8565b6118196006611048565b6113ac565b611215612710610ab8565b90611572565b61121561185461185a9461184e61184861121b966110a2565b916110a2565b90610f9b565b91610ab8565b65ffffffffffff81166101805165ffffffffffff161161187c575b8080611567565b61189e915061188e9061018051611464565b6118986007611089565b9061148f565b6118aa6114715f611089565b145f611875565b50611be791506118c86110ec6016610140516139de565b6118e56118d56001611387565b6118df60016109b9565b90610eab565b6118f3610df6610778611391565b10159161192061181e6119066007611048565b61171861191b6119166001611387565b613bc8565b61139b565b928361193361192d610f90565b826132ed565b906080528061016052611948610a0f5f610ab8565b141580611f0f575b611ef9575b61195e5f610ab8565b6101605103611ee2575b506119756101a0516109e9565b9361198a61198360c06109b9565b80966109fb565b61199981610140511883613414565b919092611a1b6119b86119aa6113bf565b948585610140511891613cc9565b92611a0a6119c4610a76565b916119e36119d0610aae565b6101a05162ffffff168152956020870152565b6119ec5f610ab8565b610120526119fe610120516040870152565b61014051186060850152565b63ffffffff89166080840152611621565b610100516001600160a01b031660c0820152611a5d611a386113ca565b91611a4161102d565b611a49611037565b908486611a555f610ad3565b998a956134d4565b60e05261012051611a6d60e05190565b14801560c081905260a052611ed0575b60a051611ea5575b610120516101605103611e86575b611aa9611aa060016113d5565b6101a0516113e2565b908515611d5a5750611abb6004611048565b92611aca610120516004611068565b611b1e611755611afc611aef611ae361180f6064610ab8565b61171861191b88613f63565b6112156305f5e100610ab8565b95611b0e611657886116526006611048565b611b188188611052565b96613fe7565b61012051919a9181141580611d47575b611d3a575b610120518103611cee575b5090611b55611b8b92611b50856109e9565b6109fb565b6101405118938491611b72611b6a8489613414565b939050614035565b90611b7c8161139b565b8210611cd35750508690613cc9565b610120518403611c70575b5050505050611ba791925015151590565b80611c63575b611c4c575b50610120516080511415908115611c37575b81611c0e575b50611321611be0611bdb6001611387565b611419565b600161143a565b611c01575b610165610180515f6101405161010051613941565b611c096143c6565b611bec565b611c2690611c1f6080516067611068565b6068611068565b611c316116c1610db3565b5f611bca565b905061012051611c448290565b141590611bc4565b611657611c5d916116526006611048565b5f611bb2565b5061012051811415611bad565b611ba79650611c82611cc696986140b8565b611ca7611c8d610a76565b611ca1611c9a6003610ab8565b87166109b9565b90614148565b90611cb2600e61140f565b94611cbb610ae7565b966101005195614194565b9050815f80808080611b96565b611ce891611652611ce39261139b565b610ad3565b90613cc9565b94611b8b9291611d0187611b5593610f9b565b96611d136112938261128e6005611048565b8915611d23575b50919250611b3e565b611657611d34916116526006611048565b5f611d1a565b5061012051995089611b33565b50611d556113218b86613394565b611b2e565b92611d656001611387565b611d71610df65f6109b9565b03611e7057611d806003611048565b6101205190818103611e4d575b50611d99610dac610ab8565b8110611e085750611b1e611de9611aef611ddd611db7610190610ab8565b611dc16001611387565b611dce610df660016109b9565b14611def576118196006611048565b61171861191b87613f63565b94611755565b611e0390611dfd6064610ab8565b90611052565b61180f565b611e16610a0f6109c4610ab8565b10611e3757611b1e611de9611aef611ddd611e3261012c610ab8565b611db7565b611b1e611de9611aef611ddd611e3260c8610ab8565b611e6a915061171e611e5f6005611048565b611718612710610ab8565b5f611d8d565b611b1e611de9611aef611ddd611e326064610ab8565b611ea0611293611e966005611048565b6101605190611052565b611a93565b611ecb611ec4611eba6101605160e051611052565b6116526004611048565b6004611068565b611a85565b6101205161016051141560a052611a7d565b611ef29194506101605190610f9b565b925f611968565b611f025f610ab8565b8060805261016052611955565b50611f20611321856101a051613394565b611950565b9062ffffff60d01b9060d01b610ca4565b90611f46610186610cc792610bfd565b8254611f25565b906001600160801b0390610ca4565b6114bb610186610186926001600160801b031690565b90611f82610186610cc792611f5c565b8254611f4d565b92611ec4610165969593611657611fae94611fa7611be0985f611f36565b6002611f72565b6007611068565b6101869060b01c6109b0565b6101869054611fb5565b6101866101866101869263ffffffff1690565b6101869060901c6109b0565b6101869054611fde565b6101866008610e3a565b61018661030c610e3a565b6101869060d01c6104e1565b6101869054612009565b6101869060f81c610778565b610186905461201f565b6001610186910162ffffff1690565b6120539063ffffffff166109da565b029063ffffffff8216610a68565b6110cd9063ffffffff166109da565b61207f9063ffffffff166109da565b90039063ffffffff8211610a7157565b610186916008021c61017a565b90610186915461208f565b90610c1990610824565b610186906109b0565b61018690546120b1565b6120d39063ffffffff166109da565b019063ffffffff8211610a7157565b6101869081906001600160a01b031681565b9063ffffffff90610ca4565b90612110610186610cc792610e7f565b82546120f4565b9063ffffffff60b01b9060b01b610ca4565b90612139610186610cc792610e7f565b8254612117565b9063ffffffff60901b9060901b610ca4565b90612162610186610cc792610e7f565b8254612140565b5f9061217c6121775f611fc1565b611fcb565b9261218660105490565b808510156125c3576121975f611fea565b9283906121a35f610e3a565b63ffffffff82160361259857506121b8611ffe565b935b6121c35f612015565b90816121ce5f61202b565b6121db610df660036109b9565b14612586575b506121eb5f610ab8565b88149081612571575b50612546575b6122095f979695949297610e3a565b91612214600a611048565b84881080612531575b1561251957612236612230896010610c6e565b9061209c565b6122496122448260116120a7565b6120ba565b996122535f610e3a565b63ffffffff8c1614612507576122698689612070565b916122746002610e3a565b928c846122805f610e3a565b63ffffffff86161491826124f6575b50506124e5575b63ffffffff841663ffffffff821611156124c957836122b491612070565b6122bf610100610e3a565b63ffffffff8216116124af576122df906122d96002610e3a565b90612061565b8c6122ef63ffffffff83166109da565b11156124a757925b6123005f610e3a565b63ffffffff8516146124725792828c9d926123a26123f6968e9f6123dc9e9f97868b91612373938f61234161233761234c926109e9565b610b6d60e06109b9565b91610b6d60c06109b9565b61236a61236061235b8b61081b565b6120e2565b610b6d60206109b9565b91171787614434565b61237e610100610e3a565b63ffffffff86161161245e5761239d6123976002610e3a565b86612044565b6120c4565b938463ffffffff821663ffffffff861614612431575b50906123d2846123e1936123eb9798500363ffffffff1690565b9c8d9160116120a7565b612100565b0163ffffffff1690565b950163ffffffff1690565b956124036109da5f610e3a565b14612414575b979695949297612214565b9250966124219060010190565b9661242b5f610e3a565b92612409565b6123eb9550846123e193926124536123d29361244d6001610e3a565b906120c4565b9750929350506123b8565b61239d61246c610100610e3a565b866120c4565b50509350505096506124a29450610a0f935061018691505b61249c61249687610e3a565b5f612129565b5f612152565b101590565b508b926122f7565b6124c4906124be610100610e3a565b90612070565b6122df565b50509350505096506124a29450610a0f9350610186915061248a565b92806124f0916120c4565b92612296565b63ffffffff1611159050848e61228f565b50509294959661242191985060010190565b509690506124a29450610a0f9350610186915061248a565b5063ffffffff861663ffffffff85161061221d565b9361256b906124be61256161255b6023610e3a565b83612044565b6122d96064610e3a565b936121fa565b905061257f6109da5f610e3a565b145f6121f4565b612591919250612035565b905f6121e1565b936125a1611ff4565b63ffffffff811663ffffffff8716106125bb575b506121ba565b94505f6125b5565b5092505050600190565b6114a09062ffffff166113ec565b9050519061016582610167565b9060208282031261014657610186916125db565b0190565b92915f9061260e6005611048565b6126186004611048565b9061262291611052565b61262d906004611068565b6126365f610ab8565b92612642846005611068565b61264c6006611048565b6126566004611048565b61265f91611052565b925061266b8187614701565b9390612676906149de565b61268090826113ac565b61268a60c8610ab8565b612693916110cb565b61269e816006611068565b6126a791610f9b565b906126b29087614ab9565b6126bc90826113ac565b6126c66064610ab8565b6126cf916110cb565b908190036126dd6004611048565b6126e8906003611068565b6126f3816004611068565b6126fe906007611068565b9461270960646113d5565b612712916125cd565b61271b5f6113d5565b9062ffffff161461272b57505050565b61273761273c91610824565b610824565b61274530610824565b602061275060405190565b6370a0823160e01b81526001600160a01b038316600482015292839060249082905afa9081156109865761278c925f9261285a575b5031611052565b906127cb6127c16127b76127ad6127a36004611048565b611dfd6005611048565b611dfd6006611048565b611dfd6014611048565b611dfd600c611048565b92836127d76009611048565b90828203612850575b50506127ec6008611048565b908103612846575b508282119081612830575b50612809575b5050565b61282661281c6101659361165793610f9b565b6112156002610ab8565b61128e6006611048565b905061283f610a0f6005610ab8565b105f6127ff565b909201915f6127f4565b0193505f806127e0565b61287d91925060203d602011612884575b6128758183610841565b8101906125e8565b905f612785565b503d61286b565b93929091905f946128a661121b6112096112036111fe611096565b936128d0611aef6128c46128ba6006611048565b6117186064610ab8565b61171861191b86613f63565b906128da5f610ab8565b82036128f0575b50505061016592915f91613941565b61296d97506101659594926129765f9593611621612910612998956109a0565b612920610b2b610b2560086109b9565b17611614612930610b63876109e9565b61295b61293b610a76565b95612954612947610aae565b62ffffff909a168e8b0152565b6020890152565b6129648b610ab8565b9e8f6040890152565b89186060870152565b6001600160a01b03831660c082015261298d610ae7565b8580610bf781610ad3565b80976129a18290565b036129b3575b829495508193506128e1565b6116576129c4916116526006611048565b5f6129a7565b9091929493946129d75f90565b956129f16129ec608085015163ffffffff1690565b6140b8565b90612a27612a0960a08601516001600160401b031690565b611ca1612a17606088015190565b612a216003610ab8565b166109b9565b92612a33602086015190565b612a3f610a0f5f610ab8565b03612aa4575b50506040830151612a58610a0f5f610ab8565b03612a93575b505050612a7d575b612a6c57565b610165611657836116526006611048565b612a8e611ec4846116526004611048565b612a66565b612a9c92614b84565b5f8080612a5e565b82985083612ab29386614aff565b955f80612a45565b6101869060501c610778565b6101869054612aba565b61018690610ab8565b61018660fa610ad3565b612aed6067611048565b91612af75f610ab8565b8314612b975761016592612b0d6110ec83613177565b91612b186001612ac6565b15612b71577f93579e09b7f140ff32da8fe7cf95cd23f6c7c57da84aa7e012aef23dca86ccd75b612b54612b4e610b63876109e9565b91612ad0565b91181890612b60612ad9565b92612b6b60f46109b9565b94614ccb565b7f5c9c4f3531ef5aa983fdcc77e13b184b82ff1caaf0c0f3753d5a65f122bc9c61612b3f565b505050565b612bad9061ffff165b9161ffff1690565b019061ffff8211610a7157565b906114a0565b612bcd9061ffff16612ba5565b90039061ffff8211610a7157565b90612be66067611048565b612bf06068611048565b612bf95f610ab8565b8214908180612ebc575b612d0557612c156110ec6016866139de565b91612c208285611052565b93612c29612ad9565b612c328161139b565b861015612eb75750612c4385610ad3565b5f921592808480612ea5575b15612e8c575050612c5f8161139b565b90612c71611ce38861171e86866113ac565b968792612c85611ce38361171e8a856113ac565b8099612c93612ba55f610ad3565b14612e7a575b612ca5612ba55f610ad3565b14612e68575b612cb58985612b9c565b9161ffff841661ffff84161115612ddf57505090612cd291612bc0565b9061ffff871661ffff821610612dcd5790612cec91612bc0565b915b612d77575b5050612cfe5f610ab8565b8103612d12575b50505050506101656143c6565b612d29612d6d95612d2360016113d5565b906113e2565b93612d36610b63866109e9565b612d5f7f14a586a0716ec6b1deae0e118442269523a55aa8d7c09f8c7daa45c58eb21ff1612ad0565b91181891612b6b60e86109b9565b5f80808080612d05565b612dc691612d87610b63896109e9565b612db07f05261ef095dfcc4d7f2650299221c4b4e10103ef981618f807e44c6b2a2c6531612ad0565b90881818612dbe60dc6109b9565b92868a614ccb565b5f80612cf3565b929590612dd991612bc0565b94612cee565b612def84939497959761ffff1690565b61ffff851610612e03575b50505050612cee565b610a0f610fa282612e228b612e27999e99612e2d96612e228d8a6113ac565b612bba565b966113ac565b1115612e5257612e479291612e4191612bc0565b90612b9c565b945b5f808080612dfa565b612e6292979491612e4191612bc0565b91612e49565b9750612e746001610ad3565b97612cab565b9350612e866001610ad3565b93612c99565b9096508315612e9c575091612cee565b92955094612cee565b50612eaf5f610ab8565b861415612c4f565b612c43565b50612ec65f610ab8565b8114612c03565b61017a6101866101869290565b61018690612ecd565b929093612f00612ef66115ab60026114c7565b6112156004610ab8565b85945f92835b875b8110156130c957612f1d610d3e828b86610c54565b612f2961017a5f612eda565b6001600160a01b0382161415806130b7575b612f50575b50612f08906001015b9050612f06565b8790612f5b5f610ad3565b61ffff89161415806130a5575b612fb7575b612f765f610ab8565b8203612f83575b50612f40565b612f4991612f08939761128e612f9d612fb09460136120a7565b612faa846125fc83611048565b90611068565b9591612f7d565b612fcc61181e612fc68a61139b565b8b6113ac565b8680821015612fdd575b5050612f6d565b612fe6916110cb565b63ffffffff81612ff8610a0f83611fcb565b11613095575b5061300987826113ac565b906130135f610ab8565b8203613021575b5086612fd6565b829350613066906123dc61307d946130606011936123e161304561224485886120a7565b9161304f5f610e3a565b63ffffffff84161461308557610e3a565b926120a7565b6130776112938261128e6005611048565b89610f9b565b905f8061301a565b613090856010610ccb565b610e3a565b61309f9150611fcb565b5f612ffe565b506130af5f610ab8565b861415612f68565b506130c15f610ab8565b881415612f3b565b5096505050925050506130db5f610ab8565b81036130e45750565b6130f56101659161128e6014611048565b6014611068565b6001600160401b0381116108625760200290565b61311c610186916130fc565b610a9a565b369037565b9061016561313c61313684613110565b936130fc565b83613121565b6101866004613126565b9060045b811015610c4f576020020190565b61018690613172610a0f6101869460ff1690565b901c90565b90610165613183613142565b6131bf61324a6132408396612a21611854603f926131c76131ad6131a686610ab8565b83166109b9565b6131bf6131b95f610ab8565b8b61314c565b9060ff169052565b6132036131f66131ec6131e36131dd60066109b9565b8561315e565b612a2188610ab8565b610f3b60406109b9565b6131bf6131b96001610ab8565b6132306132236132196131e36131dd600c6109b9565b610f3b60806109b9565b6131bf6131b96002610ab8565b61323a60126109b9565b9061315e565b610f3b60c06109b9565b916132556003610ab8565b9061314c565b61327f61327a61327361326d5f610ab8565b8461314c565b5160ff1690565b6109a0565b906132a661329c61327a6132736132966001610ab8565b8561314c565b610b4c60086109b9565b61101b6132e361327a6132736132d86132ce61327a6132736132c86002610ab8565b8a61314c565b610b4c60106109b9565b956132556003610ab8565b610b4c60186109b9565b9091906132f95f610ab8565b8114801561336f575b61335157613316612ef66115ab60026114c7565b926133205f610ab8565b8414613362576133369161171861181e9261139b565b8281106133515761334a83610186926110cb565b92836113ac565b50905061335d5f610ab8565b908190565b5050905061335d5f610ab8565b506133795f610ad3565b61ffff841614613302565b6101866101866101869260ff1690565b9061339f5f916140b8565b905b6133ab60046109b9565b60ff8216101561340d576133e66133e16133c6856015610c0f565b6133db6132736133d586613384565b8761314c565b90610c39565b505490565b6133f2610a0f5f610ab8565b036134055761340090611419565b6133a1565b505050600190565b5050505f90565b919061341e613142565b613426613142565b906134305f610ab8565b851461344c57505080613445610186926151e0565b938461531e565b9350919050565b9050519061016582610615565b906020828203126101465761018691613453565b6101866060610a9a565b613486613474565b5f80825260208201819052604082015290565b61018661347e565b6134ae9061ffff16612ba5565b029061ffff8216610a68565b6110cd9061ffff16612ba5565b516001600160a01b031690565b96959391909694929461020052610300526101e0526101c052610340526134f85f90565b916135106129ec608061020051015163ffffffff1690565b9361353c61352b60a06102005101516001600160401b031690565b611ca1612a17606061020051015190565b9184926135485f610ad3565b6101e05161ffff16141561032052610320516138da575b73a513e6e4b8f2a923d98304ec87f64353c4d5c85361024052613588612ef66115ab60026114c7565b61359e613599606061020051015190565b6154d2565b6102a08890526135b061017a5f612eda565b610240516001600160a01b03161415806138a0575b613825575b6135e7926135dc602061020051015190565b9061030051916154ec565b906135f0613499565b6102c0526102005160600151613607906102c05152565b6102e08690525b61361860046109b9565b6102e05160ff1610156137d3576136486136406136376102e051613384565b6103005161314c565b5161ffff1690565b6102205261374261128e61372f61371c61128e61370b8c6136756136716131b96102e051613384565b5190565b6102608e90526102808e90528b8b61368d6001610ad3565b6102205161ffff16036137575750508c610260525b6102005160c001516001600160a01b0316906136d96132736136cc5f61020051015162ffffff1690565b946132556102e051613384565b6102c05151909290926102a05194610340519461028051946102605194610240519461022051945f6102e0519361560e565b94935f6102c0999299949394510152565b61026260406102c051019161128e835190565b61026260206102c051019161128e835190565b61374e6102e051611419565b6102e05261360e565b612ba5613770613640613778936132556102e051613384565b9261ffff1690565b14806137c9575b806137b0575b156136a2576137a761379d6101c051610220516134a1565b6101e051906134ba565b610280526136a2565b506137ba5f610ad3565b6101c05161ffff161415613785565b506103205161377f565b9550505050505060206102c051016137e9815190565b6137f5610a0f5f610ab8565b03613807575b506102c0516040015190565b6130f561381561381f925190565b6125fc6014611048565b5f6137fb565b61383461273761024051610824565b92602061384060405190565b631ca27e4760e11b815294859060049082905afa8015610986576135e7945f91613871575b506102a05292506135ca565b613893915060203d602011613899575b61388b8183610841565b810190613460565b5f613865565b503d613881565b506138aa5f610ad3565b61ffff88161415806135c557506103205180156135c557506138cb5f610ad3565b6101c05161ffff1614156135c5565b6101e051935061355f565b65ffffffffffff90911681526040810192916101659160200152565b61393961016594613930606094989795613929608086019a5f87019065ffffffffffff169052565b6020850152565b15156040830152565b019015159052565b9091156139875761395190610824565b91823b15610146576001925f9283859361095e61396d60405190565b9788968795869463c93c82f560e01b865260048601613901565b61399390929192610824565b91823b156101465761095e925f92836139ab60405190565b8096819582946139bf63ef4f779a60e01b90565b8452600484016138e5565b610778906109e4610df66101869460ff1690565b9190916139e9613142565b9081936139f55f6109b9565b6139ff60086109b9565b9081613a0b9184615af2565b90613a166007610ab8565b8416613a21906109b9565b91613a2c60036109b9565b9283613a37916139ca565b17613a415f610ab8565b613a4b908761314c565b60ff909116905280613a5d9184615af2565b613a67828561315e565b613a716007610ab8565b16613a7b906109b9565b91613a85916139ca565b17613a9060406109b9565b90613a9a91610eab565b613aa46001610ab8565b613aae908561314c565b60ff9091169052613abf60106109b9565b613ac960406109b9565b90613ad392615af2565b613add60806109b9565b90613ae791610eab565b613af16002610ab8565b613afb908461314c565b60ff9091169052613b0c60066109b9565b613b159161315e565b613b1f603f610ab8565b16613b29906109b9565b613b3360c06109b9565b90613b3d91610eab565b90613b486003610ab8565b613b519161314c565b60ff9091169052565b610186610262610ad3565b6101866102a5610ad3565b6101866102ea610ad3565b61018661032d610ad3565b610186610371610ad3565b6101866103b5610ad3565b6101866103f9610ad3565b61018661043d610ad3565b610186610481610ad3565b6101866104c9610ad3565b613bd15f6109b9565b60ff821614613cc057613be460016109b9565b60ff821614613cb757613bf760026109b9565b60ff821614613cae57613c0a60036109b9565b60ff821614613ca557613c1d60046109b9565b60ff821614613c9c57613c3060056109b9565b60ff821614613c9357613c4360066109b9565b60ff821614613c8a57613c5660076109b9565b60ff821614613c8157613c6c610df660086109b9565b14613c7957610186613bbd565b610186613bb2565b50610186613ba7565b50610186613b9c565b50610186613b91565b50610186613b86565b50610186613b7b565b50610186613b70565b50610186613b65565b50610186613b5a565b613cd1613142565b508092613cdd5f610ad3565b61ffff841614613f0e57613cf082614035565b92613cfa8161139b565b841115613d5657613d0a9061139b565b91613d27613d1d60019461184e86610ab8565b9461184e85610ab8565b93835f95869384835b613e63575b5050505090613d4391610f9b565b80613d50610a0f5f610ab8565b03613d5d575b5050505090565b613d6c839261323a60186109b9565b93613d7d600395612a216003610ab8565b90925b613d8b575b50613d56565b613d9560046109b9565b60ff84161080613e51575b15613e4c578392613dbf6131e3613db684613384565b611dfd84613384565b8785613dd061364061326d85613384565b613ddc612ba583610ad3565b11613df4575b505050613dee90611419565b92613d80565b613e4392613e34613e2e613e28613dee979995613e23613640613e19613e3d98610ad3565b9261325588613384565b612b9c565b92613384565b8c61314c565b9061ffff169052565b5f190190565b92908785613de2565b613d85565b50613e5b5f610ab8565b821415613da0565b613e6d60046109b9565b60ff82161015613f0957613e8661364061326d83613384565b613e8f85610ad3565b61ffff821611613eaa575b50613ea490611419565b83613d30565b613ea49196613ec38561171e89611819613ef19661139b565b9081613ed1610a0f5f610ab8565b14613ef8575b61128e8d613e34613ee785610ad3565b916132558d613384565b9590613e9a565b9050613f0386610ab8565b90613ed7565b613d35565b50915050610186613f1e5f610ad3565b613f3481613e34613f2e5f610ab8565b8661314c565b613f4581613e34613f2e6001610ab8565b613f5681613e34613f2e6002610ab8565b613e3461326d6003610ab8565b613f6c5f6113d5565b62ffffff821603613fad5750610186611ce3613fa2613f98613f8d5f610ab8565b611718611388610ab8565b6112156063610ab8565b611652612710610ab8565b611ce3613fa2613f98613fe2613fd2613fc8610186966109e9565b61184e6001610ab8565b613fdc6064610ab8565b90612bba565b613f8d565b90613ff28183611052565b613ffb5f610ab8565b81146140295761171e611ce392611dfd61401d6101869661171861191b6113ca565b9161171861191b610f90565b5050506101865f610ad3565b61018690611dfd61191b61364061408661407361406061191b61364061405a5f610ab8565b8961314c565b611dfd61191b6136406132c86001610ab8565b611dfd61191b61364061405a6002610ab8565b936132556003610ab8565b6107786101866101869263ffffffff1690565b6109b0906131726109da6101869460ff1690565b906101656140c4613142565b6131bf61324a61410683966140ed6140db82614091565b6131bf6140e75f610ab8565b8861314c565b61411861410b61410661410060086109b9565b846140a4565b614091565b6131bf6140e76001610ab8565b61413861412b61410661410060106109b9565b6131bf6140e76002610ab8565b61414260186109b9565b906140a4565b9190614152613142565b92835f5b61416060046109b9565b60ff8216101561418d5780611bdb61417c614188938787615c46565b613e346132c884613384565b614156565b5093505050565b93999097929894969195966141a65f90565b916141af613499565b996141b8898c52565b83986141c35f610ad3565b61ffff88161415806143a8575b614347575b6141df60026114c7565b6141e8906114d1565b9d8460049f6141f76004610ab8565b614200916110cb565b9261420a906154d2565b91614214946154ec565b925b61421f8d6109b9565b60ff821610156142fc578b8a8a8a8a8f8a8c9161423b89613384565b614245908c61314c565b5161ffff16908c6142558b613384565b61425e9161314c565b51986142698b613384565b6142729161314c565b5160ff1690988a6142818b5190565b9261428b5f610ad3565b975f6142969c61560e565b9361429f919552565b6142a891611052565b906142b291611052565b60408d01906142bf825190565b906142c991611052565b6142d09152565b60208c01906142dd825190565b906142e791611052565b6142ee9152565b6142f790611419565b614216565b509a50505050505050505061018691506040906020810161431b815190565b614327610a0f5f610ab8565b03614333575b50015190565b6130f5613815614341925190565b5f61432d565b985061435561273786610824565b602061436060405190565b631ca27e4760e11b815291829060049082905afa908115610986575f91614389575b50986141d5565b6143a2915060203d6020116138995761388b8183610841565b5f614382565b506143b561017a5f612eda565b6001600160a01b03871614156141d0565b602060165b8181106143d6575050565b5f81556001016143cb565b610186610100613126565b610186675851f42d4c957f2d610a13565b610a206101866101869260ff1690565b90610100613150565b6001610186910163ffffffff1690565b6001610186910161ffff1690565b9094919293946144426143e1565b9061444b6143e1565b925f9061445e8298880163ffffffff1690565b96955b63ffffffff881663ffffffff881610156146475761449d8a61449761449261217761448c60046109b9565b8c6140a4565b870190565b18610a13565b6001906144a982610a13565b17816144bf6144b8600f610e3a565b8b16614091565b6144ff6144ca6143ec565b936144f26144d7846143fd565b916001600160401b03878401165b026001600160401b031690565b016001600160401b031690565b90935b614510575b50505050614461565b61451f60109b9293949b6109b9565b60ff8c161080614632575b1561462a579061454f614546858594026001600160401b031690565b6144f284610a13565b908d61458b61455d84615ca2565b61458461457461456d6003610e3a565b8616614091565b61457e60066109b9565b906139ca565b0160ff1690565b906145ac6145a28d61459c85613384565b9061440d565b5163ffffffff1690565b6145d18d6145c66145bc84614416565b9161459c87613384565b9063ffffffff169052565b6145dd6109da5f610e3a565b146145fe575b50506145f16145f791614416565b9b611419565b9392614502565b9e61460890614426565b9e6146129061139b565b61461c908d61440d565b60ff90911690525f8e6145e3565b819a50614507565b5063ffffffff8c1663ffffffff83161061452a565b93955095509596506146606146659161323a60e06109b9565b6113d5565b5f52601560205260405f20945b61ffff87165b61ffff821610156146ed576146986132736146928361139b565b8561440d565b6146ad6145a26146a783613384565b8761440d565b908701805480830182555f91825260208220015b8282106146de575050506146d761467891614426565b9050614672565b878155600191820191016146c1565b50945050505050565b6101866101a4610ab8565b905f9161471761471160646113d5565b826125cd565b6147236113ec5f6113d5565b146149bf5761473e614738633b9aca00610ab8565b83612bba565b61474c610a0f6101866146f6565b146149b25761475b60506113d5565b62ffffff821610158061499a575b6148e15761477760636113d5565b62ffffff8216146148d4576147f0925061479160046113d5565b62ffffff82161161488a576147a55f6113d5565b62ffffff8216111561486c576147e06147ea6147e06147d66147cc613fc8611dfd966109e9565b6117186008610ab8565b61128e6008610ab8565b6117186002610ab8565b92615fcf565b806147fe610a0f60c4610ab8565b1161485c575b6148128161165260c8610ab8565b61481c6022610ab8565b81109081614845575b50614835575b906101865f610ab8565b5061484060a6610ab8565b61482b565b9050614854610a0f603c610ab8565b14155f614825565b5061486760c4610ab8565b614804565b50611dfd6147e06147ea6147e06147d66148855f610ab8565b6147cc565b6147e0611dfd918361489c604f6113d5565b62ffffff8316116148cb57506148c16148b76147ea926109e9565b61184e6004610ab8565b61128e6040610ab8565b6147ea91615e2d565b50505061482b60c4610ab8565b61482b925090611dfd61494c8361492861491761490d614903614989986109e9565b61184e6050610ab8565b61128e604b610ab8565b91614922600a6113d5565b906125cd565b6149356113ec60096113d5565b0361498e57611dfd61494760056109b9565b613384565b917f72b1f89425766e300268d62720107b0321b629a59d167cfb36c5a1873ebb781061497860046109b9565b9061498360036109b9565b92615d2f565b615deb565b611dfd6149475f6109b9565b506149a560626113d5565b62ffffff82161115614769565b50505061482b6014610ab8565b506149ca9150615cde565b90610a0f6149d86002610ab8565b836113ac565b90816149ea6066611048565b906149f45f610ab8565b8214614ab45750614a056065611048565b8181101580614aa1575b15614a6657505090614a216003610ab8565b811115614a5657614a369061184e6004610ab8565b905b614a4260c4610ab8565b8211614a4a57565b905061018660c4610ab8565b50614a605f610ab8565b90614a38565b8181109182614a86575b505015614a385790614a6090611dfd6004610ab8565b819250610fa2614a9992610a0f92610f9b565b115f80614a70565b50614aac8282610f9b565b821115614a0f565b925050565b614ac79061492260146113d5565b614ad46113ec60106113d5565b14614af457614aea61018691613fdc6015610ab8565b61128e6014610ab8565b506101866028610ab8565b61018694939291906060810192614b1c614b17855190565b6151e0565b92614b366020840194614b2d865190565b87515b9161531e565b9273a513e6e4b8f2a923d98304ec87f64353c4d5c85395614b7e60c0614b6f614b6a614b65865162ffffff1690565b995190565b935190565b9301516001600160a01b031690565b95614194565b9091610165926060830191614b9a614b17845190565b91614bdc5f93614bad6115ab60026114c7565b946040880195614bbb875190565b614bc7610a0f5f610ab8565b141580614c66575b614c47575b508651614b30565b92614be8613599865190565b94614c01614bfc614b6a895162ffffff1690565b915190565b96614c3f60c0614c307fb4a03e5d47449c5970e463d3dba42755269512690ded8fe2b399b6ec4b1b52c2612ad0565b9201516001600160a01b031690565b971891616084565b614c609150614c5890611819885190565b6112156114e7565b5f614bd4565b50614c705f610ab8565b811415614bcf565b6001610186910361ffff1690565b61018660fa6109b9565b610ae06101866101869260ff1690565b6107786101866101869261ffff1690565b90614cba825190565b811015610c4f576020809102010190565b959193949290614cda5f610ab8565b85146151d757614ce9906140b8565b91614cf2613142565b905f9081958297835b8b614d0660046109b9565b60ff83161015614d84576133e1614d21614d36926015610c0f565b6133db613273614d3086613384565b8d61314c565b614d42610a0f5f610ab8565b03614d56575b614d5190611419565b614cfb565b9798614d7c614d5191614d75614d708c611b506001610ab8565b6109b9565b179a611419565b989050614d48565b50509091939795929498614d975f6109b9565b60ff8916146151ca57614da99061139b565b61040081905281106151c0575b614df3611ce3614dea614dd7611ce3614dce8c613384565b610400516110cb565b99611718614de48c61139b565b91613384565b61040051610f9b565b998a99865b614e0260046109b9565b60ff82161015614e5a57808b8b614e23614d70614e3e95611b506001610ab8565b8c16614e31610df65f6109b9565b03614e43575b5050611419565b614df8565b613e34614e539261325585613384565b8b8b614e37565b509398949991969297509499614e72612ba55f610ad3565b036150ec575b5050614e8761040051856110cb565b6103c052614e986104005185612bba565b6103a052614ea96104005182612bba565b6103e052610420889052610360889052955b614ec560046109b9565b6103605160ff1610156150e257614ee461364061326d61036051613384565b80614eee5f610ad3565b61ffff821603614f10575b5050614f0761036051611419565b61036052614ebb565b614f1b989198614c86565b90614f28612ba583614c90565b116150cc575b50614f9b90614f5e86614f4361036051613384565b92614f57614f5160406109b9565b856109fb565b1818616145565b8099614f81614f7b613273614f748a6015610c0f565b958d61314c565b91614ca0565b91614f96614f92610360518c610eab565b9490565b6161ca565b61038081905251610340526103208890525b610340516103205110156150c557614fce6134c76103205161038051614cb1565b6103c05190614fdc5f610ab8565b6103a05103615077575b614ff261017a5f612eda565b6001600160a01b038216141580615065575b615026575b505061042051600101610420526103205160010161032052614fad565b61504861504e9263ffffffff61503b81611fcb565b8211615055575b50610e3a565b906162cb565b5f80615009565b61505f9150611fcb565b5f615042565b5061506f5f610ab8565b821415615004565b61509461508a6103e05161042051611052565b6104005190612bba565b6150a1610a0f6103a05190565b1015614fe65790506150bf6150b66001610ab8565b6103c051611052565b90614fe6565b5f80614ef9565b614f9b9198506150db90614c90565b9790614f2e565b9650505050505050565b946003999499989396919792989961510e6151076003610ab8565b8b166109b9565b6151175f610ad3565b61ffff8916146151ad57600189615134614d7084611b5085610ab8565b8c16615142610df65f6109b9565b03615165575b50906118df615156926109b9565b61515f8c6109b9565b1661510e565b6151a2829a61519d6118df93613e346151936151846151569998610ad3565b613e23613640613f2e8b613384565b9161325588613384565b614c78565b999192505089615148565b5094995094509491969095505f80614e78565b8061040052614db6565b5050505095505050505050565b50509350505050565b906151e9613142565b80926151f3613142565b61520c6152006019610ad3565b613e3461326d5f610ab8565b615216600f610ad3565b9161522a600193613e346132966001610ab8565b6152446152376008610ad3565b613e346132966002610ab8565b6152656152516001610ad3565b91612a17600393613e346133d56003610ab8565b5f845b615275575b505050505050565b61527f60046109b9565b60ff821610156152b85780611bdb61417c6136406140e76152a3876152b297610eab565b6152ac896109b9565b16613384565b84615268565b61526d565b610186678ac7230489e80000610ab8565b6101866802b5e3af16b1880000610ab8565b610186680ad78ebc5ac6200000610ab8565b610186619c40610ad3565b610186614e20610ad3565b610186612710610ad3565b61018661012c610ad3565b919091615329613142565b50806153336152bd565b908185106154ca57505f936153466152ce565b91828210156154735761538d61536c8261536661128e9461539397610f9b565b94610f9b565b9261171e615378615308565b9461171861191b876153886152fd565b612bc0565b9161139b565b61539e61191b615308565b81036153b3575b506101869250611ce8615313565b91925b6153c060046109b9565b60ff8216101561546657806153dd6136406132966153f894613384565b6153e76001610ad3565b61ffff8216116153fd575b50611419565b6153b6565b61543c61540c6154489261139b565b61541961181e88836113ac565b9080821061545e575b5061ffff61542f8161139b565b821161544e575b50610ad3565b613e34613f2e84613384565b5f6153f2565b615458915061139b565b5f615436565b90505f615422565b506101869291505f6153a5565b5061547c6152e0565b808210156154bc5761538d61549b846153666154b79661128e95610f9b565b9261171e6154a76152fd565b9461171861191b876153886152f2565b615393565b5050506154b761191b6152f2565b935050505090565b61018690612a216154e36003610ab8565b80921682610f9b565b92909194936154f9613142565b9081926155035f90565b93845b61551060046109b9565b60ff821610156155ef57868a60ff851660ff84160361553a575b505061553590611419565b615506565b91809761557261181e61556c61191b61364061558f976132556155666136406155359c6132558c613384565b98613384565b8d6113ac565b809261557d5f610ad3565b61ffff821603615599575b5050611052565b959050868a61552a565b6155a25f610ab8565b89036155c5575b50506155be826155bb6131b98c613384565b52565b5f80615588565b6155e79293506155e06155da6118199261139b565b8a6113ac565b80926110cb565b905f806155a9565b5097509350506132556156086155bb9361016596610f9b565b93613384565b9c9b96919597939c9a929994989a61042052610400526103e052610360526156335f90565b9687908896806156425f610ab8565b8a14615aa957506103e0516103c05261565a5f610ad3565b6103e05161ffff1614615a9257906156a7896156e7938f61569d614f5791615680614c86565b61568981614c90565b6103e05161ffff1611615a7f575b50613384565b610b6d60406109b9565b6103a0526103a0519c6156bb876015610c0f565b916156dd6156d96156ce6103c051614ca0565b93610f3b60c86109b9565b9390565b6103a051906161ca565b610380819052516156fa610a0f5f610ab8565b14615a665761571461570e6103c05161139b565b886110cb565b9861571e5f610ab8565b8a14615a505761572d5f612eda565b976001600160a01b0389166001600160a01b03851661040051159114158180615a3a575b80615a33575b80615a1a575b61595357818061593d575b80615936575b156158c75750505050509161579593918a8961578e95610380519061669b565b9092611052565b955b61038051519561040051615873578497855b885b81101561581e576157c26134c78261038051614cb1565b6001600160a01b0387166001600160a01b038216036157ec575b506157ab906001015b90506157a9565b6158166157ab92989b61581061580a6157e5948d61036051916164d7565b92611052565b9c611052565b9791506157dc565b509296509250935061582f5f610ab8565b861480615862575b61584d578561584591611052565b929493929190565b929450905061585b5f610ab8565b9291908390565b5061586c5f610ab8565b8314615837565b9496925090925b855b8110156158b7576158b0816158a98961589e6134c761587c9661038051614cb1565b6001610420516167f5565b5060010190565b905061587a565b5094509092509061585b5f610ab8565b90809294999e989796509492949161591e575b81615916575b506158f0575b5050505050615797565b859b96509461578e949392918a61590b976103805190616630565b955f808080806158e6565b90505f6158e0565b90506159295f610ad3565b61ffff85161415906158da565b508061576e565b506159475f610ad3565b61ffff88161415615768565b505050925097929398999650935061598961597c6134c76159735f610ab8565b61038051614cb1565b956001600160a01b031690565b6001600160a01b038616146159ff5761181e6149d86159a79261139b565b9181936159b35f610ab8565b84036159d8575b505050506159cf9293945061036051916164d7565b91939092918391565b6159cf9697506159f1945097611652918487819b616379565b93929150835f8080806159ba565b505050505091505090615a115f610ab8565b90819082908390565b50615a256001610ad3565b6103c05161ffff161461575d565b5080615757565b50615a445f610ad3565b61ffff85161415615751565b5098999650505050509250509261585b5f610ab8565b50505050505050505090506103a05190615a115f610ab8565b615a8890614c90565b6103c0525f615697565b9a9b505050505050505050505090615a115f610ab8565b9b9c50505050505050505050505090615a115f610ab8565b610186916008021c6109b0565b906101869154615ac1565b615ae59060ff16610df6565b90039060ff8211610a7157565b9091615afd5f6109b9565b60ff8216148015615bef575b615be357615b22615b1c613e2885613384565b82611052565b80615b30610a0f6050610ab8565b11615bd3575b9290615b6991615b455f6109b9565b94615b59615b538387610e47565b90615ace565b926001948591611dfd6001610ab8565b905b615b79575b50505050505090565b81811015615bce57615b8e615b538288610e47565b63ffffffff851663ffffffff821611615bad575b506001015b84615b6b565b9096509250615ba7615bc783615bc2896109b9565b615ad9565b9690615ba2565b615b70565b50615bde6050610ab8565b615b36565b5050506101865f6109b9565b50615bfa60506109b9565b60ff84161015615b09565b615c119060ff16610df6565b029060ff8216610a68565b610a2090613172610a4e6101869460ff1690565b610ae0610186610186926001600160401b031690565b615c81615c71612a17615c67615c8795611dfd614de4610186996156975f90565b611dfd6001610ab8565b615c7b60106109b9565b90615c05565b90615c1c565b615c30565b6109b0610186610186926001600160401b031690565b615cda615ccf615cba615cca615cbf615cba86615c8c565b6168b8565b94615c8160206109b9565b615c8c565b9161457e60036109b9565b1790565b61018690611dfd615d14615d1e615cfe615cf8600b610ab8565b85612bba565b611dfd615d14615d0e60106109b9565b8761315e565b613fdc600b610ab8565b9261323a60206109b9565b01918252565b939190615d67615d73615d8b92615d435f90565b97615d4d60405190565b938492602084019283602081615d296125fc938396959052565b90810382520382610841565b615d85615d7e825190565b9160200190565b20612ad0565b91845b60ff85165b60ff87161015615de357615dda615dd4615dc9615d93936125fc615dbf615db989613384565b8a612bba565b6125fc6001610ab8565b9561323a60106109b9565b96611419565b95939050615d8e565b945092505050565b615df56062610ab8565b8111615e0a575b610186906117186002610ab8565b50610186615e186062610ab8565b9050615dfc565b6110cd9062ffffff166113ec565b6147e09061018692615e3c5f90565b50615e58615e53615e4d60646113d5565b846125cd565b6109e9565b615e62600a6113d5565b62ffffff84161015615edd575050615e86615e7c826109e9565b6117186005610ab8565b905b615e95614711600a6113d5565b615ea26113ec60096113d5565b14615ebf575b615e53611dfd91615eb960646113d5565b90615e1f565b90615e53615ed4611dfd92611dfd6005610ab8565b92915050615ea8565b615ee760146113d5565b62ffffff84161015615f155750615f05615f0f91613fdc6010610ab8565b61128e6037610ab8565b90615e88565b615f1f60286113d5565b62ffffff84161015615f3d5750615f05615f0f91613fdc6015610ab8565b615f47603c6113d5565b62ffffff84161015615f6f5750615f65615f0f91613fdc6015610ab8565b61128e603c610ab8565b615f7960506113d5565b62ffffff84161015615f975750615f65615f0f91613fdc601a610ab8565b615fa4610a0f6063610ab8565b03615fb45750615f0f605d610ab8565b615fc5615f0f91613fdc601a610ab8565b61128e6041610ab8565b61607a616012615d67615d7361018694615fe65f90565b507fff0b075b6010a7aab87642f02b8acc93ba322b9d9b52e045181cd673fc10198990615d4d60405190565b61128e61602e616022600f610ab8565b8316613fdc6004610ab8565b9161580a61606561605a6160456131dd60086109b9565b61604f600f610ab8565b16613fdc6004610ab8565b9261323a60106109b9565b61606f60ff610ab8565b16613fdc600e610ab8565b611dfd6003610ab8565b97929491939695906160b091836160996114e7565b996160aa60049b6112156004610ab8565b936154ec565b915f935b6160bd886109b9565b60ff8616101561613a576161326161285f8b60018b8a8a6160bd988e61610a6132736161008f6160f6613640613671926132558b613384565b9661325589613384565b9261325587613384565b9361611489612eda565b9461611e8a610ad3565b988998899861560e565b5050505095611419565b9490506160b4565b509650505050505050565b61615861615260076109b9565b826109fb565b1861616c61616660096109b9565b8261315e565b1861617a61615260086109b9565b1890565b6001600160401b0381116108625760208091020190565b906161a261311c8361617e565b918252565b906101656161bd6161b784616195565b9361617e565b601f190160208401613121565b610d14836161e492969593966161de606090565b50610c39565b916161ed835490565b916161f75f610ab8565b831480156162b7575b6162a05761621090969596613384565b9561621a876161a7565b94616238610b63613e2861622e8996613384565b610b6d60806109b9565b911818945f5b878110156162965761626d90610d4961626361223061625d888c612bba565b89610c6e565b610ac5838a614cb1565b9561628f61628461627e60106109b9565b8361315e565b91610b6d60f06109b9565b179561623e565b5094509450505050565b5050505050506101866162b25f610ab8565b6161a7565b506162c15f6109b9565b60ff821614616200565b6162d45f610e3a565b63ffffffff831614612805576123dc616317610165936162f86122448560116120a7565b6163015f610e3a565b63ffffffff82161461631f570163ffffffff1690565b9160116120a7565b6123e1856010610ccb565b6001600160a01b0390911681526040810192916101659160200152565b6001600160a01b03909116815260608101939261016592909160409161636e906020830152565b019062ffffff169052565b909192936163865f610ab8565b841480156164ba575b6164b357616415576127376163a391610824565b92833b15610146576163d693835f80946163bc60405190565b9788958694859363feb3a1e360e01b855260048501616347565b03925af190811561098657610165926163f992616400575b5061128e600c611048565b600c611068565b61640f905f61097e8183610841565b5f6163ee565b616454935060209161642a6127378593610824565b905f61643560405190565b809781958294616449631a301ca060e01b90565b84526004840161632a565b03925af19182156109865761647392616496575b506112156002610ab8565b61647c5f610ab8565b81036164855750565b6163f96101659161128e600c611048565b6164ae9060203d602011612884576128758183610841565b616468565b5050505050565b506164c761017a5f612eda565b6001600160a01b0384161461638f565b9290915f9384936164ea61017a5f612eda565b6001600160a01b03831614801561661f575b61661057809261650b5f610ad3565b61ffff82160361653c575b50506165215f610ab8565b820361652b575050565b8192945090616539916169d1565b91565b61654c612ef66115ab60026114c7565b906165565f610ab8565b8203616563575b50616516565b61181e6165726165789261139b565b846113ac565b81811061655d5781616589916110cb565b9063ffffffff8261659c610a0f83611fcb565b116165fa575b506165ad90826113ac565b906165b75f610ab8565b821461655d576165d9919296506165f19394506165d390610e3a565b846162cb565b6165ea6112938261128e6005611048565b8094610f9b565b905f808061655d565b6165ad91925061660990611fcb565b91906165a2565b50505091505061335d5f610ab8565b506166295f610ab8565b81146164fc565b939261181e61665691989796986166445f90565b50611718616650855190565b9a61139b565b82811061668a576103069761666e8461667c936110cb565b908082116166825750610ad3565b9361669b565b90505f615436565b505050505050505061335d5f610ab8565b939591949092915f809881906166af875190565b956166b95f610ad3565b61ffff8c161480156167e4575b6167cf57866166d48c61139b565b116167af575b611ce3876166e792612bba565b929a5b6166f38b61139b565b8c10156167a0578b61671e6134c76167188a612e226167118a61139b565b9586611052565b8b614cb1565b906167285f612eda565b916001600160a01b0383166001600160a01b03821614616789576166f3938f61677e948f938f8f908f8f8f966167779a61128e61128e99612e22948d610ac59a61677199616379565b90614cb1565b9c60010190565b9a5b9a9b90506166ea565b5050509a61679a6166f39160010190565b9a616780565b9a509098509650505050505050565b99506166f36166e7611ce3886167c481610ad3565b9d93505050506166da565b50995050505050505050505061335d5f610ab8565b506167ee5f610ab8565b87146166c6565b9061680261017a5f612eda565b6001600160a01b038416148015616894575b61688c571561687c5761682690610824565b91823b1561014657616852925f928361683e60405190565b809681958294616449633e8b68b060e01b90565b03925af1801561098657616867575b50600190565b616876905f61097e8183610841565b5f616861565b5090616887916169d1565b600190565b505050505f90565b5061689e5f610ab8565b8414616814565b610a206101866101869263ffffffff1690565b615cca6168dc6168d26168e6936168cc5f90565b506168a5565b6144e5604b610a13565b615c8160206109b9565b6168f0600a610e3a565b63ffffffff8216106169c7576169066014610e3a565b63ffffffff8216106169bc5761691c601e610e3a565b63ffffffff8216106169b1576169326028610e3a565b63ffffffff8216106169a6576169486031610e3a565b63ffffffff82161061699b5761695e603a610e3a565b63ffffffff821610616990576169776109da6043610e3a565b106169865761018660076109b9565b61018660066109b9565b5061018660056109b9565b5061018660046109b9565b5061018660036109b9565b5061018660026109b9565b5061018660016109b9565b506101865f6109b9565b907f8d6d307cfee7f8fbe2b0a9eebc059c714d0108fa855c944761169ccff9442d6b616a15616a2193612737616a088260136120a7565b612faa866125fc83611048565b92839261028960405190565b0390a356fea2646970667358221220b799b8757f4f316d17a07097093915a89c35af6a7e6f405c989881dc46c0196b64736f6c634300081e0033","linkReferences":{}},"methodIdentifiers":{"calcPrizePoolForLevelJackpot(uint24,uint256,address)":"c110f1a5","deployTimestamp()":"607ad0d7","gameState()":"d1f9c24d","level()":"6fd5ae15","payCarryoverExterminationJackpot(uint24,uint8,uint256,address)":"f5952bf7","payDailyJackpot(bool,uint24,uint256,address)":"b80a290c","payDailyJackpotAndMap(uint24,uint256,address)":"a466b0d1","payDailyJackpotAndMapWithRand(uint24,uint256,uint256,address)":"047ecd5f","payExterminationJackpot(uint24,uint8,uint256,uint256,address)":"1195b2e0","payLevelJackpot(uint24,uint256,uint256,address)":"909e8805","payMapJackpot(uint24,uint256)":"47cefa0a","pendingMapMintsLength()":"49953ebd","processMapBatch(uint32)":"bf0e1384","seedTraitTickets(uint24,uint8,address[])":"20d60eb3","setBonds(address)":"89024913","setDailyBurnCounts(uint8,uint8,uint8)":"517fbf12","setState(uint24,uint128,uint256,uint256,uint256,uint8)":"b96d0a70","simulateMapPayout(address[],uint256,uint16)":"97b801c7","simulateWorstCaseWrites(address[],uint256,address[],uint256,uint16)":"5038ecc5"},"id":40}