{"abi":[{"type":"function","name":"calculateAirdropMultiplier","inputs":[{"name":"prePurchaseCount","type":"uint32","internalType":"uint32"},{"name":"purchasePhaseCount","type":"uint32","internalType":"uint32"},{"name":"lvl","type":"uint24","internalType":"uint24"}],"outputs":[{"name":"","type":"uint32","internalType":"uint32"}],"stateMutability":"pure"},{"type":"function","name":"deployTimestamp","inputs":[],"outputs":[{"name":"","type":"uint48","internalType":"uint48"}],"stateMutability":"view"},{"type":"function","name":"gameState","inputs":[],"outputs":[{"name":"","type":"uint8","internalType":"uint8"}],"stateMutability":"view"},{"type":"function","name":"level","inputs":[],"outputs":[{"name":"","type":"uint24","internalType":"uint24"}],"stateMutability":"view"},{"type":"function","name":"purchaseTargetCountFromRaw","inputs":[{"name":"prePurchaseCount","type":"uint32","internalType":"uint32"},{"name":"purchasePhaseCount","type":"uint32","internalType":"uint32"}],"outputs":[{"name":"","type":"uint32","internalType":"uint32"}],"stateMutability":"view"},{"type":"function","name":"rebuildTraitCounts","inputs":[{"name":"tokenBudget","type":"uint32","internalType":"uint32"},{"name":"target","type":"uint32","internalType":"uint32"},{"name":"baseTokenId","type":"uint256","internalType":"uint256"}],"outputs":[{"name":"finished","type":"bool","internalType":"bool"}],"stateMutability":"nonpayable"},{"type":"function","name":"recordMintData","inputs":[{"name":"player","type":"address","internalType":"address"},{"name":"lvl","type":"uint24","internalType":"uint24"},{"name":"mintUnits","type":"uint32","internalType":"uint32"}],"outputs":[{"name":"coinReward","type":"uint256","internalType":"uint256"}],"stateMutability":"payable"},{"type":"error","name":"E","inputs":[]}],"bytecode":{"object":"0x60806040523461002257610011610026565b604051611710610281823961171090f35b5f80fd5b61002e610215565b565b9065ffffffffffff905b9181191691161790565b61005c6100596100599265ffffffffffff1690565b90565b65ffffffffffff1690565b9061007761005961007e92610044565b8254610030565b9055565b9062ffffff60d01b9060d01b61003a565b6100a06100596100599290565b62ffffff1690565b906100b861005961007e92610093565b8254610082565b9061ffff60e81b9060e81b61003a565b6100dc6100596100599290565b61ffff1690565b906100f361005961007e926100cf565b82546100bf565b907fff000000000000000000000000000000000000000000000000000000000000009060f81b61003a565b6101326100596100599290565b60ff1690565b9061014861005961007e92610125565b82546100fa565b906cff0000000000000000000000009060601b61003a565b151590565b9061017c61005961007e92610167565b825461014f565b9060ff60781b9060781b61003a565b906101a261005961007e92610167565b8254610183565b906001600160801b039061003a565b6101c56100596100599290565b6001600160801b031690565b906101e161005961007e926101b8565b82546101a9565b905f199061003a565b6100596100596100599290565b9061020e61005961007e926101f1565b82546101e8565b61022565ffffffffffff5f610067565b61025a6001610234815f6100a8565b6102406101a45f6100e3565b61024a5f80610138565b610254818061016c565b80610192565b61026c6658d15e1762800060026101d1565b61002e6806c6b935b8bbd4000060036101fe56fe6101006040526004361015610012575f80fd5b5f3560e01c8063105ea8e614610081578063607ad0d71461007c5780636fd5ae15146100775780639c27d8af14610072578063ae926f5b1461006d578063d1f9c24d146100685763f44b0c91036100865761034a565b6102eb565b610298565b610222565b6101d5565b61017a565b61011b565b5f80fd5b6001600160a01b031690565b90565b6001600160a01b0381165b0361008657565b905035906100b882610099565b565b62ffffff81166100a4565b905035906100b8826100ba565b63ffffffff81166100a4565b905035906100b8826100d2565b90916060828403126100865761009661010484846100ab565b93604061011482602087016100c5565b94016100de565b61014261013261012c3660046100eb565b916105d8565b6040519182918290815260200190565b0390f35b5f91031261008657565b610096916008021c5b65ffffffffffff1690565b906100969154610150565b6100965f600e610164565b346100865761018a366004610146565b61014261019561016f565b6040519182918265ffffffffffff909116815260200190565b610096916008021c5b62ffffff1690565b9061009691546101ae565b610096601a5f6101bf565b34610086576101e5366004610146565b6101426101f06101ca565b6040519182918262ffffff909116815260200190565b91906040838203126100865761009690602061011482866100de565b346100865761014261023e610238366004610206565b90610b3e565b6040519182918263ffffffff909116815260200190565b806100a4565b905035906100b882610255565b90916060828403126100865761009661028184846100de565b93604061029182602087016100de565b940161025b565b34610086576101426102b46102ae366004610268565b91610e4e565b60405191829182901515815260200190565b610096916008021c5b60ff1690565b9061009691546102c6565b610096601f5f6102d5565b34610086576102fb366004610146565b6101426103066102e0565b6040519182918260ff909116815260200190565b90916060828403126100865761009661033384846100de565b93604061034382602087016100de565b94016100c5565b346100865761014261023e61036036600461031a565b91611149565b6100969061008a906001600160a01b031682565b61009690610366565b6100969061037a565b9061039690610383565b5f5260205260405f2090565b6100969081565b61009690546103a2565b6100966100966100969290565b610096683635c9adc5dea000006103b3565b6100965f6103b3565b610096906103f06103ec6100969490565b9190565b901c90565b6102cf6100966100969290565b610096906104166103ec6100969460ff1690565b901b90565b634e487b7160e01b5f52601160045260245ffd5b9190820391821161043c57565b61041b565b61009661044e60016103b3565b61046161045b60186103f5565b82610402565b61042f565b6101b76100966100969290565b61009660186103b3565b61009660306103b3565b61009660686103b3565b634e487b7160e01b5f52601260045260245ffd5b6104b89062ffffff165b9162ffffff1690565b9081156104c3570490565b610491565b61009660e46103b3565b6100966104df60016103b3565b61046161045b60106103f5565b61009660f46103b3565b6100966100966100969263ffffffff1690565b9190820180921161043c57565b8181029291811591840414171561043c57565b906104b8565b6100966100966100969262ffffff1690565b6100966100966100969260ff1690565b905f19905b9181191691161790565b90610570610096610577926103b3565b8254610551565b9055565b61009660486103b3565b61009661059260016103b3565b61046161045b60206103f5565b6105ad9062ffffff166104af565b019062ffffff821161043c57565b6105c99062ffffff166104af565b9081156104c3570690565b0190565b60a05260e0919091525f90816105f96105f460a051606061038c565b6103a9565b60c0526106046112bd565b61060c6103c0565b916106156103d2565b916106336106258460c0516103db565b61062d610441565b16610466565b61063b610473565b9061064b6106258360c0516103db565b93849061065661047d565b986106666106258b60c0516103db565b608052610671610487565b966106816106258960c0516103db565b9262ffffff831662ffffff8716149361069e62ffffff85166104af565b14976106b36106ad6064610466565b886104a5565b6106c66104af6101b76106ad6064610466565b1415918915610b03576106e26106da6104c8565b60c0516103db565b6106ea6104d2565b169c5b8a610ad7575b6107098b9e61070360e0516104f6565b90610509565b9a8b6107196103ec6100966104d2565b11610ac2575b155b80610aae575b610a7e575b5050841580610a6c575b610a3c576107579061074661057b565b61074e610585565b9160c05161134f565b80946109d85750956107ee9a98956108259561082e999561080f956107f49561085b9e9b5f1461099e57506107dc92506107916001610466565b935b61079c5f610466565b62ffffff821614159081610974575b501561096a5762ffffff60805162ffffff1610610949575b6107d46107ce610441565b9161052f565b9a8b9261132d565b916107ee6107e8610441565b9261052f565b9261132d565b6107fc610441565b61080760805161052f565b9b8c9261132d565b6108176104c8565b61081f6104d2565b9161132d565b9061081f610441565b906108376104ec565b901561093a5761084760016103f5565b905b61085360016103b3565b948592610541565b916108666005610466565b60805162ffffff16101580610912575b6108a1575b505060c0515b810361088b575090565b6100969061089c60a051606061038c565b610560565b6108d46108c46108ff9495936104616108e4946108be60056103b3565b90610529565b6108ce60fa6103b3565b90610516565b6108df6101f46103b3565b610509565b906107d0826108f56103ec836103b3565b1161090757500190565b905f8061087b565b6105d49192506103b3565b506109286109206005610466565b6080516105bb565b6109346104af5f610466565b14610876565b6109435f6103f5565b90610849565b6109626109566001610466565b6080510162ffffff1690565b6080526107c3565b6109626001610466565b61098991506109836001610466565b9061059f565b61099762ffffff83166104af565b145f6107ab565b62ffffff808216106109b6575b506107dc9293610793565b6107dc93506109d2906109c96001610466565b0162ffffff1690565b926109ab565b9450505094925050610a2597506109f795506107dc92506108176104c8565b90610a006104ec565b9015610a2d57610a1060016103f5565b905b6107ee610a1f60016103b3565b92610541565b60c051610881565b610a365f6103f5565b90610a12565b5050509492505050610a2596506109f794506107dc9150610a5b6104c8565b610a636104d2565b9060c05161132d565b50610a7760046103b3565b8910610736565b610aa3939f5061070391929d50610a99906108ce60056103b3565b6108be60026103b3565b9b60019a5f8061072c565b50610aba6101906103b3565b8b1015610727565b9a50610721610acf6104d2565b9b905061071f565b9950610ae46106da6104ec565b610aee60016103b3565b16610afc6103ec60016103b3565b14996106f3565b610b0c5f6103b3565b9c6106ed565b610b1f6100966100969290565b63ffffffff1690565b6100969060201c610b1f565b6100969054610b28565b905f91610b4a5f610b12565b63ffffffff8216148080610bda575b610bcd57610b676001610b34565b935015610bb25750906108ce610b7f610b85936104f6565b916104f6565b610b9263ffffffff6104f6565b8111610ba15761009690610b12565b6312577edd60e31b5f908152600490fd5b610b7f610bc8936108ce610b7f610703946104f6565b610b85565b505050506100965f610b12565b50610be45f610b12565b63ffffffff841614610b59565b61009690610b1f565b6100969054610bf1565b6100966109c4610b12565b6100969060d01c6101b7565b6100969054610c0f565b610096610708610b12565b610c459063ffffffff165b9163ffffffff1690565b90039063ffffffff821161043c57565b634e487b7160e01b5f52604160045260245ffd5b90601f01601f1916810190811067ffffffffffffffff821117610c8b57604052565b610c55565b906100b8610c9d60405190565b9283610c69565b67ffffffffffffffff8111610c8b5760200290565b610cc561009691610ca4565b610c90565b369037565b906100b8610ce5610cdf84610cb9565b93610ca4565b83610cca565b610096610100610ccf565b610d059063ffffffff16610c3b565b019063ffffffff821161043c57565b6102cf6100966100969263ffffffff1690565b610b1f906103f0610c3b6100969460ff1690565b634e487b7160e01b5f52603260045260245ffd5b90610100811015610d61576020020190565b610d3b565b6001610096910163ffffffff1690565b610d836100966100969290565b61ffff1690565b6100966100966100969261ffff1690565b909190610100831015610d61576008610db360049290565b8185040193060290565b610096916008021c610b1f565b906100969154610dbd565b91906008610556910291610dec63ffffffff841b90565b921b90565b610b1f6100966100969263ffffffff1690565b9190610e1561009661057793610df1565b908354610dd5565b6001610096910161ffff1690565b9063ffffffff90610556565b90610e4761009661057792610df1565b8254610e2b565b909291905f92610e5e6001610bfa565b9163ffffffff861663ffffffff8416101561113e57610e7c5f610b12565b63ffffffff8216036111395750610e91610c04565b93610e9b5f610b12565b63ffffffff8416149182611101575b610eb48488610c30565b63ffffffff811663ffffffff8816116110f9575b50610ed1610ceb565b96825b63ffffffff881663ffffffff821610156110165780610fa48a610faf61100b610a1f610fa4610f9a610f1f8f8f90610703610f156110119d610f1a94610cf6565b6104f6565b6113fd565b95610ffc610f2c88610d14565b97610fde610f4b610f46610f4060086103f5565b84610d27565b610d14565b610fba610f7b610f46610f6a610f46610f6460106103f5565b88610d27565b95610f7560186103f5565b90610d27565b9b610faf610fa9610a1f610fa4610f9a610f9486610541565b8c610d4f565b5163ffffffff1690565b610d66565b88610d4f565b9063ffffffff169052565b610faf610fd8610a1f610fa4610f9a610fd286610541565b8a610d4f565b86610d4f565b610faf610ff6610a1f610fa4610f9a610fa986610541565b84610d4f565b61100587610541565b90610d4f565b8d610d4f565b610ed4565b5091945091959294611026602090565b945b611033610100610d76565b61ffff821610156110c05780611051610f9a610fa961106d94610d8a565b61105a5f610b12565b63ffffffff821603611072575b50610e1d565b611028565b89156110925761108c90611086838a610d9b565b90610e04565b5f611067565b6110bb906110b56110a3848b610d9b565b9190926110b08385610dca565b610cf6565b91610e04565b61108c565b50919550936110db93506110d49250610cf6565b6001610e37565b6110f5610c3b6110eb6001610bfa565b9263ffffffff1690565b1490565b95505f610ec8565b945061110c5f610c1b565b6111196104af6001610466565b0361112c57611126610c25565b94610eaa565b611134610c04565b611126565b610e91565b509350505050600190565b9161115e90611158600a610466565b906105bb565b61116b6104af6008610466565b0361122f5761118361117e612710610d76565b610d8a565b61118c836104f6565b91611196816104f6565b936111a18585610509565b831115611220576111b4610c3b5f610b12565b146111ec5750906111e26111d2826108df610096966111e79661042f565b6111dc60016103b3565b9061042f565b610529565b610b12565b9091506111fb610c3b5f610b12565b1461121457816111e26111d2610096946111e794610509565b50506100966001610b12565b50505050506100966001610b12565b61118361117e611388610d76565b6100969060301c610159565b610096905461123d565b6101596100966100969290565b610096620142bc611253565b6112859065ffffffffffff165b9165ffffffffffff1690565b90039065ffffffffffff821161043c57565b6104b89065ffffffffffff16611279565b610b1f6100966100969265ffffffffffff1690565b6112c65f611249565b806112d36112795f611253565b146112e2575b610096906112a8565b506100966113156113036112f542611253565b6112fd611260565b9061126c565b61130f62015180611253565b90611297565b90506112d9565b610096906104166103ec6100969490565b61134b929061134361133f848461131c565b1990565b16931661131c565b1790565b929091906113678161136184876103db565b16610b12565b61137663ffffffff8516610c3b565b1461139c5761134b929361139061133f846113979461131c565b16936104f6565b61131c565b50505090565b610096906103b3565b6113b86100966100969290565b67ffffffffffffffff1690565b610096906103f06103ec6100969460ff1690565b610b1f6100966100969260ff1690565b610b1f90610416610c3b6100969460ff1690565b6114479061142f61140d60405190565b80926114236020830191826105d4816020939052565b90810382520382610c69565b61144161143a825190565b9160200190565b206113a2565b611458611453826113ab565b61155c565b61146260406103f5565b61147761145361147283866113c5565b6113ab565b17916115016114f76114f16114e76114e16114d16114cb61149860806103f5565b6114a8611453611472838c6113c5565b17976114c46114536114726114bd60c06103f5565b80946113c5565b17986113d9565b986113d9565b6114db60086103f5565b906113e9565b946113d9565b6114db60106103f5565b936113d9565b6114db60186103f5565b9217171790565b610b1f6100966100969267ffffffffffffffff1690565b6113b8906103f06115336100969460ff1690565b9167ffffffffffffffff1690565b6102cf906104166115556100969460ff1690565b9160ff1690565b61134b61158f61157461158a61157961157486611508565b6115b3565b9461158460206103f5565b9061151f565b611508565b9161159a60036103f5565b90611541565b6113b86100966100969263ffffffff1690565b61158a6115e56115cd6115ef936115c75f90565b506115a0565b6115d7604b6113ab565b0267ffffffffffffffff1690565b61158460206103f5565b6115f9600a610b12565b63ffffffff8216106116d05761160f6014610b12565b63ffffffff8216106116c557611625601e610b12565b63ffffffff8216106116ba5761163b6028610b12565b63ffffffff8216106116af576116516031610b12565b63ffffffff8216106116a457611667603a610b12565b63ffffffff82161061169957611680610c3b6043610b12565b1061168f5761009660076103f5565b61009660066103f5565b5061009660056103f5565b5061009660046103f5565b5061009660036103f5565b5061009660026103f5565b5061009660016103f5565b506100965f6103f556fea26469706673582212209344b16e270d4cee2254e046595c61c08a418363f37e29c0fc9baad898495b8364736f6c634300081e0033","linkReferences":{}},"methodIdentifiers":{"calculateAirdropMultiplier(uint32,uint32,uint24)":"f44b0c91","deployTimestamp()":"607ad0d7","gameState()":"d1f9c24d","level()":"6fd5ae15","purchaseTargetCountFromRaw(uint32,uint32)":"9c27d8af","rebuildTraitCounts(uint32,uint32,uint256)":"ae926f5b","recordMintData(address,uint24,uint32)":"105ea8e6"},"id":38}